{
  "contractName": "BananaToken",
  "abi": [
    {
      "inputs": [],
      "stateMutability": "nonpayable",
      "type": "constructor"
    },
    {
      "anonymous": false,
      "inputs": [
        {
          "indexed": true,
          "internalType": "address",
          "name": "owner",
          "type": "address"
        },
        {
          "indexed": true,
          "internalType": "address",
          "name": "spender",
          "type": "address"
        },
        {
          "indexed": false,
          "internalType": "uint256",
          "name": "value",
          "type": "uint256"
        }
      ],
      "name": "Approval",
      "type": "event"
    },
    {
      "anonymous": false,
      "inputs": [
        {
          "indexed": true,
          "internalType": "address",
          "name": "previousOwner",
          "type": "address"
        },
        {
          "indexed": true,
          "internalType": "address",
          "name": "newOwner",
          "type": "address"
        }
      ],
      "name": "OwnershipTransferred",
      "type": "event"
    },
    {
      "anonymous": false,
      "inputs": [
        {
          "indexed": true,
          "internalType": "address",
          "name": "from",
          "type": "address"
        },
        {
          "indexed": true,
          "internalType": "address",
          "name": "to",
          "type": "address"
        },
        {
          "indexed": false,
          "internalType": "uint256",
          "name": "value",
          "type": "uint256"
        }
      ],
      "name": "Transfer",
      "type": "event"
    },
    {
      "inputs": [
        {
          "internalType": "address",
          "name": "owner",
          "type": "address"
        },
        {
          "internalType": "address",
          "name": "spender",
          "type": "address"
        }
      ],
      "name": "allowance",
      "outputs": [
        {
          "internalType": "uint256",
          "name": "",
          "type": "uint256"
        }
      ],
      "stateMutability": "view",
      "type": "function",
      "constant": true
    },
    {
      "inputs": [
        {
          "internalType": "address",
          "name": "spender",
          "type": "address"
        },
        {
          "internalType": "uint256",
          "name": "amount",
          "type": "uint256"
        }
      ],
      "name": "approve",
      "outputs": [
        {
          "internalType": "bool",
          "name": "",
          "type": "bool"
        }
      ],
      "stateMutability": "nonpayable",
      "type": "function"
    },
    {
      "inputs": [
        {
          "internalType": "address",
          "name": "account",
          "type": "address"
        }
      ],
      "name": "balanceOf",
      "outputs": [
        {
          "internalType": "uint256",
          "name": "",
          "type": "uint256"
        }
      ],
      "stateMutability": "view",
      "type": "function",
      "constant": true
    },
    {
      "inputs": [],
      "name": "decimals",
      "outputs": [
        {
          "internalType": "uint8",
          "name": "",
          "type": "uint8"
        }
      ],
      "stateMutability": "view",
      "type": "function",
      "constant": true
    },
    {
      "inputs": [
        {
          "internalType": "address",
          "name": "spender",
          "type": "address"
        },
        {
          "internalType": "uint256",
          "name": "subtractedValue",
          "type": "uint256"
        }
      ],
      "name": "decreaseAllowance",
      "outputs": [
        {
          "internalType": "bool",
          "name": "",
          "type": "bool"
        }
      ],
      "stateMutability": "nonpayable",
      "type": "function"
    },
    {
      "inputs": [
        {
          "internalType": "address",
          "name": "spender",
          "type": "address"
        },
        {
          "internalType": "uint256",
          "name": "addedValue",
          "type": "uint256"
        }
      ],
      "name": "increaseAllowance",
      "outputs": [
        {
          "internalType": "bool",
          "name": "",
          "type": "bool"
        }
      ],
      "stateMutability": "nonpayable",
      "type": "function"
    },
    {
      "inputs": [],
      "name": "name",
      "outputs": [
        {
          "internalType": "string",
          "name": "",
          "type": "string"
        }
      ],
      "stateMutability": "view",
      "type": "function",
      "constant": true
    },
    {
      "inputs": [],
      "name": "owner",
      "outputs": [
        {
          "internalType": "address",
          "name": "",
          "type": "address"
        }
      ],
      "stateMutability": "view",
      "type": "function",
      "constant": true
    },
    {
      "inputs": [],
      "name": "renounceOwnership",
      "outputs": [],
      "stateMutability": "nonpayable",
      "type": "function"
    },
    {
      "inputs": [],
      "name": "symbol",
      "outputs": [
        {
          "internalType": "string",
          "name": "",
          "type": "string"
        }
      ],
      "stateMutability": "view",
      "type": "function",
      "constant": true
    },
    {
      "inputs": [],
      "name": "totalSupply",
      "outputs": [
        {
          "internalType": "uint256",
          "name": "",
          "type": "uint256"
        }
      ],
      "stateMutability": "view",
      "type": "function",
      "constant": true
    },
    {
      "inputs": [
        {
          "internalType": "address",
          "name": "recipient",
          "type": "address"
        },
        {
          "internalType": "uint256",
          "name": "amount",
          "type": "uint256"
        }
      ],
      "name": "transfer",
      "outputs": [
        {
          "internalType": "bool",
          "name": "",
          "type": "bool"
        }
      ],
      "stateMutability": "nonpayable",
      "type": "function"
    },
    {
      "inputs": [
        {
          "internalType": "address",
          "name": "sender",
          "type": "address"
        },
        {
          "internalType": "address",
          "name": "recipient",
          "type": "address"
        },
        {
          "internalType": "uint256",
          "name": "amount",
          "type": "uint256"
        }
      ],
      "name": "transferFrom",
      "outputs": [
        {
          "internalType": "bool",
          "name": "",
          "type": "bool"
        }
      ],
      "stateMutability": "nonpayable",
      "type": "function"
    },
    {
      "inputs": [
        {
          "internalType": "address",
          "name": "newOwner",
          "type": "address"
        }
      ],
      "name": "transferOwnership",
      "outputs": [],
      "stateMutability": "nonpayable",
      "type": "function"
    },
    {
      "inputs": [],
      "name": "getBananas",
      "outputs": [],
      "stateMutability": "nonpayable",
      "type": "function"
    }
  ],
  "bytecode": "0x60806040523480156200001157600080fd5b50604080518082018252600b81526a2130b730b730aa37b5b2b760a91b60208083019182528351808501909452600684526542414e414e4160d01b9084015281519192916200006391600391620000f2565b50805162000079906004906020840190620000f2565b50505062000096620000906200009c60201b60201c565b620000a0565b620001d5565b3390565b600580546001600160a01b038381166001600160a01b0319831681179093556040519116919082907f8be0079c531659141344cd1fd0a4f28419497f9722a3daafe3b4186f6b6457e090600090a35050565b828054620001009062000198565b90600052602060002090601f0160209004810192826200012457600085556200016f565b82601f106200013f57805160ff19168380011785556200016f565b828001600101855582156200016f579182015b828111156200016f57825182559160200191906001019062000152565b506200017d92915062000181565b5090565b5b808211156200017d576000815560010162000182565b600281046001821680620001ad57607f821691505b60208210811415620001cf57634e487b7160e01b600052602260045260246000fd5b50919050565b610dfd80620001e56000396000f3fe608060405234801561001057600080fd5b50600436106100f55760003560e01c8063715018a611610097578063a9059cbb11610066578063a9059cbb146101d5578063d053407b146101e8578063dd62ed3e146101f0578063f2fde38b14610203576100f5565b8063715018a61461019b5780638da5cb5b146101a557806395d89b41146101ba578063a457c2d7146101c2576100f5565b806323b872dd116100d357806323b872dd1461014d578063313ce56714610160578063395093511461017557806370a0823114610188576100f5565b806306fdde03146100fa578063095ea7b31461011857806318160ddd14610138575b600080fd5b610102610216565b60405161010f9190610a25565b60405180910390f35b61012b6101263660046109dd565b6102a8565b60405161010f9190610a1a565b6101406102c5565b60405161010f9190610d51565b61012b61015b3660046109a2565b6102cb565b610168610364565b60405161010f9190610d5a565b61012b6101833660046109dd565b610369565b61014061019636600461094f565b6103bd565b6101a36103dc565b005b6101ad610427565b60405161010f9190610a06565b610102610436565b61012b6101d03660046109dd565b610445565b61012b6101e33660046109dd565b6104be565b6101a36104d2565b6101406101fe366004610970565b61059f565b6101a361021136600461094f565b6105ca565b60606003805461022590610d8c565b80601f016020809104026020016040519081016040528092919081815260200182805461025190610d8c565b801561029e5780601f106102735761010080835404028352916020019161029e565b820191906000526020600020905b81548152906001019060200180831161028157829003601f168201915b5050505050905090565b60006102bc6102b561063b565b848461063f565b50600192915050565b60025490565b60006102d88484846106f3565b6001600160a01b0384166000908152600160205260408120816102f961063b565b6001600160a01b03166001600160a01b03168152602001908152602001600020549050828110156103455760405162461bcd60e51b815260040161033c90610bcf565b60405180910390fd5b6103598561035161063b565b85840361063f565b506001949350505050565b601290565b60006102bc61037661063b565b84846001600061038461063b565b6001600160a01b03908116825260208083019390935260409182016000908120918b16815292529020546103b89190610d68565b61063f565b6001600160a01b0381166000908152602081905260409020545b919050565b6103e461063b565b6001600160a01b03166103f5610427565b6001600160a01b03161461041b5760405162461bcd60e51b815260040161033c90610c17565b610425600061081d565b565b6005546001600160a01b031690565b60606004805461022590610d8c565b6000806001600061045461063b565b6001600160a01b03908116825260208083019390935260409182016000908120918816815292529020549050828110156104a05760405162461bcd60e51b815260040161033c90610cd5565b6104b46104ab61063b565b8585840361063f565b5060019392505050565b60006102bc6104cb61063b565b84846106f3565b600660006104de61063b565b6001600160a01b0316815260208101919091526040016000205460ff16156105185760405162461bcd60e51b815260040161033c90610abb565b6103e860006105256102c5565b905060016006600061053561063b565b6001600160a01b031681526020810191909152604001600020805460ff191691151591909117905561056e61056861063b565b8361086f565b6105788282610d68565b6105806102c5565b1461059b57634e487b7160e01b600052600160045260246000fd5b5050565b6001600160a01b03918216600090815260016020908152604080832093909416825291909152205490565b6105d261063b565b6001600160a01b03166105e3610427565b6001600160a01b0316146106095760405162461bcd60e51b815260040161033c90610c17565b6001600160a01b03811661062f5760405162461bcd60e51b815260040161033c90610b01565b6106388161081d565b50565b3390565b6001600160a01b0383166106655760405162461bcd60e51b815260040161033c90610c91565b6001600160a01b03821661068b5760405162461bcd60e51b815260040161033c90610b47565b6001600160a01b0380841660008181526001602090815260408083209487168084529490915290819020849055517f8c5be1e5ebec7d5bd14f71427d1e84f3dd0314c0f7b2291e5b200ac8c7c3b925906106e6908590610d51565b60405180910390a3505050565b6001600160a01b0383166107195760405162461bcd60e51b815260040161033c90610c4c565b6001600160a01b03821661073f5760405162461bcd60e51b815260040161033c90610a78565b61074a838383610933565b6001600160a01b038316600090815260208190526040902054818110156107835760405162461bcd60e51b815260040161033c90610b89565b6001600160a01b038085166000908152602081905260408082208585039055918516815290812080548492906107ba908490610d68565b92505081905550826001600160a01b0316846001600160a01b03167fddf252ad1be2c89b69c2b068fc378daa952ba7f163c4a11628f55a4df523b3ef846040516108049190610d51565b60405180910390a3610817848484610933565b50505050565b600580546001600160a01b038381166001600160a01b0319831681179093556040519116919082907f8be0079c531659141344cd1fd0a4f28419497f9722a3daafe3b4186f6b6457e090600090a35050565b6001600160a01b0382166108955760405162461bcd60e51b815260040161033c90610d1a565b6108a160008383610933565b80600260008282546108b39190610d68565b90915550506001600160a01b038216600090815260208190526040812080548392906108e0908490610d68565b90915550506040516001600160a01b038316906000907fddf252ad1be2c89b69c2b068fc378daa952ba7f163c4a11628f55a4df523b3ef90610923908590610d51565b60405180910390a361059b600083835b505050565b80356001600160a01b03811681146103d757600080fd5b600060208284031215610960578081fd5b61096982610938565b9392505050565b60008060408385031215610982578081fd5b61098b83610938565b915061099960208401610938565b90509250929050565b6000806000606084860312156109b6578081fd5b6109bf84610938565b92506109cd60208501610938565b9150604084013590509250925092565b600080604083850312156109ef578182fd5b6109f883610938565b946020939093013593505050565b6001600160a01b0391909116815260200190565b901515815260200190565b6000602080835283518082850152825b81811015610a5157858101830151858201604001528201610a35565b81811115610a625783604083870101525b50601f01601f1916929092016040019392505050565b60208082526023908201527f45524332303a207472616e7366657220746f20746865207a65726f206164647260408201526265737360e81b606082015260800190565b60208082526026908201527f596f7520616c726561647920636c61696d656420796f757220667265652042616040820152653730b730b99760d11b606082015260800190565b60208082526026908201527f4f776e61626c653a206e6577206f776e657220697320746865207a65726f206160408201526564647265737360d01b606082015260800190565b60208082526022908201527f45524332303a20617070726f766520746f20746865207a65726f206164647265604082015261737360f01b606082015260800190565b60208082526026908201527f45524332303a207472616e7366657220616d6f756e7420657863656564732062604082015265616c616e636560d01b606082015260800190565b60208082526028908201527f45524332303a207472616e7366657220616d6f756e74206578636565647320616040820152676c6c6f77616e636560c01b606082015260800190565b6020808252818101527f4f776e61626c653a2063616c6c6572206973206e6f7420746865206f776e6572604082015260600190565b60208082526025908201527f45524332303a207472616e736665722066726f6d20746865207a65726f206164604082015264647265737360d81b606082015260800190565b60208082526024908201527f45524332303a20617070726f76652066726f6d20746865207a65726f206164646040820152637265737360e01b606082015260800190565b60208082526025908201527f45524332303a2064656372656173656420616c6c6f77616e63652062656c6f77604082015264207a65726f60d81b606082015260800190565b6020808252601f908201527f45524332303a206d696e7420746f20746865207a65726f206164647265737300604082015260600190565b90815260200190565b60ff91909116815260200190565b60008219821115610d8757634e487b7160e01b81526011600452602481fd5b500190565b600281046001821680610da057607f821691505b60208210811415610dc157634e487b7160e01b600052602260045260246000fd5b5091905056fea2646970667358221220ef0b9684bdaa92a721dbe95fd306f5eb275c879c7de302d773b1fd019f531f8e64736f6c63430008000033",
  "immutableReferences": {},
  "source": "// SPDX-License-Identifier: UNLICENSED\r\npragma solidity ^0.8.0;\r\n\r\nimport \"@openzeppelin/contracts/token/ERC20/ERC20.sol\";\r\nimport \"@openzeppelin/contracts/access/Ownable.sol\";\r\n\r\ncontract BananaToken is ERC20, Ownable{\r\n    // mapping that stores whether an address has already claimed their free tokens\r\n    mapping(address => bool) hasClaimedTokens;\r\n\r\n    constructor() ERC20(\"BananaToken\", \"BANANA\"){\r\n    }\r\n\r\n    // claim tokens by minting to _msgSender(), limited to 1000 tokens per address, one time use\r\n    function getBananas() public{\r\n        // requiring that address has not claimed free tokens yet\r\n        require(hasClaimedTokens[_msgSender()] == false, \"You already claimed your free Bananas.\");\r\n        // claim limit\r\n        uint256 _claimAmount = 1000;\r\n        uint256 _oldTotalSupply = totalSupply();\r\n        // update mapping\r\n        hasClaimedTokens[_msgSender()] = true;\r\n        // mint tokens, receiver, amount\r\n        _mint(_msgSender(), _claimAmount);\r\n        // to validate that totalSupply is updated properly\r\n        assert(totalSupply() == _oldTotalSupply + _claimAmount);\r\n    }\r\n}",
  "sourcePath": "C:\\code\\github\\CryptoMonkeys\\contracts\\BananaToken.sol",
  "compiler": {
    "name": "solc",
    "version": "0.8.0+commit.c7dfd78e.Emscripten.clang"
  },
  "schemaVersion": "3.4.4",
  "updatedAt": "2022-02-03T20:26:11.099Z",
  "networkType": "ethereum",
  "devdoc": {
    "kind": "dev",
    "methods": {
      "allowance(address,address)": {
        "details": "See {IERC20-allowance}."
      },
      "approve(address,uint256)": {
        "details": "See {IERC20-approve}. Requirements: - `spender` cannot be the zero address."
      },
      "balanceOf(address)": {
        "details": "See {IERC20-balanceOf}."
      },
      "decimals()": {
        "details": "Returns the number of decimals used to get its user representation. For example, if `decimals` equals `2`, a balance of `505` tokens should be displayed to a user as `5.05` (`505 / 10 ** 2`). Tokens usually opt for a value of 18, imitating the relationship between Ether and Wei. This is the value {ERC20} uses, unless this function is overridden; NOTE: This information is only used for _display_ purposes: it in no way affects any of the arithmetic of the contract, including {IERC20-balanceOf} and {IERC20-transfer}."
      },
      "decreaseAllowance(address,uint256)": {
        "details": "Atomically decreases the allowance granted to `spender` by the caller. This is an alternative to {approve} that can be used as a mitigation for problems described in {IERC20-approve}. Emits an {Approval} event indicating the updated allowance. Requirements: - `spender` cannot be the zero address. - `spender` must have allowance for the caller of at least `subtractedValue`."
      },
      "increaseAllowance(address,uint256)": {
        "details": "Atomically increases the allowance granted to `spender` by the caller. This is an alternative to {approve} that can be used as a mitigation for problems described in {IERC20-approve}. Emits an {Approval} event indicating the updated allowance. Requirements: - `spender` cannot be the zero address."
      },
      "name()": {
        "details": "Returns the name of the token."
      },
      "owner()": {
        "details": "Returns the address of the current owner."
      },
      "renounceOwnership()": {
        "details": "Leaves the contract without owner. It will not be possible to call `onlyOwner` functions anymore. Can only be called by the current owner. NOTE: Renouncing ownership will leave the contract without an owner, thereby removing any functionality that is only available to the owner."
      },
      "symbol()": {
        "details": "Returns the symbol of the token, usually a shorter version of the name."
      },
      "totalSupply()": {
        "details": "See {IERC20-totalSupply}."
      },
      "transfer(address,uint256)": {
        "details": "See {IERC20-transfer}. Requirements: - `recipient` cannot be the zero address. - the caller must have a balance of at least `amount`."
      },
      "transferFrom(address,address,uint256)": {
        "details": "See {IERC20-transferFrom}. Emits an {Approval} event indicating the updated allowance. This is not required by the EIP. See the note at the beginning of {ERC20}. Requirements: - `sender` and `recipient` cannot be the zero address. - `sender` must have a balance of at least `amount`. - the caller must have allowance for ``sender``'s tokens of at least `amount`."
      },
      "transferOwnership(address)": {
        "details": "Transfers ownership of the contract to a new account (`newOwner`). Can only be called by the current owner."
      }
    },
    "version": 1
  },
  "userdoc": {
    "kind": "user",
    "methods": {},
    "version": 1
  }
}