{
  "contractName": "MonkeyContract",
  "abi": [
    {
      "inputs": [
        {
          "internalType": "address",
          "name": "_bananaToken",
          "type": "address"
        }
      ],
      "stateMutability": "nonpayable",
      "type": "constructor"
    },
    {
      "anonymous": false,
      "inputs": [
        {
          "indexed": true,
          "internalType": "address",
          "name": "owner",
          "type": "address"
        },
        {
          "indexed": true,
          "internalType": "address",
          "name": "approved",
          "type": "address"
        },
        {
          "indexed": true,
          "internalType": "uint256",
          "name": "tokenId",
          "type": "uint256"
        }
      ],
      "name": "Approval",
      "type": "event"
    },
    {
      "anonymous": false,
      "inputs": [
        {
          "indexed": true,
          "internalType": "address",
          "name": "owner",
          "type": "address"
        },
        {
          "indexed": true,
          "internalType": "address",
          "name": "operator",
          "type": "address"
        },
        {
          "indexed": false,
          "internalType": "bool",
          "name": "approved",
          "type": "bool"
        }
      ],
      "name": "ApprovalForAll",
      "type": "event"
    },
    {
      "anonymous": false,
      "inputs": [
        {
          "indexed": false,
          "internalType": "uint256",
          "name": "tokenId",
          "type": "uint256"
        },
        {
          "indexed": false,
          "internalType": "uint256",
          "name": "genes",
          "type": "uint256"
        },
        {
          "indexed": false,
          "internalType": "uint256",
          "name": "birthtime",
          "type": "uint256"
        },
        {
          "indexed": false,
          "internalType": "uint256",
          "name": "parent1Id",
          "type": "uint256"
        },
        {
          "indexed": false,
          "internalType": "uint256",
          "name": "parent2Id",
          "type": "uint256"
        },
        {
          "indexed": false,
          "internalType": "uint256",
          "name": "generation",
          "type": "uint256"
        },
        {
          "indexed": false,
          "internalType": "address",
          "name": "owner",
          "type": "address"
        }
      ],
      "name": "BreedingSuccessful",
      "type": "event"
    },
    {
      "anonymous": false,
      "inputs": [
        {
          "indexed": false,
          "internalType": "address",
          "name": "owner",
          "type": "address"
        },
        {
          "indexed": false,
          "internalType": "uint256",
          "name": "tokenId",
          "type": "uint256"
        },
        {
          "indexed": false,
          "internalType": "uint256",
          "name": "parent1Id",
          "type": "uint256"
        },
        {
          "indexed": false,
          "internalType": "uint256",
          "name": "parent2Id",
          "type": "uint256"
        },
        {
          "indexed": false,
          "internalType": "uint256",
          "name": "genes",
          "type": "uint256"
        }
      ],
      "name": "MonkeyCreated",
      "type": "event"
    },
    {
      "anonymous": false,
      "inputs": [
        {
          "indexed": true,
          "internalType": "address",
          "name": "previousOwner",
          "type": "address"
        },
        {
          "indexed": true,
          "internalType": "address",
          "name": "newOwner",
          "type": "address"
        }
      ],
      "name": "OwnershipTransferred",
      "type": "event"
    },
    {
      "anonymous": false,
      "inputs": [
        {
          "indexed": false,
          "internalType": "address",
          "name": "account",
          "type": "address"
        }
      ],
      "name": "Paused",
      "type": "event"
    },
    {
      "anonymous": false,
      "inputs": [
        {
          "indexed": true,
          "internalType": "address",
          "name": "from",
          "type": "address"
        },
        {
          "indexed": true,
          "internalType": "address",
          "name": "to",
          "type": "address"
        },
        {
          "indexed": true,
          "internalType": "uint256",
          "name": "tokenId",
          "type": "uint256"
        }
      ],
      "name": "Transfer",
      "type": "event"
    },
    {
      "anonymous": false,
      "inputs": [
        {
          "indexed": false,
          "internalType": "address",
          "name": "account",
          "type": "address"
        }
      ],
      "name": "Unpaused",
      "type": "event"
    },
    {
      "inputs": [],
      "name": "GEN0_Limit",
      "outputs": [
        {
          "internalType": "uint256",
          "name": "",
          "type": "uint256"
        }
      ],
      "stateMutability": "view",
      "type": "function",
      "constant": true
    },
    {
      "inputs": [
        {
          "internalType": "uint256",
          "name": "",
          "type": "uint256"
        }
      ],
      "name": "allMonkeysArray",
      "outputs": [
        {
          "internalType": "uint256",
          "name": "parent1Id",
          "type": "uint256"
        },
        {
          "internalType": "uint256",
          "name": "parent2Id",
          "type": "uint256"
        },
        {
          "internalType": "uint256",
          "name": "generation",
          "type": "uint256"
        },
        {
          "internalType": "uint256",
          "name": "genes",
          "type": "uint256"
        },
        {
          "internalType": "uint256",
          "name": "birthtime",
          "type": "uint256"
        }
      ],
      "stateMutability": "view",
      "type": "function",
      "constant": true
    },
    {
      "inputs": [
        {
          "internalType": "address",
          "name": "to",
          "type": "address"
        },
        {
          "internalType": "uint256",
          "name": "tokenId",
          "type": "uint256"
        }
      ],
      "name": "approve",
      "outputs": [],
      "stateMutability": "nonpayable",
      "type": "function"
    },
    {
      "inputs": [
        {
          "internalType": "address",
          "name": "owner",
          "type": "address"
        }
      ],
      "name": "balanceOf",
      "outputs": [
        {
          "internalType": "uint256",
          "name": "",
          "type": "uint256"
        }
      ],
      "stateMutability": "view",
      "type": "function",
      "constant": true
    },
    {
      "inputs": [],
      "name": "bananaToken",
      "outputs": [
        {
          "internalType": "contract IERC20",
          "name": "",
          "type": "address"
        }
      ],
      "stateMutability": "view",
      "type": "function",
      "constant": true
    },
    {
      "inputs": [],
      "name": "gen0amountTotal",
      "outputs": [
        {
          "internalType": "uint256",
          "name": "",
          "type": "uint256"
        }
      ],
      "stateMutability": "view",
      "type": "function",
      "constant": true
    },
    {
      "inputs": [
        {
          "internalType": "uint256",
          "name": "tokenId",
          "type": "uint256"
        }
      ],
      "name": "getApproved",
      "outputs": [
        {
          "internalType": "address",
          "name": "",
          "type": "address"
        }
      ],
      "stateMutability": "view",
      "type": "function",
      "constant": true
    },
    {
      "inputs": [
        {
          "internalType": "address",
          "name": "owner",
          "type": "address"
        },
        {
          "internalType": "address",
          "name": "operator",
          "type": "address"
        }
      ],
      "name": "isApprovedForAll",
      "outputs": [
        {
          "internalType": "bool",
          "name": "",
          "type": "bool"
        }
      ],
      "stateMutability": "view",
      "type": "function",
      "constant": true
    },
    {
      "inputs": [],
      "name": "name",
      "outputs": [
        {
          "internalType": "string",
          "name": "",
          "type": "string"
        }
      ],
      "stateMutability": "view",
      "type": "function",
      "constant": true
    },
    {
      "inputs": [],
      "name": "owner",
      "outputs": [
        {
          "internalType": "address",
          "name": "",
          "type": "address"
        }
      ],
      "stateMutability": "view",
      "type": "function",
      "constant": true
    },
    {
      "inputs": [
        {
          "internalType": "uint256",
          "name": "tokenId",
          "type": "uint256"
        }
      ],
      "name": "ownerOf",
      "outputs": [
        {
          "internalType": "address",
          "name": "",
          "type": "address"
        }
      ],
      "stateMutability": "view",
      "type": "function",
      "constant": true
    },
    {
      "inputs": [],
      "name": "paused",
      "outputs": [
        {
          "internalType": "bool",
          "name": "",
          "type": "bool"
        }
      ],
      "stateMutability": "view",
      "type": "function",
      "constant": true
    },
    {
      "inputs": [],
      "name": "renounceOwnership",
      "outputs": [],
      "stateMutability": "nonpayable",
      "type": "function"
    },
    {
      "inputs": [
        {
          "internalType": "address",
          "name": "operator",
          "type": "address"
        },
        {
          "internalType": "bool",
          "name": "approved",
          "type": "bool"
        }
      ],
      "name": "setApprovalForAll",
      "outputs": [],
      "stateMutability": "nonpayable",
      "type": "function"
    },
    {
      "inputs": [
        {
          "internalType": "bytes4",
          "name": "interfaceId",
          "type": "bytes4"
        }
      ],
      "name": "supportsInterface",
      "outputs": [
        {
          "internalType": "bool",
          "name": "",
          "type": "bool"
        }
      ],
      "stateMutability": "view",
      "type": "function",
      "constant": true
    },
    {
      "inputs": [],
      "name": "symbol",
      "outputs": [
        {
          "internalType": "string",
          "name": "",
          "type": "string"
        }
      ],
      "stateMutability": "view",
      "type": "function",
      "constant": true
    },
    {
      "inputs": [
        {
          "internalType": "uint256",
          "name": "index",
          "type": "uint256"
        }
      ],
      "name": "tokenByIndex",
      "outputs": [
        {
          "internalType": "uint256",
          "name": "",
          "type": "uint256"
        }
      ],
      "stateMutability": "view",
      "type": "function",
      "constant": true
    },
    {
      "inputs": [
        {
          "internalType": "address",
          "name": "owner",
          "type": "address"
        },
        {
          "internalType": "uint256",
          "name": "index",
          "type": "uint256"
        }
      ],
      "name": "tokenOfOwnerByIndex",
      "outputs": [
        {
          "internalType": "uint256",
          "name": "",
          "type": "uint256"
        }
      ],
      "stateMutability": "view",
      "type": "function",
      "constant": true
    },
    {
      "inputs": [
        {
          "internalType": "uint256",
          "name": "tokenId",
          "type": "uint256"
        }
      ],
      "name": "tokenURI",
      "outputs": [
        {
          "internalType": "string",
          "name": "",
          "type": "string"
        }
      ],
      "stateMutability": "view",
      "type": "function",
      "constant": true
    },
    {
      "inputs": [],
      "name": "totalSupply",
      "outputs": [
        {
          "internalType": "uint256",
          "name": "",
          "type": "uint256"
        }
      ],
      "stateMutability": "view",
      "type": "function",
      "constant": true
    },
    {
      "inputs": [
        {
          "internalType": "address",
          "name": "newOwner",
          "type": "address"
        }
      ],
      "name": "transferOwnership",
      "outputs": [],
      "stateMutability": "nonpayable",
      "type": "function"
    },
    {
      "inputs": [
        {
          "internalType": "address",
          "name": "_receivedMarketContractAddress",
          "type": "address"
        },
        {
          "internalType": "bool",
          "name": "setConnectMarket",
          "type": "bool"
        }
      ],
      "name": "connectMarket",
      "outputs": [],
      "stateMutability": "nonpayable",
      "type": "function"
    },
    {
      "inputs": [],
      "name": "checkMarketConnected",
      "outputs": [
        {
          "internalType": "address",
          "name": "marketAddressSaved",
          "type": "address"
        },
        {
          "internalType": "bool",
          "name": "isMarketConnected",
          "type": "bool"
        }
      ],
      "stateMutability": "view",
      "type": "function",
      "constant": true
    },
    {
      "inputs": [],
      "name": "pause",
      "outputs": [],
      "stateMutability": "nonpayable",
      "type": "function"
    },
    {
      "inputs": [],
      "name": "unpause",
      "outputs": [],
      "stateMutability": "nonpayable",
      "type": "function"
    },
    {
      "inputs": [],
      "name": "getMonkeyContractAddress",
      "outputs": [
        {
          "internalType": "address",
          "name": "",
          "type": "address"
        }
      ],
      "stateMutability": "view",
      "type": "function",
      "constant": true
    },
    {
      "inputs": [
        {
          "internalType": "uint256",
          "name": "tokenId",
          "type": "uint256"
        }
      ],
      "name": "getMonkeyDetails",
      "outputs": [
        {
          "internalType": "uint256",
          "name": "genes",
          "type": "uint256"
        },
        {
          "internalType": "uint256",
          "name": "birthtime",
          "type": "uint256"
        },
        {
          "internalType": "uint256",
          "name": "parent1Id",
          "type": "uint256"
        },
        {
          "internalType": "uint256",
          "name": "parent2Id",
          "type": "uint256"
        },
        {
          "internalType": "uint256",
          "name": "generation",
          "type": "uint256"
        },
        {
          "internalType": "address",
          "name": "owner",
          "type": "address"
        },
        {
          "internalType": "address",
          "name": "approvedAddress",
          "type": "address"
        }
      ],
      "stateMutability": "view",
      "type": "function",
      "constant": true
    },
    {
      "inputs": [
        {
          "internalType": "address",
          "name": "owner",
          "type": "address"
        }
      ],
      "name": "findMonkeyIdsOfAddress",
      "outputs": [
        {
          "internalType": "uint256[]",
          "name": "",
          "type": "uint256[]"
        }
      ],
      "stateMutability": "view",
      "type": "function",
      "constant": true
    },
    {
      "inputs": [
        {
          "internalType": "uint256",
          "name": "_genes",
          "type": "uint256"
        }
      ],
      "name": "createGen0Monkey",
      "outputs": [],
      "stateMutability": "nonpayable",
      "type": "function"
    },
    {
      "inputs": [
        {
          "internalType": "uint256",
          "name": "_genes",
          "type": "uint256"
        },
        {
          "internalType": "address",
          "name": "_owner",
          "type": "address"
        }
      ],
      "name": "createDemoMonkey",
      "outputs": [
        {
          "internalType": "uint256",
          "name": "",
          "type": "uint256"
        }
      ],
      "stateMutability": "nonpayable",
      "type": "function"
    },
    {
      "inputs": [
        {
          "internalType": "address",
          "name": "_from",
          "type": "address"
        },
        {
          "internalType": "address",
          "name": "_to",
          "type": "address"
        },
        {
          "internalType": "uint256",
          "name": "_tokenId",
          "type": "uint256"
        }
      ],
      "name": "transferNFT",
      "outputs": [],
      "stateMutability": "nonpayable",
      "type": "function"
    },
    {
      "inputs": [
        {
          "internalType": "uint256",
          "name": "_parent1Id",
          "type": "uint256"
        },
        {
          "internalType": "uint256",
          "name": "_parent2Id",
          "type": "uint256"
        }
      ],
      "name": "breed",
      "outputs": [
        {
          "internalType": "uint256",
          "name": "",
          "type": "uint256"
        }
      ],
      "stateMutability": "nonpayable",
      "type": "function"
    },
    {
      "inputs": [
        {
          "internalType": "address",
          "name": "from",
          "type": "address"
        },
        {
          "internalType": "address",
          "name": "to",
          "type": "address"
        },
        {
          "internalType": "uint256",
          "name": "tokenId",
          "type": "uint256"
        }
      ],
      "name": "transferFrom",
      "outputs": [],
      "stateMutability": "nonpayable",
      "type": "function"
    },
    {
      "inputs": [
        {
          "internalType": "address",
          "name": "from",
          "type": "address"
        },
        {
          "internalType": "address",
          "name": "to",
          "type": "address"
        },
        {
          "internalType": "uint256",
          "name": "tokenId",
          "type": "uint256"
        }
      ],
      "name": "safeTransferFrom",
      "outputs": [],
      "stateMutability": "nonpayable",
      "type": "function"
    },
    {
      "inputs": [
        {
          "internalType": "address",
          "name": "from",
          "type": "address"
        },
        {
          "internalType": "address",
          "name": "to",
          "type": "address"
        },
        {
          "internalType": "uint256",
          "name": "tokenId",
          "type": "uint256"
        },
        {
          "internalType": "bytes",
          "name": "_data",
          "type": "bytes"
        }
      ],
      "name": "safeTransferFrom",
      "outputs": [],
      "stateMutability": "nonpayable",
      "type": "function"
    },
    {
      "inputs": [],
      "name": "withdrawETH",
      "outputs": [],
      "stateMutability": "nonpayable",
      "type": "function"
    },
    {
      "inputs": [
        {
          "internalType": "address",
          "name": "ERC20ContractAddress",
          "type": "address"
        }
      ],
      "name": "withdrawERC20",
      "outputs": [],
      "stateMutability": "payable",
      "type": "function",
      "payable": true
    },
    {
      "inputs": [],
      "name": "withdrawBananas",
      "outputs": [],
      "stateMutability": "nonpayable",
      "type": "function"
    }
  ],
  "bytecode": "0x6080604052600c600d55600f805460ff60a01b1916905560326011553480156200002857600080fd5b5060405162004e7c38038062004e7c8339810160408190526200004b9162000cc0565b604080518082018252600e81526d43727970746f204d6f6e6b65797360901b6020808301918252835180850190945260068452654d4f4e4b455960d01b9084015281519192916200009f9160009162000c1a565b508051620000b590600190602084019062000c1a565b505050620000d2620000cc6200013c60201b60201c565b62000140565b6001600b55600c8054601080546001600160a01b0319166001600160a01b0385161790556001600160a81b031916610100300217905562000128600080806604503ef1932497620001226200013c565b62000192565b506200013560006200033e565b50620010ff565b3390565b600a80546001600160a01b038381166001600160a01b0319831681179093556040519116919082907f8be0079c531659141344cd1fd0a4f28419497f9722a3daafe3b4186f6b6457e090600090a35050565b60006200019e620003df565b15620001c75760405162461bcd60e51b8152600401620001be9062000f02565b60405180910390fd5b6040805160a08101825287815260208082018881529282018781526060830187815242608085019081526012805460018082018355600083815288517fbb8a6a4669ba250d26cd7a459eca9d215f8307e33aebe50379bc5a3617ec344460059094029384015598517fbb8a6a4669ba250d26cd7a459eca9d215f8307e33aebe50379bc5a3617ec344583015594517fbb8a6a4669ba250d26cd7a459eca9d215f8307e33aebe50379bc5a3617ec344682015592517fbb8a6a4669ba250d26cd7a459eca9d215f8307e33aebe50379bc5a3617ec344784015590517fbb8a6a4669ba250d26cd7a459eca9d215f8307e33aebe50379bc5a3617ec34489092019190915554929392620002e492909190620003e8811b62001fe817901c565b9050620002f28482620003fd565b7f0b1e9a74eeaae184646d7a35062426460c8c9364005c6d441cce036dd9c655d584828a8a896040516200032b95949392919062000d8c565b60405180910390a1979650505050505050565b6002600b541415620003645760405162461bcd60e51b8152600401620001be9062001040565b6002600b5562000373620003df565b15620003935760405162461bcd60e51b8152600401620001be9062000f02565b620003a8620003a16200013c565b8262000423565b1515600114620003cc5760405162461bcd60e51b8152600401620001be9062000dba565b620003d781620004c0565b506001600b55565b600c5460ff1690565b6000620003f6828462001092565b9392505050565b6200041f8282604051806020016040528060008152506200056960201b60201c565b5050565b60006200043082620005a8565b6200044f5760405162461bcd60e51b8152600401620001be9062000eb6565b60006200046783620005c560201b62000e3e1760201c565b9050806001600160a01b0316846001600160a01b03161480620004a557506001600160a01b0384166200049a8462000603565b6001600160a01b0316145b80620004b85750620004b881856200064b565b949350505050565b6000620004d882620005c560201b62000e3e1760201c565b9050620004e88160008462000679565b620004f56000836200071d565b6001600160a01b03811660009081526003602052604081208054600192906200052090849062001092565b909155505060008281526002602052604080822080546001600160a01b0319169055518391906001600160a01b0384169060008051602062004e5c833981519152908390a45050565b6200057583836200079b565b62000584600084848462000875565b620005a35760405162461bcd60e51b8152600401620001be9062000e2d565b505050565b6000908152600260205260409020546001600160a01b0316151590565b6000818152600260205260408120546001600160a01b031680620005fd5760405162461bcd60e51b8152600401620001be9062000f76565b92915050565b60006200061082620005a8565b6200062f5760405162461bcd60e51b8152600401620001be9062000ff4565b506000908152600460205260409020546001600160a01b031690565b6001600160a01b03918216600090815260056020908152604080832093909416825291909152205460ff1690565b62000691838383620005a360201b6200085a1760201c565b6001600160a01b038316620006b157620006ab81620009ad565b620006d7565b816001600160a01b0316836001600160a01b031614620006d757620006d78382620009f1565b6001600160a01b038216620006f757620006f18162000a9e565b620005a3565b826001600160a01b0316826001600160a01b031614620005a357620005a3828262000b7c565b600081815260046020908152604090912080546001600160a01b0319166001600160a01b038516908117909155829162000762908390620005c5811b62000e3e17901c565b6001600160a01b03167f8c5be1e5ebec7d5bd14f71427d1e84f3dd0314c0f7b2291e5b200ac8c7c3b92560405160405180910390a45050565b6001600160a01b038216620007c45760405162461bcd60e51b8152600401620001be9062000fbf565b620007cf81620005a8565b15620007ef5760405162461bcd60e51b8152600401620001be9062000e7f565b620007fd6000838362000679565b6001600160a01b03821660009081526003602052604081208054600192906200082890849062001077565b909155505060008181526002602052604080822080546001600160a01b0319166001600160a01b038616908117909155905183929060008051602062004e5c833981519152908290a45050565b600062000896846001600160a01b031662000bcd60201b62001ff41760201c565b15620009a2576001600160a01b03841663150b7a02620008b56200013c565b8786866040518563ffffffff1660e01b8152600401620008d9949392919062000d13565b602060405180830381600087803b158015620008f457600080fd5b505af192505050801562000927575060408051601f3d908101601f19168201909252620009249181019062000ce9565b60015b62000987573d80801562000958576040519150601f19603f3d011682016040523d82523d6000602084013e6200095d565b606091505b5080516200097f5760405162461bcd60e51b8152600401620001be9062000e2d565b805181602001fd5b6001600160e01b031916630a85bd0160e11b149050620004b8565b506001949350505050565b600880546000838152600960205260408120829055600182018355919091527ff3f7a9fe364faab93b216da50a3214154f22a0a2b415b23a84c8169e8b636ee30155565b6000600162000a0b8462000bd360201b6200100f1760201c565b62000a17919062001092565b60008381526007602052604090205490915080821462000a6b576001600160a01b03841660009081526006602090815260408083208584528252808320548484528184208190558352600790915290208190555b5060009182526007602090815260408084208490556001600160a01b039094168352600681528383209183525290812055565b60085460009062000ab29060019062001092565b6000838152600960205260408120546008805493945090928490811062000ae957634e487b7160e01b600052603260045260246000fd5b90600052602060002001549050806008838154811062000b1957634e487b7160e01b600052603260045260246000fd5b600091825260208083209091019290925582815260099091526040808220849055858252812055600880548062000b6057634e487b7160e01b600052603160045260246000fd5b6001900381819060005260206000200160009055905550505050565b600062000b948362000bd360201b6200100f1760201c565b6001600160a01b039093166000908152600660209081526040808320868452825280832085905593825260079052919091209190915550565b3b151590565b60006001600160a01b03821662000bfe5760405162461bcd60e51b8152600401620001be9062000f2c565b506001600160a01b031660009081526003602052604090205490565b82805462000c2890620010ac565b90600052602060002090601f01602090048101928262000c4c576000855562000c97565b82601f1062000c6757805160ff191683800117855562000c97565b8280016001018555821562000c97579182015b8281111562000c9757825182559160200191906001019062000c7a565b5062000ca592915062000ca9565b5090565b5b8082111562000ca5576000815560010162000caa565b60006020828403121562000cd2578081fd5b81516001600160a01b0381168114620003f6578182fd5b60006020828403121562000cfb578081fd5b81516001600160e01b031981168114620003f6578182fd5b600060018060a01b0380871683526020818716818501528560408501526080606085015284519150816080850152825b8281101562000d615785810182015185820160a00152810162000d43565b8281111562000d73578360a084870101525b5050601f01601f19169190910160a00195945050505050565b6001600160a01b03959095168552602085019390935260408401919091526060830152608082015260a00190565b6020808252604d908201527f4d6f6e6b6579436f6e74726163743a2043616e2774206275726e20746869732060408201527f4e465420776974686f7574206265696e67206f776e65722c20617070726f766560608201526c321037b91037b832b930ba37b960991b608082015260a00190565b60208082526032908201527f4552433732313a207472616e7366657220746f206e6f6e20455243373231526560408201527131b2b4bb32b91034b6b83632b6b2b73a32b960711b606082015260800190565b6020808252601c908201527f4552433732313a20746f6b656e20616c7265616479206d696e74656400000000604082015260600190565b6020808252602c908201527f4552433732313a206f70657261746f7220717565727920666f72206e6f6e657860408201526b34b9ba32b73a103a37b5b2b760a11b606082015260800190565b60208082526010908201526f14185d5cd8589b194e881c185d5cd95960821b604082015260600190565b6020808252602a908201527f4552433732313a2062616c616e636520717565727920666f7220746865207a65604082015269726f206164647265737360b01b606082015260800190565b60208082526029908201527f4552433732313a206f776e657220717565727920666f72206e6f6e657869737460408201526832b73a103a37b5b2b760b91b606082015260800190565b6020808252818101527f4552433732313a206d696e7420746f20746865207a65726f2061646472657373604082015260600190565b6020808252602c908201527f4552433732313a20617070726f76656420717565727920666f72206e6f6e657860408201526b34b9ba32b73a103a37b5b2b760a11b606082015260800190565b6020808252601f908201527f5265656e7472616e637947756172643a207265656e7472616e742063616c6c00604082015260600190565b600082198211156200108d576200108d620010e9565b500190565b600082821015620010a757620010a7620010e9565b500390565b600281046001821680620010c157607f821691505b60208210811415620010e357634e487b7160e01b600052602260045260246000fd5b50919050565b634e487b7160e01b600052601160045260246000fd5b613d4d806200110f6000396000f3fe6080604052600436106102255760003560e01c8063715018a611610123578063c87b56dd116100ab578063e985e9c51161006f578063e985e9c51461062e578063ef742fc11461064e578063f2fde38b1461066e578063f4f3b2001461068e578063f91ba674146106a157610225565b8063c87b56dd146105a4578063d9ecad7b146105c4578063daa97fae146105e4578063db002794146105f9578063e086e5ec1461061957610225565b80638ca576c8116100f25780638ca576c8146105255780638da5cb5b1461053a57806395d89b411461054f578063a22cb46514610564578063b88d4fde1461058457610225565b8063715018a6146104c65780637ba68718146104db5780638456cb59146104f05780638aac2f331461050557610225565b80632558e25f116101b15780635523165511610175578063552316551461042e5780635c975abb146104515780636352211e1461046657806369e9cae11461048657806370a08231146104a657610225565b80632558e25f146103865780632f745c59146103b95780633f4ba83a146103d957806342842e0e146103ee5780634f6ccce71461040e57610225565b8063095ea7b3116101f8578063095ea7b3146102d157806318160ddd146102f35780631b0a1aed146103085780631b4172781461033557806323b872dd1461036657610225565b806301ffc9a71461022a57806306fdde0314610260578063081812fc146102825780630917cffe146102af575b600080fd5b34801561023657600080fd5b5061024a610245366004613081565b6106b6565b60405161025791906132ae565b60405180910390f35b34801561026c57600080fd5b506102756106e3565b60405161025791906132b9565b34801561028e57600080fd5b506102a261029d3660046130b9565b610775565b604051610257919061319d565b3480156102bb57600080fd5b506102c46107c1565b6040516102579190613b18565b3480156102dd57600080fd5b506102f16102ec36600461303c565b6107c7565b005b3480156102ff57600080fd5b506102c461085f565b34801561031457600080fd5b50610328610323366004612eb3565b610865565b604051610257919061326a565b34801561034157600080fd5b506103556103503660046130b9565b610929565b604051610257959493929190613b21565b34801561037257600080fd5b506102f1610381366004612eff565b61096a565b34801561039257600080fd5b506103a66103a13660046130b9565b610a86565b6040516102579796959493929190613b44565b3480156103c557600080fd5b506102c46103d436600461303c565b610bb9565b3480156103e557600080fd5b506102f1610c0b565b3480156103fa57600080fd5b506102f1610409366004612eff565b610c54565b34801561041a57600080fd5b506102c46104293660046130b9565b610d7a565b34801561043a57600080fd5b50610443610dd5565b604051610257929190613208565b34801561045d57600080fd5b5061024a610e35565b34801561047257600080fd5b506102a26104813660046130b9565b610e3e565b34801561049257600080fd5b506102f16104a1366004612eff565b610e73565b3480156104b257600080fd5b506102c46104c1366004612eb3565b61100f565b3480156104d257600080fd5b506102f1611053565b3480156104e757600080fd5b506102f161109c565b3480156104fc57600080fd5b506102f16111ec565b34801561051157600080fd5b506102f1610520366004613006565b611233565b34801561053157600080fd5b506102a26112a8565b34801561054657600080fd5b506102a26112b7565b34801561055b57600080fd5b506102756112c6565b34801561057057600080fd5b506102f161057f366004613006565b6112d5565b34801561059057600080fd5b506102f161059f366004612f3a565b6113a3565b3480156105b057600080fd5b506102756105bf3660046130b9565b6114c6565b3480156105d057600080fd5b506102c46105df36600461310b565b611549565b3480156105f057600080fd5b506102a2611a5b565b34801561060557600080fd5b506102c46106143660046130e9565b611a6f565b34801561062557600080fd5b506102f1611ce6565b34801561063a57600080fd5b5061024a610649366004612ecd565b611d72565b34801561065a57600080fd5b506102f16106693660046130b9565b611da0565b34801561067a57600080fd5b506102f1610689366004612eb3565b611e28565b6102f161069c366004612eb3565b611e99565b3480156106ad57600080fd5b506102c4611fe2565b60006001600160e01b0319821663780e9d6360e01b14806106db57506106db82611ffa565b90505b919050565b6060600080546106f290613c47565b80601f016020809104026020016040519081016040528092919081815260200182805461071e90613c47565b801561076b5780601f106107405761010080835404028352916020019161076b565b820191906000526020600020905b81548152906001019060200180831161074e57829003601f168201915b5050505050905090565b60006107808261203a565b6107a55760405162461bcd60e51b815260040161079c906137d8565b60405180910390fd5b506000908152600460205260409020546001600160a01b031690565b600e5481565b60006107d282610e3e565b9050806001600160a01b0316836001600160a01b031614156108065760405162461bcd60e51b815260040161079c906138f1565b806001600160a01b0316610818612057565b6001600160a01b03161480610834575061083481610649612057565b6108505760405162461bcd60e51b815260040161079c9061361f565b61085a838361205b565b505050565b60085490565b606060006108728361100f565b905060008167ffffffffffffffff81111561089d57634e487b7160e01b600052604160045260246000fd5b6040519080825280602002602001820160405280156108c6578160200160208202803683370190505b50905060005b828110156109215760006108e08683610bb9565b90508083838151811061090357634e487b7160e01b600052603260045260246000fd5b6020908102919091010152508061091981613c82565b9150506108cc565b509392505050565b6012818154811061093957600080fd5b6000918252602090912060059091020180546001820154600283015460038401546004909401549294509092909185565b610972610e35565b1561098f5760405162461bcd60e51b815260040161079c906135f5565b600f54600160a01b900460ff16151560011415610a4e57600f54604051630951fbdf60e41b81526000916001600160a01b03169063951fbdf0906109d7908590600401613b18565b60206040518083038186803b1580156109ef57600080fd5b505afa158015610a03573d6000803e3d6000fd5b505050506040513d601f19601f82011682018060405250810190610a279190613065565b905060018115151415610a4c5760405162461bcd60e51b815260040161079c90613484565b505b610a5f610a59612057565b826120c9565b610a7b5760405162461bcd60e51b815260040161079c90613986565b61085a83838361214e565b600080600080600080600060128881548110610ab257634e487b7160e01b600052603260045260246000fd5b90600052602060002090600502016003015460128981548110610ae557634e487b7160e01b600052603260045260246000fd5b90600052602060002090600502016004015460128a81548110610b1857634e487b7160e01b600052603260045260246000fd5b90600052602060002090600502016000015460128b81548110610b4b57634e487b7160e01b600052603260045260246000fd5b90600052602060002090600502016001015460128c81548110610b7e57634e487b7160e01b600052603260045260246000fd5b906000526020600020906005020160020154610b998d610e3e565b610ba28e610775565b959e949d50929b5090995097509550909350915050565b6000610bc48361100f565b8210610be25760405162461bcd60e51b815260040161079c9061336a565b506001600160a01b03919091166000908152600660209081526040808320938352929052205490565b610c13612057565b6001600160a01b0316610c246112b7565b6001600160a01b031614610c4a5760405162461bcd60e51b815260040161079c90613824565b610c5261227b565b565b610c5c610e35565b15610c795760405162461bcd60e51b815260040161079c906135f5565b600f54600160a01b900460ff16151560011415610d3857600f54604051630951fbdf60e41b81526000916001600160a01b03169063951fbdf090610cc1908590600401613b18565b60206040518083038186803b158015610cd957600080fd5b505afa158015610ced573d6000803e3d6000fd5b505050506040513d601f19601f82011682018060405250810190610d119190613065565b905060018115151415610d365760405162461bcd60e51b815260040161079c90613484565b505b610d43610a59612057565b610d5f5760405162461bcd60e51b815260040161079c90613986565b61085a838383604051806020016040528060008152506113a3565b6000610d8461085f565b8210610da25760405162461bcd60e51b815260040161079c906139d7565b60088281548110610dc357634e487b7160e01b600052603260045260246000fd5b90600052602060002001549050919050565b600080610de0612057565b6001600160a01b0316610df16112b7565b6001600160a01b031614610e175760405162461bcd60e51b815260040161079c90613824565b5050600f546001600160a01b03811691600160a01b90910460ff1690565b600c5460ff1690565b6000818152600260205260408120546001600160a01b0316806106db5760405162461bcd60e51b815260040161079c90613707565b6002600b541415610e965760405162461bcd60e51b815260040161079c90613a9a565b6002600b55610ea3610e35565b15610ec05760405162461bcd60e51b815260040161079c906135f5565b600f54600160a01b900460ff16151560011415610f7f57600f54604051630951fbdf60e41b81526000916001600160a01b03169063951fbdf090610f08908590600401613b18565b60206040518083038186803b158015610f2057600080fd5b505afa158015610f34573d6000803e3d6000fd5b505050506040513d601f19601f82011682018060405250810190610f589190613065565b905060018115151415610f7d5760405162461bcd60e51b815260040161079c90613484565b505b6001600160a01b038216610fa55760405162461bcd60e51b815260040161079c906132fa565b6001600160a01b038216301415610fce5760405162461bcd60e51b815260040161079c90613932565b610fd9610a59612057565b1515600114610ffa5760405162461bcd60e51b815260040161079c90613a23565b611005838383610c54565b50506001600b5550565b60006001600160a01b0382166110375760405162461bcd60e51b815260040161079c906136bd565b506001600160a01b031660009081526003602052604090205490565b61105b612057565b6001600160a01b031661106c6112b7565b6001600160a01b0316146110925760405162461bcd60e51b815260040161079c90613824565b610c5260006122e9565b6110a4612057565b6001600160a01b03166110b56112b7565b6001600160a01b0316146110db5760405162461bcd60e51b815260040161079c90613824565b6010546040516370a0823160e01b81526000916001600160a01b0316906370a082319061110c90309060040161319d565b60206040518083038186803b15801561112457600080fd5b505afa158015611138573d6000803e3d6000fd5b505050506040513d601f19601f8201168201806040525081019061115c91906130d1565b6010549091506001600160a01b031663a9059cbb611178612057565b836040518363ffffffff1660e01b8152600401611196929190613223565b602060405180830381600087803b1580156111b057600080fd5b505af11580156111c4573d6000803e3d6000fd5b505050506040513d601f19601f820116820180604052508101906111e89190613065565b5050565b6111f4612057565b6001600160a01b03166112056112b7565b6001600160a01b03161461122b5760405162461bcd60e51b815260040161079c90613824565b610c5261233b565b61123b612057565b6001600160a01b031661124c6112b7565b6001600160a01b0316146112725760405162461bcd60e51b815260040161079c90613824565b600f80546001600160a01b0319166001600160a01b03939093169290921760ff60a01b1916600160a01b91151591909102179055565b6010546001600160a01b031681565b600a546001600160a01b031690565b6060600180546106f290613c47565b6112dd612057565b6001600160a01b0316826001600160a01b0316141561130e5760405162461bcd60e51b815260040161079c90613525565b806005600061131b612057565b6001600160a01b03908116825260208083019390935260409182016000908120918716808252919093529120805460ff19169215159290921790915561135f612057565b6001600160a01b03167f17307eab39ab6107e8899845ad3d59bd9653f200f220920489ca2b5937696c318360405161139791906132ae565b60405180910390a35050565b6113ab610e35565b156113c85760405162461bcd60e51b815260040161079c906135f5565b600f54600160a01b900460ff1615156001141561148757600f54604051630951fbdf60e41b81526000916001600160a01b03169063951fbdf090611410908690600401613b18565b60206040518083038186803b15801561142857600080fd5b505afa15801561143c573d6000803e3d6000fd5b505050506040513d601f19601f820116820180604052508101906114609190613065565b9050600181151514156114855760405162461bcd60e51b815260040161079c90613484565b505b611498611492612057565b836120c9565b6114b45760405162461bcd60e51b815260040161079c90613986565b6114c084848484612396565b50505050565b60606114d18261203a565b6114ed5760405162461bcd60e51b815260040161079c906138a2565b60006114f76123c9565b905060008151116115175760405180602001604052806000815250611542565b80611521846123db565b604051602001611532929190613158565b6040516020818303038152906040525b9392505050565b60006002600b54141561156e5760405162461bcd60e51b815260040161079c90613a9a565b6002600b5561157b610e35565b156115985760405162461bcd60e51b815260040161079c906135f5565b6011546010546001600160a01b03166370a082316115b4612057565b6040518263ffffffff1660e01b81526004016115d0919061319d565b60206040518083038186803b1580156115e857600080fd5b505afa1580156115fc573d6000803e3d6000fd5b505050506040513d601f19601f8201168201806040525081019061162091906130d1565b101561163e5760405162461bcd60e51b815260040161079c9061355c565b6010546040516370a0823160e01b81526000916001600160a01b0316906370a082319061166f90309060040161319d565b60206040518083038186803b15801561168757600080fd5b505afa15801561169b573d6000803e3d6000fd5b505050506040513d601f19601f820116820180604052508101906116bf91906130d1565b6010549091506001600160a01b03166323b872dd6116db612057565b306011546040518463ffffffff1660e01b81526004016116fd939291906131b1565b602060405180830381600087803b15801561171757600080fd5b505af115801561172b573d6000803e3d6000fd5b505050506040513d601f19601f8201168201806040525081019061174f9190613065565b5060115461175d9082613bb9565b6010546040516370a0823160e01b81526001600160a01b03909116906370a082319061178d90309060040161319d565b60206040518083038186803b1580156117a557600080fd5b505afa1580156117b9573d6000803e3d6000fd5b505050506040513d601f19601f820116820180604052508101906117dd91906130d1565b146117f857634e487b7160e01b600052600160045260246000fd5b611800612057565b6001600160a01b031661181285610e3e565b6001600160a01b0316148015611848575061182b612057565b6001600160a01b031661183d84610e3e565b6001600160a01b0316145b6118645760405162461bcd60e51b815260040161079c90613785565b60006012858154811061188757634e487b7160e01b600052603260045260246000fd5b90600052602060002090600502016003015490506000601285815481106118be57634e487b7160e01b600052603260045260246000fd5b906000526020600020906005020160030154905060006118de83836124f6565b905060006118ec88886126c5565b90506000611904898984866118ff612057565b6127f9565b90507f8e3541d6cb6a06d3a1785ca3c18fa6ca7b39a6278433734c442e2ebfe623e2ea816012838154811061194957634e487b7160e01b600052603260045260246000fd5b9060005260206000209060050201600301546012848154811061197c57634e487b7160e01b600052603260045260246000fd5b906000526020600020906005020160040154601285815481106119af57634e487b7160e01b600052603260045260246000fd5b906000526020600020906005020160000154601286815481106119e257634e487b7160e01b600052603260045260246000fd5b90600052602060002090600502016001015460128781548110611a1557634e487b7160e01b600052603260045260246000fd5b906000526020600020906005020160020154611a2f612057565b604051611a429796959493929190613b80565b60405180910390a16001600b5598975050505050505050565b600c5461010090046001600160a01b031690565b6011546010546040516370a0823160e01b8152600092916001600160a01b0316906370a0823190611aa490869060040161319d565b60206040518083038186803b158015611abc57600080fd5b505afa158015611ad0573d6000803e3d6000fd5b505050506040513d601f19601f82011682018060405250810190611af491906130d1565b1015611b125760405162461bcd60e51b815260040161079c9061355c565b6010546040516370a0823160e01b81526000916001600160a01b0316906370a0823190611b4390309060040161319d565b60206040518083038186803b158015611b5b57600080fd5b505afa158015611b6f573d6000803e3d6000fd5b505050506040513d601f19601f82011682018060405250810190611b9391906130d1565b6010549091506001600160a01b03166323b872dd611baf612057565b306011546040518463ffffffff1660e01b8152600401611bd1939291906131b1565b602060405180830381600087803b158015611beb57600080fd5b505af1158015611bff573d6000803e3d6000fd5b505050506040513d601f19601f82011682018060405250810190611c239190613065565b50601154611c319082613bb9565b6010546040516370a0823160e01b81526001600160a01b03909116906370a0823190611c6190309060040161319d565b60206040518083038186803b158015611c7957600080fd5b505afa158015611c8d573d6000803e3d6000fd5b505050506040513d601f19601f82011682018060405250810190611cb191906130d1565b14611ccc57634e487b7160e01b600052600160045260246000fd5b6000611cdd606380606388886127f9565b95945050505050565b611cee612057565b6001600160a01b0316611cff6112b7565b6001600160a01b031614611d255760405162461bcd60e51b815260040161079c90613824565b6000611d2f612057565b600c546040519192506001600160a01b0380841692610100909204163180156108fc02916000818181858888f193505050501580156111e8573d6000803e3d6000fd5b6001600160a01b03918216600090815260056020908152604080832093909416825291909152205460ff1690565b611da8612057565b6001600160a01b0316611db96112b7565b6001600160a01b031614611ddf5760405162461bcd60e51b815260040161079c90613824565b600d54600e5410611e025760405162461bcd60e51b815260040161079c90613ad1565b600e8054906000611e1283613c82565b91905055506111e86000806000846118ff612057565b611e30612057565b6001600160a01b0316611e416112b7565b6001600160a01b031614611e675760405162461bcd60e51b815260040161079c90613824565b6001600160a01b038116611e8d5760405162461bcd60e51b815260040161079c90613407565b611e96816122e9565b50565b611ea1612057565b6001600160a01b0316611eb26112b7565b6001600160a01b031614611ed85760405162461bcd60e51b815260040161079c90613824565b6040516370a0823160e01b815281906000906001600160a01b038316906370a0823190611f0990309060040161319d565b60206040518083038186803b158015611f2157600080fd5b505afa158015611f35573d6000803e3d6000fd5b505050506040513d601f19601f82011682018060405250810190611f5991906130d1565b9050816001600160a01b031663a9059cbb611f72612057565b836040518363ffffffff1660e01b8152600401611f90929190613223565b602060405180830381600087803b158015611faa57600080fd5b505af1158015611fbe573d6000803e3d6000fd5b505050506040513d601f19601f820116820180604052508101906114c09190613065565b600d5481565b60006115428284613c04565b3b151590565b60006001600160e01b031982166380ac58cd60e01b148061202b57506001600160e01b03198216635b5e139f60e01b145b806106db57506106db82612984565b6000908152600260205260409020546001600160a01b0316151590565b3390565b600081815260046020526040902080546001600160a01b0319166001600160a01b038416908117909155819061209082610e3e565b6001600160a01b03167f8c5be1e5ebec7d5bd14f71427d1e84f3dd0314c0f7b2291e5b200ac8c7c3b92560405160405180910390a45050565b60006120d48261203a565b6120f05760405162461bcd60e51b815260040161079c906135a9565b60006120fb83610e3e565b9050806001600160a01b0316846001600160a01b031614806121365750836001600160a01b031661212b84610775565b6001600160a01b0316145b8061214657506121468185611d72565b949350505050565b826001600160a01b031661216182610e3e565b6001600160a01b0316146121875760405162461bcd60e51b815260040161079c90613859565b6001600160a01b0382166121ad5760405162461bcd60e51b815260040161079c906134e1565b6121b883838361299d565b6121c360008261205b565b6001600160a01b03831660009081526003602052604081208054600192906121ec908490613c04565b90915550506001600160a01b038216600090815260036020526040812080546001929061221a908490613bb9565b909155505060008181526002602052604080822080546001600160a01b0319166001600160a01b0386811691821790925591518493918716917fddf252ad1be2c89b69c2b068fc378daa952ba7f163c4a11628f55a4df523b3ef91a4505050565b612283610e35565b61229f5760405162461bcd60e51b815260040161079c906132cc565b600c805460ff191690557f5db9ee0a495bf2e6ff9c91a7834c1ba4fdd244a5e8aa4e537bd38aeae4b073aa6122d2612057565b6040516122df919061319d565b60405180910390a1565b600a80546001600160a01b038381166001600160a01b0319831681179093556040519116919082907f8be0079c531659141344cd1fd0a4f28419497f9722a3daafe3b4186f6b6457e090600090a35050565b612343610e35565b156123605760405162461bcd60e51b815260040161079c906135f5565b600c805460ff191660011790557f62e78cea01bee320cd4e420270b5ea74000d11b0c9f74754ebdbfc544b05a2586122d2612057565b6123a184848461214e565b6123ad84848484612a26565b6114c05760405162461bcd60e51b815260040161079c906133b5565b60408051602081019091526000815290565b60608161240057506040805180820190915260018152600360fc1b60208201526106de565b8160005b811561242a578061241481613c82565b91506124239050600a83613bd1565b9150612404565b60008167ffffffffffffffff81111561245357634e487b7160e01b600052604160045260246000fd5b6040519080825280601f01601f19166020018201604052801561247d576020820181803683370190505b5090505b841561214657612492600183613c04565b915061249f600a86613c9d565b6124aa906030613bb9565b60f81b8183815181106124cd57634e487b7160e01b600052603260045260246000fd5b60200101906001600160f81b031916908160001a9053506124ef600a86613bd1565b9450612481565b6000612500612e7d565b600061250a612b41565b9050600760015b604081116125c95782811660ff161561255c5761252f606488613c9d565b60ff1684836008811061255257634e487b7160e01b600052603260045260246000fd5b6020020152612590565b612567606487613c9d565b60ff1684836008811061258a57634e487b7160e01b600052603260045260246000fd5b60200201525b61259b606488613bd1565b96506125a8606487613bd1565b95506125b5826001611fe8565b91506125c2816002613be5565b9050612511565b5060008260ff166125d861085f565b60126000815481106125fa57634e487b7160e01b600052603260045260246000fd5b90600052602060002090600502016003015460405160200161261e93929190613187565b60408051601f1981840301815291905280516020909101209050612643605982613c9d565b61264e90600a613bb9565b80855290506000805b60088110156126b95785816008811061268057634e487b7160e01b600052603260045260246000fd5b602002015161268f9083613bb9565b9150806007146126a7576126a4826064613be5565b91505b806126b181613c82565b915050612657565b50979650505050505050565b600080601284815481106126e957634e487b7160e01b600052603260045260246000fd5b906000526020600020906005020160020154905060006012848154811061272057634e487b7160e01b600052603260045260246000fd5b90600052602060002090600502016002015490506103e88210801561274657506103e881105b6127625760405162461bcd60e51b815260040161079c9061367c565b60008183146127ce57600060026127798486613bb9565b61278490600a613be5565b61278e9190613bd1565b9050600061279d600a83613c9d565b11156127b0576127ae600582613c04565b505b6127bb600a82613bd1565b6127c6906002613bb9565b915050611cdd565b60026127da8385613bb9565b6127e49190613bd1565b6127ef906001613bb9565b9695505050505050565b6000612803610e35565b156128205760405162461bcd60e51b815260040161079c906135f5565b6040805160a081018252878152602081018781529181018681526060820186815242608084019081526012805460018082018355600083815287517fbb8a6a4669ba250d26cd7a459eca9d215f8307e33aebe50379bc5a3617ec344460059094029384015597517fbb8a6a4669ba250d26cd7a459eca9d215f8307e33aebe50379bc5a3617ec344583015594517fbb8a6a4669ba250d26cd7a459eca9d215f8307e33aebe50379bc5a3617ec344682015592517fbb8a6a4669ba250d26cd7a459eca9d215f8307e33aebe50379bc5a3617ec344784015590517fbb8a6a4669ba250d26cd7a459eca9d215f8307e33aebe50379bc5a3617ec3448909201919091555491929161292e91611fe8565b905061293a8482612b53565b7f0b1e9a74eeaae184646d7a35062426460c8c9364005c6d441cce036dd9c655d584828a8a8960405161297195949392919061323c565b60405180910390a1979650505050505050565b6001600160e01b031981166301ffc9a760e01b14919050565b6129a883838361085a565b6001600160a01b0383166129c4576129bf81612b6d565b6129e7565b816001600160a01b0316836001600160a01b0316146129e7576129e78382612bb1565b6001600160a01b038216612a03576129fe81612c4e565b61085a565b826001600160a01b0316826001600160a01b03161461085a5761085a8282612d27565b6000612a3a846001600160a01b0316611ff4565b15612b3657836001600160a01b031663150b7a02612a56612057565b8786866040518563ffffffff1660e01b8152600401612a7894939291906131d5565b602060405180830381600087803b158015612a9257600080fd5b505af1925050508015612ac2575060408051601f3d908101601f19168201909252612abf9181019061309d565b60015b612b1c573d808015612af0576040519150601f19603f3d011682016040523d82523d6000602084013e612af5565b606091505b508051612b145760405162461bcd60e51b815260040161079c906133b5565b805181602001fd5b6001600160e01b031916630a85bd0160e11b149050612146565b506001949350505050565b6000612b4e60ff42613c9d565b905090565b6111e8828260405180602001604052806000815250612d6b565b600880546000838152600960205260408120829055600182018355919091527ff3f7a9fe364faab93b216da50a3214154f22a0a2b415b23a84c8169e8b636ee30155565b60006001612bbe8461100f565b612bc89190613c04565b600083815260076020526040902054909150808214612c1b576001600160a01b03841660009081526006602090815260408083208584528252808320548484528184208190558352600790915290208190555b5060009182526007602090815260408084208490556001600160a01b039094168352600681528383209183525290812055565b600854600090612c6090600190613c04565b60008381526009602052604081205460088054939450909284908110612c9657634e487b7160e01b600052603260045260246000fd5b906000526020600020015490508060088381548110612cc557634e487b7160e01b600052603260045260246000fd5b6000918252602080832090910192909255828152600990915260408082208490558582528120556008805480612d0b57634e487b7160e01b600052603160045260246000fd5b6001900381819060005260206000200160009055905550505050565b6000612d328361100f565b6001600160a01b039093166000908152600660209081526040808320868452825280832085905593825260079052919091209190915550565b612d758383612d9e565b612d826000848484612a26565b61085a5760405162461bcd60e51b815260040161079c906133b5565b6001600160a01b038216612dc45760405162461bcd60e51b815260040161079c90613750565b612dcd8161203a565b15612dea5760405162461bcd60e51b815260040161079c9061344d565b612df66000838361299d565b6001600160a01b0382166000908152600360205260408120805460019290612e1f908490613bb9565b909155505060008181526002602052604080822080546001600160a01b0319166001600160a01b03861690811790915590518392907fddf252ad1be2c89b69c2b068fc378daa952ba7f163c4a11628f55a4df523b3ef908290a45050565b6040518061010001604052806008906020820280368337509192915050565b80356001600160a01b03811681146106de57600080fd5b600060208284031215612ec4578081fd5b61154282612e9c565b60008060408385031215612edf578081fd5b612ee883612e9c565b9150612ef660208401612e9c565b90509250929050565b600080600060608486031215612f13578081fd5b612f1c84612e9c565b9250612f2a60208501612e9c565b9150604084013590509250925092565b60008060008060808587031215612f4f578081fd5b612f5885612e9c565b93506020612f67818701612e9c565b935060408601359250606086013567ffffffffffffffff80821115612f8a578384fd5b818801915088601f830112612f9d578384fd5b813581811115612faf57612faf613cdd565b604051601f8201601f1916810185018381118282101715612fd257612fd2613cdd565b60405281815283820185018b1015612fe8578586fd5b81858501868301379081019093019390935250939692955090935050565b60008060408385031215613018578182fd5b61302183612e9c565b9150602083013561303181613cf3565b809150509250929050565b6000806040838503121561304e578182fd5b61305783612e9c565b946020939093013593505050565b600060208284031215613076578081fd5b815161154281613cf3565b600060208284031215613092578081fd5b813561154281613d01565b6000602082840312156130ae578081fd5b815161154281613d01565b6000602082840312156130ca578081fd5b5035919050565b6000602082840312156130e2578081fd5b5051919050565b600080604083850312156130fb578182fd5b82359150612ef660208401612e9c565b6000806040838503121561311d578182fd5b50508035926020909101359150565b60008151808452613144816020860160208601613c1b565b601f01601f19169290920160200192915050565b6000835161316a818460208801613c1b565b83519083019061317e818360208801613c1b565b01949350505050565b9283526020830191909152604082015260600190565b6001600160a01b0391909116815260200190565b6001600160a01b039384168152919092166020820152604081019190915260600190565b6001600160a01b03858116825284166020820152604081018390526080606082018190526000906127ef9083018461312c565b6001600160a01b039290921682521515602082015260400190565b6001600160a01b03929092168252602082015260400190565b6001600160a01b03959095168552602085019390935260408401919091526060830152608082015260a00190565b6020808252825182820181905260009190848201906040850190845b818110156132a257835183529284019291840191600101613286565b50909695505050505050565b901515815260200190565b600060208252611542602083018461312c565b60208082526014908201527314185d5cd8589b194e881b9bdd081c185d5cd95960621b604082015260600190565b6020808252604a908201527f4d6f6e6b6579436f6e74726163743a205472616e7366657220746f207468652060408201527f7a65726f2061646472657373206e6f7420616c6c6f7765642c206275726e204e6060820152691195081a5b9cdd19585960b21b608082015260a00190565b6020808252602b908201527f455243373231456e756d657261626c653a206f776e657220696e646578206f7560408201526a74206f6620626f756e647360a81b606082015260800190565b60208082526032908201527f4552433732313a207472616e7366657220746f206e6f6e20455243373231526560408201527131b2b4bb32b91034b6b83632b6b2b73a32b960711b606082015260800190565b60208082526026908201527f4f776e61626c653a206e6577206f776e657220697320746865207a65726f206160408201526564647265737360d01b606082015260800190565b6020808252601c908201527f4552433732313a20746f6b656e20616c7265616479206d696e74656400000000604082015260600190565b60208082526039908201527f4d6f6e6b6579436f6e74726163743a204e4654206973207374696c6c206f6e2060408201527f73616c652e2052656d6f7665206f666665722066697273742e00000000000000606082015260800190565b60208082526024908201527f4552433732313a207472616e7366657220746f20746865207a65726f206164646040820152637265737360e01b606082015260800190565b60208082526019908201527f4552433732313a20617070726f766520746f2063616c6c657200000000000000604082015260600190565b6020808252602d908201527f4e6f7420656e6f7567682042616e616e6120546f6b656e2e205573652074686560408201526c10333932b2903330bab1b2ba1760991b606082015260800190565b6020808252602c908201527f4552433732313a206f70657261746f7220717565727920666f72206e6f6e657860408201526b34b9ba32b73a103a37b5b2b760a11b606082015260800190565b60208082526010908201526f14185d5cd8589b194e881c185d5cd95960821b604082015260600190565b60208082526038908201527f4552433732313a20617070726f76652063616c6c6572206973206e6f74206f7760408201527f6e6572206e6f7220617070726f76656420666f7220616c6c0000000000000000606082015260800190565b60208082526021908201527f506172656e74732063616e6e6f742062726565642061626f76652067656e39396040820152603960f81b606082015260800190565b6020808252602a908201527f4552433732313a2062616c616e636520717565727920666f7220746865207a65604082015269726f206164647265737360b01b606082015260800190565b60208082526029908201527f4552433732313a206f776e657220717565727920666f72206e6f6e657869737460408201526832b73a103a37b5b2b760b91b606082015260800190565b6020808252818101527f4552433732313a206d696e7420746f20746865207a65726f2061646472657373604082015260600190565b60208082526033908201527f4d6f6e6b6579436f6e74726163743a204d757374206265206f776e6572206f6660408201527220626f746820706172656e7420746f6b656e7360681b606082015260800190565b6020808252602c908201527f4552433732313a20617070726f76656420717565727920666f72206e6f6e657860408201526b34b9ba32b73a103a37b5b2b760a11b606082015260800190565b6020808252818101527f4f776e61626c653a2063616c6c6572206973206e6f7420746865206f776e6572604082015260600190565b60208082526029908201527f4552433732313a207472616e73666572206f6620746f6b656e2074686174206960408201526839903737ba1037bbb760b91b606082015260800190565b6020808252602f908201527f4552433732314d657461646174613a2055524920717565727920666f72206e6f60408201526e3732bc34b9ba32b73a103a37b5b2b760891b606082015260800190565b60208082526021908201527f4552433732313a20617070726f76616c20746f2063757272656e74206f776e656040820152603960f91b606082015260800190565b60208082526034908201527f4d6f6e6b6579436f6e74726163743a2043616e2774207472616e73666572204e60408201527311951cc81d1bc81d1a1a5cc818dbdb9d1c9858dd60621b606082015260800190565b60208082526031908201527f4552433732313a207472616e736665722063616c6c6572206973206e6f74206f6040820152701ddb995c881b9bdc88185c1c1c9bdd9959607a1b606082015260800190565b6020808252602c908201527f455243373231456e756d657261626c653a20676c6f62616c20696e646578206f60408201526b7574206f6620626f756e647360a01b606082015260800190565b60208082526051908201527f4d6f6e6b6579436f6e74726163743a2043616e2774207472616e73666572207460408201527f686973204e465420776974686f7574206265696e67206f776e65722c206170706060820152703937bb32b21037b91037b832b930ba37b960791b608082015260a00190565b6020808252601f908201527f5265656e7472616e637947756172643a207265656e7472616e742063616c6c00604082015260600190565b60208082526027908201527f4d6178696d756d20616d6f756e74206f662067656e2030206d6f6e6b657973206040820152661c995858da195960ca1b606082015260800190565b90815260200190565b948552602085019390935260408401919091526060830152608082015260a00190565b96875260208701959095526040860193909352606085019190915260808401526001600160a01b0390811660a08401521660c082015260e00190565b968752602087019590955260408601939093526060850191909152608084015260a08301526001600160a01b031660c082015260e00190565b60008219821115613bcc57613bcc613cb1565b500190565b600082613be057613be0613cc7565b500490565b6000816000190483118215151615613bff57613bff613cb1565b500290565b600082821015613c1657613c16613cb1565b500390565b60005b83811015613c36578181015183820152602001613c1e565b838111156114c05750506000910152565b600281046001821680613c5b57607f821691505b60208210811415613c7c57634e487b7160e01b600052602260045260246000fd5b50919050565b6000600019821415613c9657613c96613cb1565b5060010190565b600082613cac57613cac613cc7565b500690565b634e487b7160e01b600052601160045260246000fd5b634e487b7160e01b600052601260045260246000fd5b634e487b7160e01b600052604160045260246000fd5b8015158114611e9657600080fd5b6001600160e01b031981168114611e9657600080fdfea26469706673582212208522ce54fa38c4799805975b8d319ea7f3b8e0f4a9f2598855725fab50b54eaa64736f6c63430008000033ddf252ad1be2c89b69c2b068fc378daa952ba7f163c4a11628f55a4df523b3ef",
  "immutableReferences": {},
  "source": "// SPDX-License-Identifier: UNLICENSED\r\npragma solidity ^0.8.0;\r\n\r\n// preparing for some functions to be restricted \r\nimport \"@openzeppelin/contracts/access/Ownable.sol\";\r\n// preparing safemath to rule out over- and underflow  \r\nimport \"@openzeppelin/contracts/utils/math/SafeMath.sol\";\r\n// importing ERC721Enumerable token standard interface\r\nimport \"@openzeppelin/contracts/token/ERC721/extensions/ERC721Enumerable.sol\";\r\n// importing openzeppelin script to guard against re-entrancy\r\nimport \"@openzeppelin/contracts/security/ReentrancyGuard.sol\";\r\n// importing openzeppelin script to make contract pausable\r\nimport \"@openzeppelin/contracts/security/Pausable.sol\";\r\n// importing openzeppelin script for ERC20 tokens\r\nimport \"@openzeppelin/contracts/token/ERC20/IERC20.sol\";\r\n// importing MonkeyMarketplace interface\r\nimport \"./IMonkeyMarketplace.sol\";\r\n\r\ncontract MonkeyContract is ERC721Enumerable, Ownable, ReentrancyGuard, Pausable {\r\n\r\n    // using safemath for all uint256 numbers, \r\n    // use uint256 and (.add) and (.sub)\r\n    using SafeMath for uint256;    \r\n   \r\n    // STATE VARIABLES\r\n\r\n    // MonkeyContract address\r\n    address _monkeyContractAddress;   \r\n    // Only 12 monkeys can be created from scratch (generation 0)\r\n    uint256 public GEN0_Limit = 12;\r\n    uint256 public gen0amountTotal;  \r\n\r\n    // MonkeyMarketplace interface\r\n    IMonkeyMarketplace private _monkeyMarketInterface;\r\n    // Boolean to control whether transfers have to check for open offers\r\n    bool private _marketConnected = false;    \r\n    \r\n    // function to connect the market contract, should be done right after deployment of contracts\r\n    // when market is connected, NFTs cannot be transfered via this contract while on sale in market\r\n    function connectMarket(address _receivedMarketContractAddress, bool setConnectMarket) external onlyOwner {\r\n        _monkeyMarketInterface = IMonkeyMarketplace(_receivedMarketContractAddress);\r\n        _marketConnected = setConnectMarket;\r\n    }\r\n\r\n    // function to check if market is connected\r\n    function checkMarketConnected() external view onlyOwner returns(address marketAddressSaved, bool isMarketConnected) {\r\n        return (\r\n            address(_monkeyMarketInterface),\r\n            _marketConnected\r\n        );\r\n    }\r\n\r\n    // variables for Banana Token\r\n    IERC20 public bananaToken;\r\n    // fee for minting and breeding Crypto Monkey NFTs \r\n    uint256 private _bananaFee = 50; \r\n   \r\n    // STRUCT\r\n\r\n    // this struct is the blueprint for new NFTs\r\n    struct CryptoMonkey {        \r\n        uint256 parent1Id;\r\n        uint256 parent2Id;\r\n        uint256 generation;\r\n        uint256 genes;\r\n        uint256 birthtime;\r\n    }    \r\n\r\n    // ARRAYS\r\n\r\n    // This is an array that holds all CryptoMonkey NFTs. \r\n    // IMPORTANT: Their position in this array IS their Token ID.\r\n    // They never get deleted here, array only grows and keeps track of them all.\r\n    CryptoMonkey[] public allMonkeysArray;\r\n\r\n    // EVENTS\r\n\r\n    // Creation event, emitted after successful NFT creation with these parameters\r\n    event MonkeyCreated(\r\n        address owner,\r\n        uint256 tokenId,\r\n        uint256 parent1Id,\r\n        uint256 parent2Id,\r\n        uint256 genes\r\n    );\r\n\r\n    // Breeding event, combining two owned NFTs can create a third, new one\r\n    event BreedingSuccessful (\r\n        uint256 tokenId, \r\n        uint256 genes, \r\n        uint256 birthtime, \r\n        uint256 parent1Id, \r\n        uint256 parent2Id, \r\n        uint256 generation, \r\n        address owner\r\n    );   \r\n    \r\n    // Constructor function\r\n    // starts with setting _name, and _symbol in imported ERC721 contract,\r\n    // as well as setting the address for the Banana Token contract (has to be provided)  \r\n    constructor(address _bananaToken) ERC721(\"Crypto Monkeys\", \"MONKEY\") {\r\n\r\n        // initiates Banana Token interface\r\n        bananaToken = IERC20(_bananaToken);\r\n       // saving address of this contract to state variable\r\n        _monkeyContractAddress = address(this); \r\n\r\n        // minting a placeholder Zero Monkey NFT, that occupies Token ID 0\r\n        _createMonkey(0, 0, 0, 1214131177989271, _msgSender());  \r\n\r\n        // burning the placeholder Zero Monkey NFT\r\n        burnNFT(0);\r\n    }\r\n\r\n    // Functions \r\n\r\n    // pausing funcionality from OpenZeppelin's Pausable\r\n    function pause() public onlyOwner {\r\n        _pause();\r\n    }\r\n\r\n    // unpausing funcionality from OpenZeppelin's Pausable\r\n    function unpause() public onlyOwner {\r\n        _unpause();\r\n    }\r\n    \r\n    // public function to show contract's own address\r\n    function getMonkeyContractAddress() public view returns (address) {  \r\n        return _monkeyContractAddress;\r\n    }   \r\n\r\n    // returns all the main details on a NFT\r\n    function getMonkeyDetails(uint256 tokenId)\r\n        public\r\n        view\r\n        returns (\r\n            uint256 genes,\r\n            uint256 birthtime,\r\n            uint256 parent1Id,\r\n            uint256 parent2Id,\r\n            uint256 generation,\r\n            address owner,\r\n            address approvedAddress\r\n        )\r\n    {\r\n        return (\r\n            allMonkeysArray[tokenId].genes,\r\n            allMonkeysArray[tokenId].birthtime,\r\n            allMonkeysArray[tokenId].parent1Id,\r\n            allMonkeysArray[tokenId].parent2Id,\r\n            allMonkeysArray[tokenId].generation,\r\n            ownerOf(tokenId),\r\n            getApproved(tokenId)\r\n        );\r\n    }   \r\n\r\n    // returns an array with the NFT Token IDs that the provided sender address owns    \r\n    function findMonkeyIdsOfAddress(address owner) public view returns (uint256[] memory) {\r\n\r\n        // determining amount of owned Crypto Monkeys\r\n        uint256 amountOwned = balanceOf(owner);             \r\n\r\n        // creating result array with fixed length\r\n        uint256[] memory ownedTokenIDs = new uint256[](amountOwned);\r\n\r\n        // checking via ERC721Enumerable which Token IDs are owned\r\n        for (uint256 indexToCheck = 0; indexToCheck < amountOwned; indexToCheck++ ) {            \r\n            uint256 foundNFT = tokenOfOwnerByIndex(owner, indexToCheck);\r\n            ownedTokenIDs[indexToCheck] = foundNFT;                                  \r\n        } \r\n\r\n        // returning array of NFT Token IDs\r\n        return ownedTokenIDs;        \r\n    }      \r\n\r\n    // used for creating generation 0 monkeys \r\n    function createGen0Monkey(uint256 _genes) public onlyOwner {\r\n        // making sure that no more than 12 monkeys will exist in gen0\r\n        require(gen0amountTotal < GEN0_Limit, \"Maximum amount of gen 0 monkeys reached\");\r\n\r\n        // increasing counter of gen0 monkeys \r\n        gen0amountTotal++;        \r\n\r\n        // minting new monkey NFT to msg.sender, generation and parents gen set to 0\r\n        _createMonkey(0, 0, 0, _genes, _msgSender());        \r\n    }    \r\n        \r\n    // Function to mint demo Monkey NFTs with hardcoded generation 99    \r\n    function createDemoMonkey(               \r\n        uint256 _genes,\r\n        address _owner\r\n    ) public returns (uint256) {\r\n        // needs 50 Banana Token, can get these from faucet contract\r\n        require(bananaToken.balanceOf(_owner) >= _bananaFee, \"Not enough Banana Token. Use the free faucet.\");\r\n        uint256 _oldBalanceOf = bananaToken.balanceOf(address(this));\r\n        // sends creation fee to contract\r\n        bananaToken.transferFrom(_msgSender(), address(this), _bananaFee);\r\n        // validates that contract received the fees\r\n        assert(bananaToken.balanceOf(address(this)) == _oldBalanceOf + _bananaFee);\r\n        uint256 newMonkey = _createMonkey(99, 99, 99, _genes, _owner);\r\n        return newMonkey;\r\n    }\r\n    \r\n    // used for creating monkeys (returns tokenId of new NFT)\r\n    function _createMonkey(\r\n        uint256 _parent1Id,\r\n        uint256 _parent2Id,\r\n        uint256 _generation,\r\n        uint256 _genes,\r\n        address _owner\r\n    ) private whenNotPaused returns (uint256) {\r\n        // uses the CryptoMonkey struct as template and creates a new monkey NFT from it\r\n            CryptoMonkey memory newMonkey = CryptoMonkey({                \r\n            parent1Id: uint256(_parent1Id),\r\n            parent2Id: uint256(_parent2Id),\r\n            generation: uint256(_generation),\r\n            genes: _genes,\r\n            birthtime: uint256(block.timestamp)\r\n        });        \r\n        \r\n        // saving the new monkey NFT to the allMonkeysArray\r\n        allMonkeysArray.push(newMonkey);\r\n        // getting the array length-1 and saving that as the new Token ID, starting with 0\r\n        uint256 newMonkeyId = allMonkeysArray.length.sub(1);\r\n\r\n        // after creation, transferring to new owner, \r\n        // receiving \"to\" address is calling user address, sender is 0 address\r\n        _safeMint(_owner, newMonkeyId);    \r\n\r\n        // emitting creating event\r\n        emit MonkeyCreated(_owner, newMonkeyId, _parent1Id, _parent2Id, _genes);                    \r\n\r\n        // This is the Token ID of the new NFT\r\n        return newMonkeyId;\r\n    } \r\n\r\n    /// * @dev Assign ownership of a specific NFT CryptoMonkey to an address.\r\n    /// * @dev This poses no restriction on _msgSender()\r\n    /// * @param _from The originating \"_from\" address can be 0 for creation of a monkey\r\n    /// * @param _to The receiving \"_to\" address cannot be 0 address, nor this contract\r\n    /// * @param _tokenId The Token ID of the monkey NFT to transfer. Must be owned or have allowance or operator from owner   \r\n    function transferNFT(\r\n        address _from,\r\n        address _to,\r\n        uint256 _tokenId\r\n    ) public nonReentrant whenNotPaused{\r\n        // checking if market is connected    \r\n        if ( _marketConnected == true ) {\r\n            // if it is connected, checking if NFT is on sale in market contract  \r\n            bool tokenOnSale = _monkeyMarketInterface.isTokenOnSale(_tokenId);\r\n            require( tokenOnSale != true, \"MonkeyContract: NFT is still on sale. Remove offer first.\" );\r\n        }\r\n        require(_to != address(0), \"MonkeyContract: Transfer to the zero address not allowed, burn NFT instead\");\r\n        require(_to != address(this), \"MonkeyContract: Can't transfer NFTs to this contract\");\r\n        require (_isApprovedOrOwner(_msgSender(), _tokenId) == true, \"MonkeyContract: Can't transfer this NFT without being owner, approved or operator\");   \r\n\r\n        // transfering via OpenZeppelin's ERC721\r\n        safeTransferFrom(_from, _to, _tokenId);        \r\n    }\r\n\r\n    // burning functionality, just to be called once from the constructor, to clear the zero monkey\r\n    function burnNFT (        \r\n        uint256 _tokenId\r\n    ) private nonReentrant whenNotPaused{     \r\n        require (_isApprovedOrOwner(_msgSender(), _tokenId) == true, \"MonkeyContract: Can't burn this NFT without being owner, approved or operator\");         \r\n        // burning via openzeppelin\r\n        _burn(_tokenId);       \r\n    }\r\n\r\n    // breeding functionality, combining two owned NFTs creates a new third one\r\n    function breed(uint256 _parent1Id, uint256 _parent2Id) public nonReentrant whenNotPaused returns (uint256)  {\r\n        // user needs to have enough Banana Token to use\r\n        require(bananaToken.balanceOf(_msgSender()) >= _bananaFee, \"Not enough Banana Token. Use the free faucet.\");\r\n        uint256 _oldBalanceOf = bananaToken.balanceOf(address(this));\r\n        // sends fee to this contract\r\n        bananaToken.transferFrom(_msgSender(), address(this), _bananaFee);\r\n        // validates that contract received the fees\r\n        assert(bananaToken.balanceOf(address(this)) == _oldBalanceOf + _bananaFee);\r\n\r\n        // _msgSender() needs to be owner of both crypto monkeys\r\n        require(ownerOf(_parent1Id) == _msgSender() && ownerOf(_parent2Id) == _msgSender(), \"MonkeyContract: Must be owner of both parent tokens\");\r\n       \r\n        // calculating new DNA string from two NFT parents' genes\r\n        uint256 _parent1genes = allMonkeysArray[_parent1Id].genes;         \r\n        uint256 _parent2genes = allMonkeysArray[_parent2Id].genes;       \r\n        uint256 _newDna = _mixDna(_parent1genes, _parent2genes);\r\n\r\n        // calculates generation \r\n        uint256 _newGeneration = _calcGeneration(_parent1Id, _parent2Id);\r\n\r\n        // creating new monkey, receiving Token ID from _createMonkey function\r\n        uint256 newMonkeyId = _createMonkey(_parent1Id, _parent2Id, _newGeneration, _newDna, _msgSender());                       \r\n\r\n        // emitting breeding event\r\n        emit BreedingSuccessful(\r\n            newMonkeyId,\r\n            allMonkeysArray[newMonkeyId].genes,\r\n            allMonkeysArray[newMonkeyId].birthtime,\r\n            allMonkeysArray[newMonkeyId].parent1Id,\r\n            allMonkeysArray[newMonkeyId].parent2Id,\r\n            allMonkeysArray[newMonkeyId].generation,\r\n            _msgSender()\r\n        ); \r\n\r\n        // this is the Token ID for the new NFT\r\n        return newMonkeyId;\r\n    }\r\n\r\n    /**\r\n    * @dev Returns a binary between 00000000-11111111\r\n    */\r\n    function _getRandom() internal view returns (uint8) {\r\n        return uint8(block.timestamp % 255);\r\n    } \r\n    \r\n    // will generate a pseudo random number and from that decide whether to take a two-digit pair of genes from _parent1genes or _parent2genes, repeated for 7 pairs (8th pair is pseudoRandomAdv, put in front)\r\n    function _mixDna (uint256 _parent1genes, uint256 _parent2genes) internal view returns (uint256) {\r\n        uint256[8] memory _geneArray;\r\n        uint8 _random = uint8(_getRandom());\r\n        // index position for 2 digits during 7 loops, _geneArray[7]-_geneArray[1]\r\n        uint256 countdown = 7;\r\n\r\n        // Bitshift: move to next binary bit, 7 loops\r\n        for (uint256 i = 1; i <= 64; i = i * 2) {\r\n        // Then add 2 last digits from the dna to the new dna\r\n        if (_random & i != 0) {\r\n            _geneArray[countdown] = uint8(_parent1genes % 100);\r\n        } else {\r\n            _geneArray[countdown] = uint8(_parent2genes % 100);\r\n        }\r\n        //each loop, take off the last 2 digits from the genes number string\r\n        _parent1genes = _parent1genes / 100;\r\n        _parent2genes = _parent2genes / 100;\r\n\r\n        countdown = countdown.sub(1);\r\n        }\r\n\r\n        // creating a pseudo random number and including them in the new DNA, so that it has some unique elements\r\n        uint256 pseudoRandomAdv = uint256(keccak256(abi.encodePacked(uint256(_random), totalSupply(), allMonkeysArray[0].genes)));  \r\n        // makes this number a 2 digit number between 10-98 (largest result of %89 is 88)\r\n        pseudoRandomAdv = (pseudoRandomAdv % 89) + 10;\r\n        // setting first 2 digits in DNA string to this new 2 digit number\r\n        _geneArray[0] = pseudoRandomAdv;\r\n\r\n        uint256 newGeneSequence;        \r\n        \r\n        // puts in last positioned array entry (2 digits) as first numbers, then adds 00, then adds again,\r\n        // therefore reversing the backwards information in the array again to correct order \r\n        for (uint256 j = 0; j < 8; j++) {\r\n            newGeneSequence = newGeneSequence + _geneArray[j];\r\n\r\n            // will stop adding zeros after last repetition\r\n            if (j != 7)  {\r\n                newGeneSequence = newGeneSequence * 100;\r\n            }                \r\n        }\r\n\r\n        return newGeneSequence;      \r\n    }\r\n\r\n    // calculates generation of newly bred NFTs\r\n    function _calcGeneration (uint256 _parent1Id, uint256 _parent2Id) internal view returns(uint256) {        \r\n\r\n        uint256 _generationOfParent1 = allMonkeysArray[_parent1Id].generation; \r\n        uint256 _generationOfParent2 = allMonkeysArray[_parent2Id].generation; \r\n\r\n        require(_generationOfParent1 < 1000 && _generationOfParent2 < 1000, \"Parents cannot breed above gen999\");\r\n\r\n        // if both parents have same gen, child will be parents' gen+1  \r\n\r\n        // if they have different gen, new gen is average of parents gen plus 2\r\n        // for ex. 1 + 5 = 6, 6/2 = 3, 3+2 = 5, newGeneration would be 5\r\n\r\n        // rounding numbers down if odd: \r\n        // for ex. 1+2=3, 3*10 = 30, 30/2 = 15\r\n        // 15 % 10 = 5, 5>0, 15-5=10\r\n        // 10 / 10 = 1, 1+2 = 3\r\n        // newGeneration = 3       \r\n\r\n        uint256 newGeneration;\r\n\r\n        if (_generationOfParent1 != _generationOfParent2) {\r\n            uint256 _roundingNumbers = (((_generationOfParent1 + _generationOfParent2) * 10) / 2); \r\n            if (_roundingNumbers % 10 > 0) {\r\n                _roundingNumbers - 5;      \r\n            }\r\n            newGeneration = (_roundingNumbers / 10 ) + 2;            \r\n        }\r\n        \r\n        else {\r\n            newGeneration = ((_generationOfParent1 + _generationOfParent2) / 2) + 1;              \r\n        }\r\n\r\n        return newGeneration;\r\n    }\r\n\r\n    // overriding ERC721's function, including whenNotPaused for added security\r\n    function transferFrom(address from, address to, uint256 tokenId) public override whenNotPaused {\r\n        // if market is connected, check if this token to be transferred is on sale at the moment.    \r\n        if ( _marketConnected == true ) {\r\n            bool tokenOnSale = _monkeyMarketInterface.isTokenOnSale(tokenId);\r\n            require( tokenOnSale != true, \"MonkeyContract: NFT is still on sale. Remove offer first.\" );\r\n        }\r\n        \r\n        require(_isApprovedOrOwner(_msgSender(), tokenId), \"ERC721: transfer caller is not owner nor approved\");\r\n\r\n        _transfer(from, to, tokenId);\r\n    }\r\n\r\n    // overriding ERC721's function, including whenNotPaused for added security\r\n    function safeTransferFrom(address from, address to, uint256 tokenId) public override whenNotPaused {\r\n        // if market is connected, check if this token to be transferred is on sale at the moment.   \r\n        if ( _marketConnected == true ) {\r\n             bool tokenOnSale = _monkeyMarketInterface.isTokenOnSale(tokenId);\r\n            require( tokenOnSale != true, \"MonkeyContract: NFT is still on sale. Remove offer first.\" );\r\n        }\r\n        require(_isApprovedOrOwner(_msgSender(), tokenId), \"ERC721: transfer caller is not owner nor approved\");        \r\n        safeTransferFrom(from, to, tokenId, \"\");\r\n    }\r\n\r\n    // overriding ERC721's function, including whenNotPaused for added security\r\n    function safeTransferFrom(address from, address to, uint256 tokenId, bytes memory _data) public override whenNotPaused {\r\n        // if market is connected, check if this token to be transferred is on sale at the moment.        \r\n        if ( _marketConnected == true ) {\r\n            bool tokenOnSale = _monkeyMarketInterface.isTokenOnSale(tokenId);    \r\n            require( tokenOnSale != true, \"MonkeyContract: NFT is still on sale. Remove offer first.\" );\r\n        }\r\n        require(_isApprovedOrOwner(_msgSender(), tokenId), \"ERC721: transfer caller is not owner nor approved\");\r\n        _safeTransfer(from, to, tokenId, _data);\r\n    }\r\n    \r\n    // function for owner to withdraw any ETH that has accumulated in this contract\r\n    function withdrawETH () public onlyOwner {\r\n        address payable receiver = payable(_msgSender());\r\n        receiver.transfer(_monkeyContractAddress.balance);\r\n    }    \r\n    \r\n    // function for owner to withdraw any ERC20 token that has accumulated in this contract\r\n    function withdrawERC20 (address ERC20ContractAddress) public onlyOwner payable {\r\n        IERC20 ERC20Instance = IERC20(ERC20ContractAddress);    \r\n        uint256 allOfTheseTokensHere = ERC20Instance.balanceOf(address(this));\r\n        ERC20Instance.transfer(_msgSender() , allOfTheseTokensHere);        \r\n    }\r\n\r\n    // function for owner to withdraw any Banana Token that has accumulated in this contract\r\n    function withdrawBananas () public onlyOwner  {\r\n        uint256 allBananasHere = bananaToken.balanceOf(address(this));\r\n        bananaToken.transfer(_msgSender() , allBananasHere);\r\n    }\r\n}\r\n\r\n\r\n\r\n   ",
  "sourcePath": "C:\\github\\CryptoMonkeys\\contracts\\MonkeyContract.sol",
  "compiler": {
    "name": "solc",
    "version": "0.8.0+commit.c7dfd78e.Emscripten.clang"
  },
  "schemaVersion": "3.2.0",
  "updatedAt": "2021-08-26T19:33:07.254Z",
  "networkType": "ethereum",
  "devdoc": {
    "kind": "dev",
    "methods": {
      "approve(address,uint256)": {
        "details": "See {IERC721-approve}."
      },
      "balanceOf(address)": {
        "details": "See {IERC721-balanceOf}."
      },
      "getApproved(uint256)": {
        "details": "See {IERC721-getApproved}."
      },
      "isApprovedForAll(address,address)": {
        "details": "See {IERC721-isApprovedForAll}."
      },
      "name()": {
        "details": "See {IERC721Metadata-name}."
      },
      "owner()": {
        "details": "Returns the address of the current owner."
      },
      "ownerOf(uint256)": {
        "details": "See {IERC721-ownerOf}."
      },
      "paused()": {
        "details": "Returns true if the contract is paused, and false otherwise."
      },
      "renounceOwnership()": {
        "details": "Leaves the contract without owner. It will not be possible to call `onlyOwner` functions anymore. Can only be called by the current owner. NOTE: Renouncing ownership will leave the contract without an owner, thereby removing any functionality that is only available to the owner."
      },
      "safeTransferFrom(address,address,uint256)": {
        "details": "See {IERC721-safeTransferFrom}."
      },
      "safeTransferFrom(address,address,uint256,bytes)": {
        "details": "See {IERC721-safeTransferFrom}."
      },
      "setApprovalForAll(address,bool)": {
        "details": "See {IERC721-setApprovalForAll}."
      },
      "supportsInterface(bytes4)": {
        "details": "See {IERC165-supportsInterface}."
      },
      "symbol()": {
        "details": "See {IERC721Metadata-symbol}."
      },
      "tokenByIndex(uint256)": {
        "details": "See {IERC721Enumerable-tokenByIndex}."
      },
      "tokenOfOwnerByIndex(address,uint256)": {
        "details": "See {IERC721Enumerable-tokenOfOwnerByIndex}."
      },
      "tokenURI(uint256)": {
        "details": "See {IERC721Metadata-tokenURI}."
      },
      "totalSupply()": {
        "details": "See {IERC721Enumerable-totalSupply}."
      },
      "transferFrom(address,address,uint256)": {
        "details": "See {IERC721-transferFrom}."
      },
      "transferNFT(address,address,uint256)": {
        "details": "Assign ownership of a specific NFT CryptoMonkey to an address.This poses no restriction on _msgSender()",
        "params": {
          "_from": "The originating \"_from\" address can be 0 for creation of a monkey",
          "_to": "The receiving \"_to\" address cannot be 0 address, nor this contract",
          "_tokenId": "The Token ID of the monkey NFT to transfer. Must be owned or have allowance or operator from owner   "
        }
      },
      "transferOwnership(address)": {
        "details": "Transfers ownership of the contract to a new account (`newOwner`). Can only be called by the current owner."
      }
    },
    "version": 1
  },
  "userdoc": {
    "kind": "user",
    "methods": {},
    "version": 1
  }
}