{
  "contractName": "MonkeyMarketplace",
  "abi": [
    {
      "inputs": [
        {
          "internalType": "address",
          "name": "_constructorMonkeyContractAddress",
          "type": "address"
        }
      ],
      "payable": false,
      "stateMutability": "nonpayable",
      "type": "constructor"
    },
    {
      "anonymous": false,
      "inputs": [
        {
          "indexed": false,
          "internalType": "string",
          "name": "TxType",
          "type": "string"
        },
        {
          "indexed": false,
          "internalType": "address",
          "name": "owner",
          "type": "address"
        },
        {
          "indexed": false,
          "internalType": "uint256",
          "name": "tokenId",
          "type": "uint256"
        }
      ],
      "name": "MarketTransaction",
      "type": "event"
    },
    {
      "anonymous": false,
      "inputs": [
        {
          "indexed": false,
          "internalType": "address",
          "name": "seller",
          "type": "address"
        },
        {
          "indexed": false,
          "internalType": "address",
          "name": "buyer",
          "type": "address"
        },
        {
          "indexed": false,
          "internalType": "uint256",
          "name": "priceInGwei",
          "type": "uint256"
        },
        {
          "indexed": false,
          "internalType": "uint256",
          "name": "tokenId",
          "type": "uint256"
        }
      ],
      "name": "monkeySold",
      "type": "event"
    },
    {
      "constant": true,
      "inputs": [],
      "name": "contractOwner",
      "outputs": [
        {
          "internalType": "address payable",
          "name": "",
          "type": "address"
        }
      ],
      "payable": false,
      "stateMutability": "view",
      "type": "function"
    },
    {
      "constant": false,
      "inputs": [
        {
          "internalType": "address",
          "name": "_newMonkeyContractAddress",
          "type": "address"
        }
      ],
      "name": "setMonkeyContract",
      "outputs": [],
      "payable": false,
      "stateMutability": "nonpayable",
      "type": "function"
    },
    {
      "constant": true,
      "inputs": [
        {
          "internalType": "uint256",
          "name": "_tokenId",
          "type": "uint256"
        }
      ],
      "name": "getOffer",
      "outputs": [
        {
          "internalType": "address",
          "name": "seller",
          "type": "address"
        },
        {
          "internalType": "uint256",
          "name": "price",
          "type": "uint256"
        },
        {
          "internalType": "uint256",
          "name": "index",
          "type": "uint256"
        },
        {
          "internalType": "uint256",
          "name": "tokenId",
          "type": "uint256"
        },
        {
          "internalType": "bool",
          "name": "active",
          "type": "bool"
        }
      ],
      "payable": false,
      "stateMutability": "view",
      "type": "function"
    },
    {
      "constant": true,
      "inputs": [],
      "name": "getAllTokenOnSale",
      "outputs": [
        {
          "internalType": "uint256[]",
          "name": "listOfOffers",
          "type": "uint256[]"
        }
      ],
      "payable": false,
      "stateMutability": "view",
      "type": "function"
    },
    {
      "constant": false,
      "inputs": [
        {
          "internalType": "uint256",
          "name": "_price",
          "type": "uint256"
        },
        {
          "internalType": "uint256",
          "name": "_tokenId",
          "type": "uint256"
        }
      ],
      "name": "setOffer",
      "outputs": [],
      "payable": false,
      "stateMutability": "nonpayable",
      "type": "function"
    },
    {
      "constant": false,
      "inputs": [
        {
          "internalType": "uint256",
          "name": "_tokenId",
          "type": "uint256"
        }
      ],
      "name": "removeOffer",
      "outputs": [],
      "payable": false,
      "stateMutability": "nonpayable",
      "type": "function"
    },
    {
      "constant": false,
      "inputs": [
        {
          "internalType": "uint256",
          "name": "_tokenId",
          "type": "uint256"
        }
      ],
      "name": "buyMonkey",
      "outputs": [],
      "payable": true,
      "stateMutability": "payable",
      "type": "function"
    }
  ],
  "bytecode": "0x608060405234801561001057600080fd5b506040516116ac3803806116ac8339818101604052602081101561003357600080fd5b8101908080519060200190929190505050336000806101000a81548173ffffffffffffffffffffffffffffffffffffffff021916908373ffffffffffffffffffffffffffffffffffffffff1602179055506100938161009960201b60201c565b50610136565b6000809054906101000a900473ffffffffffffffffffffffffffffffffffffffff1673ffffffffffffffffffffffffffffffffffffffff163373ffffffffffffffffffffffffffffffffffffffff16146100f257600080fd5b80600160006101000a81548173ffffffffffffffffffffffffffffffffffffffff021916908373ffffffffffffffffffffffffffffffffffffffff16021790555050565b611567806101456000396000f3fe6080604052600436106100705760003560e01c80638ec6223d1161004e5780638ec6223d146101aa578063941b055b146101fb57806395a0f9c714610240578063ce606ee01461027b57610070565b80634579268a1461007557806349b3709f14610110578063615fc0e21461017c575b600080fd5b34801561008157600080fd5b506100ae6004803603602081101561009857600080fd5b81019080803590602001909291905050506102d2565b604051808673ffffffffffffffffffffffffffffffffffffffff1673ffffffffffffffffffffffffffffffffffffffff168152602001858152602001848152602001838152602001821515151581526020019550505050505060405180910390f35b34801561011c57600080fd5b5061012561043a565b6040518080602001828103825283818151815260200191508051906020019060200280838360005b8381101561016857808201518184015260208101905061014d565b505050509050019250505060405180910390f35b6101a86004803603602081101561019257600080fd5b810190808035906020019092919050505061054a565b005b3480156101b657600080fd5b506101f9600480360360208110156101cd57600080fd5b81019080803573ffffffffffffffffffffffffffffffffffffffff169060200190929190505050610ae4565b005b34801561020757600080fd5b5061023e6004803603604081101561021e57600080fd5b810190808035906020019092919080359060200190929190505050610b81565b005b34801561024c57600080fd5b506102796004803603602081101561026357600080fd5b81019080803590602001909291905050506111c1565b005b34801561028757600080fd5b50610290611469565b604051808273ffffffffffffffffffffffffffffffffffffffff1673ffffffffffffffffffffffffffffffffffffffff16815260200191505060405180910390f35b60008060008060006003600087815260200190815260200160002060040160009054906101000a900460ff16610353576040517f08c379a00000000000000000000000000000000000000000000000000000000081526004018080602001828103825260218152602001806115126021913960400191505060405180910390fd5b61035b61148e565b600360008881526020019081526020016000206040518060a00160405290816000820160009054906101000a900473ffffffffffffffffffffffffffffffffffffffff1673ffffffffffffffffffffffffffffffffffffffff1673ffffffffffffffffffffffffffffffffffffffff1681526020016001820154815260200160028201548152602001600382015481526020016004820160009054906101000a900460ff161515151581525050905080600001518160200151826040015183606001518460800151849450955095509550955095505091939590929450565b606060006002805490509050600081141561048857600060405190808252806020026020018201604052801561047f5781602001602082028038833980820191505090505b50915050610547565b6060816040519080825280602002602001820160405280156104b95781602001602082028038833980820191505090505b50905060008090505b8281101561054057600281815481106104d757fe5b906000526020600020906005020160040160009054906101000a900460ff1615610533576002818154811061050857fe5b90600052602060002090600502016003015482828151811061052657fe5b6020026020010181815250505b80806001019150506104c2565b5080925050505b90565b61055261148e565b600360008381526020019081526020016000206040518060a00160405290816000820160009054906101000a900473ffffffffffffffffffffffffffffffffffffffff1673ffffffffffffffffffffffffffffffffffffffff1673ffffffffffffffffffffffffffffffffffffffff1681526020016001820154815260200160028201548152602001600382015481526020016004820160009054906101000a900460ff161515151581525050905060011515816080015115151461067f576040517f08c379a000000000000000000000000000000000000000000000000000000000815260040180806020018281038252601f8152602001807f4e6f20616374697665206f6666657220666f722074686973206d6f6e6b65790081525060200191505060405180910390fd5b348160200151146106f8576040517f08c379a000000000000000000000000000000000000000000000000000000000815260040180806020018281038252601e8152602001807f4e6f742073656e64696e672074686520636f727265637420616d6f756e74000081525060200191505060405180910390fd5b6000633b9aca00348161070757fe5b0490506000826000015190506000600284604001518154811061072657fe5b906000526020600020906005020160040160006101000a81548160ff02191690831515021790555060036000858152602001908152602001600020600080820160006101000a81549073ffffffffffffffffffffffffffffffffffffffff02191690556001820160009055600282016000905560038201600090556004820160006101000a81549060ff021916905550506107bf61148e565b9250600160009054906101000a900473ffffffffffffffffffffffffffffffffffffffff1673ffffffffffffffffffffffffffffffffffffffff166323b872dd8233876040518463ffffffff1660e01b8152600401808473ffffffffffffffffffffffffffffffffffffffff1673ffffffffffffffffffffffffffffffffffffffff1681526020018373ffffffffffffffffffffffffffffffffffffffff1673ffffffffffffffffffffffffffffffffffffffff1681526020018281526020019350505050600060405180830381600087803b15801561089e57600080fd5b505af11580156108b2573d6000803e3d6000fd5b5050505060008173ffffffffffffffffffffffffffffffffffffffff163460405180600001905060006040518083038185875af1925050503d8060008114610916576040519150601f19603f3d011682016040523d82523d6000602084013e61091b565b606091505b5050905080610992576040517f08c379a00000000000000000000000000000000000000000000000000000000081526004018080602001828103825260198152602001807f5472616e7366657220646964206e6f742073756363636565640000000000000081525060200191505060405180910390fd5b7fd99e4fad9ad6313b1feb588fa8e605e3a9873172f2024330c35dd2b4041a4386338660405180806020018473ffffffffffffffffffffffffffffffffffffffff1673ffffffffffffffffffffffffffffffffffffffff168152602001838152602001828103825260038152602001807f4275790000000000000000000000000000000000000000000000000000000000815250602001935050505060405180910390a17f9f1cc9f631ef4adfe7b8fb5180733fe8e804f452ee94cd404396f67e515136a482338588604051808573ffffffffffffffffffffffffffffffffffffffff1673ffffffffffffffffffffffffffffffffffffffff1681526020018473ffffffffffffffffffffffffffffffffffffffff1673ffffffffffffffffffffffffffffffffffffffff16815260200183815260200182815260200194505050505060405180910390a15050505050565b6000809054906101000a900473ffffffffffffffffffffffffffffffffffffffff1673ffffffffffffffffffffffffffffffffffffffff163373ffffffffffffffffffffffffffffffffffffffff1614610b3d57600080fd5b80600160006101000a81548173ffffffffffffffffffffffffffffffffffffffff021916908373ffffffffffffffffffffffffffffffffffffffff16021790555050565b6000600160009054906101000a900473ffffffffffffffffffffffffffffffffffffffff1673ffffffffffffffffffffffffffffffffffffffff16636352211e836040518263ffffffff1660e01b81526004018082815260200191505060206040518083038186803b158015610bf657600080fd5b505afa158015610c0a573d6000803e3d6000fd5b505050506040513d6020811015610c2057600080fd5b810190808051906020019092919050505090503373ffffffffffffffffffffffffffffffffffffffff168173ffffffffffffffffffffffffffffffffffffffff1614610c6b57600080fd5b600160009054906101000a900473ffffffffffffffffffffffffffffffffffffffff1673ffffffffffffffffffffffffffffffffffffffff1663e985e9c533306040518363ffffffff1660e01b8152600401808373ffffffffffffffffffffffffffffffffffffffff1673ffffffffffffffffffffffffffffffffffffffff1681526020018273ffffffffffffffffffffffffffffffffffffffff1673ffffffffffffffffffffffffffffffffffffffff1681526020019250505060206040518083038186803b158015610d3e57600080fd5b505afa158015610d52573d6000803e3d6000fd5b505050506040513d6020811015610d6857600080fd5b8101908080519060200190929190505050610dce576040517f08c379a000000000000000000000000000000000000000000000000000000000815260040180806020018281038252603c8152602001806114d6603c913960400191505060405180910390fd5b610dd661148e565b600360008481526020019081526020016000206040518060a00160405290816000820160009054906101000a900473ffffffffffffffffffffffffffffffffffffffff1673ffffffffffffffffffffffffffffffffffffffff1673ffffffffffffffffffffffffffffffffffffffff1681526020016001820154815260200160028201548152602001600382015481526020016004820160009054906101000a900460ff161515151581525050905060011515816080015115151415610f75576002816040015181548110610ea757fe5b9060005260206000209060050201600080820160006101000a81549073ffffffffffffffffffffffffffffffffffffffff02191690556001820160009055600282016000905560038201600090556004820160006101000a81549060ff0219169055505060036000848152602001908152602001600020600080820160006101000a81549073ffffffffffffffffffffffffffffffffffffffff02191690556001820160009055600282016000905560038201600090556004820160006101000a81549060ff021916905550505b610f7d61148e565b6040518060a001604052803373ffffffffffffffffffffffffffffffffffffffff1681526020018681526020016002805490508152602001858152602001600115158152509050806003600086815260200190815260200160002060008201518160000160006101000a81548173ffffffffffffffffffffffffffffffffffffffff021916908373ffffffffffffffffffffffffffffffffffffffff16021790555060208201518160010155604082015181600201556060820151816003015560808201518160040160006101000a81548160ff0219169083151502179055509050506002819080600181540180825580915050906001820390600052602060002090600502016000909192909190915060008201518160000160006101000a81548173ffffffffffffffffffffffffffffffffffffffff021916908373ffffffffffffffffffffffffffffffffffffffff16021790555060208201518160010155604082015181600201556060820151816003015560808201518160040160006101000a81548160ff0219169083151502179055505050507fd99e4fad9ad6313b1feb588fa8e605e3a9873172f2024330c35dd2b4041a4386838560405180806020018473ffffffffffffffffffffffffffffffffffffffff1673ffffffffffffffffffffffffffffffffffffffff1681526020018381526020018281038252600c8152602001807f437265617465206f666665720000000000000000000000000000000000000000815250602001935050505060405180910390a15050505050565b6111c961148e565b600360008381526020019081526020016000206040518060a00160405290816000820160009054906101000a900473ffffffffffffffffffffffffffffffffffffffff1673ffffffffffffffffffffffffffffffffffffffff1673ffffffffffffffffffffffffffffffffffffffff1681526020016001820154815260200160028201548152602001600382015481526020016004820160009054906101000a900460ff16151515158152505090503373ffffffffffffffffffffffffffffffffffffffff16816000015173ffffffffffffffffffffffffffffffffffffffff161461131d576040517f08c379a00000000000000000000000000000000000000000000000000000000081526004018080602001828103825260148152602001807f596f75277265206e6f7420746865206f776e657200000000000000000000000081525060200191505060405180910390fd5b6000600282604001518154811061133057fe5b906000526020600020906005020160040160006101000a81548160ff02191690831515021790555060036000838152602001908152602001600020600080820160006101000a81549073ffffffffffffffffffffffffffffffffffffffff02191690556001820160009055600282016000905560038201600090556004820160006101000a81549060ff021916905550507fd99e4fad9ad6313b1feb588fa8e605e3a9873172f2024330c35dd2b4041a4386338360405180806020018473ffffffffffffffffffffffffffffffffffffffff1673ffffffffffffffffffffffffffffffffffffffff1681526020018381526020018281038252600c8152602001807f52656d6f7665206f666665720000000000000000000000000000000000000000815250602001935050505060405180910390a15050565b6000809054906101000a900473ffffffffffffffffffffffffffffffffffffffff1681565b6040518060a00160405280600073ffffffffffffffffffffffffffffffffffffffff168152602001600081526020016000815260200160008152602001600015158152509056fe4d61726b6574706c6163652061646472657373206e65656473206f70657261746f72207374617475732066726f6d206d6f6e6b6579206f776e65722e4e6f20616374697665206f6666657220666f72207468697320746f6b656e49642ea265627a7a72315820f71c634b54dbaf0760536fa49b7ca7c2ed92fbb4660bced6ed43c6f7a43d375c64736f6c634300050c0032",
  "source": "pragma solidity ^0.5.12;\r\n\r\nimport \"./Monkeycontract.sol\";\r\nimport \"./Ownable.sol\";\r\nimport \"./IMonkeyMarketplace.sol\";\r\n// preparing safemath to rule out over- and underflow  \r\nimport \"./Safemath.sol\";\r\n\r\ncontract MonkeyMarketplace is Ownable, IMonkeyMarketplace  {\r\n  using SafeMath for uint256;\r\n\r\n  MonkeyContract private _monkeycontract;\r\n\r\n  struct Offer {\r\n    address payable seller;\r\n    uint256 price;\r\n    uint256 index;\r\n    uint256 tokenId;    \r\n    bool active;\r\n  }\r\n\r\n  Offer[] offersArray; \r\n\r\n  mapping (uint256 => Offer) tokenIdToOfferMapping;   \r\n\r\n  event MarketTransaction(string TxType, address owner, uint256 tokenId);\r\n\r\n  event monkeySold (address seller, address buyer, uint256 priceInGwei, uint256 tokenId);  \r\n  \r\n  /** \r\n  * Sets the current MonkeyContract address and initializes the instance of Monkeycontract.\r\n  * Requirement: Only the contract owner can call.\r\n  */\r\n  function setMonkeyContract(address _newMonkeyContractAddress) public onlyOwner {\r\n   _monkeycontract = MonkeyContract(_newMonkeyContractAddress);\r\n  }\r\n\r\n  constructor (address _constructorMonkeyContractAddress) public {\r\n    setMonkeyContract(_constructorMonkeyContractAddress); \r\n  }\r\n\r\n /**\r\n  * Get the details about a offer for _tokenId. Throws an error if there is no active offer for _tokenId.\r\n  */\r\n  function getOffer(uint256 _tokenId) external view returns (address seller, uint256 price, uint256 index, uint256 tokenId, bool active)\r\n  {\r\n    require (tokenIdToOfferMapping[_tokenId].active, \"No active offer for this tokenId.\");\r\n\r\n    Offer memory offer = tokenIdToOfferMapping[_tokenId]; \r\n    return (\r\n    offer.seller,\r\n    offer.price,\r\n    offer.index, \r\n    offer.tokenId,\r\n    offer.active       \r\n    );\r\n  }\r\n\r\n  /**\r\n  * Get all tokenId's that are currently for sale. \r\n  * Returns an empty array if none exist.\r\n  */\r\n  function getAllTokenOnSale() external view returns(uint256[] memory listOfOffers) {  \r\n\r\n    uint256 numberOfOffers = offersArray.length;\r\n\r\n    if (numberOfOffers == 0){\r\n      return new uint256[](0);\r\n    }\r\n    else {\r\n\r\n      uint256[] memory result = new uint256[](numberOfOffers);\r\n\r\n      for (uint256 k = 0; k < numberOfOffers; k++) {\r\n        if (offersArray[k].active) {\r\n          result[k] = offersArray[k].tokenId;\r\n        }         \r\n      }\r\n\r\n      return result; \r\n\r\n    }\r\n   \r\n  }\r\n\r\n  /**\r\n  * Creates a new offer for _tokenId for the price _price.\r\n  * Emits the MarketTransaction event with txType \"Create offer\"\r\n  * Requirement: Only the owner of _tokenId can create an offer.\r\n  * Requirement: There can only be one active offer for a token at a time.\r\n  * Requirement: Marketplace contract (this) needs to be an approved operator when the offer is created.\r\n  */    \r\n  function setOffer(uint256 _price, uint256 _tokenId) external {    \r\n\r\n    //  Only the owner of _tokenId can create an offer.\r\n    address monkeyOwner = _monkeycontract.ownerOf(_tokenId);\r\n    require( monkeyOwner == msg.sender);\r\n\r\n    //Marketplace contract (this) needs to be an approved operator when the offer is created.\r\n    require(_monkeycontract.isApprovedForAll(msg.sender, address(this)), \"Marketplace address needs operator status from monkey owner.\");\r\n\r\n    Offer memory tokenOffer = tokenIdToOfferMapping[_tokenId];\r\n\r\n    // There can only be one active offer for a token at a time.    \r\n    if (tokenOffer.active == true) {\r\n      \r\n      // delete offer array entry \r\n      delete offersArray[tokenOffer.index]; \r\n\r\n      // delete mapping entry\r\n      delete tokenIdToOfferMapping[_tokenId];\r\n\r\n      // emit MarketTransaction(\"Remove offer\", msg.sender, _tokenId);\r\n    }\r\n    \r\n    // Creating a new offer from the Offer struct \"blueprint\"\r\n    Offer memory _newOffer = Offer({\r\n      seller: msg.sender,\r\n      price: _price,\r\n      tokenId: _tokenId,      \r\n      active: true,\r\n      index: offersArray.length  // This is the index it has in the offersArray, see below\r\n    });\r\n\r\n    // saving new offer (it's a struct) to mapping \r\n    tokenIdToOfferMapping[_tokenId] = _newOffer;    \r\n\r\n    offersArray.push(_newOffer);  \r\n\r\n    emit MarketTransaction(\"Create offer\", monkeyOwner, _tokenId);\r\n\r\n  }\r\n\r\n  /**\r\n  * Removes an existing offer.\r\n  * Emits the MarketTransaction event with txType \"Remove offer\"\r\n  * Requirement: Only the seller of _tokenId can remove an offer.\r\n  */\r\n  function removeOffer(uint256 _tokenId) external {\r\n\r\n    Offer memory tokenOffer = tokenIdToOfferMapping[_tokenId];\r\n\r\n    //  Only the owner of _tokenId can delete an offer.\r\n    require(tokenOffer.seller == msg.sender, \"You're not the owner\");    \r\n\r\n    // setting array entry inactive\r\n    offersArray[tokenOffer.index].active = false;\r\n\r\n    // deleting mapping entry\r\n    delete tokenIdToOfferMapping[_tokenId];      \r\n\r\n    emit MarketTransaction(\"Remove offer\", msg.sender, _tokenId);\r\n    \r\n  }\r\n\r\n  /**\r\n  * Executes the purchase of _tokenId.\r\n  * Sends the funds to the seller and transfers the token using transferFrom in Monkeycontract.   \r\n  * Emits the MarketTransaction event with txType \"Buy\".\r\n  * Requirement: The msg.value needs to equal the price of _tokenId\r\n  * Requirement: There must be an active offer for _tokenId\r\n  */\r\n  function buyMonkey(uint256 _tokenId) external payable {    \r\n\r\n    Offer memory tokenOffer = tokenIdToOfferMapping[_tokenId];\r\n    \r\n    require(tokenOffer.active == true, \"No active offer for this monkey\" );\r\n\r\n    require(tokenOffer.price == msg.value, \"Not sending the correct amount\");    \r\n\r\n    uint256 _priceInGwei = msg.value / 1000000000;\r\n                                       \r\n    address _oldOwner = tokenOffer.seller;\r\n\r\n    // deactivating offer by setting array entry inactive\r\n    offersArray[tokenOffer.index].active = false;\r\n\r\n    // deleting offer mapping entry\r\n    delete tokenIdToOfferMapping[_tokenId];\r\n\r\n    // deleting local memory variable against re-entrancy  \r\n    delete tokenOffer;    \r\n\r\n    // transferring the NFT\r\n    _monkeycontract.transferFrom(_oldOwner, msg.sender, _tokenId);  \r\n\r\n    // transferring sent funds to _oldOwner\r\n    (bool success, ) = _oldOwner.call.value(msg.value)(\"\");        \r\n    require(success, \"Transfer did not succceed\");\r\n\r\n    // emitting events\r\n    emit MarketTransaction(\"Buy\", msg.sender, _tokenId);\r\n    emit monkeySold (_oldOwner, msg.sender, _priceInGwei, _tokenId);\r\n  }\r\n\r\n} ",
  "sourcePath": "D:\\8Github\\CryptoMonkeys\\contracts\\MonkeyMarketplace.sol",
  "compiler": {
    "name": "solc",
    "version": "0.5.12+commit.7709ece9.Emscripten.clang"
  },
  "schemaVersion": "3.2.0",
  "updatedAt": "2021-05-24T13:45:37.367Z",
  "networkType": "ethereum",
  "devdoc": {
    "methods": {}
  },
  "userdoc": {
    "methods": {
      "buyMonkey(uint256)": {
        "notice": "Executes the purchase of _tokenId. Sends the funds to the seller and transfers the token using transferFrom in Monkeycontract.    Emits the MarketTransaction event with txType \"Buy\". Requirement: The msg.value needs to equal the price of _tokenId Requirement: There must be an active offer for _tokenId"
      },
      "getAllTokenOnSale()": {
        "notice": "Get all tokenId's that are currently for sale.  Returns an empty array if none exist."
      },
      "getOffer(uint256)": {
        "notice": "Get the details about a offer for _tokenId. Throws an error if there is no active offer for _tokenId."
      },
      "removeOffer(uint256)": {
        "notice": "Removes an existing offer. Emits the MarketTransaction event with txType \"Remove offer\" Requirement: Only the seller of _tokenId can remove an offer."
      },
      "setMonkeyContract(address)": {
        "notice": "Sets the current MonkeyContract address and initializes the instance of Monkeycontract. Requirement: Only the contract owner can call."
      },
      "setOffer(uint256,uint256)": {
        "notice": "Creates a new offer for _tokenId for the price _price. Emits the MarketTransaction event with txType \"Create offer\" Requirement: Only the owner of _tokenId can create an offer. Requirement: There can only be one active offer for a token at a time. Requirement: Marketplace contract (this) needs to be an approved operator when the offer is created."
      }
    }
  }
}