{
  "contractName": "MonkeyContract",
  "abi": [
    {
      "inputs": [],
      "payable": false,
      "stateMutability": "nonpayable",
      "type": "constructor"
    },
    {
      "anonymous": false,
      "inputs": [
        {
          "indexed": true,
          "internalType": "address",
          "name": "owner",
          "type": "address"
        },
        {
          "indexed": true,
          "internalType": "address",
          "name": "approved",
          "type": "address"
        },
        {
          "indexed": true,
          "internalType": "uint256",
          "name": "tokenId",
          "type": "uint256"
        }
      ],
      "name": "Approval",
      "type": "event"
    },
    {
      "anonymous": false,
      "inputs": [
        {
          "indexed": true,
          "internalType": "address",
          "name": "owner",
          "type": "address"
        },
        {
          "indexed": true,
          "internalType": "address",
          "name": "operator",
          "type": "address"
        },
        {
          "indexed": false,
          "internalType": "bool",
          "name": "approved",
          "type": "bool"
        }
      ],
      "name": "ApprovalForAll",
      "type": "event"
    },
    {
      "anonymous": false,
      "inputs": [
        {
          "indexed": false,
          "internalType": "address",
          "name": "owner",
          "type": "address"
        },
        {
          "indexed": false,
          "internalType": "uint256",
          "name": "tokenId",
          "type": "uint256"
        },
        {
          "indexed": false,
          "internalType": "uint256",
          "name": "parent1Id",
          "type": "uint256"
        },
        {
          "indexed": false,
          "internalType": "uint256",
          "name": "parent2Id",
          "type": "uint256"
        },
        {
          "indexed": false,
          "internalType": "uint256",
          "name": "genes",
          "type": "uint256"
        }
      ],
      "name": "MonkeyCreated",
      "type": "event"
    },
    {
      "anonymous": false,
      "inputs": [
        {
          "indexed": false,
          "internalType": "address",
          "name": "transferringAddress",
          "type": "address"
        },
        {
          "indexed": false,
          "internalType": "address",
          "name": "oldOwner",
          "type": "address"
        },
        {
          "indexed": false,
          "internalType": "uint256",
          "name": "tokenId",
          "type": "uint256"
        },
        {
          "indexed": false,
          "internalType": "address",
          "name": "newOwner",
          "type": "address"
        },
        {
          "indexed": false,
          "internalType": "uint256[]",
          "name": "newOwnerArrayUpdated",
          "type": "uint256[]"
        },
        {
          "indexed": false,
          "internalType": "uint256",
          "name": "positionInNewOwnersArray",
          "type": "uint256"
        }
      ],
      "name": "NewOwnerArrayUpdated",
      "type": "event"
    },
    {
      "anonymous": false,
      "inputs": [
        {
          "indexed": false,
          "internalType": "uint256",
          "name": "tokenId",
          "type": "uint256"
        },
        {
          "indexed": false,
          "internalType": "address",
          "name": "oldOwner",
          "type": "address"
        },
        {
          "indexed": false,
          "internalType": "uint256[]",
          "name": "oldOwnerArrayUpdated",
          "type": "uint256[]"
        }
      ],
      "name": "OldOwnerArrayUpdated",
      "type": "event"
    },
    {
      "anonymous": false,
      "inputs": [
        {
          "indexed": true,
          "internalType": "address",
          "name": "from",
          "type": "address"
        },
        {
          "indexed": true,
          "internalType": "address",
          "name": "to",
          "type": "address"
        },
        {
          "indexed": true,
          "internalType": "uint256",
          "name": "tokenId",
          "type": "uint256"
        }
      ],
      "name": "Transfer",
      "type": "event"
    },
    {
      "constant": true,
      "inputs": [],
      "name": "GEN0_Limit",
      "outputs": [
        {
          "internalType": "uint256",
          "name": "",
          "type": "uint256"
        }
      ],
      "payable": false,
      "stateMutability": "view",
      "type": "function"
    },
    {
      "constant": true,
      "inputs": [
        {
          "internalType": "address",
          "name": "",
          "type": "address"
        },
        {
          "internalType": "uint256",
          "name": "",
          "type": "uint256"
        }
      ],
      "name": "MonkeyIdPositionsMapping",
      "outputs": [
        {
          "internalType": "uint256",
          "name": "",
          "type": "uint256"
        }
      ],
      "payable": false,
      "stateMutability": "view",
      "type": "function"
    },
    {
      "constant": true,
      "inputs": [
        {
          "internalType": "address",
          "name": "",
          "type": "address"
        },
        {
          "internalType": "uint256",
          "name": "",
          "type": "uint256"
        }
      ],
      "name": "_owners2tokenIdArrayMapping",
      "outputs": [
        {
          "internalType": "uint256",
          "name": "",
          "type": "uint256"
        }
      ],
      "payable": false,
      "stateMutability": "view",
      "type": "function"
    },
    {
      "constant": true,
      "inputs": [
        {
          "internalType": "uint256",
          "name": "",
          "type": "uint256"
        }
      ],
      "name": "allMonkeysArray",
      "outputs": [
        {
          "internalType": "uint256",
          "name": "parent1Id",
          "type": "uint256"
        },
        {
          "internalType": "uint256",
          "name": "parent2Id",
          "type": "uint256"
        },
        {
          "internalType": "uint256",
          "name": "generation",
          "type": "uint256"
        },
        {
          "internalType": "uint256",
          "name": "genes",
          "type": "uint256"
        },
        {
          "internalType": "uint256",
          "name": "birthtime",
          "type": "uint256"
        }
      ],
      "payable": false,
      "stateMutability": "view",
      "type": "function"
    },
    {
      "constant": true,
      "inputs": [],
      "name": "contractOwner",
      "outputs": [
        {
          "internalType": "address payable",
          "name": "",
          "type": "address"
        }
      ],
      "payable": false,
      "stateMutability": "view",
      "type": "function"
    },
    {
      "constant": true,
      "inputs": [],
      "name": "gen0amountTotal",
      "outputs": [
        {
          "internalType": "uint256",
          "name": "",
          "type": "uint256"
        }
      ],
      "payable": false,
      "stateMutability": "view",
      "type": "function"
    },
    {
      "constant": true,
      "inputs": [],
      "name": "getMonkeyContractAddress",
      "outputs": [
        {
          "internalType": "address",
          "name": "",
          "type": "address"
        }
      ],
      "payable": false,
      "stateMutability": "view",
      "type": "function"
    },
    {
      "constant": true,
      "inputs": [
        {
          "internalType": "address",
          "name": "sender",
          "type": "address"
        }
      ],
      "name": "findMonkeyIdsOfAddress",
      "outputs": [
        {
          "internalType": "uint256[]",
          "name": "",
          "type": "uint256[]"
        }
      ],
      "payable": false,
      "stateMutability": "view",
      "type": "function"
    },
    {
      "constant": false,
      "inputs": [
        {
          "internalType": "uint256",
          "name": "_genes",
          "type": "uint256"
        }
      ],
      "name": "createGen0Monkey",
      "outputs": [],
      "payable": false,
      "stateMutability": "nonpayable",
      "type": "function"
    },
    {
      "constant": true,
      "inputs": [
        {
          "internalType": "uint256",
          "name": "_tokenId",
          "type": "uint256"
        }
      ],
      "name": "getApproved",
      "outputs": [
        {
          "internalType": "address",
          "name": "",
          "type": "address"
        }
      ],
      "payable": false,
      "stateMutability": "view",
      "type": "function"
    },
    {
      "constant": true,
      "inputs": [
        {
          "internalType": "address",
          "name": "_owner",
          "type": "address"
        },
        {
          "internalType": "address",
          "name": "_operator",
          "type": "address"
        }
      ],
      "name": "isApprovedForAll",
      "outputs": [
        {
          "internalType": "bool",
          "name": "",
          "type": "bool"
        }
      ],
      "payable": false,
      "stateMutability": "view",
      "type": "function"
    },
    {
      "constant": true,
      "inputs": [
        {
          "internalType": "uint256",
          "name": "tokenId",
          "type": "uint256"
        }
      ],
      "name": "getMonkeyDetails",
      "outputs": [
        {
          "internalType": "uint256",
          "name": "genes",
          "type": "uint256"
        },
        {
          "internalType": "uint256",
          "name": "birthtime",
          "type": "uint256"
        },
        {
          "internalType": "uint256",
          "name": "parent1Id",
          "type": "uint256"
        },
        {
          "internalType": "uint256",
          "name": "parent2Id",
          "type": "uint256"
        },
        {
          "internalType": "uint256",
          "name": "generation",
          "type": "uint256"
        },
        {
          "internalType": "address",
          "name": "owner",
          "type": "address"
        },
        {
          "internalType": "address",
          "name": "approvedAddress",
          "type": "address"
        }
      ],
      "payable": false,
      "stateMutability": "view",
      "type": "function"
    },
    {
      "constant": false,
      "inputs": [
        {
          "internalType": "address",
          "name": "_approved",
          "type": "address"
        },
        {
          "internalType": "uint256",
          "name": "_tokenId",
          "type": "uint256"
        }
      ],
      "name": "approve",
      "outputs": [],
      "payable": false,
      "stateMutability": "nonpayable",
      "type": "function"
    },
    {
      "constant": false,
      "inputs": [
        {
          "internalType": "address",
          "name": "_operator",
          "type": "address"
        },
        {
          "internalType": "bool",
          "name": "_approved",
          "type": "bool"
        }
      ],
      "name": "setApprovalForAll",
      "outputs": [],
      "payable": false,
      "stateMutability": "nonpayable",
      "type": "function"
    },
    {
      "constant": true,
      "inputs": [],
      "name": "name",
      "outputs": [
        {
          "internalType": "string",
          "name": "",
          "type": "string"
        }
      ],
      "payable": false,
      "stateMutability": "view",
      "type": "function"
    },
    {
      "constant": true,
      "inputs": [],
      "name": "symbol",
      "outputs": [
        {
          "internalType": "string",
          "name": "",
          "type": "string"
        }
      ],
      "payable": false,
      "stateMutability": "view",
      "type": "function"
    },
    {
      "constant": true,
      "inputs": [],
      "name": "totalSupply",
      "outputs": [
        {
          "internalType": "uint256",
          "name": "",
          "type": "uint256"
        }
      ],
      "payable": false,
      "stateMutability": "view",
      "type": "function"
    },
    {
      "constant": true,
      "inputs": [
        {
          "internalType": "address",
          "name": "owner",
          "type": "address"
        }
      ],
      "name": "balanceOf",
      "outputs": [
        {
          "internalType": "uint256",
          "name": "",
          "type": "uint256"
        }
      ],
      "payable": false,
      "stateMutability": "view",
      "type": "function"
    },
    {
      "constant": true,
      "inputs": [
        {
          "internalType": "uint256",
          "name": "tokenId",
          "type": "uint256"
        }
      ],
      "name": "ownerOf",
      "outputs": [
        {
          "internalType": "address",
          "name": "",
          "type": "address"
        }
      ],
      "payable": false,
      "stateMutability": "view",
      "type": "function"
    },
    {
      "constant": false,
      "inputs": [
        {
          "internalType": "address",
          "name": "_to",
          "type": "address"
        },
        {
          "internalType": "uint256",
          "name": "_tokenId",
          "type": "uint256"
        }
      ],
      "name": "transfer",
      "outputs": [],
      "payable": false,
      "stateMutability": "nonpayable",
      "type": "function"
    }
  ],
  "bytecode": "0x6080604052600c6002553480156200001657600080fd5b50336000806101000a81548173ffffffffffffffffffffffffffffffffffffffff021916908373ffffffffffffffffffffffffffffffffffffffff1602179055506040518060400160405280600e81526020017f43727970746f204d6f6e6b65797300000000000000000000000000000000000081525060049080519060200190620000a492919062000c73565b506040518060400160405280600381526020017f434d4f000000000000000000000000000000000000000000000000000000000081525060059080519060200190620000f292919062000c73565b5030600160006101000a81548173ffffffffffffffffffffffffffffffffffffffff021916908373ffffffffffffffffffffffffffffffffffffffff1602179055506200018d60008060007fffffffffffffffffffffffffffffffffffffffffffffffffffffffffffffffff600160009054906101000a900473ffffffffffffffffffffffffffffffffffffffff166200024860201b60201c565b50620001e760008060007fffffffffffffffffffffffffffffffffffffffffffffffffffffffffffffffff600160009054906101000a900473ffffffffffffffffffffffffffffffffffffffff166200024860201b60201c565b506200024160008060007fffffffffffffffffffffffffffffffffffffffffffffffffffffffffffffffff600160009054906101000a900473ffffffffffffffffffffffffffffffffffffffff166200024860201b60201c565b5062000d51565b60006200025462000cfa565b6040518060a0016040528088815260200187815260200186815260200185815260200142815250905060006001600a8390806001815401808255809150509060018203906000526020600020906005020160009091929091909150600082015181600001556020820151816001015560408201518160020155606082015181600301556080820151816004015550500390507f0b1e9a74eeaae184646d7a35062426460c8c9364005c6d441cce036dd9c655d584828a8a89604051808673ffffffffffffffffffffffffffffffffffffffff1673ffffffffffffffffffffffffffffffffffffffff1681526020018581526020018481526020018381526020018281526020019550505050505060405180910390a16200037e33600086846200038c60201b60201c565b809250505095945050505050565b6009600082815260200190815260200160002060006101000a81549073ffffffffffffffffffffffffffffffffffffffff0219169055816008600083815260200190815260200160002060006101000a81548173ffffffffffffffffffffffffffffffffffffffff021916908373ffffffffffffffffffffffffffffffffffffffff1602179055506200046e6001600760008573ffffffffffffffffffffffffffffffffffffffff1673ffffffffffffffffffffffffffffffffffffffff1681526020019081526020016000205462000ad460201b62001a781790919060201c565b600760008473ffffffffffffffffffffffffffffffffffffffff1673ffffffffffffffffffffffffffffffffffffffff16815260200190815260200160002081905550600073ffffffffffffffffffffffffffffffffffffffff168373ffffffffffffffffffffffffffffffffffffffff16146200058457620005406001600760008673ffffffffffffffffffffffffffffffffffffffff1673ffffffffffffffffffffffffffffffffffffffff1681526020019081526020016000205462000b5d60201b62001b001790919060201c565b600760008573ffffffffffffffffffffffffffffffffffffffff1673ffffffffffffffffffffffffffffffffffffffff168152602001908152602001600020819055505b600d60008373ffffffffffffffffffffffffffffffffffffffff1673ffffffffffffffffffffffffffffffffffffffff1681526020019081526020016000208190806001815401808255809150509060018203906000526020600020016000909192909190915055506001600d60008473ffffffffffffffffffffffffffffffffffffffff1673ffffffffffffffffffffffffffffffffffffffff1681526020019081526020016000208054905003600c60008473ffffffffffffffffffffffffffffffffffffffff1673ffffffffffffffffffffffffffffffffffffffff1681526020019081526020016000206000838152602001908152602001600020819055507ff869ab5347abe3521a490c5ba94ca763cfc77a327f7a1fa74f71dcc42c950b8e84848385600d60008873ffffffffffffffffffffffffffffffffffffffff1673ffffffffffffffffffffffffffffffffffffffff168152602001908152602001600020600c60008973ffffffffffffffffffffffffffffffffffffffff1673ffffffffffffffffffffffffffffffffffffffff168152602001908152602001600020600088815260200190815260200160002054604051808773ffffffffffffffffffffffffffffffffffffffff1673ffffffffffffffffffffffffffffffffffffffff1681526020018673ffffffffffffffffffffffffffffffffffffffff1673ffffffffffffffffffffffffffffffffffffffff1681526020018581526020018473ffffffffffffffffffffffffffffffffffffffff1673ffffffffffffffffffffffffffffffffffffffff1681526020018060200183815260200182810382528481815481526020019150805480156200082557602002820191906000526020600020905b81548152602001906001019080831162000810575b505097505050505050505060405180910390a16000600d60008573ffffffffffffffffffffffffffffffffffffffff1673ffffffffffffffffffffffffffffffffffffffff1681526020019081526020016000208054905010156200092e57600d60008473ffffffffffffffffffffffffffffffffffffffff1673ffffffffffffffffffffffffffffffffffffffff168152602001908152602001600020600c60008573ffffffffffffffffffffffffffffffffffffffff1673ffffffffffffffffffffffffffffffffffffffff168152602001908152602001600020600083815260200190815260200160002054815481106200091f57fe5b90600052602060002001600090555b600c60008473ffffffffffffffffffffffffffffffffffffffff1673ffffffffffffffffffffffffffffffffffffffff1681526020019081526020016000206000828152602001908152602001600020600090557f50a41ae985ebc866136690c2af65d8fb8fac099df774e65765c2aa69c4a5b84b8184600d60008773ffffffffffffffffffffffffffffffffffffffff1673ffffffffffffffffffffffffffffffffffffffff168152602001908152602001600020604051808481526020018373ffffffffffffffffffffffffffffffffffffffff1673ffffffffffffffffffffffffffffffffffffffff16815260200180602001828103825283818154815260200191508054801562000a6357602002820191906000526020600020905b81548152602001906001019080831162000a4e575b505094505050505060405180910390a1808273ffffffffffffffffffffffffffffffffffffffff168473ffffffffffffffffffffffffffffffffffffffff167fddf252ad1be2c89b69c2b068fc378daa952ba7f163c4a11628f55a4df523b3ef60405160405180910390a450505050565b60008082840190508381101562000b53576040517f08c379a000000000000000000000000000000000000000000000000000000000815260040180806020018281038252601b8152602001807f536166654d6174683a206164646974696f6e206f766572666c6f77000000000081525060200191505060405180910390fd5b8091505092915050565b600062000ba783836040518060400160405280601e81526020017f536166654d6174683a207375627472616374696f6e206f766572666c6f77000081525062000baf60201b60201c565b905092915050565b600083831115829062000c60576040517f08c379a00000000000000000000000000000000000000000000000000000000081526004018080602001828103825283818151815260200191508051906020019080838360005b8381101562000c2457808201518184015260208101905062000c07565b50505050905090810190601f16801562000c525780820380516001836020036101000a031916815260200191505b509250505060405180910390fd5b5060008385039050809150509392505050565b828054600181600116156101000203166002900490600052602060002090601f016020900481019282601f1062000cb657805160ff191683800117855562000ce7565b8280016001018555821562000ce7579182015b8281111562000ce657825182559160200191906001019062000cc9565b5b50905062000cf6919062000d29565b5090565b6040518060a0016040528060008152602001600081526020016000815260200160008152602001600081525090565b62000d4e91905b8082111562000d4a57600081600090555060010162000d30565b5090565b90565b611c6e8062000d616000396000f3fe608060405234801561001057600080fd5b506004361061012c5760003560e01c806370a08231116100ad578063ce606ee011610071578063ce606ee014610712578063daa97fae1461075c578063e985e9c5146107a6578063ef742fc114610822578063f91ba674146108505761012c565b806370a082311461053757806395d89b411461058f5780639b8bf52f14610612578063a22cb46514610674578063a9059cbb146106c45761012c565b80631b0a1aed116100f45780631b0a1aed146102ac5780631b417278146103455780632558e25f146103a3578063345a5ab7146104675780636352211e146104c95761012c565b806306fdde0314610131578063081812fc146101b45780630917cffe14610222578063095ea7b31461024057806318160ddd1461028e575b600080fd5b61013961086e565b6040518080602001828103825283818151815260200191508051906020019080838360005b8381101561017957808201518184015260208101905061015e565b50505050905090810190601f1680156101a65780820380516001836020036101000a031916815260200191505b509250505060405180910390f35b6101e0600480360360208110156101ca57600080fd5b8101908080359060200190929190505050610910565b604051808273ffffffffffffffffffffffffffffffffffffffff1673ffffffffffffffffffffffffffffffffffffffff16815260200191505060405180910390f35b61022a61094d565b6040518082815260200191505060405180910390f35b61028c6004803603604081101561025657600080fd5b81019080803573ffffffffffffffffffffffffffffffffffffffff16906020019092919080359060200190929190505050610953565b005b610296610a6f565b6040518082815260200191505060405180910390f35b6102ee600480360360208110156102c257600080fd5b81019080803573ffffffffffffffffffffffffffffffffffffffff169060200190929190505050610a79565b6040518080602001828103825283818151815260200191508051906020019060200280838360005b83811015610331578082015181840152602081019050610316565b505050509050019250505060405180910390f35b6103716004803603602081101561035b57600080fd5b8101908080359060200190929190505050610b10565b604051808681526020018581526020018481526020018381526020018281526020019550505050505060405180910390f35b6103cf600480360360208110156103b957600080fd5b8101908080359060200190929190505050610b53565b604051808881526020018781526020018681526020018581526020018481526020018373ffffffffffffffffffffffffffffffffffffffff1673ffffffffffffffffffffffffffffffffffffffff1681526020018273ffffffffffffffffffffffffffffffffffffffff1673ffffffffffffffffffffffffffffffffffffffff16815260200197505050505050505060405180910390f35b6104b36004803603604081101561047d57600080fd5b81019080803573ffffffffffffffffffffffffffffffffffffffff16906020019092919080359060200190929190505050610c7a565b6040518082815260200191505060405180910390f35b6104f5600480360360208110156104df57600080fd5b8101908080359060200190929190505050610ca8565b604051808273ffffffffffffffffffffffffffffffffffffffff1673ffffffffffffffffffffffffffffffffffffffff16815260200191505060405180910390f35b6105796004803603602081101561054d57600080fd5b81019080803573ffffffffffffffffffffffffffffffffffffffff169060200190929190505050610ce5565b6040518082815260200191505060405180910390f35b610597610d2e565b6040518080602001828103825283818151815260200191508051906020019080838360005b838110156105d75780820151818401526020810190506105bc565b50505050905090810190601f1680156106045780820380516001836020036101000a031916815260200191505b509250505060405180910390f35b61065e6004803603604081101561062857600080fd5b81019080803573ffffffffffffffffffffffffffffffffffffffff16906020019092919080359060200190929190505050610dd0565b6040518082815260200191505060405180910390f35b6106c26004803603604081101561068a57600080fd5b81019080803573ffffffffffffffffffffffffffffffffffffffff169060200190929190803515159060200190929190505050610df5565b005b610710600480360360408110156106da57600080fd5b81019080803573ffffffffffffffffffffffffffffffffffffffff16906020019092919080359060200190929190505050610ef6565b005b61071a611082565b604051808273ffffffffffffffffffffffffffffffffffffffff1673ffffffffffffffffffffffffffffffffffffffff16815260200191505060405180910390f35b6107646110a7565b604051808273ffffffffffffffffffffffffffffffffffffffff1673ffffffffffffffffffffffffffffffffffffffff16815260200191505060405180910390f35b610808600480360360408110156107bc57600080fd5b81019080803573ffffffffffffffffffffffffffffffffffffffff169060200190929190803573ffffffffffffffffffffffffffffffffffffffff1690602001909291905050506110d1565b604051808215151515815260200191505060405180910390f35b61084e6004803603602081101561083857600080fd5b8101908080359060200190929190505050611165565b005b610858611205565b6040518082815260200191505060405180910390f35b606060048054600181600116156101000203166002900480601f0160208091040260200160405190810160405280929190818152602001828054600181600116156101000203166002900480156109065780601f106108db57610100808354040283529160200191610906565b820191906000526020600020905b8154815290600101906020018083116108e957829003601f168201915b5050505050905090565b60006009600083815260200190815260200160002060009054906101000a900473ffffffffffffffffffffffffffffffffffffffff169050919050565b60035481565b3373ffffffffffffffffffffffffffffffffffffffff166008600083815260200190815260200160002060009054906101000a900473ffffffffffffffffffffffffffffffffffffffff1673ffffffffffffffffffffffffffffffffffffffff16146109be57600080fd5b808273ffffffffffffffffffffffffffffffffffffffff163373ffffffffffffffffffffffffffffffffffffffff167f8c5be1e5ebec7d5bd14f71427d1e84f3dd0314c0f7b2291e5b200ac8c7c3b92560405160405180910390a4816009600083815260200190815260200160002060006101000a81548173ffffffffffffffffffffffffffffffffffffffff021916908373ffffffffffffffffffffffffffffffffffffffff1602179055505050565b6000600654905090565b6060600d60008373ffffffffffffffffffffffffffffffffffffffff1673ffffffffffffffffffffffffffffffffffffffff168152602001908152602001600020805480602002602001604051908101604052809291908181526020018280548015610b0457602002820191906000526020600020905b815481526020019060010190808311610af0575b50505050509050919050565b600a8181548110610b1d57fe5b90600052602060002090600502016000915090508060000154908060010154908060020154908060030154908060040154905085565b6000806000806000806000600a8881548110610b6b57fe5b906000526020600020906005020160030154600a8981548110610b8a57fe5b906000526020600020906005020160040154600a8a81548110610ba957fe5b906000526020600020906005020160000154600a8b81548110610bc857fe5b906000526020600020906005020160010154600a8c81548110610be757fe5b906000526020600020906005020160020154600860008e815260200190815260200160002060009054906101000a900473ffffffffffffffffffffffffffffffffffffffff16600960008f815260200190815260200160002060009054906101000a900473ffffffffffffffffffffffffffffffffffffffff169650965096509650965096509650919395979092949650565b600d6020528160005260406000208181548110610c9357fe5b90600052602060002001600091509150505481565b60006008600083815260200190815260200160002060009054906101000a900473ffffffffffffffffffffffffffffffffffffffff169050919050565b6000600760008373ffffffffffffffffffffffffffffffffffffffff1673ffffffffffffffffffffffffffffffffffffffff168152602001908152602001600020549050919050565b606060058054600181600116156101000203166002900480601f016020809104026020016040519081016040528092919081815260200182805460018160011615610100020316600290048015610dc65780601f10610d9b57610100808354040283529160200191610dc6565b820191906000526020600020905b815481529060010190602001808311610da957829003601f168201915b5050505050905090565b600c602052816000526040600020602052806000526040600020600091509150505481565b80600b60003373ffffffffffffffffffffffffffffffffffffffff1673ffffffffffffffffffffffffffffffffffffffff16815260200190815260200160002060008473ffffffffffffffffffffffffffffffffffffffff1673ffffffffffffffffffffffffffffffffffffffff16815260200190815260200160002060006101000a81548160ff0219169083151502179055508173ffffffffffffffffffffffffffffffffffffffff163373ffffffffffffffffffffffffffffffffffffffff167f17307eab39ab6107e8899845ad3d59bd9653f200f220920489ca2b5937696c3183604051808215151515815260200191505060405180910390a35050565b600073ffffffffffffffffffffffffffffffffffffffff168273ffffffffffffffffffffffffffffffffffffffff161415610f3057600080fd5b3073ffffffffffffffffffffffffffffffffffffffff168273ffffffffffffffffffffffffffffffffffffffff161415610f6957600080fd5b60006008600083815260200190815260200160002060009054906101000a900473ffffffffffffffffffffffffffffffffffffffff1690503373ffffffffffffffffffffffffffffffffffffffff168173ffffffffffffffffffffffffffffffffffffffff161480611068575060011515600b60008373ffffffffffffffffffffffffffffffffffffffff1673ffffffffffffffffffffffffffffffffffffffff16815260200190815260200160002060003373ffffffffffffffffffffffffffffffffffffffff1673ffffffffffffffffffffffffffffffffffffffff16815260200190815260200160002060009054906101000a900460ff161515145b61107157600080fd5b61107d3382858561120b565b505050565b6000809054906101000a900473ffffffffffffffffffffffffffffffffffffffff1681565b6000600160009054906101000a900473ffffffffffffffffffffffffffffffffffffffff16905090565b6000600b60008473ffffffffffffffffffffffffffffffffffffffff1673ffffffffffffffffffffffffffffffffffffffff16815260200190815260200160002060008373ffffffffffffffffffffffffffffffffffffffff1673ffffffffffffffffffffffffffffffffffffffff16815260200190815260200160002060009054906101000a900460ff16905092915050565b6000809054906101000a900473ffffffffffffffffffffffffffffffffffffffff1673ffffffffffffffffffffffffffffffffffffffff163373ffffffffffffffffffffffffffffffffffffffff16146111be57600080fd5b600254600354106111ce57600080fd5b6003600081548092919060010191905055506111ef6000806000843361193e565b5060066000815480929190600101919050555050565b60025481565b6009600082815260200190815260200160002060006101000a81549073ffffffffffffffffffffffffffffffffffffffff0219169055816008600083815260200190815260200160002060006101000a81548173ffffffffffffffffffffffffffffffffffffffff021916908373ffffffffffffffffffffffffffffffffffffffff1602179055506112e66001600760008573ffffffffffffffffffffffffffffffffffffffff1673ffffffffffffffffffffffffffffffffffffffff16815260200190815260200160002054611a7890919063ffffffff16565b600760008473ffffffffffffffffffffffffffffffffffffffff1673ffffffffffffffffffffffffffffffffffffffff16815260200190815260200160002081905550600073ffffffffffffffffffffffffffffffffffffffff168373ffffffffffffffffffffffffffffffffffffffff16146113f4576113b06001600760008673ffffffffffffffffffffffffffffffffffffffff1673ffffffffffffffffffffffffffffffffffffffff16815260200190815260200160002054611b0090919063ffffffff16565b600760008573ffffffffffffffffffffffffffffffffffffffff1673ffffffffffffffffffffffffffffffffffffffff168152602001908152602001600020819055505b600d60008373ffffffffffffffffffffffffffffffffffffffff1673ffffffffffffffffffffffffffffffffffffffff1681526020019081526020016000208190806001815401808255809150509060018203906000526020600020016000909192909190915055506001600d60008473ffffffffffffffffffffffffffffffffffffffff1673ffffffffffffffffffffffffffffffffffffffff1681526020019081526020016000208054905003600c60008473ffffffffffffffffffffffffffffffffffffffff1673ffffffffffffffffffffffffffffffffffffffff1681526020019081526020016000206000838152602001908152602001600020819055507ff869ab5347abe3521a490c5ba94ca763cfc77a327f7a1fa74f71dcc42c950b8e84848385600d60008873ffffffffffffffffffffffffffffffffffffffff1673ffffffffffffffffffffffffffffffffffffffff168152602001908152602001600020600c60008973ffffffffffffffffffffffffffffffffffffffff1673ffffffffffffffffffffffffffffffffffffffff168152602001908152602001600020600088815260200190815260200160002054604051808773ffffffffffffffffffffffffffffffffffffffff1673ffffffffffffffffffffffffffffffffffffffff1681526020018673ffffffffffffffffffffffffffffffffffffffff1673ffffffffffffffffffffffffffffffffffffffff1681526020018581526020018473ffffffffffffffffffffffffffffffffffffffff1673ffffffffffffffffffffffffffffffffffffffff16815260200180602001838152602001828103825284818154815260200191508054801561169357602002820191906000526020600020905b81548152602001906001019080831161167f575b505097505050505050505060405180910390a16000600d60008573ffffffffffffffffffffffffffffffffffffffff1673ffffffffffffffffffffffffffffffffffffffff16815260200190815260200160002080549050101561179a57600d60008473ffffffffffffffffffffffffffffffffffffffff1673ffffffffffffffffffffffffffffffffffffffff168152602001908152602001600020600c60008573ffffffffffffffffffffffffffffffffffffffff1673ffffffffffffffffffffffffffffffffffffffff1681526020019081526020016000206000838152602001908152602001600020548154811061178b57fe5b90600052602060002001600090555b600c60008473ffffffffffffffffffffffffffffffffffffffff1673ffffffffffffffffffffffffffffffffffffffff1681526020019081526020016000206000828152602001908152602001600020600090557f50a41ae985ebc866136690c2af65d8fb8fac099df774e65765c2aa69c4a5b84b8184600d60008773ffffffffffffffffffffffffffffffffffffffff1673ffffffffffffffffffffffffffffffffffffffff168152602001908152602001600020604051808481526020018373ffffffffffffffffffffffffffffffffffffffff1673ffffffffffffffffffffffffffffffffffffffff1681526020018060200182810382528381815481526020019150805480156118cd57602002820191906000526020600020905b8154815260200190600101908083116118b9575b505094505050505060405180910390a1808273ffffffffffffffffffffffffffffffffffffffff168473ffffffffffffffffffffffffffffffffffffffff167fddf252ad1be2c89b69c2b068fc378daa952ba7f163c4a11628f55a4df523b3ef60405160405180910390a450505050565b6000611948611c0a565b6040518060a0016040528088815260200187815260200186815260200185815260200142815250905060006001600a8390806001815401808255809150509060018203906000526020600020906005020160009091929091909150600082015181600001556020820151816001015560408201518160020155606082015181600301556080820151816004015550500390507f0b1e9a74eeaae184646d7a35062426460c8c9364005c6d441cce036dd9c655d584828a8a89604051808673ffffffffffffffffffffffffffffffffffffffff1673ffffffffffffffffffffffffffffffffffffffff1681526020018581526020018481526020018381526020018281526020019550505050505060405180910390a1611a6a336000868461120b565b809250505095945050505050565b600080828401905083811015611af6576040517f08c379a000000000000000000000000000000000000000000000000000000000815260040180806020018281038252601b8152602001807f536166654d6174683a206164646974696f6e206f766572666c6f77000000000081525060200191505060405180910390fd5b8091505092915050565b6000611b4283836040518060400160405280601e81526020017f536166654d6174683a207375627472616374696f6e206f766572666c6f770000815250611b4a565b905092915050565b6000838311158290611bf7576040517f08c379a00000000000000000000000000000000000000000000000000000000081526004018080602001828103825283818151815260200191508051906020019080838360005b83811015611bbc578082015181840152602081019050611ba1565b50505050905090810190601f168015611be95780820380516001836020036101000a031916815260200191505b509250505060405180910390fd5b5060008385039050809150509392505050565b6040518060a001604052806000815260200160008152602001600081526020016000815260200160008152509056fea265627a7a723158208b47226352b954ecb407dbb0bfe157b947f5bb5ae4972915e31b90a30efd7f0a64736f6c634300050c0032",
  "source": "pragma solidity 0.5.12;\r\n\r\n// preparing for some functions to be restricted \r\nimport \"./Ownable.sol\";\r\n\r\n// preparing safemath to rule out over- and underflow  \r\nimport \"./Safemath.sol\";\r\n\r\n// importing ERC721 token standard interface\r\nimport \"./IERC721.sol\";\r\n\r\ncontract MonkeyContract is IERC721, Ownable {\r\n\r\n    // using safemath for all uint256 numbers, \r\n    // use uint256 and (.add) and (.sub)\r\n    using SafeMath for uint256;\r\n\r\n\r\n    // State variables\r\n\r\n    // Contract address\r\n    address _monkeyContractAddress;   \r\n\r\n    // Only 12 monkeys can be created from scratch (generation 0)\r\n    uint256 public GEN0_Limit = 12;\r\n    uint256 public gen0amountTotal;\r\n\r\n    // name will be set to \"Crypto Monkeys\"\r\n    string private _name;\r\n\r\n    // ticker symbol will be set to \"CMO\"\r\n    string private _symbol;\r\n\r\n    // amount of CMOs total in existence - can be queried by totalSupply function    \r\n    uint256 private _totalSupply;\r\n\r\n    // this struct is the blueprint for new CMOs, they will be created from it\r\n    struct CryptoMonkey {        \r\n        uint256 parent1Id;\r\n        uint256 parent2Id;\r\n        uint256 generation;\r\n        uint256 genes;\r\n        uint256 birthtime;\r\n    }\r\n\r\n    // a mapping to store each address's number of Crypto Monkeys \r\n    // can be queried by balanceOf function\r\n    mapping(address => uint256) private _numberOfCMOsOfAddressMapping;\r\n\r\n    // mapping of all the tokenIds and their ownerssss \r\n    // can be queried by ownerOf function \r\n    mapping(uint256 => address) private _monkeyIdsAndTheirOwnersMapping;\r\n\r\n    // mapping of the allowed addresses for a piece \r\n    mapping(uint256 => address) private _CMO2AllowedAddressMapping;\r\n\r\n    // This is an array that holds all CryptoMonkeys. \r\n    // Their position in that array IS their tokenId.\r\n    // they never get deleted here, array only grows and keeps track of them all.\r\n    CryptoMonkey[] public allMonkeysArray;\r\n\r\n    // mapping owner address to \r\n    // operator address (who has approval over all of owner's CMOs) to\r\n    // boolean that shows if the operator address actually is operator or not\r\n    mapping (address => mapping (address => bool)) private _operatorApprovalsMapping;  \r\n\r\n    /* \r\n        not implemented, thinking about how a mapping would work,\r\n       providing same functionality as allMonkeysArray    \r\n       mapping(uint256 => CryptoMonkey) public _MonkeyIds2CryptoMonkeyMapping;\r\n    */\r\n\r\n    // used to keep track of owners and their crypto monkeys (see below)\r\n    // owner to tokenid to position in this array: _owners2tokenIdArrayMapping\r\n    mapping(address => mapping(uint256 => uint256)) public MonkeyIdPositionsMapping;\r\n\r\n    // maps owner to an array that holds all their tokenIds (see above)\r\n    // tokenId positions are saved in this mapping: MonkeyIdPositionsMapping)\r\n    mapping(address => uint256[]) public _owners2tokenIdArrayMapping;\r\n\r\n   \r\n\r\n    // Events\r\n\r\n    // Transfer event, emitted after successful transfer with these parameters\r\n    event Transfer(\r\n        address indexed from,\r\n        address indexed to,\r\n        uint256 indexed tokenId\r\n    );\r\n\r\n    // Approval event, emitted after successful approval with these parameters\r\n    event Approval(\r\n        address indexed owner,\r\n        address indexed approved,\r\n        uint256 indexed tokenId\r\n    );\r\n\r\n    // Creation event, emitted after successful CMO creation with these parameters\r\n    event MonkeyCreated(\r\n        address owner,\r\n        uint256 tokenId,\r\n        uint256 parent1Id,\r\n        uint256 parent2Id,\r\n        uint256 genes\r\n    );\r\n\r\n    // After transfer of CMO, emitting useful data regarding new owner\r\n    event NewOwnerArrayUpdated( \r\n        address transferringAddress,       \r\n        address oldOwner,\r\n        uint256 tokenId,\r\n        address newOwner,\r\n        uint256[] newOwnerArrayUpdated,\r\n        uint256 positionInNewOwnersArray\r\n    );\r\n\r\n\r\n    // After transfer of CMO, emitting useful data regarding old owner\r\n    event OldOwnerArrayUpdated(\r\n        \r\n        uint256 tokenId,\r\n        address oldOwner,\r\n        uint256[] oldOwnerArrayUpdated        \r\n    );\r\n\r\n\r\n    // Constructor function\r\n    // is setting _name, and _symbol, as well as creating a couple of test CMOs,\r\n    // and for them setting _parent1Id, _parent2Id and _generation to 0, \r\n    // the _genes to the biggest possible uint256 number (overflow on purpose)\r\n    // and _owner to contract address\r\n\r\n    constructor() public {\r\n        _name = \"Crypto Monkeys\";\r\n        _symbol = \"CMO\";\r\n        _monkeyContractAddress = address(this);\r\n\r\n        \r\n        _createMonkey(0, 0, 0, uint256(-1), _monkeyContractAddress);\r\n\r\n        _createMonkey(0, 0, 0, uint256(-1), _monkeyContractAddress);\r\n\r\n        _createMonkey(0, 0, 0, uint256(-1), _monkeyContractAddress);\r\n        \r\n        // _createMonkey(0, 0, 0, uint256(-1), address(this));\r\n    }\r\n\r\n\r\n    function getMonkeyContractAddress() public view returns (address) {  \r\n        return _monkeyContractAddress;\r\n    }\r\n\r\n\r\n\r\n\r\n    // Functions \r\n\r\n    //- gives back an array with the CMO tokenIds that the provided sender address owns\r\n    function findMonkeyIdsOfAddress(address sender) public view returns (uint256[] memory) {  \r\n        return _owners2tokenIdArrayMapping[sender];\r\n    }\r\n\r\n    // used for creating gen0 monkeys \r\n\r\n    function createGen0Monkey(uint256 _genes) public onlyOwner {\r\n        // making sure that no more than 12 monkeys will exist in gen0\r\n        require(gen0amountTotal < GEN0_Limit);\r\n\r\n        // increasing counter of gen0 monkeys \r\n        gen0amountTotal++;\r\n\r\n        // creating\r\n        _createMonkey(0, 0, 0, _genes, msg.sender);\r\n\r\n        // updating total supply\r\n        _totalSupply++;\r\n    }\r\n\r\n    // used for creating monkeys (returns tokenId, could be used)\r\n    function _createMonkey(\r\n        uint256 _parent1Id,\r\n        uint256 _parent2Id,\r\n        uint256 _generation,\r\n        uint256 _genes,\r\n        address _owner\r\n    ) private returns (uint256) {\r\n        // uses the CryptoMonkey struct as template and creates a newMonkey from it\r\n            CryptoMonkey memory newMonkey = CryptoMonkey({                \r\n            parent1Id: uint256(_parent1Id),\r\n            parent2Id: uint256(_parent2Id),\r\n            generation: uint256(_generation),\r\n            genes: _genes,\r\n            birthtime: uint256(now)\r\n        });\r\n\r\n        // the push function also returns the length of the array, using that directly and saving it as the ID, starting with 0\r\n        uint256 newMonkeyId = allMonkeysArray.push(newMonkey) - 1;\r\n\r\n        // emitting before the action\r\n        emit MonkeyCreated(_owner, newMonkeyId, _parent1Id, _parent2Id, _genes);\r\n\r\n        // after creation, transferring to new owner, \r\n        // transferring address is user, sender is 0 address\r\n        _transferCallfromInside(msg.sender, address(0), _owner, newMonkeyId);        \r\n\r\n        // tokenId is returned\r\n        return newMonkeyId;\r\n    }\r\n\r\n\r\n    /// xxx @notice Get the approved address for a single NFT\r\n    /// @dev Throws if `_tokenId` is not a valid NFT.\r\n    /// @param _tokenId The NFT to find the approved address for\r\n    /// @return The approved address for this NFT, or the zero address if there is none\r\n    // function getApproved(uint256 _tokenId) external view returns (address);\r\n    function getApproved(uint256 _tokenId) external view returns (address){\r\n        return _CMO2AllowedAddressMapping[_tokenId];\r\n    }  \r\n\r\n    /// xxx @notice Query if an address is an authorized operator for another address\r\n    /// @param _owner The address that owns the NFTs\r\n    /// @param _operator The address that acts on behalf of the owner\r\n    /// @return True if `_operator` is an approved operator for `_owner`, false otherwise\r\n    function isApprovedForAll(address _owner, address _operator) external view returns (bool){\r\n        return _operatorApprovalsMapping[_owner][_operator];\r\n    }\r\n\r\n\r\n\r\n    // gives back all the main details on a CMO\r\n    function getMonkeyDetails(uint256 tokenId)\r\n        public\r\n        view\r\n        returns (\r\n            uint256 genes,\r\n            uint256 birthtime,\r\n            uint256 parent1Id,\r\n            uint256 parent2Id,\r\n            uint256 generation,\r\n            address owner,\r\n            address approvedAddress\r\n        )\r\n    {\r\n        return (\r\n            allMonkeysArray[tokenId].genes,\r\n            allMonkeysArray[tokenId].birthtime,\r\n            allMonkeysArray[tokenId].parent1Id,\r\n            allMonkeysArray[tokenId].parent2Id,\r\n            allMonkeysArray[tokenId].generation,\r\n            _monkeyIdsAndTheirOwnersMapping[tokenId],\r\n            _CMO2AllowedAddressMapping[tokenId]\r\n        );\r\n    }\r\n\r\n\r\n\r\n    /// @notice Change or reaffirm the approved address for an NFT\r\n    /// @dev The zero address indicates there is no approved address.\r\n    ///  Throws unless `msg.sender` is the current NFT owner, or an authorized\r\n    ///  operator of the current owner.\r\n    /// @param _approved The new approved NFT controller\r\n    /// @param _tokenId The NFT to approve\r\n    // xxx function approve(address _approved, uint256 _tokenId) external;\r\n    \r\n\r\n    // The approve function allows another address to take / move your CMO\r\n    function approve(address _approved, uint256 _tokenId) public {\r\n        // requires that the msg.sender is the owner of the CMO to be moved\r\n        require(_monkeyIdsAndTheirOwnersMapping[_tokenId] == msg.sender);\r\n\r\n        // emitting before the action\r\n        emit Approval(msg.sender, _approved, _tokenId);\r\n\r\n        // stores the allowed address into the mapping for it, with the monkey being the key\r\n        // before this, allowedAddress is 0, meaning nobody can take it\r\n        _CMO2AllowedAddressMapping[_tokenId] = _approved;\r\n    }\r\n\r\n\r\n\r\n\r\n    /// @notice Enable or disable approval for a third party (\"operator\") to manage\r\n    ///  all of `msg.sender`'s assets\r\n    /// @dev Emits the ApprovalForAll event. The contract MUST allow\r\n    ///  multiple operators per owner.\r\n    /// @param _operator Address to add to the set of authorized operators\r\n    /// @param _approved True if the operator is approved, false to revoke approval\r\n    // XXX function setApprovalForAll(address _operator, bool _approved) external;\r\n\r\n    // allows or revokes an address to get \"operator\" status, being allowed to take or move all of msg.sender 's CMOs\r\n    function setApprovalForAll(address _operator, bool _approved) external {\r\n\r\n        // msg.sender can set entry in his own mapping for _operator address to true or false\r\n        _operatorApprovalsMapping[msg.sender][_operator] = _approved;\r\n\r\n        // emitting ApprovalForAll event with owner address, operator related address, boolean whether is operator or not\r\n        emit ApprovalForAll(msg.sender, _operator, _approved);        \r\n    }\r\n\r\n    \r\n\r\n\r\n\r\n\r\n\r\n    // Returns the name of the token\r\n    function name() external view returns (string memory) {\r\n        return _name;\r\n    }\r\n\r\n    // Returns the symbol of the token\r\n    function symbol() external view returns (string memory) {\r\n        return _symbol;\r\n    }\r\n\r\n    // Returns the totalSupply\r\n    function totalSupply() external view returns (uint256) {\r\n        return _totalSupply;\r\n    }\r\n\r\n    // Returns the amount of tokens in an address' account\r\n    function balanceOf(address owner) external view returns (uint256) {\r\n        return _numberOfCMOsOfAddressMapping[owner];\r\n    }\r\n\r\n    // returns the owner of given tokenId, which is stored in the _monkeyIdsAndTheirOwnersMapping at the [tokenId] position\r\n    function ownerOf(uint256 tokenId) external view returns (address) {\r\n        return _monkeyIdsAndTheirOwnersMapping[tokenId];\r\n    }\r\n\r\n    // For transferring, can be called from outside \r\n    function transfer(address _to, uint256 _tokenId) external {\r\n        //`to` cannot be the zero address.\r\n        require(_to != address(0));\r\n\r\n        // to` can not be the contract address.\r\n        require(_to != address(this));\r\n\r\n        address monkeyOwner = _monkeyIdsAndTheirOwnersMapping[_tokenId];\r\n\r\n        require( monkeyOwner == msg.sender || _operatorApprovalsMapping[monkeyOwner][msg.sender] == true );\r\n\r\n        \r\n\r\n        // xxxx changing this:\r\n        // `tokenId` token must be owned by `msg.sender`\r\n        // require(_monkeyIdsAndTheirOwnersMapping[_tokenId] == msg.sender);\r\n        \r\n        /*\r\n            // new try: checks if msg.sender is owner or operator, elseways reverting\r\n            if (monkeyOwner == msg.sender) {\r\n                _;\r\n            } else if (_operatorApprovalsMapping[monkeyOwner][msg.sender] == true) {\r\n                _;\r\n            } else {\r\n                revert();\r\n            }\r\n        */\r\n        \r\n        // calling internal transfer function, providing both msg.sender as well as owner, in case they are different (operator is acting)\r\n        _transferCallfromInside(msg.sender, monkeyOwner, _to, _tokenId);\r\n    }\r\n\r\n    // internal function for transferring, cannot be called from outside the contract\r\n    function _transferCallfromInside(\r\n        address _transferSender,\r\n        address _monkeyOwner,\r\n        address _to,\r\n        uint256 _tokenId\r\n    ) internal {\r\n        // deleting any allowed address for the transfered CMO\r\n        delete _CMO2AllowedAddressMapping[_tokenId];\r\n\r\n        // transferring, i.e. changing ownership entry in the _monkeyIdsAndTheirOwnersMapping for the tokenId\r\n        _monkeyIdsAndTheirOwnersMapping[_tokenId] = _to;\r\n\r\n        // updating \"balance\" of address in _numberOfCMOsOfAddressMapping, so that the \"to\" address has 1 CMO more\r\n        _numberOfCMOsOfAddressMapping[_to] = _numberOfCMOsOfAddressMapping[_to].add(1);\r\n\r\n\r\n        // if transfer sender is NOT 0 address (happens during gen0 monkey creation),\r\n        // updating \"balance\" of address in _numberOfCMOsOfAddressMapping,  so that the \"_from\" address has 1 CMO less\r\n        // xxxx\r\n        if (_monkeyOwner != address(0)) {\r\n            _numberOfCMOsOfAddressMapping[_monkeyOwner] = _numberOfCMOsOfAddressMapping[_monkeyOwner].sub(1);\r\n        }\r\n\r\n        // saving tokenId to new owner's array in the mapping for all owners, \r\n        // also see next action below (storing position)\r\n        _owners2tokenIdArrayMapping[_to].push(_tokenId);\r\n\r\n        // inside the global mapping for positions, under the new owner, under the tokenId, \r\n        // saving the position that this tokenId has in the other array (_owners2tokenIdArrayMapping), \r\n        // by measuring that arrays length, after pushing the CMO to it, then subtracting 1\r\n        // that means owner's first monkey will be in position 0\r\n        MonkeyIdPositionsMapping[_to][_tokenId] = _owners2tokenIdArrayMapping[_to].length - 1;\r\n\r\n        // emitting useful data regarding new owner after transfer of CMO\r\n        emit NewOwnerArrayUpdated(\r\n            _transferSender,            \r\n            _monkeyOwner,\r\n            _tokenId,\r\n            _to,\r\n            _owners2tokenIdArrayMapping[_to],\r\n            MonkeyIdPositionsMapping[_to][_tokenId]\r\n        );  \r\n        \r\n        // deleting the tokenId from the old owners array of monkeys\r\n        if ((_owners2tokenIdArrayMapping[_monkeyOwner]).length <0 ){\r\n            delete _owners2tokenIdArrayMapping[_monkeyOwner][MonkeyIdPositionsMapping[_monkeyOwner][_tokenId]];\r\n        }                \r\n\r\n        // deleting the saved index position, since old address is not longer owner\r\n        delete MonkeyIdPositionsMapping[_monkeyOwner][_tokenId];\r\n\r\n        // emitting useful data regarding old owner after transfer of CMO\r\n        emit OldOwnerArrayUpdated(            \r\n            _tokenId,\r\n            _monkeyOwner,\r\n            _owners2tokenIdArrayMapping[_monkeyOwner]\r\n        );\r\n\r\n        // emitting Transfer event\r\n        emit Transfer(_monkeyOwner, _to, _tokenId);\r\n    }\r\n}\r\n",
  "sourcePath": "D:\\8 Github\\CryptoMonkeys\\contracts\\Monkeycontract.sol",
  "compiler": {
    "name": "solc",
    "version": "0.5.12+commit.7709ece9.Emscripten.clang"
  },
  "schemaVersion": "3.2.0",
  "updatedAt": "2020-12-22T17:03:59.232Z",
  "networkType": "ethereum",
  "devdoc": {
    "methods": {
      "approve(address,uint256)": {
        "details": "The zero address indicates there is no approved address.  Throws unless `msg.sender` is the current NFT owner, or an authorized  operator of the current owner.",
        "params": {
          "_approved": "The new approved NFT controller",
          "_tokenId": "The NFT to approve"
        }
      },
      "getApproved(uint256)": {
        "details": "Throws if `_tokenId` is not a valid NFT.",
        "params": {
          "_tokenId": "The NFT to find the approved address for"
        },
        "return": "The approved address for this NFT, or the zero address if there is none"
      },
      "isApprovedForAll(address,address)": {
        "params": {
          "_operator": "The address that acts on behalf of the owner",
          "_owner": "The address that owns the NFTs"
        },
        "return": "True if `_operator` is an approved operator for `_owner`, false otherwise"
      },
      "setApprovalForAll(address,bool)": {
        "details": "Emits the ApprovalForAll event. The contract MUST allow  multiple operators per owner.",
        "params": {
          "_approved": "True if the operator is approved, false to revoke approval",
          "_operator": "Address to add to the set of authorized operators"
        }
      }
    }
  },
  "userdoc": {
    "methods": {
      "approve(address,uint256)": {
        "notice": "Change or reaffirm the approved address for an NFT"
      },
      "getApproved(uint256)": {
        "notice": "Get the approved address for a single NFT"
      },
      "isApprovedForAll(address,address)": {
        "notice": "Query if an address is an authorized operator for another address"
      },
      "setApprovalForAll(address,bool)": {
        "notice": "Enable or disable approval for a third party (\"operator\") to manage  all of `msg.sender`'s assets"
      }
    }
  }
}