{
  "contractName": "MonkeyMarketplace",
  "abi": [
    {
      "inputs": [
        {
          "internalType": "address",
          "name": "_constructorMonkeyContractAddress",
          "type": "address"
        }
      ],
      "stateMutability": "nonpayable",
      "type": "constructor"
    },
    {
      "anonymous": false,
      "inputs": [
        {
          "indexed": false,
          "internalType": "string",
          "name": "TxType",
          "type": "string"
        },
        {
          "indexed": false,
          "internalType": "address",
          "name": "owner",
          "type": "address"
        },
        {
          "indexed": false,
          "internalType": "uint256",
          "name": "tokenId",
          "type": "uint256"
        }
      ],
      "name": "MarketTransaction",
      "type": "event"
    },
    {
      "anonymous": false,
      "inputs": [
        {
          "indexed": false,
          "internalType": "address",
          "name": "seller",
          "type": "address"
        },
        {
          "indexed": false,
          "internalType": "address",
          "name": "buyer",
          "type": "address"
        },
        {
          "indexed": false,
          "internalType": "uint256",
          "name": "price",
          "type": "uint256"
        },
        {
          "indexed": false,
          "internalType": "uint256",
          "name": "tokenId",
          "type": "uint256"
        }
      ],
      "name": "MonkeySold",
      "type": "event"
    },
    {
      "anonymous": false,
      "inputs": [
        {
          "indexed": true,
          "internalType": "address",
          "name": "previousOwner",
          "type": "address"
        },
        {
          "indexed": true,
          "internalType": "address",
          "name": "newOwner",
          "type": "address"
        }
      ],
      "name": "OwnershipTransferred",
      "type": "event"
    },
    {
      "anonymous": false,
      "inputs": [
        {
          "indexed": false,
          "internalType": "address",
          "name": "account",
          "type": "address"
        }
      ],
      "name": "Paused",
      "type": "event"
    },
    {
      "anonymous": false,
      "inputs": [
        {
          "indexed": false,
          "internalType": "address",
          "name": "account",
          "type": "address"
        }
      ],
      "name": "Unpaused",
      "type": "event"
    },
    {
      "inputs": [],
      "name": "owner",
      "outputs": [
        {
          "internalType": "address",
          "name": "",
          "type": "address"
        }
      ],
      "stateMutability": "view",
      "type": "function"
    },
    {
      "inputs": [],
      "name": "paused",
      "outputs": [
        {
          "internalType": "bool",
          "name": "",
          "type": "bool"
        }
      ],
      "stateMutability": "view",
      "type": "function"
    },
    {
      "inputs": [],
      "name": "renounceOwnership",
      "outputs": [],
      "stateMutability": "nonpayable",
      "type": "function"
    },
    {
      "inputs": [],
      "name": "savedMainContractAddress",
      "outputs": [
        {
          "internalType": "address",
          "name": "",
          "type": "address"
        }
      ],
      "stateMutability": "view",
      "type": "function"
    },
    {
      "inputs": [
        {
          "internalType": "address",
          "name": "newOwner",
          "type": "address"
        }
      ],
      "name": "transferOwnership",
      "outputs": [],
      "stateMutability": "nonpayable",
      "type": "function"
    },
    {
      "inputs": [],
      "name": "pause",
      "outputs": [],
      "stateMutability": "nonpayable",
      "type": "function"
    },
    {
      "inputs": [],
      "name": "unpause",
      "outputs": [],
      "stateMutability": "nonpayable",
      "type": "function"
    },
    {
      "inputs": [
        {
          "internalType": "uint256",
          "name": "_tokenId",
          "type": "uint256"
        }
      ],
      "name": "isTokenOnSale",
      "outputs": [
        {
          "internalType": "bool",
          "name": "tokenIsOnSale",
          "type": "bool"
        }
      ],
      "stateMutability": "view",
      "type": "function"
    },
    {
      "inputs": [
        {
          "internalType": "uint256",
          "name": "_tokenId",
          "type": "uint256"
        }
      ],
      "name": "getOffer",
      "outputs": [
        {
          "internalType": "address",
          "name": "seller",
          "type": "address"
        },
        {
          "internalType": "uint256",
          "name": "price",
          "type": "uint256"
        },
        {
          "internalType": "uint256",
          "name": "index",
          "type": "uint256"
        },
        {
          "internalType": "uint256",
          "name": "tokenId",
          "type": "uint256"
        },
        {
          "internalType": "bool",
          "name": "active",
          "type": "bool"
        }
      ],
      "stateMutability": "view",
      "type": "function"
    },
    {
      "inputs": [],
      "name": "getAllTokenOnSale",
      "outputs": [
        {
          "internalType": "uint256[]",
          "name": "listOfTokenIdsOnSale",
          "type": "uint256[]"
        }
      ],
      "stateMutability": "view",
      "type": "function"
    },
    {
      "inputs": [
        {
          "internalType": "uint256",
          "name": "_price",
          "type": "uint256"
        },
        {
          "internalType": "uint256",
          "name": "_tokenId",
          "type": "uint256"
        }
      ],
      "name": "setOffer",
      "outputs": [],
      "stateMutability": "nonpayable",
      "type": "function"
    },
    {
      "inputs": [
        {
          "internalType": "uint256",
          "name": "_tokenId",
          "type": "uint256"
        }
      ],
      "name": "removeOffer",
      "outputs": [],
      "stateMutability": "nonpayable",
      "type": "function"
    },
    {
      "inputs": [
        {
          "internalType": "uint256",
          "name": "_tokenId",
          "type": "uint256"
        }
      ],
      "name": "buyMonkey",
      "outputs": [],
      "stateMutability": "payable",
      "type": "function"
    },
    {
      "inputs": [],
      "name": "showLengthOfOffersArray",
      "outputs": [
        {
          "internalType": "uint256",
          "name": "length",
          "type": "uint256"
        }
      ],
      "stateMutability": "view",
      "type": "function"
    },
    {
      "inputs": [
        {
          "internalType": "uint256",
          "name": "arrayPosition",
          "type": "uint256"
        }
      ],
      "name": "showOfferArrayEntry",
      "outputs": [
        {
          "internalType": "address",
          "name": "seller",
          "type": "address"
        },
        {
          "internalType": "uint256",
          "name": "price",
          "type": "uint256"
        },
        {
          "internalType": "uint256",
          "name": "index",
          "type": "uint256"
        },
        {
          "internalType": "uint256",
          "name": "tokenId",
          "type": "uint256"
        },
        {
          "internalType": "bool",
          "name": "active",
          "type": "bool"
        }
      ],
      "stateMutability": "view",
      "type": "function"
    },
    {
      "inputs": [],
      "name": "withdrawETH",
      "outputs": [],
      "stateMutability": "nonpayable",
      "type": "function"
    }
  ],
  "bytecode": "0x60806040523480156200001157600080fd5b5060405162002d2d38038062002d2d8339818101604052810190620000379190620002f9565b620000576200004b6200021660201b60201c565b6200021e60201b60201c565b600180819055506000600260006101000a81548160ff02191690831515021790555080600260016101000a81548173ffffffffffffffffffffffffffffffffffffffff021916908373ffffffffffffffffffffffffffffffffffffffff1602179055508073ffffffffffffffffffffffffffffffffffffffff16600260019054906101000a900473ffffffffffffffffffffffffffffffffffffffff1673ffffffffffffffffffffffffffffffffffffffff1663daa97fae6040518163ffffffff1660e01b815260040160206040518083038186803b1580156200013a57600080fd5b505afa1580156200014f573d6000803e3d6000fd5b505050506040513d601f19601f82011682018060405250810190620001759190620002f9565b73ffffffffffffffffffffffffffffffffffffffff1614620001ce576040517f08c379a0000000000000000000000000000000000000000000000000000000008152600401620001c5906200038d565b60405180910390fd5b80600360006101000a81548173ffffffffffffffffffffffffffffffffffffffff021916908373ffffffffffffffffffffffffffffffffffffffff160217905550506200040e565b600033905090565b60008060009054906101000a900473ffffffffffffffffffffffffffffffffffffffff169050816000806101000a81548173ffffffffffffffffffffffffffffffffffffffff021916908373ffffffffffffffffffffffffffffffffffffffff1602179055508173ffffffffffffffffffffffffffffffffffffffff168173ffffffffffffffffffffffffffffffffffffffff167f8be0079c531659141344cd1fd0a4f28419497f9722a3daafe3b4186f6b6457e060405160405180910390a35050565b600081519050620002f381620003f4565b92915050565b6000602082840312156200030c57600080fd5b60006200031c84828501620002e2565b91505092915050565b600062000334603683620003af565b91507f434f4e5354525543544f523a204d6f6e6b657920636f6e74726163742061646460008301527f72657373206d757374206265207468652073616d652e000000000000000000006020830152604082019050919050565b60006020820190508181036000830152620003a88162000325565b9050919050565b600082825260208201905092915050565b6000620003cd82620003d4565b9050919050565b600073ffffffffffffffffffffffffffffffffffffffff82169050919050565b620003ff81620003c0565b81146200040b57600080fd5b50565b61290f806200041e6000396000f3fe6080604052600436106100f35760003560e01c80638456cb591161008a57806395a0f9c71161005957806395a0f9c7146102ed578063dfcaaa9514610316578063e086e5ec14610341578063f2fde38b14610358576100f3565b80638456cb59146102455780638da5cb5b1461025c578063941b055b14610287578063951fbdf0146102b0576100f3565b80635c975abb116100c65780635c975abb146101bc578063615fc0e2146101e7578063715018a6146102035780637d3e0ec21461021a576100f3565b80633f4ba83a146100f85780633f50b4411461010f5780634579268a1461015057806349b3709f14610191575b600080fd5b34801561010457600080fd5b5061010d610381565b005b34801561011b57600080fd5b5061013660048036038101906101319190611d9f565b610407565b604051610147959493929190612475565b60405180910390f35b34801561015c57600080fd5b5061017760048036038101906101729190611d9f565b61059e565b604051610188959493929190612475565b60405180910390f35b34801561019d57600080fd5b506101a66106e7565b6040516101b391906124c8565b60405180910390f35b3480156101c857600080fd5b506101d16109a0565b6040516101de91906124ea565b60405180910390f35b61020160048036038101906101fc9190611d9f565b6109b7565b005b34801561020f57600080fd5b50610218610dd8565b005b34801561022657600080fd5b5061022f610e60565b60405161023c91906123b5565b60405180910390f35b34801561025157600080fd5b5061025a610e86565b005b34801561026857600080fd5b50610271610f0c565b60405161027e91906123b5565b60405180910390f35b34801561029357600080fd5b506102ae60048036038101906102a99190611dc8565b610f35565b005b3480156102bc57600080fd5b506102d760048036038101906102d29190611d9f565b61156d565b6040516102e491906124ea565b60405180910390f35b3480156102f957600080fd5b50610314600480360381019061030f9190611d9f565b61159a565b005b34801561032257600080fd5b5061032b61186c565b6040516103389190612739565b60405180910390f35b34801561034d57600080fd5b506103566118f5565b005b34801561036457600080fd5b5061037f600480360381019061037a9190611d24565b6119c7565b005b610389611abf565b73ffffffffffffffffffffffffffffffffffffffff166103a7610f0c565b73ffffffffffffffffffffffffffffffffffffffff16146103fd576040517f08c379a00000000000000000000000000000000000000000000000000000000081526004016103f49061267d565b60405180910390fd5b610405611ac7565b565b6000806000806000610417611abf565b73ffffffffffffffffffffffffffffffffffffffff16610435610f0c565b73ffffffffffffffffffffffffffffffffffffffff161461048b576040517f08c379a00000000000000000000000000000000000000000000000000000000081526004016104829061267d565b60405180910390fd5b6000600487815481106104c7577f4e487b7100000000000000000000000000000000000000000000000000000000600052603260045260246000fd5b90600052602060002090600502016040518060a00160405290816000820160009054906101000a900473ffffffffffffffffffffffffffffffffffffffff1673ffffffffffffffffffffffffffffffffffffffff1673ffffffffffffffffffffffffffffffffffffffff1681526020016001820154815260200160028201548152602001600382015481526020016004820160009054906101000a900460ff161515151581525050905080600001518160200151826040015183606001518460800151955095509550955095505091939590929450565b60008060008060006005600087815260200190815260200160002060040160009054906101000a900460ff16610609576040517f08c379a0000000000000000000000000000000000000000000000000000000008152600401610600906126d9565b60405180910390fd5b6000600560008881526020019081526020016000206040518060a00160405290816000820160009054906101000a900473ffffffffffffffffffffffffffffffffffffffff1673ffffffffffffffffffffffffffffffffffffffff1673ffffffffffffffffffffffffffffffffffffffff1681526020016001820154815260200160028201548152602001600382015481526020016004820160009054906101000a900460ff161515151581525050905080600001518160200151826040015183606001518460800151955095509550955095505091939590929450565b6060600080600090505b60048054905081101561077e5760048181548110610738577f4e487b7100000000000000000000000000000000000000000000000000000000600052603260045260246000fd5b906000526020600020906005020160040160009054906101000a900460ff161561076b5781806107679061281c565b9250505b80806107769061281c565b9150506106f1565b50600081141561080057600067ffffffffffffffff8111156107c9577f4e487b7100000000000000000000000000000000000000000000000000000000600052604160045260246000fd5b6040519080825280602002602001820160405280156107f75781602001602082028036833780820191505090505b5091505061099d565b60008167ffffffffffffffff811115610842577f4e487b7100000000000000000000000000000000000000000000000000000000600052604160045260246000fd5b6040519080825280602002602001820160405280156108705781602001602082028036833780820191505090505b5090506000805b60048054905081101561099557600481815481106108be577f4e487b7100000000000000000000000000000000000000000000000000000000600052603260045260246000fd5b906000526020600020906005020160040160009054906101000a900460ff1615610982576004818154811061091c577f4e487b7100000000000000000000000000000000000000000000000000000000600052603260045260246000fd5b906000526020600020906005020160030154838381518110610967577f4e487b7100000000000000000000000000000000000000000000000000000000600052603260045260246000fd5b602002602001018181525050818061097e9061281c565b9250505b808061098d9061281c565b915050610877565b508193505050505b90565b6000600260009054906101000a900460ff16905090565b600260015414156109fd576040517f08c379a00000000000000000000000000000000000000000000000000000000081526004016109f490612719565b60405180910390fd5b6002600181905550610a0d6109a0565b15610a4d576040517f08c379a0000000000000000000000000000000000000000000000000000000008152600401610a44906125c5565b60405180910390fd5b6000600560008381526020019081526020016000206040518060a00160405290816000820160009054906101000a900473ffffffffffffffffffffffffffffffffffffffff1673ffffffffffffffffffffffffffffffffffffffff1673ffffffffffffffffffffffffffffffffffffffff1681526020016001820154815260200160028201548152602001600382015481526020016004820160009054906101000a900460ff1615151515815250509050600115158160800151151514610b49576040517f08c379a0000000000000000000000000000000000000000000000000000000008152600401610b40906125a5565b60405180910390fd5b34816020015114610b8f576040517f08c379a0000000000000000000000000000000000000000000000000000000008152600401610b8690612585565b60405180910390fd5b60008160000151905060006004836040015181548110610bd8577f4e487b7100000000000000000000000000000000000000000000000000000000600052603260045260246000fd5b906000526020600020906005020160040160006101000a81548160ff02191690831515021790555060056000848152602001908152602001600020600080820160006101000a81549073ffffffffffffffffffffffffffffffffffffffff02191690556001820160009055600282016000905560038201600090556004820160006101000a81549060ff02191690555050600260019054906101000a900473ffffffffffffffffffffffffffffffffffffffff1673ffffffffffffffffffffffffffffffffffffffff166369e9cae182610cb0611abf565b866040518463ffffffff1660e01b8152600401610ccf939291906123d0565b600060405180830381600087803b158015610ce957600080fd5b505af1158015610cfd573d6000803e3d6000fd5b505050508073ffffffffffffffffffffffffffffffffffffffff166108fc349081150290604051600060405180830381858888f19350505050158015610d47573d6000803e3d6000fd5b507fd99e4fad9ad6313b1feb588fa8e605e3a9873172f2024330c35dd2b4041a4386610d71611abf565b84604051610d80929190612641565b60405180910390a17f5cb9b6c5307f216c1d2602c70a3ca8bfeb0af6ff7541fb0ca314dce1bc30331081610db2611abf565b3486604051610dc49493929190612407565b60405180910390a150506001808190555050565b610de0611abf565b73ffffffffffffffffffffffffffffffffffffffff16610dfe610f0c565b73ffffffffffffffffffffffffffffffffffffffff1614610e54576040517f08c379a0000000000000000000000000000000000000000000000000000000008152600401610e4b9061267d565b60405180910390fd5b610e5e6000611b69565b565b600360009054906101000a900473ffffffffffffffffffffffffffffffffffffffff1681565b610e8e611abf565b73ffffffffffffffffffffffffffffffffffffffff16610eac610f0c565b73ffffffffffffffffffffffffffffffffffffffff1614610f02576040517f08c379a0000000000000000000000000000000000000000000000000000000008152600401610ef99061267d565b60405180910390fd5b610f0a611c2d565b565b60008060009054906101000a900473ffffffffffffffffffffffffffffffffffffffff16905090565b610f3d6109a0565b15610f7d576040517f08c379a0000000000000000000000000000000000000000000000000000000008152600401610f74906125c5565b60405180910390fd5b610f85611abf565b73ffffffffffffffffffffffffffffffffffffffff16600260019054906101000a900473ffffffffffffffffffffffffffffffffffffffff1673ffffffffffffffffffffffffffffffffffffffff16636352211e836040518263ffffffff1660e01b8152600401610ff69190612739565b60206040518083038186803b15801561100e57600080fd5b505afa158015611022573d6000803e3d6000fd5b505050506040513d601f19601f820116820180604052508101906110469190611d4d565b73ffffffffffffffffffffffffffffffffffffffff161461109c576040517f08c379a000000000000000000000000000000000000000000000000000000000815260040161109390612545565b60405180910390fd5b600260019054906101000a900473ffffffffffffffffffffffffffffffffffffffff1673ffffffffffffffffffffffffffffffffffffffff1663e985e9c56110e2611abf565b306040518363ffffffff1660e01b815260040161110092919061244c565b60206040518083038186803b15801561111857600080fd5b505afa15801561112c573d6000803e3d6000fd5b505050506040513d601f19601f820116820180604052508101906111509190611d76565b61118f576040517f08c379a000000000000000000000000000000000000000000000000000000000815260040161118690612525565b60405180910390fd5b64e8d4a510008210156111d7576040517f08c379a00000000000000000000000000000000000000000000000000000000081526004016111ce90612621565b60405180910390fd5b6000600560008381526020019081526020016000206040518060a00160405290816000820160009054906101000a900473ffffffffffffffffffffffffffffffffffffffff1673ffffffffffffffffffffffffffffffffffffffff1673ffffffffffffffffffffffffffffffffffffffff1681526020016001820154815260200160028201548152602001600382015481526020016004820160009054906101000a900460ff161515151581525050905060011515816080015115151415611387576112a1611abf565b60048260400151815481106112df577f4e487b7100000000000000000000000000000000000000000000000000000000600052603260045260246000fd5b906000526020600020906005020160000160006101000a81548173ffffffffffffffffffffffffffffffffffffffff021916908373ffffffffffffffffffffffffffffffffffffffff16021790555082600482604001518154811061136d577f4e487b7100000000000000000000000000000000000000000000000000000000600052603260045260246000fd5b906000526020600020906005020160010181905550611528565b60006040518060a0016040528061139c611abf565b73ffffffffffffffffffffffffffffffffffffffff1681526020018581526020016004805490508152602001848152602001600115158152509050806005600085815260200190815260200160002060008201518160000160006101000a81548173ffffffffffffffffffffffffffffffffffffffff021916908373ffffffffffffffffffffffffffffffffffffffff16021790555060208201518160010155604082015181600201556060820151816003015560808201518160040160006101000a81548160ff021916908315150217905550905050600481908060018154018082558091505060019003906000526020600020906005020160009091909190915060008201518160000160006101000a81548173ffffffffffffffffffffffffffffffffffffffff021916908373ffffffffffffffffffffffffffffffffffffffff16021790555060208201518160010155604082015181600201556060820151816003015560808201518160040160006101000a81548160ff0219169083151502179055505050505b7fd99e4fad9ad6313b1feb588fa8e605e3a9873172f2024330c35dd2b4041a4386611551611abf565b836040516115609291906125e5565b60405180910390a1505050565b60006005600083815260200190815260200160002060040160009054906101000a900460ff169050919050565b6115a26109a0565b156115e2576040517f08c379a00000000000000000000000000000000000000000000000000000000081526004016115d9906125c5565b60405180910390fd5b6000600560008381526020019081526020016000206040518060a00160405290816000820160009054906101000a900473ffffffffffffffffffffffffffffffffffffffff1673ffffffffffffffffffffffffffffffffffffffff1673ffffffffffffffffffffffffffffffffffffffff1681526020016001820154815260200160028201548152602001600382015481526020016004820160009054906101000a900460ff16151515158152505090506001151581608001511515146116de576040517f08c379a00000000000000000000000000000000000000000000000000000000081526004016116d5906126d9565b60405180910390fd5b6116e6611abf565b73ffffffffffffffffffffffffffffffffffffffff16816000015173ffffffffffffffffffffffffffffffffffffffff1614611757576040517f08c379a000000000000000000000000000000000000000000000000000000000815260040161174e906126f9565b60405180910390fd5b60006004826040015181548110611797577f4e487b7100000000000000000000000000000000000000000000000000000000600052603260045260246000fd5b906000526020600020906005020160040160006101000a81548160ff02191690831515021790555060056000838152602001908152602001600020600080820160006101000a81549073ffffffffffffffffffffffffffffffffffffffff02191690556001820160009055600282016000905560038201600090556004820160006101000a81549060ff021916905550507fd99e4fad9ad6313b1feb588fa8e605e3a9873172f2024330c35dd2b4041a4386611851611abf565b8360405161186092919061269d565b60405180910390a15050565b6000611876611abf565b73ffffffffffffffffffffffffffffffffffffffff16611894610f0c565b73ffffffffffffffffffffffffffffffffffffffff16146118ea576040517f08c379a00000000000000000000000000000000000000000000000000000000081526004016118e19061267d565b60405180910390fd5b600480549050905090565b6118fd611abf565b73ffffffffffffffffffffffffffffffffffffffff1661191b610f0c565b73ffffffffffffffffffffffffffffffffffffffff1614611971576040517f08c379a00000000000000000000000000000000000000000000000000000000081526004016119689061267d565b60405180910390fd5b600061197b611abf565b90508073ffffffffffffffffffffffffffffffffffffffff166108fc479081150290604051600060405180830381858888f193505050501580156119c3573d6000803e3d6000fd5b5050565b6119cf611abf565b73ffffffffffffffffffffffffffffffffffffffff166119ed610f0c565b73ffffffffffffffffffffffffffffffffffffffff1614611a43576040517f08c379a0000000000000000000000000000000000000000000000000000000008152600401611a3a9061267d565b60405180910390fd5b600073ffffffffffffffffffffffffffffffffffffffff168173ffffffffffffffffffffffffffffffffffffffff161415611ab3576040517f08c379a0000000000000000000000000000000000000000000000000000000008152600401611aaa90612565565b60405180910390fd5b611abc81611b69565b50565b600033905090565b611acf6109a0565b611b0e576040517f08c379a0000000000000000000000000000000000000000000000000000000008152600401611b0590612505565b60405180910390fd5b6000600260006101000a81548160ff0219169083151502179055507f5db9ee0a495bf2e6ff9c91a7834c1ba4fdd244a5e8aa4e537bd38aeae4b073aa611b52611abf565b604051611b5f91906123b5565b60405180910390a1565b60008060009054906101000a900473ffffffffffffffffffffffffffffffffffffffff169050816000806101000a81548173ffffffffffffffffffffffffffffffffffffffff021916908373ffffffffffffffffffffffffffffffffffffffff1602179055508173ffffffffffffffffffffffffffffffffffffffff168173ffffffffffffffffffffffffffffffffffffffff167f8be0079c531659141344cd1fd0a4f28419497f9722a3daafe3b4186f6b6457e060405160405180910390a35050565b611c356109a0565b15611c75576040517f08c379a0000000000000000000000000000000000000000000000000000000008152600401611c6c906125c5565b60405180910390fd5b6001600260006101000a81548160ff0219169083151502179055507f62e78cea01bee320cd4e420270b5ea74000d11b0c9f74754ebdbfc544b05a258611cb9611abf565b604051611cc691906123b5565b60405180910390a1565b600081359050611cdf81612894565b92915050565b600081519050611cf481612894565b92915050565b600081519050611d09816128ab565b92915050565b600081359050611d1e816128c2565b92915050565b600060208284031215611d3657600080fd5b6000611d4484828501611cd0565b91505092915050565b600060208284031215611d5f57600080fd5b6000611d6d84828501611ce5565b91505092915050565b600060208284031215611d8857600080fd5b6000611d9684828501611cfa565b91505092915050565b600060208284031215611db157600080fd5b6000611dbf84828501611d0f565b91505092915050565b60008060408385031215611ddb57600080fd5b6000611de985828601611d0f565b9250506020611dfa85828601611d0f565b9150509250929050565b6000611e108383612397565b60208301905092915050565b611e25816127e6565b82525050565b611e348161279e565b82525050565b6000611e4582612764565b611e4f818561277c565b9350611e5a83612754565b8060005b83811015611e8b578151611e728882611e04565b9750611e7d8361276f565b925050600181019050611e5e565b5085935050505092915050565b611ea1816127b0565b82525050565b6000611eb460148361278d565b91507f5061757361626c653a206e6f74207061757365640000000000000000000000006000830152602082019050919050565b6000611ef4603c8361278d565b91507f4d61726b6574706c6163652061646472657373206e65656473206f706572617460008301527f6f72207374617475732066726f6d206d6f6e6b6579206f776e65722e000000006020830152604082019050919050565b6000611f5a60308361278d565b91507f4f6e6c79206d6f6e6b6579206f776e65722063616e20736574206f666665722060008301527f666f72207468697320746f6b656e4964000000000000000000000000000000006020830152604082019050919050565b6000611fc060268361278d565b91507f4f776e61626c653a206e6577206f776e657220697320746865207a65726f206160008301527f64647265737300000000000000000000000000000000000000000000000000006020830152604082019050919050565b600061202660278361278d565b91507f4d61726b65743a204e6f742073656e64696e672074686520636f72726563742060008301527f616d6f756e742e000000000000000000000000000000000000000000000000006020830152604082019050919050565b600061208c602e8361278d565b91507f4d61726b65743a204e6f20616374697665206f6666657220666f72207468697360008301527f20746f6b656e49642e20544553540000000000000000000000000000000000006020830152604082019050919050565b60006120f260108361278d565b91507f5061757361626c653a20706175736564000000000000000000000000000000006000830152602082019050919050565b6000612132600c8361278d565b91507f437265617465206f6666657200000000000000000000000000000000000000006000830152602082019050919050565b600061217260428361278d565b91507f6f66666572207072696365206d757374206265206174206c656173742031303060008301527f30303030303030303030205745492c20692e652e20302e30303030303120455460208301527f48200000000000000000000000000000000000000000000000000000000000006040830152606082019050919050565b60006121fe60038361278d565b91507f42757900000000000000000000000000000000000000000000000000000000006000830152602082019050919050565b600061223e60208361278d565b91507f4f776e61626c653a2063616c6c6572206973206e6f7420746865206f776e65726000830152602082019050919050565b600061227e600c8361278d565b91507f52656d6f7665206f6666657200000000000000000000000000000000000000006000830152602082019050919050565b60006122be60298361278d565b91507f4d61726b65743a204e6f20616374697665206f6666657220666f72207468697360008301527f20746f6b656e49642e00000000000000000000000000000000000000000000006020830152604082019050919050565b600061232460148361278d565b91507f596f75277265206e6f7420746865206f776e65720000000000000000000000006000830152602082019050919050565b6000612364601f8361278d565b91507f5265656e7472616e637947756172643a207265656e7472616e742063616c6c006000830152602082019050919050565b6123a0816127dc565b82525050565b6123af816127dc565b82525050565b60006020820190506123ca6000830184611e2b565b92915050565b60006060820190506123e56000830186611e1c565b6123f26020830185611e2b565b6123ff60408301846123a6565b949350505050565b600060808201905061241c6000830187611e1c565b6124296020830186611e2b565b61243660408301856123a6565b61244360608301846123a6565b95945050505050565b60006040820190506124616000830185611e2b565b61246e6020830184611e2b565b9392505050565b600060a08201905061248a6000830188611e2b565b61249760208301876123a6565b6124a460408301866123a6565b6124b160608301856123a6565b6124be6080830184611e98565b9695505050505050565b600060208201905081810360008301526124e28184611e3a565b905092915050565b60006020820190506124ff6000830184611e98565b92915050565b6000602082019050818103600083015261251e81611ea7565b9050919050565b6000602082019050818103600083015261253e81611ee7565b9050919050565b6000602082019050818103600083015261255e81611f4d565b9050919050565b6000602082019050818103600083015261257e81611fb3565b9050919050565b6000602082019050818103600083015261259e81612019565b9050919050565b600060208201905081810360008301526125be8161207f565b9050919050565b600060208201905081810360008301526125de816120e5565b9050919050565b600060608201905081810360008301526125fe81612125565b905061260d6020830185611e2b565b61261a60408301846123a6565b9392505050565b6000602082019050818103600083015261263a81612165565b9050919050565b6000606082019050818103600083015261265a816121f1565b90506126696020830185611e2b565b61267660408301846123a6565b9392505050565b6000602082019050818103600083015261269681612231565b9050919050565b600060608201905081810360008301526126b681612271565b90506126c56020830185611e2b565b6126d260408301846123a6565b9392505050565b600060208201905081810360008301526126f2816122b1565b9050919050565b6000602082019050818103600083015261271281612317565b9050919050565b6000602082019050818103600083015261273281612357565b9050919050565b600060208201905061274e60008301846123a6565b92915050565b6000819050602082019050919050565b600081519050919050565b6000602082019050919050565b600082825260208201905092915050565b600082825260208201905092915050565b60006127a9826127bc565b9050919050565b60008115159050919050565b600073ffffffffffffffffffffffffffffffffffffffff82169050919050565b6000819050919050565b60006127f1826127f8565b9050919050565b60006128038261280a565b9050919050565b6000612815826127bc565b9050919050565b6000612827826127dc565b91507fffffffffffffffffffffffffffffffffffffffffffffffffffffffffffffffff82141561285a57612859612865565b5b600182019050919050565b7f4e487b7100000000000000000000000000000000000000000000000000000000600052601160045260246000fd5b61289d8161279e565b81146128a857600080fd5b50565b6128b4816127b0565b81146128bf57600080fd5b50565b6128cb816127dc565b81146128d657600080fd5b5056fea264697066735822122030a75846909028d5bb0fba11e2cad6f234afe6b9db18d81313d529cbc2b796ef64736f6c63430008000033",
  "immutableReferences": {},
  "source": "// SPDX-License-Identifier: UNLICENSED\r\npragma solidity ^0.8.0;\r\n\r\n// importing the main Crypto Monkey NFT contract\r\nimport \"./IMonkeyContract.sol\";\r\n// preparing for some functions to be restricted \r\nimport \"@openzeppelin/contracts/access/Ownable.sol\";\r\n// preparing safemath to rule out over- and underflow  \r\nimport \"@openzeppelin/contracts/utils/math/SafeMath.sol\";\r\n// importing openzeppelin script to guard against re-entrancy\r\nimport \"@openzeppelin/contracts/security/ReentrancyGuard.sol\";\r\n// importing openzeppelin script to make contract pausable\r\nimport \"@openzeppelin/contracts/security/Pausable.sol\";\r\n\r\ncontract MonkeyMarketplace is Ownable, ReentrancyGuard, Pausable {\r\n  using SafeMath for uint256;\r\n  \r\n  // STATE VARIABLES\r\n\r\n  // interface of main Crypto Monkey NFT contract\r\n  IMonkeyContract private _monkeyContractInterface;\r\n  // contract address of main contract will be saved here (set by constructor)\r\n  address public savedMainContractAddress;  \r\n\r\n  // general event for market transactions\r\n  event MarketTransaction(string TxType, address owner, uint256 tokenId);\r\n\r\n  // specific event just for successful sales\r\n  event MonkeySold (address seller, address buyer, uint256 price, uint256 tokenId); \r\n\r\n  // \"blueprint\" for sell offers\r\n  // index refers to the offer's position in the offersArray\r\n  struct Offer {\r\n    address payable seller;\r\n    uint256 price;\r\n    uint256 index;\r\n    uint256 tokenId;    \r\n    bool active;\r\n  }\r\n\r\n  // Array of all offers\r\n  // can be queried by onlyOwner via showOfferArrayEntry\r\n  Offer[] private offersArray; \r\n\r\n  // Mapping of Token ID to its active offer (if it has one)\r\n  mapping (uint256 => Offer) tokenIdToOfferMapping;    \r\n\r\n  // setting and saving the main Crypto Monkey contract's address, (also calling the contract and checking address) \r\n  constructor (address _constructorMonkeyContractAddress) {\r\n    _monkeyContractInterface = IMonkeyContract(_constructorMonkeyContractAddress);\r\n    require(_monkeyContractInterface.getMonkeyContractAddress() == _constructorMonkeyContractAddress, \"CONSTRUCTOR: Monkey contract address must be the same.\");\r\n    savedMainContractAddress = _constructorMonkeyContractAddress; \r\n  } \r\n \r\n  // contract can be paused by onlyOwner\r\n  function pause() public onlyOwner {\r\n    _pause();\r\n  }\r\n\r\n  // contract can be unpaused by onlyOwner\r\n  function unpause() public onlyOwner {\r\n    _unpause();\r\n  }\r\n\r\n  // to check whether a NFT is on sale at the moment\r\n  function isTokenOnSale(uint256 _tokenId) public view returns (bool tokenIsOnSale) {\r\n    return (\r\n      tokenIdToOfferMapping[_tokenId].active\r\n    );\r\n  }\r\n  \r\n  // Get the details about an offer for _tokenId. Throws an error if there is no active offer for _tokenId.  \r\n  function getOffer(uint256 _tokenId) public view returns (\r\n    address seller,\r\n    uint256 price,\r\n    uint256 index,\r\n    uint256 tokenId,\r\n    bool active\r\n    )\r\n  {\r\n    require (tokenIdToOfferMapping[_tokenId].active, \"Market: No active offer for this tokenId.\");\r\n\r\n    Offer memory offer = tokenIdToOfferMapping[_tokenId]; \r\n    return (\r\n    offer.seller,\r\n    offer.price,\r\n    offer.index, \r\n    offer.tokenId,\r\n    offer.active       \r\n    );\r\n  }\r\n\r\n  /**\r\n  * Get all tokenId's that are currently for sale. \r\n  * Returns an empty array if none exist.\r\n  * adds a Token ID to the 'result' array each time the loop finds an active offer in the offersArray  \r\n  */\r\n  function getAllTokenOnSale() public view returns(uint256[] memory listOfTokenIdsOnSale) {  \r\n\r\n    // counting active offers, needed to create correct hardcoded length of 'result' array\r\n    uint256 numberOfActiveOffers;\r\n    \r\n    // looking through offersArray at each postion\r\n    for (uint256 actCount = 0; actCount < offersArray.length; actCount++) {\r\n\r\n      // each time an active offer is found, numberOfActiveOffers is increased by 1\r\n      if (offersArray[actCount].active) {\r\n        numberOfActiveOffers++;\r\n      }\r\n    }     \r\n\r\n    // if no active offers are found, an empty array is returned\r\n    if (numberOfActiveOffers == 0){\r\n      return new uint256[](0);\r\n    }\r\n    // looking again through offersArray at each postion\r\n    else {\r\n      // 'result' array with hardcoded length, defined by active offers found above\r\n      uint256[] memory result = new uint256[](numberOfActiveOffers);      \r\n\r\n      // index position in result array\r\n      uint256 newIndex = 0 ;\r\n\r\n      for (uint256 k = 0; k < offersArray.length; k++) {\r\n        \r\n        // each time an active offer is found, its tokenId is put into the next position in the 'result' array\r\n        if (offersArray[k].active) {\r\n          result[newIndex] = offersArray[k].tokenId;\r\n          newIndex++;\r\n        }         \r\n      }\r\n      // returning result array\r\n      return result; \r\n\r\n    }\r\n   \r\n  }\r\n\r\n  /**\r\n  * Creates a new offer for _tokenId for the price _price.\r\n  * Emits the MarketTransaction event with txType \"Create offer\"\r\n  * Requirement: Only the owner of _tokenId can create an offer.\r\n  * Requirement: There can only be one active offer for a token at a time.\r\n  * Requirement: Marketplace contract (this) needs to be an approved operator when the offer is created.\r\n  */    \r\n  function setOffer(uint256 _price, uint256 _tokenId) public whenNotPaused {    \r\n    //Only the owner of _tokenId can create an offer.\r\n    require( _monkeyContractInterface.ownerOf(_tokenId) == _msgSender(), \"Only monkey owner can set offer for this tokenId\" );\r\n    //Marketplace contract (this) needs to be an approved operator when the offer is created.\r\n    require( _monkeyContractInterface.isApprovedForAll(_msgSender(), address(this)), \"Marketplace address needs operator status from monkey owner.\" );\r\n    //Offer price must be greater than 0\r\n    require(_price >= 1000000000000, \"offer price must be at least 1000000000000 WEI, i.e. 0.000001 ETH \");\r\n    // checking the entry for this Token ID in the tokenIdToOfferMapping\r\n    Offer memory tokenOffer = tokenIdToOfferMapping[_tokenId];\r\n\r\n    // There can only be one active offer for a token at a time. \r\n    // If active offer exists for this Token ID, seller and price are updated.\r\n    if (tokenOffer.active == true) {\r\n      offersArray[tokenOffer.index].seller = payable(_msgSender());\r\n      offersArray[tokenOffer.index].price = _price;   \r\n    }\r\n    else {\r\n      // If no active offer is found, a new offer is created from the Offer struct \"blueprint\".\r\n      Offer memory _newOffer = Offer({\r\n        seller: payable(_msgSender()),\r\n        price: _price,\r\n        tokenId: _tokenId,      \r\n        active: true,\r\n        index: offersArray.length  \r\n      });\r\n\r\n      // saving new offer (it's a struct) to mapping \r\n      tokenIdToOfferMapping[_tokenId] = _newOffer;    \r\n      // adding new offer (it's a struct) to array of offers\r\n      offersArray.push(_newOffer);  \r\n    }  \r\n    // emitting event for offer creation\r\n    emit MarketTransaction(\"Create offer\", _msgSender(), _tokenId);\r\n  }\r\n\r\n  /**\r\n  * Removes an existing offer.\r\n  * Emits the MarketTransaction event with txType \"Remove offer\"\r\n  * Requirement: Only the seller of _tokenId can remove an offer.\r\n  */\r\n  function removeOffer(uint256 _tokenId) public whenNotPaused {\r\n    // checking the entry for this Token ID in the tokenIdToOfferMapping\r\n    Offer memory tokenOffer = tokenIdToOfferMapping[_tokenId];\r\n    // Active offer must be present\r\n    require(tokenOffer.active == true, \"Market: No active offer for this tokenId.\" );\r\n    //  Only the owner of _tokenId can delete an offer.\r\n    require(tokenOffer.seller == _msgSender(), \"You're not the owner\");    \r\n    // setting array entry inactive\r\n    offersArray[tokenOffer.index].active = false;\r\n    // deleting mapping entry\r\n    delete tokenIdToOfferMapping[_tokenId];      \r\n    // emitting event for offer removal\r\n    emit MarketTransaction(\"Remove offer\", _msgSender(), _tokenId);    \r\n  }\r\n\r\n  /**\r\n  * Executes the purchase of _tokenId.\r\n  * Sends the funds to the seller and transfers the token using transfer in Monkeycontract.   \r\n  * Emits the MarketTransaction event with txType \"Buy\".\r\n  * Requirement: The msg.value needs to equal the price of _tokenId\r\n  * Requirement: There must be an active offer for _tokenId\r\n  */\r\n  function buyMonkey(uint256 _tokenId) public payable nonReentrant whenNotPaused{    \r\n    // checking the entry for this Token ID in the tokenIdToOfferMapping\r\n    Offer memory tokenOffer = tokenIdToOfferMapping[_tokenId];\r\n    // Active offer must be present\r\n    require(tokenOffer.active == true, \"Market: No active offer for this tokenId. TEST\" );\r\n    // sent value must be equal to price\r\n    require(tokenOffer.price == msg.value, \"Market: Not sending the correct amount.\"); \r\n\r\n    // saving seller before deleting mapping entry           \r\n    address payable _oldOwner = tokenOffer.seller;\r\n\r\n    // deactivating offer by setting array entry inactive\r\n    offersArray[tokenOffer.index].active = false;\r\n\r\n    // deleting offer mapping entry\r\n    delete tokenIdToOfferMapping[_tokenId];    \r\n\r\n    // transferring the NFT\r\n    _monkeyContractInterface.transferNFT(_oldOwner, _msgSender(), _tokenId);  \r\n\r\n    // transferring sent funds to _oldOwner\r\n    _oldOwner.transfer(msg.value);\r\n\r\n    // emitting events\r\n    emit MarketTransaction(\"Buy\", _msgSender(), _tokenId);\r\n    emit MonkeySold (_oldOwner, _msgSender(), msg.value, _tokenId);\r\n  }\r\n\r\n  // onlyOwner can check the length of offersArray\r\n  function showLengthOfOffersArray() public view onlyOwner returns(uint256 length) {\r\n    return offersArray.length;\r\n  }\r\n  \r\n  // onlyOwner can check entries in the offersArray \r\n  function showOfferArrayEntry(uint256 arrayPosition) public view onlyOwner returns(address seller, uint256 price, uint256 index, uint256 tokenId, bool active) { \r\n    Offer memory offer = offersArray[arrayPosition]; \r\n    return (\r\n    offer.seller,\r\n    offer.price,\r\n    offer.index, \r\n    offer.tokenId,\r\n    offer.active       \r\n    );    \r\n  }  \r\n\r\n  // function for owner to withdraw any ETH that has accumulated in this contract\r\n  function withdrawETH () public onlyOwner {\r\n    address payable receiver = payable(_msgSender());\r\n    receiver.transfer(address(this).balance);\r\n  }     \r\n   \r\n} ",
  "sourcePath": "C:\\github\\CryptoMonkeys\\contracts\\MonkeyMarketplace.sol",
  "compiler": {
    "name": "solc",
    "version": "0.8.0+commit.c7dfd78e.Emscripten.clang"
  },
  "schemaVersion": "3.2.0",
  "updatedAt": "2021-08-26T16:20:42.196Z",
  "networkType": "ethereum",
  "devdoc": {
    "kind": "dev",
    "methods": {
      "owner()": {
        "details": "Returns the address of the current owner."
      },
      "paused()": {
        "details": "Returns true if the contract is paused, and false otherwise."
      },
      "renounceOwnership()": {
        "details": "Leaves the contract without owner. It will not be possible to call `onlyOwner` functions anymore. Can only be called by the current owner. NOTE: Renouncing ownership will leave the contract without an owner, thereby removing any functionality that is only available to the owner."
      },
      "transferOwnership(address)": {
        "details": "Transfers ownership of the contract to a new account (`newOwner`). Can only be called by the current owner."
      }
    },
    "version": 1
  },
  "userdoc": {
    "kind": "user",
    "methods": {
      "buyMonkey(uint256)": {
        "notice": "Executes the purchase of _tokenId. Sends the funds to the seller and transfers the token using transfer in Monkeycontract.    Emits the MarketTransaction event with txType \"Buy\". Requirement: The msg.value needs to equal the price of _tokenId Requirement: There must be an active offer for _tokenId"
      },
      "getAllTokenOnSale()": {
        "notice": "Get all tokenId's that are currently for sale.  Returns an empty array if none exist. adds a Token ID to the 'result' array each time the loop finds an active offer in the offersArray  "
      },
      "removeOffer(uint256)": {
        "notice": "Removes an existing offer. Emits the MarketTransaction event with txType \"Remove offer\" Requirement: Only the seller of _tokenId can remove an offer."
      },
      "setOffer(uint256,uint256)": {
        "notice": "Creates a new offer for _tokenId for the price _price. Emits the MarketTransaction event with txType \"Create offer\" Requirement: Only the owner of _tokenId can create an offer. Requirement: There can only be one active offer for a token at a time. Requirement: Marketplace contract (this) needs to be an approved operator when the offer is created."
      }
    },
    "version": 1
  }
}