{
  "contractName": "MonkeyContract",
  "abi": [
    {
      "inputs": [
        {
          "internalType": "address",
          "name": "_bananaToken",
          "type": "address"
        }
      ],
      "stateMutability": "nonpayable",
      "type": "constructor"
    },
    {
      "anonymous": false,
      "inputs": [
        {
          "indexed": true,
          "internalType": "address",
          "name": "owner",
          "type": "address"
        },
        {
          "indexed": true,
          "internalType": "address",
          "name": "approved",
          "type": "address"
        },
        {
          "indexed": true,
          "internalType": "uint256",
          "name": "tokenId",
          "type": "uint256"
        }
      ],
      "name": "Approval",
      "type": "event"
    },
    {
      "anonymous": false,
      "inputs": [
        {
          "indexed": true,
          "internalType": "address",
          "name": "owner",
          "type": "address"
        },
        {
          "indexed": true,
          "internalType": "address",
          "name": "operator",
          "type": "address"
        },
        {
          "indexed": false,
          "internalType": "bool",
          "name": "approved",
          "type": "bool"
        }
      ],
      "name": "ApprovalForAll",
      "type": "event"
    },
    {
      "anonymous": false,
      "inputs": [
        {
          "indexed": false,
          "internalType": "uint256",
          "name": "tokenId",
          "type": "uint256"
        },
        {
          "indexed": false,
          "internalType": "uint256",
          "name": "genes",
          "type": "uint256"
        },
        {
          "indexed": false,
          "internalType": "uint256",
          "name": "birthtime",
          "type": "uint256"
        },
        {
          "indexed": false,
          "internalType": "uint256",
          "name": "parent1Id",
          "type": "uint256"
        },
        {
          "indexed": false,
          "internalType": "uint256",
          "name": "parent2Id",
          "type": "uint256"
        },
        {
          "indexed": false,
          "internalType": "uint256",
          "name": "generation",
          "type": "uint256"
        },
        {
          "indexed": false,
          "internalType": "address",
          "name": "owner",
          "type": "address"
        }
      ],
      "name": "BreedingSuccessful",
      "type": "event"
    },
    {
      "anonymous": false,
      "inputs": [
        {
          "indexed": false,
          "internalType": "address",
          "name": "owner",
          "type": "address"
        },
        {
          "indexed": false,
          "internalType": "uint256",
          "name": "tokenId",
          "type": "uint256"
        },
        {
          "indexed": false,
          "internalType": "uint256",
          "name": "parent1Id",
          "type": "uint256"
        },
        {
          "indexed": false,
          "internalType": "uint256",
          "name": "parent2Id",
          "type": "uint256"
        },
        {
          "indexed": false,
          "internalType": "uint256",
          "name": "genes",
          "type": "uint256"
        }
      ],
      "name": "MonkeyCreated",
      "type": "event"
    },
    {
      "anonymous": false,
      "inputs": [
        {
          "indexed": true,
          "internalType": "address",
          "name": "previousOwner",
          "type": "address"
        },
        {
          "indexed": true,
          "internalType": "address",
          "name": "newOwner",
          "type": "address"
        }
      ],
      "name": "OwnershipTransferred",
      "type": "event"
    },
    {
      "anonymous": false,
      "inputs": [
        {
          "indexed": false,
          "internalType": "address",
          "name": "account",
          "type": "address"
        }
      ],
      "name": "Paused",
      "type": "event"
    },
    {
      "anonymous": false,
      "inputs": [
        {
          "indexed": true,
          "internalType": "address",
          "name": "from",
          "type": "address"
        },
        {
          "indexed": true,
          "internalType": "address",
          "name": "to",
          "type": "address"
        },
        {
          "indexed": true,
          "internalType": "uint256",
          "name": "tokenId",
          "type": "uint256"
        }
      ],
      "name": "Transfer",
      "type": "event"
    },
    {
      "anonymous": false,
      "inputs": [
        {
          "indexed": false,
          "internalType": "address",
          "name": "account",
          "type": "address"
        }
      ],
      "name": "Unpaused",
      "type": "event"
    },
    {
      "inputs": [],
      "name": "GEN0_Limit",
      "outputs": [
        {
          "internalType": "uint256",
          "name": "",
          "type": "uint256"
        }
      ],
      "stateMutability": "view",
      "type": "function",
      "constant": true
    },
    {
      "inputs": [
        {
          "internalType": "uint256",
          "name": "",
          "type": "uint256"
        }
      ],
      "name": "allMonkeysArray",
      "outputs": [
        {
          "internalType": "uint256",
          "name": "parent1Id",
          "type": "uint256"
        },
        {
          "internalType": "uint256",
          "name": "parent2Id",
          "type": "uint256"
        },
        {
          "internalType": "uint256",
          "name": "generation",
          "type": "uint256"
        },
        {
          "internalType": "uint256",
          "name": "genes",
          "type": "uint256"
        },
        {
          "internalType": "uint256",
          "name": "birthtime",
          "type": "uint256"
        }
      ],
      "stateMutability": "view",
      "type": "function",
      "constant": true
    },
    {
      "inputs": [
        {
          "internalType": "address",
          "name": "to",
          "type": "address"
        },
        {
          "internalType": "uint256",
          "name": "tokenId",
          "type": "uint256"
        }
      ],
      "name": "approve",
      "outputs": [],
      "stateMutability": "nonpayable",
      "type": "function"
    },
    {
      "inputs": [
        {
          "internalType": "address",
          "name": "owner",
          "type": "address"
        }
      ],
      "name": "balanceOf",
      "outputs": [
        {
          "internalType": "uint256",
          "name": "",
          "type": "uint256"
        }
      ],
      "stateMutability": "view",
      "type": "function",
      "constant": true
    },
    {
      "inputs": [],
      "name": "bananaToken",
      "outputs": [
        {
          "internalType": "contract IERC20",
          "name": "",
          "type": "address"
        }
      ],
      "stateMutability": "view",
      "type": "function",
      "constant": true
    },
    {
      "inputs": [],
      "name": "gen0amountTotal",
      "outputs": [
        {
          "internalType": "uint256",
          "name": "_value",
          "type": "uint256"
        }
      ],
      "stateMutability": "view",
      "type": "function",
      "constant": true
    },
    {
      "inputs": [
        {
          "internalType": "uint256",
          "name": "tokenId",
          "type": "uint256"
        }
      ],
      "name": "getApproved",
      "outputs": [
        {
          "internalType": "address",
          "name": "",
          "type": "address"
        }
      ],
      "stateMutability": "view",
      "type": "function",
      "constant": true
    },
    {
      "inputs": [
        {
          "internalType": "address",
          "name": "owner",
          "type": "address"
        },
        {
          "internalType": "address",
          "name": "operator",
          "type": "address"
        }
      ],
      "name": "isApprovedForAll",
      "outputs": [
        {
          "internalType": "bool",
          "name": "",
          "type": "bool"
        }
      ],
      "stateMutability": "view",
      "type": "function",
      "constant": true
    },
    {
      "inputs": [],
      "name": "name",
      "outputs": [
        {
          "internalType": "string",
          "name": "",
          "type": "string"
        }
      ],
      "stateMutability": "view",
      "type": "function",
      "constant": true
    },
    {
      "inputs": [],
      "name": "owner",
      "outputs": [
        {
          "internalType": "address",
          "name": "",
          "type": "address"
        }
      ],
      "stateMutability": "view",
      "type": "function",
      "constant": true
    },
    {
      "inputs": [
        {
          "internalType": "uint256",
          "name": "tokenId",
          "type": "uint256"
        }
      ],
      "name": "ownerOf",
      "outputs": [
        {
          "internalType": "address",
          "name": "",
          "type": "address"
        }
      ],
      "stateMutability": "view",
      "type": "function",
      "constant": true
    },
    {
      "inputs": [],
      "name": "paused",
      "outputs": [
        {
          "internalType": "bool",
          "name": "",
          "type": "bool"
        }
      ],
      "stateMutability": "view",
      "type": "function",
      "constant": true
    },
    {
      "inputs": [],
      "name": "renounceOwnership",
      "outputs": [],
      "stateMutability": "nonpayable",
      "type": "function"
    },
    {
      "inputs": [
        {
          "internalType": "address",
          "name": "operator",
          "type": "address"
        },
        {
          "internalType": "bool",
          "name": "approved",
          "type": "bool"
        }
      ],
      "name": "setApprovalForAll",
      "outputs": [],
      "stateMutability": "nonpayable",
      "type": "function"
    },
    {
      "inputs": [
        {
          "internalType": "bytes4",
          "name": "interfaceId",
          "type": "bytes4"
        }
      ],
      "name": "supportsInterface",
      "outputs": [
        {
          "internalType": "bool",
          "name": "",
          "type": "bool"
        }
      ],
      "stateMutability": "view",
      "type": "function",
      "constant": true
    },
    {
      "inputs": [],
      "name": "symbol",
      "outputs": [
        {
          "internalType": "string",
          "name": "",
          "type": "string"
        }
      ],
      "stateMutability": "view",
      "type": "function",
      "constant": true
    },
    {
      "inputs": [
        {
          "internalType": "uint256",
          "name": "index",
          "type": "uint256"
        }
      ],
      "name": "tokenByIndex",
      "outputs": [
        {
          "internalType": "uint256",
          "name": "",
          "type": "uint256"
        }
      ],
      "stateMutability": "view",
      "type": "function",
      "constant": true
    },
    {
      "inputs": [
        {
          "internalType": "address",
          "name": "owner",
          "type": "address"
        },
        {
          "internalType": "uint256",
          "name": "index",
          "type": "uint256"
        }
      ],
      "name": "tokenOfOwnerByIndex",
      "outputs": [
        {
          "internalType": "uint256",
          "name": "",
          "type": "uint256"
        }
      ],
      "stateMutability": "view",
      "type": "function",
      "constant": true
    },
    {
      "inputs": [
        {
          "internalType": "uint256",
          "name": "tokenId",
          "type": "uint256"
        }
      ],
      "name": "tokenURI",
      "outputs": [
        {
          "internalType": "string",
          "name": "",
          "type": "string"
        }
      ],
      "stateMutability": "view",
      "type": "function",
      "constant": true
    },
    {
      "inputs": [],
      "name": "totalSupply",
      "outputs": [
        {
          "internalType": "uint256",
          "name": "",
          "type": "uint256"
        }
      ],
      "stateMutability": "view",
      "type": "function",
      "constant": true
    },
    {
      "inputs": [
        {
          "internalType": "address",
          "name": "newOwner",
          "type": "address"
        }
      ],
      "name": "transferOwnership",
      "outputs": [],
      "stateMutability": "nonpayable",
      "type": "function"
    },
    {
      "inputs": [
        {
          "internalType": "address",
          "name": "_receivedMarketContractAddress",
          "type": "address"
        },
        {
          "internalType": "bool",
          "name": "setConnectMarket",
          "type": "bool"
        }
      ],
      "name": "connectMarket",
      "outputs": [],
      "stateMutability": "nonpayable",
      "type": "function"
    },
    {
      "inputs": [],
      "name": "checkMarketConnected",
      "outputs": [
        {
          "internalType": "address",
          "name": "marketAddressSaved",
          "type": "address"
        },
        {
          "internalType": "bool",
          "name": "isMarketConnected",
          "type": "bool"
        }
      ],
      "stateMutability": "view",
      "type": "function",
      "constant": true
    },
    {
      "inputs": [],
      "name": "pause",
      "outputs": [],
      "stateMutability": "nonpayable",
      "type": "function"
    },
    {
      "inputs": [],
      "name": "unpause",
      "outputs": [],
      "stateMutability": "nonpayable",
      "type": "function"
    },
    {
      "inputs": [],
      "name": "getMonkeyContractAddress",
      "outputs": [
        {
          "internalType": "address",
          "name": "",
          "type": "address"
        }
      ],
      "stateMutability": "view",
      "type": "function",
      "constant": true
    },
    {
      "inputs": [
        {
          "internalType": "uint256",
          "name": "tokenId",
          "type": "uint256"
        }
      ],
      "name": "getMonkeyDetails",
      "outputs": [
        {
          "internalType": "uint256",
          "name": "genes",
          "type": "uint256"
        },
        {
          "internalType": "uint256",
          "name": "birthtime",
          "type": "uint256"
        },
        {
          "internalType": "uint256",
          "name": "parent1Id",
          "type": "uint256"
        },
        {
          "internalType": "uint256",
          "name": "parent2Id",
          "type": "uint256"
        },
        {
          "internalType": "uint256",
          "name": "generation",
          "type": "uint256"
        },
        {
          "internalType": "address",
          "name": "owner",
          "type": "address"
        },
        {
          "internalType": "address",
          "name": "approvedAddress",
          "type": "address"
        }
      ],
      "stateMutability": "view",
      "type": "function",
      "constant": true
    },
    {
      "inputs": [
        {
          "internalType": "address",
          "name": "owner",
          "type": "address"
        }
      ],
      "name": "findMonkeyIdsOfAddress",
      "outputs": [
        {
          "internalType": "uint256[]",
          "name": "",
          "type": "uint256[]"
        }
      ],
      "stateMutability": "view",
      "type": "function",
      "constant": true
    },
    {
      "inputs": [
        {
          "internalType": "uint256",
          "name": "_genes",
          "type": "uint256"
        }
      ],
      "name": "createGen0Monkey",
      "outputs": [],
      "stateMutability": "nonpayable",
      "type": "function"
    },
    {
      "inputs": [
        {
          "internalType": "uint256",
          "name": "_genes",
          "type": "uint256"
        },
        {
          "internalType": "address",
          "name": "_owner",
          "type": "address"
        }
      ],
      "name": "createDemoMonkey",
      "outputs": [
        {
          "internalType": "uint256",
          "name": "",
          "type": "uint256"
        }
      ],
      "stateMutability": "nonpayable",
      "type": "function"
    },
    {
      "inputs": [
        {
          "internalType": "address",
          "name": "_from",
          "type": "address"
        },
        {
          "internalType": "address",
          "name": "_to",
          "type": "address"
        },
        {
          "internalType": "uint256",
          "name": "_tokenId",
          "type": "uint256"
        }
      ],
      "name": "transferNFT",
      "outputs": [],
      "stateMutability": "nonpayable",
      "type": "function"
    },
    {
      "inputs": [
        {
          "internalType": "uint256",
          "name": "_parent1Id",
          "type": "uint256"
        },
        {
          "internalType": "uint256",
          "name": "_parent2Id",
          "type": "uint256"
        }
      ],
      "name": "breed",
      "outputs": [
        {
          "internalType": "uint256",
          "name": "",
          "type": "uint256"
        }
      ],
      "stateMutability": "nonpayable",
      "type": "function"
    },
    {
      "inputs": [
        {
          "internalType": "address",
          "name": "from",
          "type": "address"
        },
        {
          "internalType": "address",
          "name": "to",
          "type": "address"
        },
        {
          "internalType": "uint256",
          "name": "tokenId",
          "type": "uint256"
        }
      ],
      "name": "transferFrom",
      "outputs": [],
      "stateMutability": "nonpayable",
      "type": "function"
    },
    {
      "inputs": [
        {
          "internalType": "address",
          "name": "from",
          "type": "address"
        },
        {
          "internalType": "address",
          "name": "to",
          "type": "address"
        },
        {
          "internalType": "uint256",
          "name": "tokenId",
          "type": "uint256"
        }
      ],
      "name": "safeTransferFrom",
      "outputs": [],
      "stateMutability": "nonpayable",
      "type": "function"
    },
    {
      "inputs": [
        {
          "internalType": "address",
          "name": "from",
          "type": "address"
        },
        {
          "internalType": "address",
          "name": "to",
          "type": "address"
        },
        {
          "internalType": "uint256",
          "name": "tokenId",
          "type": "uint256"
        },
        {
          "internalType": "bytes",
          "name": "_data",
          "type": "bytes"
        }
      ],
      "name": "safeTransferFrom",
      "outputs": [],
      "stateMutability": "nonpayable",
      "type": "function"
    },
    {
      "inputs": [],
      "name": "withdrawETH",
      "outputs": [],
      "stateMutability": "nonpayable",
      "type": "function"
    },
    {
      "inputs": [
        {
          "internalType": "address",
          "name": "ERC20ContractAddress",
          "type": "address"
        }
      ],
      "name": "withdrawERC20",
      "outputs": [],
      "stateMutability": "payable",
      "type": "function",
      "payable": true
    },
    {
      "inputs": [],
      "name": "withdrawBananas",
      "outputs": [],
      "stateMutability": "nonpayable",
      "type": "function"
    }
  ],
  "bytecode": "0x6080604052600c600d556000600f60146101000a81548160ff02191690831515021790555060326011553480156200003657600080fd5b50604051620084a6380380620084a683398181016040528101906200005c91906200159d565b6040518060400160405280600e81526020017f43727970746f204d6f6e6b6579730000000000000000000000000000000000008152506040518060400160405280600681526020017f4d4f4e4b455900000000000000000000000000000000000000000000000000008152508160009080519060200190620000e0929190620014bf565b508060019080519060200190620000f9929190620014bf565b5050506200011c620001106200020860201b60201c565b6200021060201b60201c565b6001600b819055506000600c60006101000a81548160ff02191690831515021790555080601060006101000a81548173ffffffffffffffffffffffffffffffffffffffff021916908373ffffffffffffffffffffffffffffffffffffffff16021790555030600c60016101000a81548173ffffffffffffffffffffffffffffffffffffffff021916908373ffffffffffffffffffffffffffffffffffffffff160217905550620001ee60008060006604503ef1932497620001e26200020860201b60201c565b620002d660201b60201c565b506200020160006200043b60201b60201c565b5062001e39565b600033905090565b6000600a60009054906101000a900473ffffffffffffffffffffffffffffffffffffffff16905081600a60006101000a81548173ffffffffffffffffffffffffffffffffffffffff021916908373ffffffffffffffffffffffffffffffffffffffff1602179055508173ffffffffffffffffffffffffffffffffffffffff168173ffffffffffffffffffffffffffffffffffffffff167f8be0079c531659141344cd1fd0a4f28419497f9722a3daafe3b4186f6b6457e060405160405180910390a35050565b6000620002e86200056560201b60201c565b156200032b576040517f08c379a0000000000000000000000000000000000000000000000000000000008152600401620003229062001b2f565b60405180910390fd5b60006040518060a001604052808881526020018781526020018681526020018581526020014281525090506012819080600181540180825580915050600190039060005260206000209060050201600090919091909150600082015181600001556020820151816001015560408201518160020155606082015181600301556080820151816004015550506000620003d860016012805490506200057c60201b620031e31790919060201c565b9050620003ec84826200059460201b60201c565b7f0b1e9a74eeaae184646d7a35062426460c8c9364005c6d441cce036dd9c655d584828a8a896040516200042595949392919062001a4a565b60405180910390a1809250505095945050505050565b6002600b54141562000484576040517f08c379a00000000000000000000000000000000000000000000000000000000081526004016200047b9062001bd9565b60405180910390fd5b6002600b819055506200049c6200056560201b60201c565b15620004df576040517f08c379a0000000000000000000000000000000000000000000000000000000008152600401620004d69062001b2f565b60405180910390fd5b6001151562000504620004f76200020860201b60201c565b83620005ba60201b60201c565b15151462000549576040517f08c379a0000000000000000000000000000000000000000000000000000000008152600401620005409062001aa7565b60405180910390fd5b6200055a81620006c260201b60201c565b6001600b8190555050565b6000600c60009054906101000a900460ff16905090565b600081836200058c919062001c85565b905092915050565b620005b6828260405180602001604052806000815250620007f260201b60201c565b5050565b6000620005cd826200086060201b60201c565b6200060f576040517f08c379a0000000000000000000000000000000000000000000000000000000008152600401620006069062001b0d565b60405180910390fd5b60006200062783620008cc60201b620014d31760201c565b90508073ffffffffffffffffffffffffffffffffffffffff168473ffffffffffffffffffffffffffffffffffffffff1614806200069f57508373ffffffffffffffffffffffffffffffffffffffff1662000687846200098160201b60201c565b73ffffffffffffffffffffffffffffffffffffffff16145b80620006b95750620006b8818562000a1160201b60201c565b5b91505092915050565b6000620006da82620008cc60201b620014d31760201c565b9050620006f08160008462000aa560201b60201c565b6200070360008362000bec60201b60201c565b6001600360008373ffffffffffffffffffffffffffffffffffffffff1673ffffffffffffffffffffffffffffffffffffffff168152602001908152602001600020600082825462000755919062001c85565b925050819055506002600083815260200190815260200160002060006101000a81549073ffffffffffffffffffffffffffffffffffffffff021916905581600073ffffffffffffffffffffffffffffffffffffffff168273ffffffffffffffffffffffffffffffffffffffff167fddf252ad1be2c89b69c2b068fc378daa952ba7f163c4a11628f55a4df523b3ef60405160405180910390a45050565b62000804838362000cb260201b60201c565b62000819600084848462000e9860201b60201c565b6200085b576040517f08c379a0000000000000000000000000000000000000000000000000000000008152600401620008529062001ac9565b60405180910390fd5b505050565b60008073ffffffffffffffffffffffffffffffffffffffff166002600084815260200190815260200160002060009054906101000a900473ffffffffffffffffffffffffffffffffffffffff1673ffffffffffffffffffffffffffffffffffffffff1614159050919050565b6000806002600084815260200190815260200160002060009054906101000a900473ffffffffffffffffffffffffffffffffffffffff169050600073ffffffffffffffffffffffffffffffffffffffff168173ffffffffffffffffffffffffffffffffffffffff16141562000978576040517f08c379a00000000000000000000000000000000000000000000000000000000081526004016200096f9062001b73565b60405180910390fd5b80915050919050565b600062000994826200086060201b60201c565b620009d6576040517f08c379a0000000000000000000000000000000000000000000000000000000008152600401620009cd9062001bb7565b60405180910390fd5b6004600083815260200190815260200160002060009054906101000a900473ffffffffffffffffffffffffffffffffffffffff169050919050565b6000600560008473ffffffffffffffffffffffffffffffffffffffff1673ffffffffffffffffffffffffffffffffffffffff16815260200190815260200160002060008373ffffffffffffffffffffffffffffffffffffffff1673ffffffffffffffffffffffffffffffffffffffff16815260200190815260200160002060009054906101000a900460ff16905092915050565b62000abd8383836200105260201b620031f91760201c565b600073ffffffffffffffffffffffffffffffffffffffff168373ffffffffffffffffffffffffffffffffffffffff16141562000b0a5762000b04816200105760201b60201c565b62000b52565b8173ffffffffffffffffffffffffffffffffffffffff168373ffffffffffffffffffffffffffffffffffffffff161462000b515762000b508382620010a060201b60201c565b5b5b600073ffffffffffffffffffffffffffffffffffffffff168273ffffffffffffffffffffffffffffffffffffffff16141562000b9f5762000b99816200121d60201b60201c565b62000be7565b8273ffffffffffffffffffffffffffffffffffffffff168273ffffffffffffffffffffffffffffffffffffffff161462000be65762000be582826200136560201b60201c565b5b5b505050565b816004600083815260200190815260200160002060006101000a81548173ffffffffffffffffffffffffffffffffffffffff021916908373ffffffffffffffffffffffffffffffffffffffff160217905550808273ffffffffffffffffffffffffffffffffffffffff1662000c6c83620008cc60201b620014d31760201c565b73ffffffffffffffffffffffffffffffffffffffff167f8c5be1e5ebec7d5bd14f71427d1e84f3dd0314c0f7b2291e5b200ac8c7c3b92560405160405180910390a45050565b600073ffffffffffffffffffffffffffffffffffffffff168273ffffffffffffffffffffffffffffffffffffffff16141562000d25576040517f08c379a000000000000000000000000000000000000000000000000000000000815260040162000d1c9062001b95565b60405180910390fd5b62000d36816200086060201b60201c565b1562000d79576040517f08c379a000000000000000000000000000000000000000000000000000000000815260040162000d709062001aeb565b60405180910390fd5b62000d8d6000838362000aa560201b60201c565b6001600360008473ffffffffffffffffffffffffffffffffffffffff1673ffffffffffffffffffffffffffffffffffffffff168152602001908152602001600020600082825462000ddf919062001c28565b92505081905550816002600083815260200190815260200160002060006101000a81548173ffffffffffffffffffffffffffffffffffffffff021916908373ffffffffffffffffffffffffffffffffffffffff160217905550808273ffffffffffffffffffffffffffffffffffffffff16600073ffffffffffffffffffffffffffffffffffffffff167fddf252ad1be2c89b69c2b068fc378daa952ba7f163c4a11628f55a4df523b3ef60405160405180910390a45050565b600062000ec68473ffffffffffffffffffffffffffffffffffffffff16620013f160201b620031fe1760201c565b1562001045578373ffffffffffffffffffffffffffffffffffffffff1663150b7a0262000ef86200020860201b60201c565b8786866040518563ffffffff1660e01b815260040162000f1c9493929190620019f6565b602060405180830381600087803b15801562000f3757600080fd5b505af192505050801562000f6b57506040513d601f19601f8201168201806040525081019062000f689190620015c9565b60015b62000ff4573d806000811462000f9e576040519150601f19603f3d011682016040523d82523d6000602084013e62000fa3565b606091505b5060008151141562000fec576040517f08c379a000000000000000000000000000000000000000000000000000000000815260040162000fe39062001ac9565b60405180910390fd5b805181602001fd5b63150b7a0260e01b7bffffffffffffffffffffffffffffffffffffffffffffffffffffffff1916817bffffffffffffffffffffffffffffffffffffffffffffffffffffffff1916149150506200104a565b600190505b949350505050565b505050565b6008805490506009600083815260200190815260200160002081905550600881908060018154018082558091505060019003906000526020600020016000909190919091505550565b60006001620010ba846200140460201b6200187e1760201c565b620010c6919062001c85565b9050600060076000848152602001908152602001600020549050818114620011ac576000600660008673ffffffffffffffffffffffffffffffffffffffff1673ffffffffffffffffffffffffffffffffffffffff168152602001908152602001600020600084815260200190815260200160002054905080600660008773ffffffffffffffffffffffffffffffffffffffff1673ffffffffffffffffffffffffffffffffffffffff168152602001908152602001600020600084815260200190815260200160002081905550816007600083815260200190815260200160002081905550505b6007600084815260200190815260200160002060009055600660008573ffffffffffffffffffffffffffffffffffffffff1673ffffffffffffffffffffffffffffffffffffffff16815260200190815260200160002060008381526020019081526020016000206000905550505050565b6000600160088054905062001233919062001c85565b90506000600960008481526020019081526020016000205490506000600883815481106200128a577f4e487b7100000000000000000000000000000000000000000000000000000000600052603260045260246000fd5b906000526020600020015490508060088381548110620012d3577f4e487b7100000000000000000000000000000000000000000000000000000000600052603260045260246000fd5b90600052602060002001819055508160096000838152602001908152602001600020819055506009600085815260200190815260200160002060009055600880548062001349577f4e487b7100000000000000000000000000000000000000000000000000000000600052603160045260246000fd5b6001900381819060005260206000200160009055905550505050565b60006200137d836200140460201b6200187e1760201c565b905081600660008573ffffffffffffffffffffffffffffffffffffffff1673ffffffffffffffffffffffffffffffffffffffff168152602001908152602001600020600083815260200190815260200160002081905550806007600084815260200190815260200160002081905550505050565b600080823b905060008111915050919050565b60008073ffffffffffffffffffffffffffffffffffffffff168273ffffffffffffffffffffffffffffffffffffffff16141562001478576040517f08c379a00000000000000000000000000000000000000000000000000000000081526004016200146f9062001b51565b60405180910390fd5b600360008373ffffffffffffffffffffffffffffffffffffffff1673ffffffffffffffffffffffffffffffffffffffff168152602001908152602001600020549050919050565b828054620014cd9062001d60565b90600052602060002090601f016020900481019282620014f157600085556200153d565b82601f106200150c57805160ff19168380011785556200153d565b828001600101855582156200153d579182015b828111156200153c5782518255916020019190600101906200151f565b5b5090506200154c919062001550565b5090565b5b808211156200156b57600081600090555060010162001551565b5090565b600081519050620015808162001e05565b92915050565b600081519050620015978162001e1f565b92915050565b600060208284031215620015b057600080fd5b6000620015c0848285016200156f565b91505092915050565b600060208284031215620015dc57600080fd5b6000620015ec8482850162001586565b91505092915050565b620016008162001cc0565b82525050565b6000620016138262001bfb565b6200161f818562001c06565b93506200163181856020860162001d2a565b6200163c8162001df4565b840191505092915050565b600062001656604d8362001c17565b91507f4d6f6e6b6579436f6e74726163743a2043616e2774206275726e20746869732060008301527f4e465420776974686f7574206265696e67206f776e65722c20617070726f766560208301527f64206f72206f70657261746f72000000000000000000000000000000000000006040830152606082019050919050565b6000620016e460328362001c17565b91507f4552433732313a207472616e7366657220746f206e6f6e20455243373231526560008301527f63656976657220696d706c656d656e74657200000000000000000000000000006020830152604082019050919050565b60006200174c601c8362001c17565b91507f4552433732313a20746f6b656e20616c7265616479206d696e746564000000006000830152602082019050919050565b60006200178e602c8362001c17565b91507f4552433732313a206f70657261746f7220717565727920666f72206e6f6e657860008301527f697374656e7420746f6b656e00000000000000000000000000000000000000006020830152604082019050919050565b6000620017f660108362001c17565b91507f5061757361626c653a20706175736564000000000000000000000000000000006000830152602082019050919050565b600062001838602a8362001c17565b91507f4552433732313a2062616c616e636520717565727920666f7220746865207a6560008301527f726f2061646472657373000000000000000000000000000000000000000000006020830152604082019050919050565b6000620018a060298362001c17565b91507f4552433732313a206f776e657220717565727920666f72206e6f6e657869737460008301527f656e7420746f6b656e00000000000000000000000000000000000000000000006020830152604082019050919050565b60006200190860208362001c17565b91507f4552433732313a206d696e7420746f20746865207a65726f20616464726573736000830152602082019050919050565b60006200194a602c8362001c17565b91507f4552433732313a20617070726f76656420717565727920666f72206e6f6e657860008301527f697374656e7420746f6b656e00000000000000000000000000000000000000006020830152604082019050919050565b6000620019b2601f8362001c17565b91507f5265656e7472616e637947756172643a207265656e7472616e742063616c6c006000830152602082019050919050565b620019f08162001d20565b82525050565b600060808201905062001a0d6000830187620015f5565b62001a1c6020830186620015f5565b62001a2b6040830185620019e5565b818103606083015262001a3f818462001606565b905095945050505050565b600060a08201905062001a616000830188620015f5565b62001a706020830187620019e5565b62001a7f6040830186620019e5565b62001a8e6060830185620019e5565b62001a9d6080830184620019e5565b9695505050505050565b6000602082019050818103600083015262001ac28162001647565b9050919050565b6000602082019050818103600083015262001ae481620016d5565b9050919050565b6000602082019050818103600083015262001b06816200173d565b9050919050565b6000602082019050818103600083015262001b28816200177f565b9050919050565b6000602082019050818103600083015262001b4a81620017e7565b9050919050565b6000602082019050818103600083015262001b6c8162001829565b9050919050565b6000602082019050818103600083015262001b8e8162001891565b9050919050565b6000602082019050818103600083015262001bb081620018f9565b9050919050565b6000602082019050818103600083015262001bd2816200193b565b9050919050565b6000602082019050818103600083015262001bf481620019a3565b9050919050565b600081519050919050565b600082825260208201905092915050565b600082825260208201905092915050565b600062001c358262001d20565b915062001c428362001d20565b9250827fffffffffffffffffffffffffffffffffffffffffffffffffffffffffffffffff0382111562001c7a5762001c7962001d96565b5b828201905092915050565b600062001c928262001d20565b915062001c9f8362001d20565b92508282101562001cb55762001cb462001d96565b5b828203905092915050565b600062001ccd8262001d00565b9050919050565b60007fffffffff0000000000000000000000000000000000000000000000000000000082169050919050565b600073ffffffffffffffffffffffffffffffffffffffff82169050919050565b6000819050919050565b60005b8381101562001d4a57808201518184015260208101905062001d2d565b8381111562001d5a576000848401525b50505050565b6000600282049050600182168062001d7957607f821691505b6020821081141562001d905762001d8f62001dc5565b5b50919050565b7f4e487b7100000000000000000000000000000000000000000000000000000000600052601160045260246000fd5b7f4e487b7100000000000000000000000000000000000000000000000000000000600052602260045260246000fd5b6000601f19601f8301169050919050565b62001e108162001cc0565b811462001e1c57600080fd5b50565b62001e2a8162001cd4565b811462001e3657600080fd5b50565b61665d8062001e496000396000f3fe6080604052600436106102255760003560e01c8063715018a611610123578063c87b56dd116100ab578063e985e9c51161006f578063e985e9c514610826578063ef742fc114610863578063f2fde38b1461088c578063f4f3b200146108b5578063f91ba674146108d157610225565b8063c87b56dd1461072d578063d9ecad7b1461076a578063daa97fae146107a7578063db002794146107d2578063e086e5ec1461080f57610225565b80638ca576c8116100f25780638ca576c81461065a5780638da5cb5b1461068557806395d89b41146106b0578063a22cb465146106db578063b88d4fde1461070457610225565b8063715018a6146105ec5780637ba68718146106035780638456cb591461061a5780638aac2f331461063157610225565b80632558e25f116101b1578063552316551161017557806355231655146104f25780635c975abb1461051e5780636352211e1461054957806369e9cae11461058657806370a08231146105af57610225565b80632558e25f146103f55780632f745c59146104385780633f4ba83a1461047557806342842e0e1461048c5780634f6ccce7146104b557610225565b8063095ea7b3116101f8578063095ea7b3146102fa57806318160ddd146103235780631b0a1aed1461034e5780631b4172781461038b57806323b872dd146103cc57610225565b806301ffc9a71461022a57806306fdde0314610267578063081812fc146102925780630917cffe146102cf575b600080fd5b34801561023657600080fd5b50610251600480360381019061024c9190614d0b565b6108fc565b60405161025e9190615c38565b60405180910390f35b34801561027357600080fd5b5061027c610976565b6040516102899190615c6e565b60405180910390f35b34801561029e57600080fd5b506102b960048036038101906102b49190614d5d565b610a08565b6040516102c69190615ad3565b60405180910390f35b3480156102db57600080fd5b506102e4610a8d565b6040516102f19190616030565b60405180910390f35b34801561030657600080fd5b50610321600480360381019061031c9190614ca6565b610a99565b005b34801561032f57600080fd5b50610338610bb1565b6040516103459190616030565b60405180910390f35b34801561035a57600080fd5b5061037560048036038101906103709190614b3b565b610bbe565b6040516103829190615c16565b60405180910390f35b34801561039757600080fd5b506103b260048036038101906103ad9190614d5d565b610cbe565b6040516103c395949392919061604b565b60405180910390f35b3480156103d857600080fd5b506103f360048036038101906103ee9190614ba0565b610d04565b005b34801561040157600080fd5b5061041c60048036038101906104179190614d5d565b610ec1565b60405161042f979695949392919061609e565b60405180910390f35b34801561044457600080fd5b5061045f600480360381019061045a9190614ca6565b611073565b60405161046c9190616030565b60405180910390f35b34801561048157600080fd5b5061048a611118565b005b34801561049857600080fd5b506104b360048036038101906104ae9190614ba0565b61119e565b005b3480156104c157600080fd5b506104dc60048036038101906104d79190614d5d565b61136b565b6040516104e99190616030565b60405180910390f35b3480156104fe57600080fd5b50610507611402565b604051610515929190615b71565b60405180910390f35b34801561052a57600080fd5b506105336114bc565b6040516105409190615c38565b60405180910390f35b34801561055557600080fd5b50610570600480360381019061056b9190614d5d565b6114d3565b60405161057d9190615ad3565b60405180910390f35b34801561059257600080fd5b506105ad60048036038101906105a89190614ba0565b611585565b005b3480156105bb57600080fd5b506105d660048036038101906105d19190614b3b565b61187e565b6040516105e39190616030565b60405180910390f35b3480156105f857600080fd5b50610601611936565b005b34801561060f57600080fd5b506106186119be565b005b34801561062657600080fd5b5061062f611ba3565b005b34801561063d57600080fd5b5061065860048036038101906106539190614c6a565b611c29565b005b34801561066657600080fd5b5061066f611d04565b60405161067c9190615c53565b60405180910390f35b34801561069157600080fd5b5061069a611d2a565b6040516106a79190615ad3565b60405180910390f35b3480156106bc57600080fd5b506106c5611d54565b6040516106d29190615c6e565b60405180910390f35b3480156106e757600080fd5b5061070260048036038101906106fd9190614c6a565b611de6565b005b34801561071057600080fd5b5061072b60048036038101906107269190614bef565b611f67565b005b34801561073957600080fd5b50610754600480360381019061074f9190614d5d565b612126565b6040516107619190615c6e565b60405180910390f35b34801561077657600080fd5b50610791600480360381019061078c9190614deb565b6121cd565b60405161079e9190616030565b60405180910390f35b3480156107b357600080fd5b506107bc612921565b6040516107c99190615ad3565b60405180910390f35b3480156107de57600080fd5b506107f960048036038101906107f49190614daf565b61294b565b6040516108069190616030565b60405180910390f35b34801561081b57600080fd5b50610824612cb1565b005b34801561083257600080fd5b5061084d60048036038101906108489190614b64565b612dbc565b60405161085a9190615c38565b60405180910390f35b34801561086f57600080fd5b5061088a60048036038101906108859190614d5d565b612e50565b005b34801561089857600080fd5b506108b360048036038101906108ae9190614b3b565b612f3d565b005b6108cf60048036038101906108ca9190614b3b565b613035565b005b3480156108dd57600080fd5b506108e66131dd565b6040516108f39190616030565b60405180910390f35b60007f780e9d63000000000000000000000000000000000000000000000000000000007bffffffffffffffffffffffffffffffffffffffffffffffffffffffff1916827bffffffffffffffffffffffffffffffffffffffffffffffffffffffff1916148061096f575061096e82613211565b5b9050919050565b60606000805461098590616448565b80601f01602080910402602001604051908101604052809291908181526020018280546109b190616448565b80156109fe5780601f106109d3576101008083540402835291602001916109fe565b820191906000526020600020905b8154815290600101906020018083116109e157829003601f168201915b5050505050905090565b6000610a13826132f3565b610a52576040517f08c379a0000000000000000000000000000000000000000000000000000000008152600401610a4990615ed0565b60405180910390fd5b6004600083815260200190815260200160002060009054906101000a900473ffffffffffffffffffffffffffffffffffffffff169050919050565b600e8060000154905081565b6000610aa4826114d3565b90508073ffffffffffffffffffffffffffffffffffffffff168373ffffffffffffffffffffffffffffffffffffffff161415610b15576040517f08c379a0000000000000000000000000000000000000000000000000000000008152600401610b0c90615f50565b60405180910390fd5b8073ffffffffffffffffffffffffffffffffffffffff16610b3461335f565b73ffffffffffffffffffffffffffffffffffffffff161480610b635750610b6281610b5d61335f565b612dbc565b5b610ba2576040517f08c379a0000000000000000000000000000000000000000000000000000000008152600401610b9990615e10565b60405180910390fd5b610bac8383613367565b505050565b6000600880549050905090565b60606000610bcb8361187e565b905060008167ffffffffffffffff811115610c0f577f4e487b7100000000000000000000000000000000000000000000000000000000600052604160045260246000fd5b604051908082528060200260200182016040528015610c3d5781602001602082028036833780820191505090505b50905060005b82811015610cb3576000610c578683611073565b905080838381518110610c93577f4e487b7100000000000000000000000000000000000000000000000000000000600052603260045260246000fd5b602002602001018181525050508080610cab9061647a565b915050610c43565b508092505050919050565b60128181548110610cce57600080fd5b90600052602060002090600502016000915090508060000154908060010154908060020154908060030154908060040154905085565b610d0c6114bc565b15610d4c576040517f08c379a0000000000000000000000000000000000000000000000000000000008152600401610d4390615df0565b60405180910390fd5b60011515600f60149054906101000a900460ff1615151415610e61576000600f60009054906101000a900473ffffffffffffffffffffffffffffffffffffffff1673ffffffffffffffffffffffffffffffffffffffff1663951fbdf0836040518263ffffffff1660e01b8152600401610dc59190616030565b60206040518083038186803b158015610ddd57600080fd5b505afa158015610df1573d6000803e3d6000fd5b505050506040513d601f19601f82011682018060405250810190610e159190614ce2565b9050600115158115151415610e5f576040517f08c379a0000000000000000000000000000000000000000000000000000000008152600401610e5690615d50565b60405180910390fd5b505b610e72610e6c61335f565b82613420565b610eb1576040517f08c379a0000000000000000000000000000000000000000000000000000000008152600401610ea890615f90565b60405180910390fd5b610ebc8383836134fe565b505050565b600080600080600080600060128881548110610f06577f4e487b7100000000000000000000000000000000000000000000000000000000600052603260045260246000fd5b90600052602060002090600502016003015460128981548110610f52577f4e487b7100000000000000000000000000000000000000000000000000000000600052603260045260246000fd5b90600052602060002090600502016004015460128a81548110610f9e577f4e487b7100000000000000000000000000000000000000000000000000000000600052603260045260246000fd5b90600052602060002090600502016000015460128b81548110610fea577f4e487b7100000000000000000000000000000000000000000000000000000000600052603260045260246000fd5b90600052602060002090600502016001015460128c81548110611036577f4e487b7100000000000000000000000000000000000000000000000000000000600052603260045260246000fd5b9060005260206000209060050201600201546110518d6114d3565b61105a8e610a08565b9650965096509650965096509650919395979092949650565b600061107e8361187e565b82106110bf576040517f08c379a00000000000000000000000000000000000000000000000000000000081526004016110b690615cd0565b60405180910390fd5b600660008473ffffffffffffffffffffffffffffffffffffffff1673ffffffffffffffffffffffffffffffffffffffff168152602001908152602001600020600083815260200190815260200160002054905092915050565b61112061335f565b73ffffffffffffffffffffffffffffffffffffffff1661113e611d2a565b73ffffffffffffffffffffffffffffffffffffffff1614611194576040517f08c379a000000000000000000000000000000000000000000000000000000000815260040161118b90615ef0565b60405180910390fd5b61119c61375a565b565b6111a66114bc565b156111e6576040517f08c379a00000000000000000000000000000000000000000000000000000000081526004016111dd90615df0565b60405180910390fd5b60011515600f60149054906101000a900460ff16151514156112fb576000600f60009054906101000a900473ffffffffffffffffffffffffffffffffffffffff1673ffffffffffffffffffffffffffffffffffffffff1663951fbdf0836040518263ffffffff1660e01b815260040161125f9190616030565b60206040518083038186803b15801561127757600080fd5b505afa15801561128b573d6000803e3d6000fd5b505050506040513d601f19601f820116820180604052508101906112af9190614ce2565b90506001151581151514156112f9576040517f08c379a00000000000000000000000000000000000000000000000000000000081526004016112f090615d50565b60405180910390fd5b505b61130c61130661335f565b82613420565b61134b576040517f08c379a000000000000000000000000000000000000000000000000000000000815260040161134290615f90565b60405180910390fd5b61136683838360405180602001604052806000815250611f67565b505050565b6000611375610bb1565b82106113b6576040517f08c379a00000000000000000000000000000000000000000000000000000000081526004016113ad90615fb0565b60405180910390fd5b600882815481106113f0577f4e487b7100000000000000000000000000000000000000000000000000000000600052603260045260246000fd5b90600052602060002001549050919050565b60008061140d61335f565b73ffffffffffffffffffffffffffffffffffffffff1661142b611d2a565b73ffffffffffffffffffffffffffffffffffffffff1614611481576040517f08c379a000000000000000000000000000000000000000000000000000000000815260040161147890615ef0565b60405180910390fd5b600f60009054906101000a900473ffffffffffffffffffffffffffffffffffffffff16600f60149054906101000a900460ff16915091509091565b6000600c60009054906101000a900460ff16905090565b6000806002600084815260200190815260200160002060009054906101000a900473ffffffffffffffffffffffffffffffffffffffff169050600073ffffffffffffffffffffffffffffffffffffffff168173ffffffffffffffffffffffffffffffffffffffff16141561157c576040517f08c379a000000000000000000000000000000000000000000000000000000000815260040161157390615e70565b60405180910390fd5b80915050919050565b6002600b5414156115cb576040517f08c379a00000000000000000000000000000000000000000000000000000000081526004016115c290615ff0565b60405180910390fd5b6002600b819055506115db6114bc565b1561161b576040517f08c379a000000000000000000000000000000000000000000000000000000000815260040161161290615df0565b60405180910390fd5b60011515600f60149054906101000a900460ff1615151415611730576000600f60009054906101000a900473ffffffffffffffffffffffffffffffffffffffff1673ffffffffffffffffffffffffffffffffffffffff1663951fbdf0836040518263ffffffff1660e01b81526004016116949190616030565b60206040518083038186803b1580156116ac57600080fd5b505afa1580156116c0573d6000803e3d6000fd5b505050506040513d601f19601f820116820180604052508101906116e49190614ce2565b905060011515811515141561172e576040517f08c379a000000000000000000000000000000000000000000000000000000000815260040161172590615d50565b60405180910390fd5b505b600073ffffffffffffffffffffffffffffffffffffffff168273ffffffffffffffffffffffffffffffffffffffff1614156117a0576040517f08c379a000000000000000000000000000000000000000000000000000000000815260040161179790615cb0565b60405180910390fd5b3073ffffffffffffffffffffffffffffffffffffffff168273ffffffffffffffffffffffffffffffffffffffff16141561180f576040517f08c379a000000000000000000000000000000000000000000000000000000000815260040161180690615f70565b60405180910390fd5b6001151561182461181e61335f565b83613420565b151514611866576040517f08c379a000000000000000000000000000000000000000000000000000000000815260040161185d90615fd0565b60405180910390fd5b61187183838361119e565b6001600b81905550505050565b60008073ffffffffffffffffffffffffffffffffffffffff168273ffffffffffffffffffffffffffffffffffffffff1614156118ef576040517f08c379a00000000000000000000000000000000000000000000000000000000081526004016118e690615e50565b60405180910390fd5b600360008373ffffffffffffffffffffffffffffffffffffffff1673ffffffffffffffffffffffffffffffffffffffff168152602001908152602001600020549050919050565b61193e61335f565b73ffffffffffffffffffffffffffffffffffffffff1661195c611d2a565b73ffffffffffffffffffffffffffffffffffffffff16146119b2576040517f08c379a00000000000000000000000000000000000000000000000000000000081526004016119a990615ef0565b60405180910390fd5b6119bc60006137fc565b565b6119c661335f565b73ffffffffffffffffffffffffffffffffffffffff166119e4611d2a565b73ffffffffffffffffffffffffffffffffffffffff1614611a3a576040517f08c379a0000000000000000000000000000000000000000000000000000000008152600401611a3190615ef0565b60405180910390fd5b6000601060009054906101000a900473ffffffffffffffffffffffffffffffffffffffff1673ffffffffffffffffffffffffffffffffffffffff166370a08231306040518263ffffffff1660e01b8152600401611a979190615ad3565b60206040518083038186803b158015611aaf57600080fd5b505afa158015611ac3573d6000803e3d6000fd5b505050506040513d601f19601f82011682018060405250810190611ae79190614d86565b9050601060009054906101000a900473ffffffffffffffffffffffffffffffffffffffff1673ffffffffffffffffffffffffffffffffffffffff1663a9059cbb611b2f61335f565b836040518363ffffffff1660e01b8152600401611b4d929190615b9a565b602060405180830381600087803b158015611b6757600080fd5b505af1158015611b7b573d6000803e3d6000fd5b505050506040513d601f19601f82011682018060405250810190611b9f9190614ce2565b5050565b611bab61335f565b73ffffffffffffffffffffffffffffffffffffffff16611bc9611d2a565b73ffffffffffffffffffffffffffffffffffffffff1614611c1f576040517f08c379a0000000000000000000000000000000000000000000000000000000008152600401611c1690615ef0565b60405180910390fd5b611c276138c2565b565b611c3161335f565b73ffffffffffffffffffffffffffffffffffffffff16611c4f611d2a565b73ffffffffffffffffffffffffffffffffffffffff1614611ca5576040517f08c379a0000000000000000000000000000000000000000000000000000000008152600401611c9c90615ef0565b60405180910390fd5b81600f60006101000a81548173ffffffffffffffffffffffffffffffffffffffff021916908373ffffffffffffffffffffffffffffffffffffffff16021790555080600f60146101000a81548160ff0219169083151502179055505050565b601060009054906101000a900473ffffffffffffffffffffffffffffffffffffffff1681565b6000600a60009054906101000a900473ffffffffffffffffffffffffffffffffffffffff16905090565b606060018054611d6390616448565b80601f0160208091040260200160405190810160405280929190818152602001828054611d8f90616448565b8015611ddc5780601f10611db157610100808354040283529160200191611ddc565b820191906000526020600020905b815481529060010190602001808311611dbf57829003601f168201915b5050505050905090565b611dee61335f565b73ffffffffffffffffffffffffffffffffffffffff168273ffffffffffffffffffffffffffffffffffffffff161415611e5c576040517f08c379a0000000000000000000000000000000000000000000000000000000008152600401611e5390615d90565b60405180910390fd5b8060056000611e6961335f565b73ffffffffffffffffffffffffffffffffffffffff1673ffffffffffffffffffffffffffffffffffffffff16815260200190815260200160002060008473ffffffffffffffffffffffffffffffffffffffff1673ffffffffffffffffffffffffffffffffffffffff16815260200190815260200160002060006101000a81548160ff0219169083151502179055508173ffffffffffffffffffffffffffffffffffffffff16611f1661335f565b73ffffffffffffffffffffffffffffffffffffffff167f17307eab39ab6107e8899845ad3d59bd9653f200f220920489ca2b5937696c3183604051611f5b9190615c38565b60405180910390a35050565b611f6f6114bc565b15611faf576040517f08c379a0000000000000000000000000000000000000000000000000000000008152600401611fa690615df0565b60405180910390fd5b60011515600f60149054906101000a900460ff16151514156120c4576000600f60009054906101000a900473ffffffffffffffffffffffffffffffffffffffff1673ffffffffffffffffffffffffffffffffffffffff1663951fbdf0846040518263ffffffff1660e01b81526004016120289190616030565b60206040518083038186803b15801561204057600080fd5b505afa158015612054573d6000803e3d6000fd5b505050506040513d601f19601f820116820180604052508101906120789190614ce2565b90506001151581151514156120c2576040517f08c379a00000000000000000000000000000000000000000000000000000000081526004016120b990615d50565b60405180910390fd5b505b6120d56120cf61335f565b83613420565b612114576040517f08c379a000000000000000000000000000000000000000000000000000000000815260040161210b90615f90565b60405180910390fd5b61212084848484613965565b50505050565b6060612131826132f3565b612170576040517f08c379a000000000000000000000000000000000000000000000000000000000815260040161216790615f30565b60405180910390fd5b600061217a6139c1565b9050600081511161219a57604051806020016040528060008152506121c5565b806121a4846139d8565b6040516020016121b5929190615a72565b6040516020818303038152906040525b915050919050565b60006002600b541415612215576040517f08c379a000000000000000000000000000000000000000000000000000000000815260040161220c90615ff0565b60405180910390fd5b6002600b819055506122256114bc565b15612265576040517f08c379a000000000000000000000000000000000000000000000000000000000815260040161225c90615df0565b60405180910390fd5b601154601060009054906101000a900473ffffffffffffffffffffffffffffffffffffffff1673ffffffffffffffffffffffffffffffffffffffff166370a082316122ae61335f565b6040518263ffffffff1660e01b81526004016122ca9190615ad3565b60206040518083038186803b1580156122e257600080fd5b505afa1580156122f6573d6000803e3d6000fd5b505050506040513d601f19601f8201168201806040525081019061231a9190614d86565b101561235b576040517f08c379a000000000000000000000000000000000000000000000000000000000815260040161235290615db0565b60405180910390fd5b6000601060009054906101000a900473ffffffffffffffffffffffffffffffffffffffff1673ffffffffffffffffffffffffffffffffffffffff166370a08231306040518263ffffffff1660e01b81526004016123b89190615ad3565b60206040518083038186803b1580156123d057600080fd5b505afa1580156123e4573d6000803e3d6000fd5b505050506040513d601f19601f820116820180604052508101906124089190614d86565b9050601060009054906101000a900473ffffffffffffffffffffffffffffffffffffffff1673ffffffffffffffffffffffffffffffffffffffff166323b872dd61245061335f565b306011546040518463ffffffff1660e01b815260040161247293929190615aee565b602060405180830381600087803b15801561248c57600080fd5b505af11580156124a0573d6000803e3d6000fd5b505050506040513d601f19601f820116820180604052508101906124c49190614ce2565b50601154816124d39190616259565b601060009054906101000a900473ffffffffffffffffffffffffffffffffffffffff1673ffffffffffffffffffffffffffffffffffffffff166370a08231306040518263ffffffff1660e01b815260040161252e9190615ad3565b60206040518083038186803b15801561254657600080fd5b505afa15801561255a573d6000803e3d6000fd5b505050506040513d601f19601f8201168201806040525081019061257e9190614d86565b146125b2577f4e487b7100000000000000000000000000000000000000000000000000000000600052600160045260246000fd5b6125ba61335f565b73ffffffffffffffffffffffffffffffffffffffff166125d9856114d3565b73ffffffffffffffffffffffffffffffffffffffff1614801561263657506125ff61335f565b73ffffffffffffffffffffffffffffffffffffffff1661261e846114d3565b73ffffffffffffffffffffffffffffffffffffffff16145b612675576040517f08c379a000000000000000000000000000000000000000000000000000000000815260040161266c90615eb0565b60405180910390fd5b6000601285815481106126b1577f4e487b7100000000000000000000000000000000000000000000000000000000600052603260045260246000fd5b9060005260206000209060050201600301549050600060128581548110612701577f4e487b7100000000000000000000000000000000000000000000000000000000600052603260045260246000fd5b906000526020600020906005020160030154905060006127218383613b85565b9050600061272f8888613e2d565b905060006127478989848661274261335f565b613fc8565b90507f8e3541d6cb6a06d3a1785ca3c18fa6ca7b39a6278433734c442e2ebfe623e2ea81601283815481106127a5577f4e487b7100000000000000000000000000000000000000000000000000000000600052603260045260246000fd5b906000526020600020906005020160030154601284815481106127f1577f4e487b7100000000000000000000000000000000000000000000000000000000600052603260045260246000fd5b9060005260206000209060050201600401546012858154811061283d577f4e487b7100000000000000000000000000000000000000000000000000000000600052603260045260246000fd5b90600052602060002090600502016000015460128681548110612889577f4e487b7100000000000000000000000000000000000000000000000000000000600052603260045260246000fd5b906000526020600020906005020160010154601287815481106128d5577f4e487b7100000000000000000000000000000000000000000000000000000000600052603260045260246000fd5b9060005260206000209060050201600201546128ef61335f565b604051612902979695949392919061610d565b60405180910390a18096505050505050506001600b8190555092915050565b6000600c60019054906101000a900473ffffffffffffffffffffffffffffffffffffffff16905090565b6000601154601060009054906101000a900473ffffffffffffffffffffffffffffffffffffffff1673ffffffffffffffffffffffffffffffffffffffff166370a08231846040518263ffffffff1660e01b81526004016129ab9190615ad3565b60206040518083038186803b1580156129c357600080fd5b505afa1580156129d7573d6000803e3d6000fd5b505050506040513d601f19601f820116820180604052508101906129fb9190614d86565b1015612a3c576040517f08c379a0000000000000000000000000000000000000000000000000000000008152600401612a3390615db0565b60405180910390fd5b6000601060009054906101000a900473ffffffffffffffffffffffffffffffffffffffff1673ffffffffffffffffffffffffffffffffffffffff166370a08231306040518263ffffffff1660e01b8152600401612a999190615ad3565b60206040518083038186803b158015612ab157600080fd5b505afa158015612ac5573d6000803e3d6000fd5b505050506040513d601f19601f82011682018060405250810190612ae99190614d86565b9050601060009054906101000a900473ffffffffffffffffffffffffffffffffffffffff1673ffffffffffffffffffffffffffffffffffffffff166323b872dd612b3161335f565b306011546040518463ffffffff1660e01b8152600401612b5393929190615aee565b602060405180830381600087803b158015612b6d57600080fd5b505af1158015612b81573d6000803e3d6000fd5b505050506040513d601f19601f82011682018060405250810190612ba59190614ce2565b5060115481612bb49190616259565b601060009054906101000a900473ffffffffffffffffffffffffffffffffffffffff1673ffffffffffffffffffffffffffffffffffffffff166370a08231306040518263ffffffff1660e01b8152600401612c0f9190615ad3565b60206040518083038186803b158015612c2757600080fd5b505afa158015612c3b573d6000803e3d6000fd5b505050506040513d601f19601f82011682018060405250810190612c5f9190614d86565b14612c93577f4e487b7100000000000000000000000000000000000000000000000000000000600052600160045260246000fd5b6000612ca460638060638888613fc8565b9050809250505092915050565b612cb961335f565b73ffffffffffffffffffffffffffffffffffffffff16612cd7611d2a565b73ffffffffffffffffffffffffffffffffffffffff1614612d2d576040517f08c379a0000000000000000000000000000000000000000000000000000000008152600401612d2490615ef0565b60405180910390fd5b6000612d3761335f565b90508073ffffffffffffffffffffffffffffffffffffffff166108fc600c60019054906101000a900473ffffffffffffffffffffffffffffffffffffffff1673ffffffffffffffffffffffffffffffffffffffff16319081150290604051600060405180830381858888f19350505050158015612db8573d6000803e3d6000fd5b5050565b6000600560008473ffffffffffffffffffffffffffffffffffffffff1673ffffffffffffffffffffffffffffffffffffffff16815260200190815260200160002060008373ffffffffffffffffffffffffffffffffffffffff1673ffffffffffffffffffffffffffffffffffffffff16815260200190815260200160002060009054906101000a900460ff16905092915050565b612e5861335f565b73ffffffffffffffffffffffffffffffffffffffff16612e76611d2a565b73ffffffffffffffffffffffffffffffffffffffff1614612ecc576040517f08c379a0000000000000000000000000000000000000000000000000000000008152600401612ec390615ef0565b60405180910390fd5b600d54612ed9600e614111565b10612f19576040517f08c379a0000000000000000000000000000000000000000000000000000000008152600401612f1090616010565b60405180910390fd5b612f23600e61411f565b612f39600080600084612f3461335f565b613fc8565b5050565b612f4561335f565b73ffffffffffffffffffffffffffffffffffffffff16612f63611d2a565b73ffffffffffffffffffffffffffffffffffffffff1614612fb9576040517f08c379a0000000000000000000000000000000000000000000000000000000008152600401612fb090615ef0565b60405180910390fd5b600073ffffffffffffffffffffffffffffffffffffffff168173ffffffffffffffffffffffffffffffffffffffff161415613029576040517f08c379a000000000000000000000000000000000000000000000000000000000815260040161302090615d10565b60405180910390fd5b613032816137fc565b50565b61303d61335f565b73ffffffffffffffffffffffffffffffffffffffff1661305b611d2a565b73ffffffffffffffffffffffffffffffffffffffff16146130b1576040517f08c379a00000000000000000000000000000000000000000000000000000000081526004016130a890615ef0565b60405180910390fd5b600081905060008173ffffffffffffffffffffffffffffffffffffffff166370a08231306040518263ffffffff1660e01b81526004016130f19190615ad3565b60206040518083038186803b15801561310957600080fd5b505afa15801561311d573d6000803e3d6000fd5b505050506040513d601f19601f820116820180604052508101906131419190614d86565b90508173ffffffffffffffffffffffffffffffffffffffff1663a9059cbb61316761335f565b836040518363ffffffff1660e01b8152600401613185929190615b9a565b602060405180830381600087803b15801561319f57600080fd5b505af11580156131b3573d6000803e3d6000fd5b505050506040513d601f19601f820116820180604052508101906131d79190614ce2565b50505050565b600d5481565b600081836131f1919061633a565b905092915050565b505050565b600080823b905060008111915050919050565b60007f80ac58cd000000000000000000000000000000000000000000000000000000007bffffffffffffffffffffffffffffffffffffffffffffffffffffffff1916827bffffffffffffffffffffffffffffffffffffffffffffffffffffffff191614806132dc57507f5b5e139f000000000000000000000000000000000000000000000000000000007bffffffffffffffffffffffffffffffffffffffffffffffffffffffff1916827bffffffffffffffffffffffffffffffffffffffffffffffffffffffff1916145b806132ec57506132eb82614135565b5b9050919050565b60008073ffffffffffffffffffffffffffffffffffffffff166002600084815260200190815260200160002060009054906101000a900473ffffffffffffffffffffffffffffffffffffffff1673ffffffffffffffffffffffffffffffffffffffff1614159050919050565b600033905090565b816004600083815260200190815260200160002060006101000a81548173ffffffffffffffffffffffffffffffffffffffff021916908373ffffffffffffffffffffffffffffffffffffffff160217905550808273ffffffffffffffffffffffffffffffffffffffff166133da836114d3565b73ffffffffffffffffffffffffffffffffffffffff167f8c5be1e5ebec7d5bd14f71427d1e84f3dd0314c0f7b2291e5b200ac8c7c3b92560405160405180910390a45050565b600061342b826132f3565b61346a576040517f08c379a000000000000000000000000000000000000000000000000000000000815260040161346190615dd0565b60405180910390fd5b6000613475836114d3565b90508073ffffffffffffffffffffffffffffffffffffffff168473ffffffffffffffffffffffffffffffffffffffff1614806134e457508373ffffffffffffffffffffffffffffffffffffffff166134cc84610a08565b73ffffffffffffffffffffffffffffffffffffffff16145b806134f557506134f48185612dbc565b5b91505092915050565b8273ffffffffffffffffffffffffffffffffffffffff1661351e826114d3565b73ffffffffffffffffffffffffffffffffffffffff1614613574576040517f08c379a000000000000000000000000000000000000000000000000000000000815260040161356b90615f10565b60405180910390fd5b600073ffffffffffffffffffffffffffffffffffffffff168273ffffffffffffffffffffffffffffffffffffffff1614156135e4576040517f08c379a00000000000000000000000000000000000000000000000000000000081526004016135db90615d70565b60405180910390fd5b6135ef83838361419f565b6135fa600082613367565b6001600360008573ffffffffffffffffffffffffffffffffffffffff1673ffffffffffffffffffffffffffffffffffffffff168152602001908152602001600020600082825461364a919061633a565b925050819055506001600360008473ffffffffffffffffffffffffffffffffffffffff1673ffffffffffffffffffffffffffffffffffffffff16815260200190815260200160002060008282546136a19190616259565b92505081905550816002600083815260200190815260200160002060006101000a81548173ffffffffffffffffffffffffffffffffffffffff021916908373ffffffffffffffffffffffffffffffffffffffff160217905550808273ffffffffffffffffffffffffffffffffffffffff168473ffffffffffffffffffffffffffffffffffffffff167fddf252ad1be2c89b69c2b068fc378daa952ba7f163c4a11628f55a4df523b3ef60405160405180910390a4505050565b6137626114bc565b6137a1576040517f08c379a000000000000000000000000000000000000000000000000000000000815260040161379890615c90565b60405180910390fd5b6000600c60006101000a81548160ff0219169083151502179055507f5db9ee0a495bf2e6ff9c91a7834c1ba4fdd244a5e8aa4e537bd38aeae4b073aa6137e561335f565b6040516137f29190615ad3565b60405180910390a1565b6000600a60009054906101000a900473ffffffffffffffffffffffffffffffffffffffff16905081600a60006101000a81548173ffffffffffffffffffffffffffffffffffffffff021916908373ffffffffffffffffffffffffffffffffffffffff1602179055508173ffffffffffffffffffffffffffffffffffffffff168173ffffffffffffffffffffffffffffffffffffffff167f8be0079c531659141344cd1fd0a4f28419497f9722a3daafe3b4186f6b6457e060405160405180910390a35050565b6138ca6114bc565b1561390a576040517f08c379a000000000000000000000000000000000000000000000000000000000815260040161390190615df0565b60405180910390fd5b6001600c60006101000a81548160ff0219169083151502179055507f62e78cea01bee320cd4e420270b5ea74000d11b0c9f74754ebdbfc544b05a25861394e61335f565b60405161395b9190615ad3565b60405180910390a1565b6139708484846134fe565b61397c848484846142b3565b6139bb576040517f08c379a00000000000000000000000000000000000000000000000000000000081526004016139b290615cf0565b60405180910390fd5b50505050565b606060405180602001604052806000815250905090565b60606000821415613a20576040518060400160405280600181526020017f30000000000000000000000000000000000000000000000000000000000000008152509050613b80565b600082905060005b60008214613a52578080613a3b9061647a565b915050600a82613a4b91906162af565b9150613a28565b60008167ffffffffffffffff811115613a94577f4e487b7100000000000000000000000000000000000000000000000000000000600052604160045260246000fd5b6040519080825280601f01601f191660200182016040528015613ac65781602001600182028036833780820191505090505b5090505b60008514613b7957600182613adf919061633a565b9150600a85613aee91906164cd565b6030613afa9190616259565b60f81b818381518110613b36577f4e487b7100000000000000000000000000000000000000000000000000000000600052603260045260246000fd5b60200101907effffffffffffffffffffffffffffffffffffffffffffffffffffffffffffff1916908160001a905350600a85613b7291906162af565b9450613aca565b8093505050505b919050565b6000613b8f614a1d565b6000613b9961444a565b90506000600790506000600190505b60408111613caf576000818460ff161614613c1457606487613bca91906164cd565b60ff16848360088110613c06577f4e487b7100000000000000000000000000000000000000000000000000000000600052603260045260246000fd5b602002018181525050613c67565b606486613c2191906164cd565b60ff16848360088110613c5d577f4e487b7100000000000000000000000000000000000000000000000000000000600052603260045260246000fd5b6020020181815250505b606487613c7491906162af565b9650606486613c8391906162af565b9550613c996001836131e390919063ffffffff16565b9150600281613ca891906162e0565b9050613ba8565b5060008260ff16613cbe610bb1565b6012600081548110613cf9577f4e487b7100000000000000000000000000000000000000000000000000000000600052603260045260246000fd5b906000526020600020906005020160030154604051602001613d1d93929190615a96565b6040516020818303038152906040528051906020012060001c9050600a605982613d4791906164cd565b613d519190616259565b90508084600060088110613d8e577f4e487b7100000000000000000000000000000000000000000000000000000000600052603260045260246000fd5b602002018181525050600080600090505b6008811015613e1e57858160088110613de1577f4e487b7100000000000000000000000000000000000000000000000000000000600052603260045260246000fd5b602002015182613df19190616259565b915060078114613e0b57606482613e0891906162e0565b91505b8080613e169061647a565b915050613d9f565b50809550505050505092915050565b60008060128481548110613e6a577f4e487b7100000000000000000000000000000000000000000000000000000000600052603260045260246000fd5b9060005260206000209060050201600201549050600060128481548110613eba577f4e487b7100000000000000000000000000000000000000000000000000000000600052603260045260246000fd5b90600052602060002090600502016002015490506103e882108015613ee057506103e881105b613f1f576040517f08c379a0000000000000000000000000000000000000000000000000000000008152600401613f1690615e30565b60405180910390fd5b6000818314613f955760006002600a8486613f3a9190616259565b613f4491906162e0565b613f4e91906162af565b90506000600a82613f5f91906164cd565b1115613f7457600581613f72919061633a565b505b6002600a82613f8391906162af565b613f8d9190616259565b915050613fbc565b600160028385613fa59190616259565b613faf91906162af565b613fb99190616259565b90505b80935050505092915050565b6000613fd26114bc565b15614012576040517f08c379a000000000000000000000000000000000000000000000000000000000815260040161400990615df0565b60405180910390fd5b60006040518060a0016040528088815260200187815260200186815260200185815260200142815250905060128190806001815401808255809150506001900390600052602060002090600502016000909190919091506000820151816000015560208201518160010155604082015181600201556060820151816003015560808201518160040155505060006140b860016012805490506131e390919063ffffffff16565b90506140c4848261445e565b7f0b1e9a74eeaae184646d7a35062426460c8c9364005c6d441cce036dd9c655d584828a8a896040516140fb959493929190615bc3565b60405180910390a1809250505095945050505050565b600081600001549050919050565b6001816000016000828254019250508190555050565b60007f01ffc9a7000000000000000000000000000000000000000000000000000000007bffffffffffffffffffffffffffffffffffffffffffffffffffffffff1916827bffffffffffffffffffffffffffffffffffffffffffffffffffffffff1916149050919050565b6141aa8383836131f9565b600073ffffffffffffffffffffffffffffffffffffffff168373ffffffffffffffffffffffffffffffffffffffff1614156141ed576141e88161447c565b61422c565b8173ffffffffffffffffffffffffffffffffffffffff168373ffffffffffffffffffffffffffffffffffffffff161461422b5761422a83826144c5565b5b5b600073ffffffffffffffffffffffffffffffffffffffff168273ffffffffffffffffffffffffffffffffffffffff16141561426f5761426a81614632565b6142ae565b8273ffffffffffffffffffffffffffffffffffffffff168273ffffffffffffffffffffffffffffffffffffffff16146142ad576142ac8282614775565b5b5b505050565b60006142d48473ffffffffffffffffffffffffffffffffffffffff166131fe565b1561443d578373ffffffffffffffffffffffffffffffffffffffff1663150b7a026142fd61335f565b8786866040518563ffffffff1660e01b815260040161431f9493929190615b25565b602060405180830381600087803b15801561433957600080fd5b505af192505050801561436a57506040513d601f19601f820116820180604052508101906143679190614d34565b60015b6143ed573d806000811461439a576040519150601f19603f3d011682016040523d82523d6000602084013e61439f565b606091505b506000815114156143e5576040517f08c379a00000000000000000000000000000000000000000000000000000000081526004016143dc90615cf0565b60405180910390fd5b805181602001fd5b63150b7a0260e01b7bffffffffffffffffffffffffffffffffffffffffffffffffffffffff1916817bffffffffffffffffffffffffffffffffffffffffffffffffffffffff191614915050614442565b600190505b949350505050565b600060ff4261445991906164cd565b905090565b6144788282604051806020016040528060008152506147f4565b5050565b6008805490506009600083815260200190815260200160002081905550600881908060018154018082558091505060019003906000526020600020016000909190919091505550565b600060016144d28461187e565b6144dc919061633a565b90506000600760008481526020019081526020016000205490508181146145c1576000600660008673ffffffffffffffffffffffffffffffffffffffff1673ffffffffffffffffffffffffffffffffffffffff168152602001908152602001600020600084815260200190815260200160002054905080600660008773ffffffffffffffffffffffffffffffffffffffff1673ffffffffffffffffffffffffffffffffffffffff168152602001908152602001600020600084815260200190815260200160002081905550816007600083815260200190815260200160002081905550505b6007600084815260200190815260200160002060009055600660008573ffffffffffffffffffffffffffffffffffffffff1673ffffffffffffffffffffffffffffffffffffffff16815260200190815260200160002060008381526020019081526020016000206000905550505050565b60006001600880549050614646919061633a565b905060006009600084815260200190815260200160002054905060006008838154811061469c577f4e487b7100000000000000000000000000000000000000000000000000000000600052603260045260246000fd5b9060005260206000200154905080600883815481106146e4577f4e487b7100000000000000000000000000000000000000000000000000000000600052603260045260246000fd5b906000526020600020018190555081600960008381526020019081526020016000208190555060096000858152602001908152602001600020600090556008805480614759577f4e487b7100000000000000000000000000000000000000000000000000000000600052603160045260246000fd5b6001900381819060005260206000200160009055905550505050565b60006147808361187e565b905081600660008573ffffffffffffffffffffffffffffffffffffffff1673ffffffffffffffffffffffffffffffffffffffff168152602001908152602001600020600083815260200190815260200160002081905550806007600084815260200190815260200160002081905550505050565b6147fe838361484f565b61480b60008484846142b3565b61484a576040517f08c379a000000000000000000000000000000000000000000000000000000000815260040161484190615cf0565b60405180910390fd5b505050565b600073ffffffffffffffffffffffffffffffffffffffff168273ffffffffffffffffffffffffffffffffffffffff1614156148bf576040517f08c379a00000000000000000000000000000000000000000000000000000000081526004016148b690615e90565b60405180910390fd5b6148c8816132f3565b15614908576040517f08c379a00000000000000000000000000000000000000000000000000000000081526004016148ff90615d30565b60405180910390fd5b6149146000838361419f565b6001600360008473ffffffffffffffffffffffffffffffffffffffff1673ffffffffffffffffffffffffffffffffffffffff16815260200190815260200160002060008282546149649190616259565b92505081905550816002600083815260200190815260200160002060006101000a81548173ffffffffffffffffffffffffffffffffffffffff021916908373ffffffffffffffffffffffffffffffffffffffff160217905550808273ffffffffffffffffffffffffffffffffffffffff16600073ffffffffffffffffffffffffffffffffffffffff167fddf252ad1be2c89b69c2b068fc378daa952ba7f163c4a11628f55a4df523b3ef60405160405180910390a45050565b604051806101000160405280600890602082028036833780820191505090505090565b6000614a53614a4e846161ad565b61617c565b905082815260208101848484011115614a6b57600080fd5b614a76848285616406565b509392505050565b600081359050614a8d816165cb565b92915050565b600081359050614aa2816165e2565b92915050565b600081519050614ab7816165e2565b92915050565b600081359050614acc816165f9565b92915050565b600081519050614ae1816165f9565b92915050565b600082601f830112614af857600080fd5b8135614b08848260208601614a40565b91505092915050565b600081359050614b2081616610565b92915050565b600081519050614b3581616610565b92915050565b600060208284031215614b4d57600080fd5b6000614b5b84828501614a7e565b91505092915050565b60008060408385031215614b7757600080fd5b6000614b8585828601614a7e565b9250506020614b9685828601614a7e565b9150509250929050565b600080600060608486031215614bb557600080fd5b6000614bc386828701614a7e565b9350506020614bd486828701614a7e565b9250506040614be586828701614b11565b9150509250925092565b60008060008060808587031215614c0557600080fd5b6000614c1387828801614a7e565b9450506020614c2487828801614a7e565b9350506040614c3587828801614b11565b925050606085013567ffffffffffffffff811115614c5257600080fd5b614c5e87828801614ae7565b91505092959194509250565b60008060408385031215614c7d57600080fd5b6000614c8b85828601614a7e565b9250506020614c9c85828601614a93565b9150509250929050565b60008060408385031215614cb957600080fd5b6000614cc785828601614a7e565b9250506020614cd885828601614b11565b9150509250929050565b600060208284031215614cf457600080fd5b6000614d0284828501614aa8565b91505092915050565b600060208284031215614d1d57600080fd5b6000614d2b84828501614abd565b91505092915050565b600060208284031215614d4657600080fd5b6000614d5484828501614ad2565b91505092915050565b600060208284031215614d6f57600080fd5b6000614d7d84828501614b11565b91505092915050565b600060208284031215614d9857600080fd5b6000614da684828501614b26565b91505092915050565b60008060408385031215614dc257600080fd5b6000614dd085828601614b11565b9250506020614de185828601614a7e565b9150509250929050565b60008060408385031215614dfe57600080fd5b6000614e0c85828601614b11565b9250506020614e1d85828601614b11565b9150509250929050565b6000614e338383615a3d565b60208301905092915050565b614e488161636e565b82525050565b6000614e59826161ed565b614e63818561621b565b9350614e6e836161dd565b8060005b83811015614e9f578151614e868882614e27565b9750614e918361620e565b925050600181019050614e72565b5085935050505092915050565b614eb581616380565b82525050565b6000614ec6826161f8565b614ed0818561622c565b9350614ee0818560208601616415565b614ee9816165ba565b840191505092915050565b614efd816163e2565b82525050565b6000614f0e82616203565b614f18818561623d565b9350614f28818560208601616415565b614f31816165ba565b840191505092915050565b6000614f4782616203565b614f51818561624e565b9350614f61818560208601616415565b80840191505092915050565b6000614f7a60148361623d565b91507f5061757361626c653a206e6f74207061757365640000000000000000000000006000830152602082019050919050565b6000614fba604a8361623d565b91507f4d6f6e6b6579436f6e74726163743a205472616e7366657220746f207468652060008301527f7a65726f2061646472657373206e6f7420616c6c6f7765642c206275726e204e60208301527f465420696e7374656164000000000000000000000000000000000000000000006040830152606082019050919050565b6000615046602b8361623d565b91507f455243373231456e756d657261626c653a206f776e657220696e646578206f7560008301527f74206f6620626f756e64730000000000000000000000000000000000000000006020830152604082019050919050565b60006150ac60328361623d565b91507f4552433732313a207472616e7366657220746f206e6f6e20455243373231526560008301527f63656976657220696d706c656d656e74657200000000000000000000000000006020830152604082019050919050565b600061511260268361623d565b91507f4f776e61626c653a206e6577206f776e657220697320746865207a65726f206160008301527f64647265737300000000000000000000000000000000000000000000000000006020830152604082019050919050565b6000615178601c8361623d565b91507f4552433732313a20746f6b656e20616c7265616479206d696e746564000000006000830152602082019050919050565b60006151b860398361623d565b91507f4d6f6e6b6579436f6e74726163743a204e4654206973207374696c6c206f6e2060008301527f73616c652e2052656d6f7665206f666665722066697273742e000000000000006020830152604082019050919050565b600061521e60248361623d565b91507f4552433732313a207472616e7366657220746f20746865207a65726f2061646460008301527f72657373000000000000000000000000000000000000000000000000000000006020830152604082019050919050565b600061528460198361623d565b91507f4552433732313a20617070726f766520746f2063616c6c6572000000000000006000830152602082019050919050565b60006152c4602d8361623d565b91507f4e6f7420656e6f7567682042616e616e6120546f6b656e2e205573652074686560008301527f2066726565206661756365742e000000000000000000000000000000000000006020830152604082019050919050565b600061532a602c8361623d565b91507f4552433732313a206f70657261746f7220717565727920666f72206e6f6e657860008301527f697374656e7420746f6b656e00000000000000000000000000000000000000006020830152604082019050919050565b600061539060108361623d565b91507f5061757361626c653a20706175736564000000000000000000000000000000006000830152602082019050919050565b60006153d060388361623d565b91507f4552433732313a20617070726f76652063616c6c6572206973206e6f74206f7760008301527f6e6572206e6f7220617070726f76656420666f7220616c6c00000000000000006020830152604082019050919050565b600061543660218361623d565b91507f506172656e74732063616e6e6f742062726565642061626f76652067656e393960008301527f39000000000000000000000000000000000000000000000000000000000000006020830152604082019050919050565b600061549c602a8361623d565b91507f4552433732313a2062616c616e636520717565727920666f7220746865207a6560008301527f726f2061646472657373000000000000000000000000000000000000000000006020830152604082019050919050565b600061550260298361623d565b91507f4552433732313a206f776e657220717565727920666f72206e6f6e657869737460008301527f656e7420746f6b656e00000000000000000000000000000000000000000000006020830152604082019050919050565b600061556860208361623d565b91507f4552433732313a206d696e7420746f20746865207a65726f20616464726573736000830152602082019050919050565b60006155a860338361623d565b91507f4d6f6e6b6579436f6e74726163743a204d757374206265206f776e6572206f6660008301527f20626f746820706172656e7420746f6b656e73000000000000000000000000006020830152604082019050919050565b600061560e602c8361623d565b91507f4552433732313a20617070726f76656420717565727920666f72206e6f6e657860008301527f697374656e7420746f6b656e00000000000000000000000000000000000000006020830152604082019050919050565b600061567460208361623d565b91507f4f776e61626c653a2063616c6c6572206973206e6f7420746865206f776e65726000830152602082019050919050565b60006156b460298361623d565b91507f4552433732313a207472616e73666572206f6620746f6b656e2074686174206960008301527f73206e6f74206f776e00000000000000000000000000000000000000000000006020830152604082019050919050565b600061571a602f8361623d565b91507f4552433732314d657461646174613a2055524920717565727920666f72206e6f60008301527f6e6578697374656e7420746f6b656e00000000000000000000000000000000006020830152604082019050919050565b600061578060218361623d565b91507f4552433732313a20617070726f76616c20746f2063757272656e74206f776e6560008301527f72000000000000000000000000000000000000000000000000000000000000006020830152604082019050919050565b60006157e660348361623d565b91507f4d6f6e6b6579436f6e74726163743a2043616e2774207472616e73666572204e60008301527f46547320746f207468697320636f6e74726163740000000000000000000000006020830152604082019050919050565b600061584c60318361623d565b91507f4552433732313a207472616e736665722063616c6c6572206973206e6f74206f60008301527f776e6572206e6f7220617070726f7665640000000000000000000000000000006020830152604082019050919050565b60006158b2602c8361623d565b91507f455243373231456e756d657261626c653a20676c6f62616c20696e646578206f60008301527f7574206f6620626f756e647300000000000000000000000000000000000000006020830152604082019050919050565b600061591860518361623d565b91507f4d6f6e6b6579436f6e74726163743a2043616e2774207472616e73666572207460008301527f686973204e465420776974686f7574206265696e67206f776e65722c2061707060208301527f726f766564206f72206f70657261746f720000000000000000000000000000006040830152606082019050919050565b60006159a4601f8361623d565b91507f5265656e7472616e637947756172643a207265656e7472616e742063616c6c006000830152602082019050919050565b60006159e460278361623d565b91507f4d6178696d756d20616d6f756e74206f662067656e2030206d6f6e6b6579732060008301527f72656163686564000000000000000000000000000000000000000000000000006020830152604082019050919050565b615a46816163d8565b82525050565b615a55816163d8565b82525050565b615a6c615a67826163d8565b6164c3565b82525050565b6000615a7e8285614f3c565b9150615a8a8284614f3c565b91508190509392505050565b6000615aa28286615a5b565b602082019150615ab28285615a5b565b602082019150615ac28284615a5b565b602082019150819050949350505050565b6000602082019050615ae86000830184614e3f565b92915050565b6000606082019050615b036000830186614e3f565b615b106020830185614e3f565b615b1d6040830184615a4c565b949350505050565b6000608082019050615b3a6000830187614e3f565b615b476020830186614e3f565b615b546040830185615a4c565b8181036060830152615b668184614ebb565b905095945050505050565b6000604082019050615b866000830185614e3f565b615b936020830184614eac565b9392505050565b6000604082019050615baf6000830185614e3f565b615bbc6020830184615a4c565b9392505050565b600060a082019050615bd86000830188614e3f565b615be56020830187615a4c565b615bf26040830186615a4c565b615bff6060830185615a4c565b615c0c6080830184615a4c565b9695505050505050565b60006020820190508181036000830152615c308184614e4e565b905092915050565b6000602082019050615c4d6000830184614eac565b92915050565b6000602082019050615c686000830184614ef4565b92915050565b60006020820190508181036000830152615c888184614f03565b905092915050565b60006020820190508181036000830152615ca981614f6d565b9050919050565b60006020820190508181036000830152615cc981614fad565b9050919050565b60006020820190508181036000830152615ce981615039565b9050919050565b60006020820190508181036000830152615d098161509f565b9050919050565b60006020820190508181036000830152615d2981615105565b9050919050565b60006020820190508181036000830152615d498161516b565b9050919050565b60006020820190508181036000830152615d69816151ab565b9050919050565b60006020820190508181036000830152615d8981615211565b9050919050565b60006020820190508181036000830152615da981615277565b9050919050565b60006020820190508181036000830152615dc9816152b7565b9050919050565b60006020820190508181036000830152615de98161531d565b9050919050565b60006020820190508181036000830152615e0981615383565b9050919050565b60006020820190508181036000830152615e29816153c3565b9050919050565b60006020820190508181036000830152615e4981615429565b9050919050565b60006020820190508181036000830152615e698161548f565b9050919050565b60006020820190508181036000830152615e89816154f5565b9050919050565b60006020820190508181036000830152615ea98161555b565b9050919050565b60006020820190508181036000830152615ec98161559b565b9050919050565b60006020820190508181036000830152615ee981615601565b9050919050565b60006020820190508181036000830152615f0981615667565b9050919050565b60006020820190508181036000830152615f29816156a7565b9050919050565b60006020820190508181036000830152615f498161570d565b9050919050565b60006020820190508181036000830152615f6981615773565b9050919050565b60006020820190508181036000830152615f89816157d9565b9050919050565b60006020820190508181036000830152615fa98161583f565b9050919050565b60006020820190508181036000830152615fc9816158a5565b9050919050565b60006020820190508181036000830152615fe98161590b565b9050919050565b6000602082019050818103600083015261600981615997565b9050919050565b60006020820190508181036000830152616029816159d7565b9050919050565b60006020820190506160456000830184615a4c565b92915050565b600060a0820190506160606000830188615a4c565b61606d6020830187615a4c565b61607a6040830186615a4c565b6160876060830185615a4c565b6160946080830184615a4c565b9695505050505050565b600060e0820190506160b3600083018a615a4c565b6160c06020830189615a4c565b6160cd6040830188615a4c565b6160da6060830187615a4c565b6160e76080830186615a4c565b6160f460a0830185614e3f565b61610160c0830184614e3f565b98975050505050505050565b600060e082019050616122600083018a615a4c565b61612f6020830189615a4c565b61613c6040830188615a4c565b6161496060830187615a4c565b6161566080830186615a4c565b61616360a0830185615a4c565b61617060c0830184614e3f565b98975050505050505050565b6000604051905081810181811067ffffffffffffffff821117156161a3576161a261658b565b5b8060405250919050565b600067ffffffffffffffff8211156161c8576161c761658b565b5b601f19601f8301169050602081019050919050565b6000819050602082019050919050565b600081519050919050565b600081519050919050565b600081519050919050565b6000602082019050919050565b600082825260208201905092915050565b600082825260208201905092915050565b600082825260208201905092915050565b600081905092915050565b6000616264826163d8565b915061626f836163d8565b9250827fffffffffffffffffffffffffffffffffffffffffffffffffffffffffffffffff038211156162a4576162a36164fe565b5b828201905092915050565b60006162ba826163d8565b91506162c5836163d8565b9250826162d5576162d461652d565b5b828204905092915050565b60006162eb826163d8565b91506162f6836163d8565b9250817fffffffffffffffffffffffffffffffffffffffffffffffffffffffffffffffff048311821515161561632f5761632e6164fe565b5b828202905092915050565b6000616345826163d8565b9150616350836163d8565b925082821015616363576163626164fe565b5b828203905092915050565b6000616379826163b8565b9050919050565b60008115159050919050565b60007fffffffff0000000000000000000000000000000000000000000000000000000082169050919050565b600073ffffffffffffffffffffffffffffffffffffffff82169050919050565b6000819050919050565b60006163ed826163f4565b9050919050565b60006163ff826163b8565b9050919050565b82818337600083830152505050565b60005b83811015616433578082015181840152602081019050616418565b83811115616442576000848401525b50505050565b6000600282049050600182168061646057607f821691505b602082108114156164745761647361655c565b5b50919050565b6000616485826163d8565b91507fffffffffffffffffffffffffffffffffffffffffffffffffffffffffffffffff8214156164b8576164b76164fe565b5b600182019050919050565b6000819050919050565b60006164d8826163d8565b91506164e3836163d8565b9250826164f3576164f261652d565b5b828206905092915050565b7f4e487b7100000000000000000000000000000000000000000000000000000000600052601160045260246000fd5b7f4e487b7100000000000000000000000000000000000000000000000000000000600052601260045260246000fd5b7f4e487b7100000000000000000000000000000000000000000000000000000000600052602260045260246000fd5b7f4e487b7100000000000000000000000000000000000000000000000000000000600052604160045260246000fd5b6000601f19601f8301169050919050565b6165d48161636e565b81146165df57600080fd5b50565b6165eb81616380565b81146165f657600080fd5b50565b6166028161638c565b811461660d57600080fd5b50565b616619816163d8565b811461662457600080fd5b5056fea2646970667358221220fffe873289cd9a5251eabc6b96277c03daa62f2ff90a4e592f9230220499b9cd64736f6c63430008000033",
  "immutableReferences": {},
  "source": "// SPDX-License-Identifier: UNLICENSED\r\npragma solidity ^0.8.0;\r\n\r\n// preparing for some functions to be restricted \r\nimport \"@openzeppelin/contracts/access/Ownable.sol\";\r\n// preparing safemath to rule out over- and underflow  \r\nimport \"@openzeppelin/contracts/utils/math/SafeMath.sol\";\r\n// importing openzeppelin counters contract to manage counters \r\nimport \"@openzeppelin/contracts/utils/Counters.sol\";\r\n// importing ERC721Enumerable token standard interface\r\nimport \"@openzeppelin/contracts/token/ERC721/extensions/ERC721Enumerable.sol\";\r\n// importing openzeppelin script to guard against re-entrancy\r\nimport \"@openzeppelin/contracts/security/ReentrancyGuard.sol\";\r\n// importing openzeppelin script to make contract pausable\r\nimport \"@openzeppelin/contracts/security/Pausable.sol\";\r\n// importing openzeppelin script for ERC20 tokens\r\nimport \"@openzeppelin/contracts/token/ERC20/IERC20.sol\";\r\n// importing MonkeyMarketplace interface\r\nimport \"./IMonkeyMarketplace.sol\";\r\n\r\ncontract MonkeyContract is ERC721Enumerable, Ownable, ReentrancyGuard, Pausable {\r\n\r\n    // using safemath for all uint256 numbers, \r\n    // use uint256 and (.add) and (.sub)\r\n    using SafeMath for uint256;    \r\n\r\n    using Counters for Counters.Counter;\r\n    // STATE VARIABLES\r\n\r\n    // MonkeyContract address\r\n    address _monkeyContractAddress;   \r\n    // Only 12 monkeys can be created from scratch (generation 0)\r\n    uint256 public GEN0_Limit = 12;\r\n    Counters.Counter public gen0amountTotal;  \r\n\r\n    // MonkeyMarketplace interface\r\n    IMonkeyMarketplace private _monkeyMarketInterface;\r\n    // Boolean to control whether transfers have to check for open offers\r\n    bool private _marketConnected = false;    \r\n    \r\n    // function to connect the market contract, should be done right after deployment of contracts\r\n    // when market is connected, NFTs cannot be transfered via this contract while on sale in market\r\n    function connectMarket(address _receivedMarketContractAddress, bool setConnectMarket) external onlyOwner {\r\n        _monkeyMarketInterface = IMonkeyMarketplace(_receivedMarketContractAddress);\r\n        _marketConnected = setConnectMarket;\r\n    }\r\n\r\n    // function to check if market is connected\r\n    function checkMarketConnected() external view onlyOwner returns(address marketAddressSaved, bool isMarketConnected) {\r\n        return (\r\n            address(_monkeyMarketInterface),\r\n            _marketConnected\r\n        );\r\n    }\r\n\r\n    // variables for Banana Token\r\n    IERC20 public bananaToken;\r\n    // fee for minting and breeding Crypto Monkey NFTs \r\n    uint256 private _bananaFee = 50; \r\n   \r\n    // STRUCT\r\n\r\n    // this struct is the blueprint for new NFTs\r\n    struct CryptoMonkey {        \r\n        uint256 parent1Id;\r\n        uint256 parent2Id;\r\n        uint256 generation;\r\n        uint256 genes;\r\n        uint256 birthtime;\r\n    }    \r\n\r\n    // ARRAYS\r\n\r\n    // This is an array that holds all CryptoMonkey NFTs. \r\n    // IMPORTANT: Their position in this array IS their Token ID.\r\n    // They never get deleted here, array only grows and keeps track of them all.\r\n    CryptoMonkey[] public allMonkeysArray;\r\n\r\n    // EVENTS\r\n\r\n    // Creation event, emitted after successful NFT creation with these parameters\r\n    event MonkeyCreated(\r\n        address owner,\r\n        uint256 tokenId,\r\n        uint256 parent1Id,\r\n        uint256 parent2Id,\r\n        uint256 genes\r\n    );\r\n\r\n    // Breeding event, combining two owned NFTs can create a third, new one\r\n    event BreedingSuccessful (\r\n        uint256 tokenId, \r\n        uint256 genes, \r\n        uint256 birthtime, \r\n        uint256 parent1Id, \r\n        uint256 parent2Id, \r\n        uint256 generation, \r\n        address owner\r\n    );   \r\n    \r\n    // Constructor function\r\n    // starts with setting _name, and _symbol in imported ERC721 contract,\r\n    // as well as setting the address for the Banana Token contract (has to be provided)  \r\n    constructor(address _bananaToken) ERC721(\"Crypto Monkeys\", \"MONKEY\") {\r\n\r\n        // initiates Banana Token interface\r\n        bananaToken = IERC20(_bananaToken);\r\n       // saving address of this contract to state variable\r\n        _monkeyContractAddress = address(this); \r\n\r\n        // minting a placeholder Zero Monkey NFT, that occupies Token ID 0\r\n        _createMonkey(0, 0, 0, 1214131177989271, _msgSender());  \r\n\r\n        // burning the placeholder Zero Monkey NFT\r\n        burnNFT(0);\r\n    }\r\n\r\n    // Functions \r\n\r\n    // pausing funcionality from OpenZeppelin's Pausable\r\n    function pause() public onlyOwner {\r\n        _pause();\r\n    }\r\n\r\n    // unpausing funcionality from OpenZeppelin's Pausable\r\n    function unpause() public onlyOwner {\r\n        _unpause();\r\n    }\r\n    \r\n    // public function to show contract's own address\r\n    function getMonkeyContractAddress() public view returns (address) {  \r\n        return _monkeyContractAddress;\r\n    }   \r\n\r\n    // returns all the main details on a NFT\r\n    function getMonkeyDetails(uint256 tokenId)\r\n        public\r\n        view\r\n        returns (\r\n            uint256 genes,\r\n            uint256 birthtime,\r\n            uint256 parent1Id,\r\n            uint256 parent2Id,\r\n            uint256 generation,\r\n            address owner,\r\n            address approvedAddress\r\n        )\r\n    {\r\n        return (\r\n            allMonkeysArray[tokenId].genes,\r\n            allMonkeysArray[tokenId].birthtime,\r\n            allMonkeysArray[tokenId].parent1Id,\r\n            allMonkeysArray[tokenId].parent2Id,\r\n            allMonkeysArray[tokenId].generation,\r\n            ownerOf(tokenId),\r\n            getApproved(tokenId)\r\n        );\r\n    }   \r\n\r\n    // returns an array with the NFT Token IDs that the provided sender address owns    \r\n    function findMonkeyIdsOfAddress(address owner) public view returns (uint256[] memory) {\r\n\r\n        // determining amount of owned Crypto Monkeys\r\n        uint256 amountOwned = balanceOf(owner);             \r\n\r\n        // creating result array with fixed length\r\n        uint256[] memory ownedTokenIDs = new uint256[](amountOwned);\r\n\r\n        // checking via ERC721Enumerable which Token IDs are owned\r\n        for (uint256 indexToCheck = 0; indexToCheck < amountOwned; indexToCheck++ ) {            \r\n            uint256 foundNFT = tokenOfOwnerByIndex(owner, indexToCheck);\r\n            ownedTokenIDs[indexToCheck] = foundNFT;                                  \r\n        } \r\n\r\n        // returning array of NFT Token IDs\r\n        return ownedTokenIDs;        \r\n    }      \r\n\r\n    // used for creating generation 0 monkeys \r\n    function createGen0Monkey(uint256 _genes) public onlyOwner {\r\n        // making sure that no more than 12 monkeys will exist in gen0\r\n        require(gen0amountTotal.current() < GEN0_Limit, \"Maximum amount of gen 0 monkeys reached\");\r\n\r\n        // increasing counter of gen0 monkeys \r\n        gen0amountTotal.increment();        \r\n\r\n        // minting new monkey NFT to msg.sender, generation and parents gen set to 0\r\n        _createMonkey(0, 0, 0, _genes, _msgSender());        \r\n    }    \r\n        \r\n    // Function to mint demo Monkey NFTs with hardcoded generation 99    \r\n    function createDemoMonkey(               \r\n        uint256 _genes,\r\n        address _owner\r\n    ) public returns (uint256) {\r\n        // needs 50 Banana Token, can get these from faucet contract\r\n        require(bananaToken.balanceOf(_owner) >= _bananaFee, \"Not enough Banana Token. Use the free faucet.\");\r\n        uint256 _oldBalanceOf = bananaToken.balanceOf(address(this));\r\n        // sends creation fee to contract\r\n        bananaToken.transferFrom(_msgSender(), address(this), _bananaFee);\r\n        // validates that contract received the fees\r\n        assert(bananaToken.balanceOf(address(this)) == _oldBalanceOf + _bananaFee);\r\n        uint256 newMonkey = _createMonkey(99, 99, 99, _genes, _owner);\r\n        return newMonkey;\r\n    }\r\n    \r\n    // used for creating monkeys (returns tokenId of new NFT)\r\n    function _createMonkey(\r\n        uint256 _parent1Id,\r\n        uint256 _parent2Id,\r\n        uint256 _generation,\r\n        uint256 _genes,\r\n        address _owner\r\n    ) private whenNotPaused returns (uint256) {\r\n        // uses the CryptoMonkey struct as template and creates a new monkey NFT from it\r\n            CryptoMonkey memory newMonkey = CryptoMonkey({                \r\n            parent1Id: uint256(_parent1Id),\r\n            parent2Id: uint256(_parent2Id),\r\n            generation: uint256(_generation),\r\n            genes: _genes,\r\n            birthtime: uint256(block.timestamp)\r\n        });        \r\n        \r\n        // saving the new monkey NFT to the allMonkeysArray\r\n        allMonkeysArray.push(newMonkey);\r\n        // getting the array length-1 and saving that as the new Token ID, starting with 0\r\n        uint256 newMonkeyId = allMonkeysArray.length.sub(1);\r\n\r\n        // after creation, transferring to new owner, \r\n        // receiving \"to\" address is calling user address, sender is 0 address\r\n        _safeMint(_owner, newMonkeyId);    \r\n\r\n        // emitting creating event\r\n        emit MonkeyCreated(_owner, newMonkeyId, _parent1Id, _parent2Id, _genes);                    \r\n\r\n        // This is the Token ID of the new NFT\r\n        return newMonkeyId;\r\n    } \r\n\r\n    /// * @dev Assign ownership of a specific NFT CryptoMonkey to an address.\r\n    /// * @dev This poses no restriction on _msgSender()\r\n    /// * @param _from The originating \"_from\" address can be 0 for creation of a monkey\r\n    /// * @param _to The receiving \"_to\" address cannot be 0 address, nor this contract\r\n    /// * @param _tokenId The Token ID of the monkey NFT to transfer. Must be owned or have allowance or operator from owner   \r\n    function transferNFT(\r\n        address _from,\r\n        address _to,\r\n        uint256 _tokenId\r\n    ) public nonReentrant whenNotPaused{\r\n        // checking if market is connected    \r\n        if ( _marketConnected == true ) {\r\n            // if it is connected, checking if NFT is on sale in market contract  \r\n            bool tokenOnSale = _monkeyMarketInterface.isTokenOnSale(_tokenId);\r\n            require( tokenOnSale != true, \"MonkeyContract: NFT is still on sale. Remove offer first.\" );\r\n        }\r\n        require(_to != address(0), \"MonkeyContract: Transfer to the zero address not allowed, burn NFT instead\");\r\n        require(_to != address(this), \"MonkeyContract: Can't transfer NFTs to this contract\");\r\n        require (_isApprovedOrOwner(_msgSender(), _tokenId) == true, \"MonkeyContract: Can't transfer this NFT without being owner, approved or operator\");   \r\n\r\n        // transfering via OpenZeppelin's ERC721\r\n        safeTransferFrom(_from, _to, _tokenId);        \r\n    }\r\n\r\n    // burning functionality, just to be called once from the constructor, to clear the zero monkey\r\n    function burnNFT (        \r\n        uint256 _tokenId\r\n    ) private nonReentrant whenNotPaused{     \r\n        require (_isApprovedOrOwner(_msgSender(), _tokenId) == true, \"MonkeyContract: Can't burn this NFT without being owner, approved or operator\");         \r\n        // burning via openzeppelin\r\n        _burn(_tokenId);       \r\n    }\r\n\r\n    // breeding functionality, combining two owned NFTs creates a new third one\r\n    function breed(uint256 _parent1Id, uint256 _parent2Id) public nonReentrant whenNotPaused returns (uint256)  {\r\n        // user needs to have enough Banana Token to use\r\n        require(bananaToken.balanceOf(_msgSender()) >= _bananaFee, \"Not enough Banana Token. Use the free faucet.\");\r\n        uint256 _oldBalanceOf = bananaToken.balanceOf(address(this));\r\n        // sends fee to this contract\r\n        bananaToken.transferFrom(_msgSender(), address(this), _bananaFee);\r\n        // validates that contract received the fees\r\n        assert(bananaToken.balanceOf(address(this)) == _oldBalanceOf + _bananaFee);\r\n\r\n        // _msgSender() needs to be owner of both crypto monkeys\r\n        require(ownerOf(_parent1Id) == _msgSender() && ownerOf(_parent2Id) == _msgSender(), \"MonkeyContract: Must be owner of both parent tokens\");\r\n       \r\n        // calculating new DNA string from two NFT parents' genes\r\n        uint256 _parent1genes = allMonkeysArray[_parent1Id].genes;         \r\n        uint256 _parent2genes = allMonkeysArray[_parent2Id].genes;       \r\n        uint256 _newDna = _mixDna(_parent1genes, _parent2genes);\r\n\r\n        // calculates generation \r\n        uint256 _newGeneration = _calcGeneration(_parent1Id, _parent2Id);\r\n\r\n        // creating new monkey, receiving Token ID from _createMonkey function\r\n        uint256 newMonkeyId = _createMonkey(_parent1Id, _parent2Id, _newGeneration, _newDna, _msgSender());                       \r\n\r\n        // emitting breeding event\r\n        emit BreedingSuccessful(\r\n            newMonkeyId,\r\n            allMonkeysArray[newMonkeyId].genes,\r\n            allMonkeysArray[newMonkeyId].birthtime,\r\n            allMonkeysArray[newMonkeyId].parent1Id,\r\n            allMonkeysArray[newMonkeyId].parent2Id,\r\n            allMonkeysArray[newMonkeyId].generation,\r\n            _msgSender()\r\n        ); \r\n\r\n        // this is the Token ID for the new NFT\r\n        return newMonkeyId;\r\n    }\r\n\r\n    /**\r\n    * @dev Returns a binary between 00000000-11111111\r\n    */\r\n    function _getRandom() internal view returns (uint8) {\r\n        return uint8(block.timestamp % 255);\r\n    } \r\n    \r\n    // will generate a pseudo random number and from that decide whether to take a two-digit pair of genes from _parent1genes or _parent2genes, repeated for 7 pairs (8th pair is pseudoRandomAdv, put in front)\r\n    function _mixDna (uint256 _parent1genes, uint256 _parent2genes) internal view returns (uint256) {\r\n        uint256[8] memory _geneArray;\r\n        uint8 _random = uint8(_getRandom());\r\n        // index position for 2 digits during 7 loops, _geneArray[7]-_geneArray[1]\r\n        uint256 countdown = 7;\r\n\r\n        // Bitshift: move to next binary bit, 7 loops\r\n        for (uint256 i = 1; i <= 64; i = i * 2) {\r\n        // Then add 2 last digits from the dna to the new dna\r\n        if (_random & i != 0) {\r\n            _geneArray[countdown] = uint8(_parent1genes % 100);\r\n        } else {\r\n            _geneArray[countdown] = uint8(_parent2genes % 100);\r\n        }\r\n        //each loop, take off the last 2 digits from the genes number string\r\n        _parent1genes = _parent1genes / 100;\r\n        _parent2genes = _parent2genes / 100;\r\n\r\n        countdown = countdown.sub(1);\r\n        }\r\n\r\n        // creating a pseudo random number and including them in the new DNA, so that it has some unique elements\r\n        uint256 pseudoRandomAdv = uint256(keccak256(abi.encodePacked(uint256(_random), totalSupply(), allMonkeysArray[0].genes)));  \r\n        // makes this number a 2 digit number between 10-98 (largest result of %89 is 88)\r\n        pseudoRandomAdv = (pseudoRandomAdv % 89) + 10;\r\n        // setting first 2 digits in DNA string to this new 2 digit number\r\n        _geneArray[0] = pseudoRandomAdv;\r\n\r\n        uint256 newGeneSequence;        \r\n        \r\n        // puts in last positioned array entry (2 digits) as first numbers, then adds 00, then adds again,\r\n        // therefore reversing the backwards information in the array again to correct order \r\n        for (uint256 j = 0; j < 8; j++) {\r\n            newGeneSequence = newGeneSequence + _geneArray[j];\r\n\r\n            // will stop adding zeros after last repetition\r\n            if (j != 7)  {\r\n                newGeneSequence = newGeneSequence * 100;\r\n            }                \r\n        }\r\n\r\n        return newGeneSequence;      \r\n    }\r\n\r\n    // calculates generation of newly bred NFTs\r\n    function _calcGeneration (uint256 _parent1Id, uint256 _parent2Id) internal view returns(uint256) {        \r\n\r\n        uint256 _generationOfParent1 = allMonkeysArray[_parent1Id].generation; \r\n        uint256 _generationOfParent2 = allMonkeysArray[_parent2Id].generation; \r\n\r\n        require(_generationOfParent1 < 1000 && _generationOfParent2 < 1000, \"Parents cannot breed above gen999\");\r\n\r\n        // if both parents have same gen, child will be parents' gen+1  \r\n\r\n        // if they have different gen, new gen is average of parents gen plus 2\r\n        // for ex. 1 + 5 = 6, 6/2 = 3, 3+2 = 5, newGeneration would be 5\r\n\r\n        // rounding numbers down if odd: \r\n        // for ex. 1+2=3, 3*10 = 30, 30/2 = 15\r\n        // 15 % 10 = 5, 5>0, 15-5=10\r\n        // 10 / 10 = 1, 1+2 = 3\r\n        // newGeneration = 3       \r\n\r\n        uint256 newGeneration;\r\n\r\n        if (_generationOfParent1 != _generationOfParent2) {\r\n            uint256 _roundingNumbers = (((_generationOfParent1 + _generationOfParent2) * 10) / 2); \r\n            if (_roundingNumbers % 10 > 0) {\r\n                _roundingNumbers - 5;      \r\n            }\r\n            newGeneration = (_roundingNumbers / 10 ) + 2;            \r\n        }\r\n        \r\n        else {\r\n            newGeneration = ((_generationOfParent1 + _generationOfParent2) / 2) + 1;              \r\n        }\r\n\r\n        return newGeneration;\r\n    }\r\n\r\n    // overriding ERC721's function, including whenNotPaused for added security\r\n    function transferFrom(address from, address to, uint256 tokenId) public override whenNotPaused {\r\n        // if market is connected, check if this token to be transferred is on sale at the moment.    \r\n        if ( _marketConnected == true ) {\r\n            bool tokenOnSale = _monkeyMarketInterface.isTokenOnSale(tokenId);\r\n            require( tokenOnSale != true, \"MonkeyContract: NFT is still on sale. Remove offer first.\" );\r\n        }\r\n        \r\n        require(_isApprovedOrOwner(_msgSender(), tokenId), \"ERC721: transfer caller is not owner nor approved\");\r\n\r\n        _transfer(from, to, tokenId);\r\n    }\r\n\r\n    // overriding ERC721's function, including whenNotPaused for added security\r\n    function safeTransferFrom(address from, address to, uint256 tokenId) public override whenNotPaused {\r\n        // if market is connected, check if this token to be transferred is on sale at the moment.   \r\n        if ( _marketConnected == true ) {\r\n             bool tokenOnSale = _monkeyMarketInterface.isTokenOnSale(tokenId);\r\n            require( tokenOnSale != true, \"MonkeyContract: NFT is still on sale. Remove offer first.\" );\r\n        }\r\n        require(_isApprovedOrOwner(_msgSender(), tokenId), \"ERC721: transfer caller is not owner nor approved\");        \r\n        safeTransferFrom(from, to, tokenId, \"\");\r\n    }\r\n\r\n    // overriding ERC721's function, including whenNotPaused for added security\r\n    function safeTransferFrom(address from, address to, uint256 tokenId, bytes memory _data) public override whenNotPaused {\r\n        // if market is connected, check if this token to be transferred is on sale at the moment.        \r\n        if ( _marketConnected == true ) {\r\n            bool tokenOnSale = _monkeyMarketInterface.isTokenOnSale(tokenId);    \r\n            require( tokenOnSale != true, \"MonkeyContract: NFT is still on sale. Remove offer first.\" );\r\n        }\r\n        require(_isApprovedOrOwner(_msgSender(), tokenId), \"ERC721: transfer caller is not owner nor approved\");\r\n        _safeTransfer(from, to, tokenId, _data);\r\n    }\r\n    \r\n    // function for owner to withdraw any ETH that has accumulated in this contract\r\n    function withdrawETH () public onlyOwner {\r\n        address payable receiver = payable(_msgSender());\r\n        receiver.transfer(_monkeyContractAddress.balance);\r\n    }    \r\n    \r\n    // function for owner to withdraw any ERC20 token that has accumulated in this contract\r\n    function withdrawERC20 (address ERC20ContractAddress) public onlyOwner payable {\r\n        IERC20 ERC20Instance = IERC20(ERC20ContractAddress);    \r\n        uint256 allOfTheseTokensHere = ERC20Instance.balanceOf(address(this));\r\n        ERC20Instance.transfer(_msgSender() , allOfTheseTokensHere);        \r\n    }\r\n\r\n    // function for owner to withdraw any Banana Token that has accumulated in this contract\r\n    function withdrawBananas () public onlyOwner  {\r\n        uint256 allBananasHere = bananaToken.balanceOf(address(this));\r\n        bananaToken.transfer(_msgSender() , allBananasHere);\r\n    }\r\n}\r\n\r\n\r\n\r\n   ",
  "sourcePath": "C:\\github\\CryptoMonkeys\\contracts\\MonkeyContract.sol",
  "compiler": {
    "name": "solc",
    "version": "0.8.0+commit.c7dfd78e.Emscripten.clang"
  },
  "schemaVersion": "3.2.0",
  "updatedAt": "2021-08-26T16:20:42.124Z",
  "networkType": "ethereum",
  "devdoc": {
    "kind": "dev",
    "methods": {
      "approve(address,uint256)": {
        "details": "See {IERC721-approve}."
      },
      "balanceOf(address)": {
        "details": "See {IERC721-balanceOf}."
      },
      "getApproved(uint256)": {
        "details": "See {IERC721-getApproved}."
      },
      "isApprovedForAll(address,address)": {
        "details": "See {IERC721-isApprovedForAll}."
      },
      "name()": {
        "details": "See {IERC721Metadata-name}."
      },
      "owner()": {
        "details": "Returns the address of the current owner."
      },
      "ownerOf(uint256)": {
        "details": "See {IERC721-ownerOf}."
      },
      "paused()": {
        "details": "Returns true if the contract is paused, and false otherwise."
      },
      "renounceOwnership()": {
        "details": "Leaves the contract without owner. It will not be possible to call `onlyOwner` functions anymore. Can only be called by the current owner. NOTE: Renouncing ownership will leave the contract without an owner, thereby removing any functionality that is only available to the owner."
      },
      "safeTransferFrom(address,address,uint256)": {
        "details": "See {IERC721-safeTransferFrom}."
      },
      "safeTransferFrom(address,address,uint256,bytes)": {
        "details": "See {IERC721-safeTransferFrom}."
      },
      "setApprovalForAll(address,bool)": {
        "details": "See {IERC721-setApprovalForAll}."
      },
      "supportsInterface(bytes4)": {
        "details": "See {IERC165-supportsInterface}."
      },
      "symbol()": {
        "details": "See {IERC721Metadata-symbol}."
      },
      "tokenByIndex(uint256)": {
        "details": "See {IERC721Enumerable-tokenByIndex}."
      },
      "tokenOfOwnerByIndex(address,uint256)": {
        "details": "See {IERC721Enumerable-tokenOfOwnerByIndex}."
      },
      "tokenURI(uint256)": {
        "details": "See {IERC721Metadata-tokenURI}."
      },
      "totalSupply()": {
        "details": "See {IERC721Enumerable-totalSupply}."
      },
      "transferFrom(address,address,uint256)": {
        "details": "See {IERC721-transferFrom}."
      },
      "transferNFT(address,address,uint256)": {
        "details": "Assign ownership of a specific NFT CryptoMonkey to an address.This poses no restriction on _msgSender()",
        "params": {
          "_from": "The originating \"_from\" address can be 0 for creation of a monkey",
          "_to": "The receiving \"_to\" address cannot be 0 address, nor this contract",
          "_tokenId": "The Token ID of the monkey NFT to transfer. Must be owned or have allowance or operator from owner   "
        }
      },
      "transferOwnership(address)": {
        "details": "Transfers ownership of the contract to a new account (`newOwner`). Can only be called by the current owner."
      }
    },
    "version": 1
  },
  "userdoc": {
    "kind": "user",
    "methods": {},
    "version": 1
  }
}