{
  "contractName": "MonkeyMarketplace",
  "abi": [
    {
      "inputs": [
        {
          "internalType": "address",
          "name": "_constructorMonkeyContractAddress",
          "type": "address"
        }
      ],
      "payable": false,
      "stateMutability": "nonpayable",
      "type": "constructor"
    },
    {
      "anonymous": false,
      "inputs": [
        {
          "indexed": false,
          "internalType": "string",
          "name": "TxType",
          "type": "string"
        },
        {
          "indexed": false,
          "internalType": "address",
          "name": "owner",
          "type": "address"
        },
        {
          "indexed": false,
          "internalType": "uint256",
          "name": "tokenId",
          "type": "uint256"
        }
      ],
      "name": "MarketTransaction",
      "type": "event"
    },
    {
      "anonymous": false,
      "inputs": [
        {
          "indexed": false,
          "internalType": "address",
          "name": "offerCreatedBy",
          "type": "address"
        },
        {
          "indexed": false,
          "internalType": "uint256",
          "name": "tokenId",
          "type": "uint256"
        },
        {
          "indexed": false,
          "internalType": "uint256",
          "name": "price",
          "type": "uint256"
        }
      ],
      "name": "NewOfferCreated",
      "type": "event"
    },
    {
      "anonymous": false,
      "inputs": [
        {
          "indexed": false,
          "internalType": "address",
          "name": "offerDeletedBy",
          "type": "address"
        },
        {
          "indexed": false,
          "internalType": "uint256",
          "name": "tokenId",
          "type": "uint256"
        }
      ],
      "name": "OldOfferDeleted",
      "type": "event"
    },
    {
      "anonymous": false,
      "inputs": [
        {
          "indexed": false,
          "internalType": "address",
          "name": "seller",
          "type": "address"
        },
        {
          "indexed": false,
          "internalType": "address",
          "name": "buyer",
          "type": "address"
        },
        {
          "indexed": false,
          "internalType": "uint256",
          "name": "priceInGwei",
          "type": "uint256"
        },
        {
          "indexed": false,
          "internalType": "uint256",
          "name": "tokenId",
          "type": "uint256"
        }
      ],
      "name": "monkeySold",
      "type": "event"
    },
    {
      "constant": true,
      "inputs": [],
      "name": "contractOwner",
      "outputs": [
        {
          "internalType": "address payable",
          "name": "",
          "type": "address"
        }
      ],
      "payable": false,
      "stateMutability": "view",
      "type": "function"
    },
    {
      "constant": false,
      "inputs": [
        {
          "internalType": "address",
          "name": "_newMonkeyContractAddress",
          "type": "address"
        }
      ],
      "name": "setMonkeyContract",
      "outputs": [],
      "payable": false,
      "stateMutability": "nonpayable",
      "type": "function"
    },
    {
      "constant": false,
      "inputs": [
        {
          "internalType": "uint256",
          "name": "_price",
          "type": "uint256"
        },
        {
          "internalType": "uint256",
          "name": "_tokenId",
          "type": "uint256"
        }
      ],
      "name": "setOffer",
      "outputs": [],
      "payable": false,
      "stateMutability": "nonpayable",
      "type": "function"
    },
    {
      "constant": false,
      "inputs": [
        {
          "internalType": "uint256",
          "name": "_tokenId",
          "type": "uint256"
        }
      ],
      "name": "removeOffer",
      "outputs": [],
      "payable": false,
      "stateMutability": "nonpayable",
      "type": "function"
    },
    {
      "constant": true,
      "inputs": [
        {
          "internalType": "uint256",
          "name": "_tokenId",
          "type": "uint256"
        }
      ],
      "name": "getOffer",
      "outputs": [
        {
          "internalType": "address",
          "name": "seller",
          "type": "address"
        },
        {
          "internalType": "uint256",
          "name": "price",
          "type": "uint256"
        },
        {
          "internalType": "uint256",
          "name": "index",
          "type": "uint256"
        },
        {
          "internalType": "uint256",
          "name": "tokenId",
          "type": "uint256"
        },
        {
          "internalType": "bool",
          "name": "active",
          "type": "bool"
        }
      ],
      "payable": false,
      "stateMutability": "view",
      "type": "function"
    },
    {
      "constant": true,
      "inputs": [],
      "name": "getAllTokenOnSale",
      "outputs": [
        {
          "internalType": "uint256[]",
          "name": "listOfOffers",
          "type": "uint256[]"
        }
      ],
      "payable": false,
      "stateMutability": "view",
      "type": "function"
    },
    {
      "constant": false,
      "inputs": [
        {
          "internalType": "uint256",
          "name": "_tokenId",
          "type": "uint256"
        }
      ],
      "name": "buyMonkey",
      "outputs": [],
      "payable": true,
      "stateMutability": "payable",
      "type": "function"
    }
  ],
  "bytecode": "0x608060405234801561001057600080fd5b506040516111083803806111088339818101604052602081101561003357600080fd5b8101908080519060200190929190505050336000806101000a81548173ffffffffffffffffffffffffffffffffffffffff021916908373ffffffffffffffffffffffffffffffffffffffff16021790555080600160006101000a81548173ffffffffffffffffffffffffffffffffffffffff021916908373ffffffffffffffffffffffffffffffffffffffff16021790555050611033806100d56000396000f3fe6080604052600436106100705760003560e01c80638ec6223d1161004e5780638ec6223d146101aa578063941b055b146101fb57806395a0f9c714610240578063ce606ee01461027b57610070565b80634579268a1461007557806349b3709f14610110578063615fc0e21461017c575b600080fd5b34801561008157600080fd5b506100ae6004803603602081101561009857600080fd5b81019080803590602001909291905050506102d2565b604051808673ffffffffffffffffffffffffffffffffffffffff1673ffffffffffffffffffffffffffffffffffffffff168152602001858152602001848152602001838152602001821515151581526020019550505050505060405180910390f35b34801561011c57600080fd5b5061012561038d565b6040518080602001828103825283818151815260200191508051906020019060200280838360005b8381101561016857808201518184015260208101905061014d565b505050509050019250505060405180910390f35b6101a86004803603602081101561019257600080fd5b8101908080359060200190929190505050610423565b005b3480156101b657600080fd5b506101f9600480360360208110156101cd57600080fd5b81019080803573ffffffffffffffffffffffffffffffffffffffff169060200190929190505050610704565b005b34801561020757600080fd5b5061023e6004803603604081101561021e57600080fd5b8101908080359060200190929190803590602001909291905050506107a1565b005b34801561024c57600080fd5b506102796004803603602081101561026357600080fd5b8101908080359060200190929190505050610db7565b005b34801561028757600080fd5b50610290610f5d565b604051808273ffffffffffffffffffffffffffffffffffffffff1673ffffffffffffffffffffffffffffffffffffffff16815260200191505060405180910390f35b60008060008060006003600087815260200190815260200160002060000160009054906101000a900473ffffffffffffffffffffffffffffffffffffffff1660036000888152602001908152602001600020600101546004600089815260200190815260200160002054600360008a815260200190815260200160002060020154600360008b815260200190815260200160002060030160009054906101000a900460ff168494509450945094509450945091939590929450565b606060008090505b60028054905081101561041c57600281815481106103af57fe5b906000526020600020906004020160030160009054906101000a900460ff161561040f57600281815481106103e057fe5b9060005260206000209060040201600201548260018451018151811061040257fe5b6020026020010181815250505b8080600101915050610395565b5080905090565b600115156003600083815260200190815260200160002060030160009054906101000a900460ff1615151461045757600080fd5b3460036000838152602001908152602001600020600101541461047957600080fd5b6000633b9aca003402905060006003600084815260200190815260200160002060000160009054906101000a900473ffffffffffffffffffffffffffffffffffffffff169050600160009054906101000a900473ffffffffffffffffffffffffffffffffffffffff1673ffffffffffffffffffffffffffffffffffffffff166323b872dd8233866040518463ffffffff1660e01b8152600401808473ffffffffffffffffffffffffffffffffffffffff1673ffffffffffffffffffffffffffffffffffffffff1681526020018373ffffffffffffffffffffffffffffffffffffffff1673ffffffffffffffffffffffffffffffffffffffff1681526020018281526020019350505050600060405180830381600087803b15801561059c57600080fd5b505af11580156105b0573d6000803e3d6000fd5b505050507fd99e4fad9ad6313b1feb588fa8e605e3a9873172f2024330c35dd2b4041a4386338460405180806020018473ffffffffffffffffffffffffffffffffffffffff1673ffffffffffffffffffffffffffffffffffffffff168152602001838152602001828103825260038152602001807f4275790000000000000000000000000000000000000000000000000000000000815250602001935050505060405180910390a17f9f1cc9f631ef4adfe7b8fb5180733fe8e804f452ee94cd404396f67e515136a481338486604051808573ffffffffffffffffffffffffffffffffffffffff1673ffffffffffffffffffffffffffffffffffffffff1681526020018473ffffffffffffffffffffffffffffffffffffffff1673ffffffffffffffffffffffffffffffffffffffff16815260200183815260200182815260200194505050505060405180910390a1505050565b6000809054906101000a900473ffffffffffffffffffffffffffffffffffffffff1673ffffffffffffffffffffffffffffffffffffffff163373ffffffffffffffffffffffffffffffffffffffff161461075d57600080fd5b80600560006101000a81548173ffffffffffffffffffffffffffffffffffffffff021916908373ffffffffffffffffffffffffffffffffffffffff16021790555050565b6000600160009054906101000a900473ffffffffffffffffffffffffffffffffffffffff1673ffffffffffffffffffffffffffffffffffffffff16636352211e836040518263ffffffff1660e01b81526004018082815260200191505060206040518083038186803b15801561081657600080fd5b505afa15801561082a573d6000803e3d6000fd5b505050506040513d602081101561084057600080fd5b810190808051906020019092919050505090503373ffffffffffffffffffffffffffffffffffffffff168173ffffffffffffffffffffffffffffffffffffffff161461088b57600080fd5b600160009054906101000a900473ffffffffffffffffffffffffffffffffffffffff1673ffffffffffffffffffffffffffffffffffffffff1663e985e9c533306040518363ffffffff1660e01b8152600401808373ffffffffffffffffffffffffffffffffffffffff1673ffffffffffffffffffffffffffffffffffffffff1681526020018273ffffffffffffffffffffffffffffffffffffffff1673ffffffffffffffffffffffffffffffffffffffff1681526020019250505060206040518083038186803b15801561095e57600080fd5b505afa158015610972573d6000803e3d6000fd5b505050506040513d602081101561098857600080fd5b81019080805190602001909291905050506109ee576040517f08c379a000000000000000000000000000000000000000000000000000000000815260040180806020018281038252603c815260200180610fc3603c913960400191505060405180910390fd5b6003600083815260200190815260200160002060030160009054906101000a900460ff1615610af95760036000838152602001908152602001600020600080820160006101000a81549073ffffffffffffffffffffffffffffffffffffffff0219169055600182016000905560028201600090556003820160006101000a81549060ff0219169055505060028281548110610a8557fe5b9060005260206000209060040201600080820160006101000a81549073ffffffffffffffffffffffffffffffffffffffff0219169055600182016000905560028201600090556003820160006101000a81549060ff0219169055505060046000838152602001908152602001600020600090555b610b01610f82565b60405180608001604052803373ffffffffffffffffffffffffffffffffffffffff168152602001858152602001848152602001600115158152509050806003600085815260200190815260200160002060008201518160000160006101000a81548173ffffffffffffffffffffffffffffffffffffffff021916908373ffffffffffffffffffffffffffffffffffffffff160217905550602082015181600101556040820151816002015560608201518160030160006101000a81548160ff021916908315150217905550905050600060016002839080600181540180825580915050906001820390600052602060002090600402016000909192909190915060008201518160000160006101000a81548173ffffffffffffffffffffffffffffffffffffffff021916908373ffffffffffffffffffffffffffffffffffffffff160217905550602082015181600101556040820151816002015560608201518160030160006101000a81548160ff02191690831515021790555050500390508060046000868152602001908152602001600020819055507fd99e4fad9ad6313b1feb588fa8e605e3a9873172f2024330c35dd2b4041a4386838560405180806020018473ffffffffffffffffffffffffffffffffffffffff1673ffffffffffffffffffffffffffffffffffffffff1681526020018381526020018281038252600c8152602001807f437265617465206f666665720000000000000000000000000000000000000000815250602001935050505060405180910390a17fc386910e8e2d580e8f57969ee96d470342ae312a21bd99cd4a8c28b35c9255c6338587604051808473ffffffffffffffffffffffffffffffffffffffff1673ffffffffffffffffffffffffffffffffffffffff168152602001838152602001828152602001935050505060405180910390a15050505050565b3373ffffffffffffffffffffffffffffffffffffffff166003600083815260200190815260200160002060000160009054906101000a900473ffffffffffffffffffffffffffffffffffffffff1673ffffffffffffffffffffffffffffffffffffffff1614610e2557600080fd5b60036000828152602001908152602001600020600080820160006101000a81549073ffffffffffffffffffffffffffffffffffffffff0219169055600182016000905560028201600090556003820160006101000a81549060ff0219169055505060028181548110610e9357fe5b9060005260206000209060040201600080820160006101000a81549073ffffffffffffffffffffffffffffffffffffffff0219169055600182016000905560028201600090556003820160006101000a81549060ff021916905550507fe91ea1e8e2710397d024b3976fdeed7271fe18279d88e9bfd724ce73bde877fd3382604051808373ffffffffffffffffffffffffffffffffffffffff1673ffffffffffffffffffffffffffffffffffffffff1681526020018281526020019250505060405180910390a150565b6000809054906101000a900473ffffffffffffffffffffffffffffffffffffffff1681565b6040518060800160405280600073ffffffffffffffffffffffffffffffffffffffff1681526020016000815260200160008152602001600015158152509056fe4d61726b6574706c6163652061646472657373206e65656473206f70657261746f72207374617475732066726f6d206d6f6e6b6579206f776e65722ea265627a7a72315820ed9804613c7d244e2feb7c3b6b831df61988587ad341f8ac5681fe2f95defffb64736f6c634300050c0032",
  "source": "pragma solidity ^0.5.12;\r\n\r\nimport \"./Monkeycontract.sol\";\r\nimport \"./Ownable.sol\";\r\nimport \"./IMonkeyMarketplace.sol\";\r\n// preparing safemath to rule out over- and underflow  \r\nimport \"./Safemath.sol\";\r\n\r\ncontract MonkeyMarketplace is Ownable, IMonkeyMarketplace  {\r\n  using SafeMath for uint256;\r\n\r\n  MonkeyContract private _monkeycontract;\r\n\r\n  struct Offer {\r\n    address payable seller;\r\n    uint256 price;\r\n    uint256 tokenId;    \r\n    bool active;\r\n  }\r\n\r\n  Offer[] offersArray; \r\n\r\n  mapping (uint256 => Offer) tokenIdToOfferMapping; \r\n\r\n  mapping (uint256 => uint256) tokenIdtoActiveofferId;\r\n\r\n  event MarketTransaction(string TxType, address owner, uint256 tokenId);\r\n\r\n  event monkeySold (address seller, address buyer, uint256 priceInGwei, uint256 tokenId);\r\n\r\n  event NewOfferCreated (address offerCreatedBy, uint256 tokenId, uint256 price);\r\n\r\n  event OldOfferDeleted (address offerDeletedBy, uint256 tokenId);\r\n\r\n  address _monkeyContractAddressInMarket;\r\n\r\n  constructor (address _constructorMonkeyContractAddress) public {\r\n    _monkeycontract = MonkeyContract(_constructorMonkeyContractAddress);\r\n  }\r\n  /** \r\n  * Set the current MonkeyContract address and initialize the instance of Monkeycontract.\r\n  * Requirement: Only the contract owner can call.\r\n  */\r\n  function setMonkeyContract(address _newMonkeyContractAddress) external onlyOwner {\r\n    _monkeyContractAddressInMarket = _newMonkeyContractAddress;\r\n  }\r\n\r\n  /**\r\n  * Creates a new offer for _tokenId for the price _price.\r\n  * Emits the MarketTransaction event with txType \"Create offer\"\r\n  * Requirement: Only the owner of _tokenId can create an offer.\r\n  * Requirement: There can only be one active offer for a token at a time.\r\n  * Requirement: Marketplace contract (this) needs to be an approved operator when the offer is created.\r\n  */    \r\n  function setOffer(uint256 _price, uint256 _tokenId) external {    \r\n\r\n    //  Only the owner of _tokenId can create an offer.\r\n    address monkeyOwner = _monkeycontract.ownerOf(_tokenId);\r\n    require( monkeyOwner == msg.sender);\r\n\r\n    //Marketplace contract (this) needs to be an approved operator when the offer is created.\r\n    require(_monkeycontract.isApprovedForAll(msg.sender, address(this)), \"Marketplace address needs operator status from monkey owner.\");\r\n                   \r\n    // There can only be one active offer for a token at a time.    \r\n    if (tokenIdToOfferMapping[_tokenId].active) {\r\n      // delete mapping entry\r\n      delete tokenIdToOfferMapping[_tokenId];\r\n      // delete offer array entry \r\n      delete offersArray[_tokenId];    \r\n      // delete active offer ID array entry\r\n      delete tokenIdtoActiveofferId[_tokenId];  \r\n    }\r\n    \r\n    // Creating a new offer from the Offer struct \"blueprint\"\r\n    Offer memory newOffer = Offer({\r\n      seller: msg.sender,\r\n      price:  uint256(_price),\r\n      tokenId: uint256(_tokenId),      \r\n      active: true\r\n    });\r\n\r\n    // saving new offer (it's a struct) to mapping \r\n    tokenIdToOfferMapping[_tokenId] = newOffer;    \r\n\r\n    // saving new offer (it's a struct) to array and giving it a offer ID, first offer will have ID 0, same as its index in array \r\n    uint256 newOfferId = offersArray.push(newOffer) - 1; \r\n\r\n    tokenIdtoActiveofferId[_tokenId] = newOfferId;\r\n\r\n    emit MarketTransaction(\"Create offer\", monkeyOwner, _tokenId);\r\n\r\n    emit NewOfferCreated(msg.sender, _tokenId, _price);\r\n\r\n  }\r\n\r\n  /**\r\n  * Removes an existing offer.\r\n  * Emits the MarketTransaction event with txType \"Remove offer\"\r\n  * Requirement: Only the seller of _tokenId can remove an offer.\r\n  */\r\n  function removeOffer(uint256 _tokenId) external {\r\n\r\n    //  Only the owner of _tokenId can delete an offer.\r\n    require(tokenIdToOfferMapping[_tokenId].seller == msg.sender);\r\n\r\n    // deleting mapping entry\r\n    delete tokenIdToOfferMapping[_tokenId];    \r\n\r\n    // deleting array entry\r\n    delete offersArray[_tokenId];       \r\n\r\n    emit OldOfferDeleted (msg.sender, _tokenId);\r\n  }\r\n\r\n  /**\r\n  * Get the details about a offer for _tokenId. Throws an error if there is no active offer for _tokenId.\r\n  */\r\n  function getOffer(uint256 _tokenId) external view returns ( address seller, uint256 price, uint256 index, uint256 tokenId, bool active)\r\n  {\r\n    return (\r\n    tokenIdToOfferMapping[_tokenId].seller,\r\n    tokenIdToOfferMapping[_tokenId].price,\r\n    tokenIdtoActiveofferId[_tokenId], \r\n    tokenIdToOfferMapping[_tokenId].tokenId,\r\n    tokenIdToOfferMapping[_tokenId].active       \r\n    );\r\n  }\r\n\r\n  /**\r\n  * Get all tokenId's that are currently for sale. Returns an empty array if none exist.\r\n  */\r\n  function getAllTokenOnSale() external view returns(uint256[] memory listOfOffers) {\r\n    for (uint256 k = 0; k < offersArray.length; k++) {\r\n      if (offersArray[k].active) {\r\n        listOfOffers[(listOfOffers.length + 1)] = offersArray[k].tokenId;\r\n      }         \r\n    }\r\n    return listOfOffers; \r\n  }\r\n\r\n  /**\r\n  * Executes the purchase of _tokenId.\r\n  * Sends the funds to the seller and transfers the token using transferFrom in Monkeycontract.\r\n  * Emits the MarketTransaction event with txType \"Buy\".\r\n  * Requirement: The msg.value needs to equal the price of _tokenId\r\n  * Requirement: There must be an active offer for _tokenId\r\n  */\r\n  function buyMonkey(uint256 _tokenId) external payable {\r\n    \r\n    require(tokenIdToOfferMapping[_tokenId].active == true);\r\n\r\n    require(tokenIdToOfferMapping[_tokenId].price == msg.value);\r\n\r\n    uint256 _priceInGwei = msg.value * 1000000000;\r\n\r\n    address _oldOwner = tokenIdToOfferMapping[_tokenId].seller;\r\n\r\n    _monkeycontract.transferFrom(_oldOwner, msg.sender, _tokenId);\r\n\r\n    emit MarketTransaction(\"Buy\", msg.sender, _tokenId);\r\n\r\n    emit monkeySold (_oldOwner, msg.sender, _priceInGwei, _tokenId);\r\n\r\n  }\r\n\r\n}\r\n\r\n\r\n\r\n    \r\n",
  "sourcePath": "D:\\8 Github\\CryptoMonkeys\\contracts\\MonkeyMarketplace.sol",
  "compiler": {
    "name": "solc",
    "version": "0.5.12+commit.7709ece9.Emscripten.clang"
  },
  "schemaVersion": "3.2.0",
  "updatedAt": "2021-01-18T15:59:24.553Z",
  "networkType": "ethereum",
  "devdoc": {
    "methods": {}
  },
  "userdoc": {
    "methods": {
      "buyMonkey(uint256)": {
        "notice": "Executes the purchase of _tokenId. Sends the funds to the seller and transfers the token using transferFrom in Monkeycontract. Emits the MarketTransaction event with txType \"Buy\". Requirement: The msg.value needs to equal the price of _tokenId Requirement: There must be an active offer for _tokenId"
      },
      "getAllTokenOnSale()": {
        "notice": "Get all tokenId's that are currently for sale. Returns an empty array if none exist."
      },
      "getOffer(uint256)": {
        "notice": "Get the details about a offer for _tokenId. Throws an error if there is no active offer for _tokenId."
      },
      "removeOffer(uint256)": {
        "notice": "Removes an existing offer. Emits the MarketTransaction event with txType \"Remove offer\" Requirement: Only the seller of _tokenId can remove an offer."
      },
      "setMonkeyContract(address)": {
        "notice": "Set the current MonkeyContract address and initialize the instance of Monkeycontract. Requirement: Only the contract owner can call."
      },
      "setOffer(uint256,uint256)": {
        "notice": "Creates a new offer for _tokenId for the price _price. Emits the MarketTransaction event with txType \"Create offer\" Requirement: Only the owner of _tokenId can create an offer. Requirement: There can only be one active offer for a token at a time. Requirement: Marketplace contract (this) needs to be an approved operator when the offer is created."
      }
    }
  }
}