{
  "contractName": "MonkeyContract",
  "abi": [
    {
      "inputs": [],
      "payable": false,
      "stateMutability": "nonpayable",
      "type": "constructor"
    },
    {
      "anonymous": false,
      "inputs": [
        {
          "indexed": true,
          "internalType": "address",
          "name": "owner",
          "type": "address"
        },
        {
          "indexed": true,
          "internalType": "address",
          "name": "approved",
          "type": "address"
        },
        {
          "indexed": true,
          "internalType": "uint256",
          "name": "tokenId",
          "type": "uint256"
        }
      ],
      "name": "Approval",
      "type": "event"
    },
    {
      "anonymous": false,
      "inputs": [
        {
          "indexed": false,
          "internalType": "address",
          "name": "owner",
          "type": "address"
        },
        {
          "indexed": false,
          "internalType": "uint256",
          "name": "tokenId",
          "type": "uint256"
        },
        {
          "indexed": false,
          "internalType": "uint256",
          "name": "parent1Id",
          "type": "uint256"
        },
        {
          "indexed": false,
          "internalType": "uint256",
          "name": "parent2Id",
          "type": "uint256"
        },
        {
          "indexed": false,
          "internalType": "uint256",
          "name": "genes",
          "type": "uint256"
        }
      ],
      "name": "MonkeyCreated",
      "type": "event"
    },
    {
      "anonymous": false,
      "inputs": [
        {
          "indexed": false,
          "internalType": "uint256",
          "name": "tokenId",
          "type": "uint256"
        },
        {
          "indexed": false,
          "internalType": "address",
          "name": "newOwner",
          "type": "address"
        },
        {
          "indexed": false,
          "internalType": "uint256[]",
          "name": "newOwnerArrayUpdated",
          "type": "uint256[]"
        },
        {
          "indexed": false,
          "internalType": "uint256",
          "name": "positionInNewOwnersArray",
          "type": "uint256"
        }
      ],
      "name": "NewOwnerArrayUpdated",
      "type": "event"
    },
    {
      "anonymous": false,
      "inputs": [
        {
          "indexed": false,
          "internalType": "uint256",
          "name": "tokenId",
          "type": "uint256"
        },
        {
          "indexed": false,
          "internalType": "address",
          "name": "oldOwner",
          "type": "address"
        },
        {
          "indexed": false,
          "internalType": "uint256[]",
          "name": "oldOwnerArrayUpdated",
          "type": "uint256[]"
        },
        {
          "indexed": false,
          "internalType": "uint256",
          "name": "positionInOldOwnersArray",
          "type": "uint256"
        }
      ],
      "name": "OldOwnerArrayUpdated",
      "type": "event"
    },
    {
      "anonymous": false,
      "inputs": [
        {
          "indexed": true,
          "internalType": "address",
          "name": "from",
          "type": "address"
        },
        {
          "indexed": true,
          "internalType": "address",
          "name": "to",
          "type": "address"
        },
        {
          "indexed": true,
          "internalType": "uint256",
          "name": "tokenId",
          "type": "uint256"
        }
      ],
      "name": "Transfer",
      "type": "event"
    },
    {
      "constant": true,
      "inputs": [],
      "name": "GEN0_Limit",
      "outputs": [
        {
          "internalType": "uint256",
          "name": "",
          "type": "uint256"
        }
      ],
      "payable": false,
      "stateMutability": "view",
      "type": "function"
    },
    {
      "constant": true,
      "inputs": [
        {
          "internalType": "address",
          "name": "",
          "type": "address"
        },
        {
          "internalType": "uint256",
          "name": "",
          "type": "uint256"
        }
      ],
      "name": "MonkeyIdPositionsMapping",
      "outputs": [
        {
          "internalType": "uint256",
          "name": "",
          "type": "uint256"
        }
      ],
      "payable": false,
      "stateMutability": "view",
      "type": "function"
    },
    {
      "constant": true,
      "inputs": [
        {
          "internalType": "uint256",
          "name": "",
          "type": "uint256"
        }
      ],
      "name": "_MonkeyIds2CryptoMonkeyMapping",
      "outputs": [
        {
          "internalType": "uint256",
          "name": "genes",
          "type": "uint256"
        },
        {
          "internalType": "uint256",
          "name": "birthtime",
          "type": "uint256"
        },
        {
          "internalType": "uint256",
          "name": "parent1Id",
          "type": "uint256"
        },
        {
          "internalType": "uint256",
          "name": "parent2Id",
          "type": "uint256"
        },
        {
          "internalType": "uint256",
          "name": "generation",
          "type": "uint256"
        }
      ],
      "payable": false,
      "stateMutability": "view",
      "type": "function"
    },
    {
      "constant": true,
      "inputs": [
        {
          "internalType": "address",
          "name": "",
          "type": "address"
        },
        {
          "internalType": "uint256",
          "name": "",
          "type": "uint256"
        }
      ],
      "name": "_owners2tokenIdArrayMapping",
      "outputs": [
        {
          "internalType": "uint256",
          "name": "",
          "type": "uint256"
        }
      ],
      "payable": false,
      "stateMutability": "view",
      "type": "function"
    },
    {
      "constant": true,
      "inputs": [
        {
          "internalType": "uint256",
          "name": "",
          "type": "uint256"
        }
      ],
      "name": "allMonkeysArray",
      "outputs": [
        {
          "internalType": "uint256",
          "name": "genes",
          "type": "uint256"
        },
        {
          "internalType": "uint256",
          "name": "birthtime",
          "type": "uint256"
        },
        {
          "internalType": "uint256",
          "name": "parent1Id",
          "type": "uint256"
        },
        {
          "internalType": "uint256",
          "name": "parent2Id",
          "type": "uint256"
        },
        {
          "internalType": "uint256",
          "name": "generation",
          "type": "uint256"
        }
      ],
      "payable": false,
      "stateMutability": "view",
      "type": "function"
    },
    {
      "constant": true,
      "inputs": [],
      "name": "contractOwner",
      "outputs": [
        {
          "internalType": "address payable",
          "name": "",
          "type": "address"
        }
      ],
      "payable": false,
      "stateMutability": "view",
      "type": "function"
    },
    {
      "constant": true,
      "inputs": [],
      "name": "gen0amountTotal",
      "outputs": [
        {
          "internalType": "uint256",
          "name": "",
          "type": "uint256"
        }
      ],
      "payable": false,
      "stateMutability": "view",
      "type": "function"
    },
    {
      "constant": true,
      "inputs": [
        {
          "internalType": "address",
          "name": "sender",
          "type": "address"
        }
      ],
      "name": "findAllMyMonkeys",
      "outputs": [
        {
          "internalType": "uint256[]",
          "name": "",
          "type": "uint256[]"
        }
      ],
      "payable": false,
      "stateMutability": "view",
      "type": "function"
    },
    {
      "constant": false,
      "inputs": [
        {
          "internalType": "uint256",
          "name": "_genes",
          "type": "uint256"
        }
      ],
      "name": "createGen0Monkey",
      "outputs": [],
      "payable": false,
      "stateMutability": "nonpayable",
      "type": "function"
    },
    {
      "constant": true,
      "inputs": [
        {
          "internalType": "uint256",
          "name": "tokenId",
          "type": "uint256"
        }
      ],
      "name": "getMonkeyDetails",
      "outputs": [
        {
          "internalType": "uint256",
          "name": "genes",
          "type": "uint256"
        },
        {
          "internalType": "uint256",
          "name": "birthtime",
          "type": "uint256"
        },
        {
          "internalType": "uint256",
          "name": "parent1Id",
          "type": "uint256"
        },
        {
          "internalType": "uint256",
          "name": "parent2Id",
          "type": "uint256"
        },
        {
          "internalType": "uint256",
          "name": "generation",
          "type": "uint256"
        },
        {
          "internalType": "address",
          "name": "owner",
          "type": "address"
        },
        {
          "internalType": "address",
          "name": "approvedAddress",
          "type": "address"
        }
      ],
      "payable": false,
      "stateMutability": "view",
      "type": "function"
    },
    {
      "constant": false,
      "inputs": [
        {
          "internalType": "uint256",
          "name": "tokenId",
          "type": "uint256"
        },
        {
          "internalType": "address",
          "name": "allowedAddress",
          "type": "address"
        }
      ],
      "name": "approve",
      "outputs": [],
      "payable": false,
      "stateMutability": "nonpayable",
      "type": "function"
    },
    {
      "constant": true,
      "inputs": [],
      "name": "name",
      "outputs": [
        {
          "internalType": "string",
          "name": "",
          "type": "string"
        }
      ],
      "payable": false,
      "stateMutability": "view",
      "type": "function"
    },
    {
      "constant": true,
      "inputs": [],
      "name": "symbol",
      "outputs": [
        {
          "internalType": "string",
          "name": "",
          "type": "string"
        }
      ],
      "payable": false,
      "stateMutability": "view",
      "type": "function"
    },
    {
      "constant": true,
      "inputs": [],
      "name": "totalSupply",
      "outputs": [
        {
          "internalType": "uint256",
          "name": "",
          "type": "uint256"
        }
      ],
      "payable": false,
      "stateMutability": "view",
      "type": "function"
    },
    {
      "constant": true,
      "inputs": [
        {
          "internalType": "address",
          "name": "owner",
          "type": "address"
        }
      ],
      "name": "balanceOf",
      "outputs": [
        {
          "internalType": "uint256",
          "name": "",
          "type": "uint256"
        }
      ],
      "payable": false,
      "stateMutability": "view",
      "type": "function"
    },
    {
      "constant": true,
      "inputs": [
        {
          "internalType": "uint256",
          "name": "tokenId",
          "type": "uint256"
        }
      ],
      "name": "ownerOf",
      "outputs": [
        {
          "internalType": "address",
          "name": "",
          "type": "address"
        }
      ],
      "payable": false,
      "stateMutability": "view",
      "type": "function"
    },
    {
      "constant": false,
      "inputs": [
        {
          "internalType": "address",
          "name": "_to",
          "type": "address"
        },
        {
          "internalType": "uint256",
          "name": "_tokenId",
          "type": "uint256"
        }
      ],
      "name": "transfer",
      "outputs": [],
      "payable": false,
      "stateMutability": "nonpayable",
      "type": "function"
    }
  ],
  "bytecode": "0x6080604052600c6001553480156200001657600080fd5b50336000806101000a81548173ffffffffffffffffffffffffffffffffffffffff021916908373ffffffffffffffffffffffffffffffffffffffff1602179055506040518060400160405280600e81526020017f43727970746f204d6f6e6b65797300000000000000000000000000000000000081525060039080519060200190620000a4929190620000f9565b506040518060400160405280600381526020017f434d4f000000000000000000000000000000000000000000000000000000000081525060049080519060200190620000f2929190620000f9565b50620001a8565b828054600181600116156101000203166002900490600052602060002090601f016020900481019282601f106200013c57805160ff19168380011785556200016d565b828001600101855582156200016d579182015b828111156200016c5782518255916020019190600101906200014f565b5b5090506200017c919062000180565b5090565b620001a591905b80821115620001a157600081600090555060010162000187565b5090565b90565b6118b080620001b86000396000f3fe608060405234801561001057600080fd5b506004361061010b5760003560e01c806381d067fc116100a2578063ce606ee011610071578063ce606ee0146105aa578063cffe580f146105f4578063ef742fc11461068d578063f91ba674146106bb578063febe4909146106d95761010b565b806381d067fc1461041957806395d89b41146104775780639b8bf52f146104fa578063a9059cbb1461055c5761010b565b80632558e25f116100de5780632558e25f1461022d578063345a5ab7146102f15780636352211e1461035357806370a08231146103c15761010b565b806306fdde03146101105780630917cffe1461019357806318160ddd146101b15780631b417278146101cf575b600080fd5b610118610727565b6040518080602001828103825283818151815260200191508051906020019080838360005b8381101561015857808201518184015260208101905061013d565b50505050905090810190601f1680156101855780820380516001836020036101000a031916815260200191505b509250505060405180910390f35b61019b6107c9565b6040518082815260200191505060405180910390f35b6101b96107cf565b6040518082815260200191505060405180910390f35b6101fb600480360360208110156101e557600080fd5b81019080803590602001909291905050506107d9565b604051808681526020018581526020018481526020018381526020018281526020019550505050505060405180910390f35b6102596004803603602081101561024357600080fd5b810190808035906020019092919050505061081c565b604051808881526020018781526020018681526020018581526020018481526020018373ffffffffffffffffffffffffffffffffffffffff1673ffffffffffffffffffffffffffffffffffffffff1681526020018273ffffffffffffffffffffffffffffffffffffffff1673ffffffffffffffffffffffffffffffffffffffff16815260200197505050505050505060405180910390f35b61033d6004803603604081101561030757600080fd5b81019080803573ffffffffffffffffffffffffffffffffffffffff16906020019092919080359060200190929190505050610943565b6040518082815260200191505060405180910390f35b61037f6004803603602081101561036957600080fd5b8101908080359060200190929190505050610971565b604051808273ffffffffffffffffffffffffffffffffffffffff1673ffffffffffffffffffffffffffffffffffffffff16815260200191505060405180910390f35b610403600480360360208110156103d757600080fd5b81019080803573ffffffffffffffffffffffffffffffffffffffff1690602001909291905050506109ae565b6040518082815260200191505060405180910390f35b6104456004803603602081101561042f57600080fd5b81019080803590602001909291905050506109f7565b604051808681526020018581526020018481526020018381526020018281526020019550505050505060405180910390f35b61047f610a2d565b6040518080602001828103825283818151815260200191508051906020019080838360005b838110156104bf5780820151818401526020810190506104a4565b50505050905090810190601f1680156104ec5780820380516001836020036101000a031916815260200191505b509250505060405180910390f35b6105466004803603604081101561051057600080fd5b81019080803573ffffffffffffffffffffffffffffffffffffffff16906020019092919080359060200190929190505050610acf565b6040518082815260200191505060405180910390f35b6105a86004803603604081101561057257600080fd5b81019080803573ffffffffffffffffffffffffffffffffffffffff16906020019092919080359060200190929190505050610af4565b005b6105b2610be1565b604051808273ffffffffffffffffffffffffffffffffffffffff1673ffffffffffffffffffffffffffffffffffffffff16815260200191505060405180910390f35b6106366004803603602081101561060a57600080fd5b81019080803573ffffffffffffffffffffffffffffffffffffffff169060200190929190505050610c06565b6040518080602001828103825283818151815260200191508051906020019060200280838360005b8381101561067957808201518184015260208101905061065e565b505050509050019250505060405180910390f35b6106b9600480360360208110156106a357600080fd5b8101908080359060200190929190505050610c9d565b005b6106c3610d3d565b6040518082815260200191505060405180910390f35b610725600480360360408110156106ef57600080fd5b8101908080359060200190929190803573ffffffffffffffffffffffffffffffffffffffff169060200190929190505050610d43565b005b606060038054600181600116156101000203166002900480601f0160208091040260200160405190810160405280929190818152602001828054600181600116156101000203166002900480156107bf5780601f10610794576101008083540402835291602001916107bf565b820191906000526020600020905b8154815290600101906020018083116107a257829003601f168201915b5050505050905090565b60025481565b6000600554905090565b600981815481106107e657fe5b90600052602060002090600502016000915090508060000154908060010154908060020154908060030154908060040154905085565b60008060008060008060006009888154811061083457fe5b9060005260206000209060050201600001546009898154811061085357fe5b90600052602060002090600502016001015460098a8154811061087257fe5b90600052602060002090600502016002015460098b8154811061089157fe5b90600052602060002090600502016003015460098c815481106108b057fe5b906000526020600020906005020160040154600760008e815260200190815260200160002060009054906101000a900473ffffffffffffffffffffffffffffffffffffffff16600860008f815260200190815260200160002060009054906101000a900473ffffffffffffffffffffffffffffffffffffffff169650965096509650965096509650919395979092949650565b600c602052816000526040600020818154811061095c57fe5b90600052602060002001600091509150505481565b60006007600083815260200190815260200160002060009054906101000a900473ffffffffffffffffffffffffffffffffffffffff169050919050565b6000600660008373ffffffffffffffffffffffffffffffffffffffff1673ffffffffffffffffffffffffffffffffffffffff168152602001908152602001600020549050919050565b600a6020528060005260406000206000915090508060000154908060010154908060020154908060030154908060040154905085565b606060048054600181600116156101000203166002900480601f016020809104026020016040519081016040528092919081815260200182805460018160011615610100020316600290048015610ac55780601f10610a9a57610100808354040283529160200191610ac5565b820191906000526020600020905b815481529060010190602001808311610aa857829003601f168201915b5050505050905090565b600b602052816000526040600020602052806000526040600020600091509150505481565b600073ffffffffffffffffffffffffffffffffffffffff168273ffffffffffffffffffffffffffffffffffffffff161415610b2e57600080fd5b3073ffffffffffffffffffffffffffffffffffffffff168273ffffffffffffffffffffffffffffffffffffffff161415610b6757600080fd5b3373ffffffffffffffffffffffffffffffffffffffff166007600083815260200190815260200160002060009054906101000a900473ffffffffffffffffffffffffffffffffffffffff1673ffffffffffffffffffffffffffffffffffffffff1614610bd257600080fd5b610bdd338383610e5f565b5050565b6000809054906101000a900473ffffffffffffffffffffffffffffffffffffffff1681565b6060600c60008373ffffffffffffffffffffffffffffffffffffffff1673ffffffffffffffffffffffffffffffffffffffff168152602001908152602001600020805480602002602001604051908101604052809291908181526020018280548015610c9157602002820191906000526020600020905b815481526020019060010190808311610c7d575b50505050509050919050565b6000809054906101000a900473ffffffffffffffffffffffffffffffffffffffff1673ffffffffffffffffffffffffffffffffffffffff163373ffffffffffffffffffffffffffffffffffffffff1614610cf657600080fd5b60015460025410610d0657600080fd5b600260008154809291906001019190505550610d2760008060008433611581565b5060056000815480929190600101919050555050565b60015481565b3373ffffffffffffffffffffffffffffffffffffffff166007600084815260200190815260200160002060009054906101000a900473ffffffffffffffffffffffffffffffffffffffff1673ffffffffffffffffffffffffffffffffffffffff1614610dae57600080fd5b818173ffffffffffffffffffffffffffffffffffffffff163373ffffffffffffffffffffffffffffffffffffffff167f8c5be1e5ebec7d5bd14f71427d1e84f3dd0314c0f7b2291e5b200ac8c7c3b92560405160405180910390a4806008600084815260200190815260200160002060006101000a81548173ffffffffffffffffffffffffffffffffffffffff021916908373ffffffffffffffffffffffffffffffffffffffff1602179055505050565b6008600082815260200190815260200160002060006101000a81549073ffffffffffffffffffffffffffffffffffffffff0219169055816007600083815260200190815260200160002060006101000a81548173ffffffffffffffffffffffffffffffffffffffff021916908373ffffffffffffffffffffffffffffffffffffffff160217905550610f3a6001600660008573ffffffffffffffffffffffffffffffffffffffff1673ffffffffffffffffffffffffffffffffffffffff168152602001908152602001600020546116ba90919063ffffffff16565b600660008473ffffffffffffffffffffffffffffffffffffffff1673ffffffffffffffffffffffffffffffffffffffff16815260200190815260200160002081905550600073ffffffffffffffffffffffffffffffffffffffff168373ffffffffffffffffffffffffffffffffffffffff1614611048576110046001600660008673ffffffffffffffffffffffffffffffffffffffff1673ffffffffffffffffffffffffffffffffffffffff1681526020019081526020016000205461174290919063ffffffff16565b600660008573ffffffffffffffffffffffffffffffffffffffff1673ffffffffffffffffffffffffffffffffffffffff168152602001908152602001600020819055505b600c60008373ffffffffffffffffffffffffffffffffffffffff1673ffffffffffffffffffffffffffffffffffffffff1681526020019081526020016000208190806001815401808255809150509060018203906000526020600020016000909192909190915055506001600c60008473ffffffffffffffffffffffffffffffffffffffff1673ffffffffffffffffffffffffffffffffffffffff1681526020019081526020016000208054905003600b60008473ffffffffffffffffffffffffffffffffffffffff1673ffffffffffffffffffffffffffffffffffffffff1681526020019081526020016000206000838152602001908152602001600020819055507f340dc1d165fdba5727f7a7ab57494d3f76b0878a25a27ae4d94815df4cc106538183600c60008673ffffffffffffffffffffffffffffffffffffffff1673ffffffffffffffffffffffffffffffffffffffff168152602001908152602001600020600b60008773ffffffffffffffffffffffffffffffffffffffff1673ffffffffffffffffffffffffffffffffffffffff168152602001908152602001600020600086815260200190815260200160002054604051808581526020018473ffffffffffffffffffffffffffffffffffffffff1673ffffffffffffffffffffffffffffffffffffffff16815260200180602001838152602001828103825284818154815260200191508054801561128157602002820191906000526020600020905b81548152602001906001019080831161126d575b50509550505050505060405180910390a16000600c60008573ffffffffffffffffffffffffffffffffffffffff1673ffffffffffffffffffffffffffffffffffffffff16815260200190815260200160002080549050101561138657600c60008473ffffffffffffffffffffffffffffffffffffffff1673ffffffffffffffffffffffffffffffffffffffff168152602001908152602001600020600b60008573ffffffffffffffffffffffffffffffffffffffff1673ffffffffffffffffffffffffffffffffffffffff1681526020019081526020016000206000838152602001908152602001600020548154811061137757fe5b90600052602060002001600090555b600b60008473ffffffffffffffffffffffffffffffffffffffff1673ffffffffffffffffffffffffffffffffffffffff1681526020019081526020016000206000828152602001908152602001600020600090557f578e33555db4968d0110b8ece9edc5c1518f8c7c37c09ba78e658fcd6b51309a8184600c60008773ffffffffffffffffffffffffffffffffffffffff1673ffffffffffffffffffffffffffffffffffffffff168152602001908152602001600020600b60008873ffffffffffffffffffffffffffffffffffffffff1673ffffffffffffffffffffffffffffffffffffffff168152602001908152602001600020600086815260200190815260200160002054604051808581526020018473ffffffffffffffffffffffffffffffffffffffff1673ffffffffffffffffffffffffffffffffffffffff16815260200180602001838152602001828103825284818154815260200191508054801561151057602002820191906000526020600020905b8154815260200190600101908083116114fc575b50509550505050505060405180910390a1808273ffffffffffffffffffffffffffffffffffffffff168473ffffffffffffffffffffffffffffffffffffffff167fddf252ad1be2c89b69c2b068fc378daa952ba7f163c4a11628f55a4df523b3ef60405160405180910390a4505050565b600061158b61184c565b6040518060a001604052808581526020014281526020018881526020018781526020018681525090506000600160098390806001815401808255809150509060018203906000526020600020906005020160009091929091909150600082015181600001556020820151816001015560408201518160020155606082015181600301556080820151816004015550500390507f0b1e9a74eeaae184646d7a35062426460c8c9364005c6d441cce036dd9c655d584828a8a89604051808673ffffffffffffffffffffffffffffffffffffffff1673ffffffffffffffffffffffffffffffffffffffff1681526020018581526020018481526020018381526020018281526020019550505050505060405180910390a16116ac60008583610e5f565b809250505095945050505050565b600080828401905083811015611738576040517f08c379a000000000000000000000000000000000000000000000000000000000815260040180806020018281038252601b8152602001807f536166654d6174683a206164646974696f6e206f766572666c6f77000000000081525060200191505060405180910390fd5b8091505092915050565b600061178483836040518060400160405280601e81526020017f536166654d6174683a207375627472616374696f6e206f766572666c6f77000081525061178c565b905092915050565b6000838311158290611839576040517f08c379a00000000000000000000000000000000000000000000000000000000081526004018080602001828103825283818151815260200191508051906020019080838360005b838110156117fe5780820151818401526020810190506117e3565b50505050905090810190601f16801561182b5780820380516001836020036101000a031916815260200191505b509250505060405180910390fd5b5060008385039050809150509392505050565b6040518060a001604052806000815260200160008152602001600081526020016000815260200160008152509056fea265627a7a72315820489ee03c8df2a1f4b1b6b46373a1952959d3d49fe0842e0b613d607799f6367a64736f6c634300050c0032",
  "source": "pragma solidity 0.5.12;\r\n\r\n// preparing for some functions to be restricted   - not used?\r\nimport \"./Ownable.sol\";\r\n\r\n// using safemath to rule out over- and underflow and such  - seems done\r\nimport \"./Safemath.sol\";\r\n\r\n// importing ERC721 token standard interface, all functions need to be fully created  - seems done?\r\nimport \"./IERC721.sol\";\r\n\r\ncontract MonkeyContract is IERC721, Ownable {\r\n    // using safemath, now should use uint256 for all numbers  - seems done\r\n    using SafeMath for uint256;\r\n\r\n    // State variables\r\n\r\n    uint256 public GEN0_Limit = 12;\r\n    uint256 public gen0amountTotal;\r\n\r\n    // 1 name to store - will be queried by name function  - seems done\r\n    string private _name;\r\n\r\n    // 1 symbol to store - will be queried by symbol function - seems done\r\n    string private _symbol;\r\n\r\n    // storing the totalSupply - will be queried by totalSupply function\r\n    // - needs to be updated via a real mint function later (connect to Monkey Factory) - seems done for now\r\n    uint256 private _totalSupply;\r\n\r\n    // this struct is the blueprint for new CMOs. They will be created from it\r\n    struct CryptoMonkey {\r\n        uint256 genes;\r\n        uint256 birthtime;\r\n        uint256 parent1Id;\r\n        uint256 parent2Id;\r\n        uint256 generation;\r\n    }\r\n\r\n    // a mapping to store each address's number of Crypto Monkeys - will be queried by balanceOf function\r\n    // - must update at minting (seems done) and transfer (seems done)\r\n    mapping(address => uint256) private _numberOfCMOsOfAddressMapping;\r\n\r\n    // mapping of all the tokenIds and their ownerssss - will be queried by ownerOf function - seems done\r\n    mapping(uint256 => address) private _monkeyIdsAndTheirOwnersMapping;\r\n\r\n    // mapping of the allowed addresses for a piece - entry must be deleted when CMO is transfered - seems done\r\n    mapping(uint256 => address) private _CMO2AllowedAddressMapping;\r\n\r\n    // This array holds all CryptoMonkeys that exist in an array. Their position in that array IS their tokenId.\r\n    // they never get deleted here, array only grows and keeps track of them all.\r\n    CryptoMonkey[] public allMonkeysArray;\r\n\r\n    // each tokenId points to one CryptoMonkey struct\r\n    // - will be queried by ownerOf function - work on XXX\r\n    // trying to use CryptoMonkey as a data type\r\n    // must get transferable features\r\n    mapping(uint256 => CryptoMonkey) public _MonkeyIds2CryptoMonkeyMapping;\r\n\r\n    // here we map the owners to a mapping, in which we map the tokenId they own to the position of that tokenId in the owner's array\r\n    // owner 2 tokenid 2 position in this array: _owners2tokenIdArrayMapping\r\n    mapping(address => mapping(uint256 => uint256))\r\n        public MonkeyIdPositionsMapping;\r\n\r\n    // maps owner to an array that holds all their tokenIds - must be updated (at transfers etc.),\r\n    // tokenId positions are saved in another mapping (MonkeyIdPositionsMapping)\r\n    mapping(address => uint256[]) public _owners2tokenIdArrayMapping;\r\n\r\n    /*\r\n  // retrieves the correct CryptoMonkey struct from the monkeys Array and adds it to \r\n  function addMonkeyToOwnersCollection(address _owner,  uint256 _tokenId) internal {\r\n    _owners2MappingOfMonkeyIds2CryptoMonkeyMapping[_owner][_tokenId] = allMonkeysArray[_tokenId];\r\n  }\r\n  */\r\n\r\n    //- work on XXX\r\n    function findAllMyMonkeys(address sender) public view returns (uint256[] memory) {\r\n       \r\n        return _owners2tokenIdArrayMapping[sender];\r\n    }\r\n\r\n    /* older, now probably better \r\n // mapping each owner address to an array, that holds all their tokenIds - will be queried by ownerOf function - work on\r\n  mapping (address => uint256[]) private _owners2monkeyIdsArrayMapping;\r\n\r\n\r\n  function add(uint256 _tokenId) public {\r\n    _owners2monkeyIdsArray[id].push(Foo(_tokenId));\r\n  }\r\n  */\r\n\r\n    // Events\r\n\r\n    // Transfer event, emit after successful transfer with these parameters  - seems done - why indexed? what does it mean, do I need that?\r\n    event Transfer(\r\n        address indexed from,\r\n        address indexed to,\r\n        uint256 indexed tokenId\r\n    );\r\n\r\n    // Approval event, emit after successful approval with these parameters  - implement \"you can transfer my CMO - functionality\"\r\n    event Approval(\r\n        address indexed owner,\r\n        address indexed approved,\r\n        uint256 indexed tokenId\r\n    );\r\n\r\n    // Creation event, emit after successful CMO creation with these parameters  -  seems done\r\n    event MonkeyCreated(\r\n        address owner,\r\n        uint256 tokenId,\r\n        uint256 parent1Id,\r\n        uint256 parent2Id,\r\n        uint256 genes\r\n    );\r\n\r\n    // XXX\r\n    event NewOwnerArrayUpdated(\r\n        uint256 tokenId,\r\n        address newOwner,\r\n        uint256[] newOwnerArrayUpdated,\r\n        uint256 positionInNewOwnersArray\r\n    );\r\n    // XXX\r\n    event OldOwnerArrayUpdated(\r\n        uint256 tokenId,\r\n        address oldOwner,\r\n        uint256[] oldOwnerArrayUpdated,\r\n        uint256 positionInOldOwnersArray\r\n    );\r\n\r\n    /*\r\n // XXX tokenId, oldOwner, oldOwnerArrayUpdated , oldMonkeyPositionSetTo\r\n    emit OldOwnerArrayUpdated(_tokenId, _from, _owners2tokenIdArrayMapping[_from], MonkeyIdPositionsMapping[_from][_tokenId]);\r\n  \r\n\r\n  \r\n    // XXX tokenId, newOwner, newOwnerArrayUpdated, newMonkeyPositionSetTo\r\n    emit NewOwnerArrayUpdated (_tokenId, _to, _owners2tokenIdArrayMapping[_to], MonkeyIdPositionsMapping[_to][_tokenId]);\r\n*/\r\n\r\n    // Constructor function, is setting _name, and _symbol - seems done\r\n\r\n    constructor() public {\r\n        _name = \"Crypto Monkeys\";\r\n        _symbol = \"CMO\";\r\n    }\r\n\r\n    // Functions\r\n\r\n    function createGen0Monkey(uint256 _genes) public onlyOwner {\r\n        require(gen0amountTotal < GEN0_Limit);\r\n\r\n        gen0amountTotal++;\r\n\r\n        _createMonkey(0, 0, 0, _genes, msg.sender);\r\n\r\n        _totalSupply++;\r\n    }\r\n\r\n    // this function is going to be used for creating gen0 monkeys and also for creating monkeys from combining monkeys, returns monkey ID (tokenId?) - connect / fix / finish\r\n    function _createMonkey(\r\n        uint256 _parent1Id,\r\n        uint256 _parent2Id,\r\n        uint256 _generation,\r\n        uint256 _genes,\r\n        address _owner\r\n    ) private returns (uint256) {\r\n        // uses the CryptoMonkey struct as template and creates a newMonkey from it\r\n        CryptoMonkey memory newMonkey = CryptoMonkey({\r\n            parent1Id: uint256(_parent1Id),\r\n            parent2Id: uint256(_parent2Id),\r\n            generation: uint256(_generation),\r\n            genes: _genes,\r\n            birthtime: uint256(now)\r\n        });\r\n\r\n        // the push function returns the length of the array, so we use that directly and save it as the ID, starting with 0\r\n        uint256 newMonkeyId = allMonkeysArray.push(newMonkey) - 1;\r\n\r\n        // emitting before the action\r\n        emit MonkeyCreated(_owner, newMonkeyId, _parent1Id, _parent2Id, _genes);\r\n\r\n        _transferCallfromInside(address(0), _owner, newMonkeyId);\r\n\r\n        /*\r\n    // under construction XXX\r\n    addMonkeyToOwnersCollection(_owner, newMonkeyId){\r\n    };\r\n    */\r\n\r\n        return newMonkeyId;\r\n    }\r\n\r\n    function getMonkeyDetails(uint256 tokenId)\r\n        public\r\n        view\r\n        returns (\r\n            uint256 genes,\r\n            uint256 birthtime,\r\n            uint256 parent1Id,\r\n            uint256 parent2Id,\r\n            uint256 generation,\r\n            address owner,\r\n            address approvedAddress\r\n        )\r\n    {\r\n        return (\r\n            allMonkeysArray[tokenId].genes,\r\n            allMonkeysArray[tokenId].birthtime,\r\n            allMonkeysArray[tokenId].parent1Id,\r\n            allMonkeysArray[tokenId].parent2Id,\r\n            allMonkeysArray[tokenId].generation,\r\n            _monkeyIdsAndTheirOwnersMapping[tokenId],\r\n            _CMO2AllowedAddressMapping[tokenId]\r\n        );\r\n    }\r\n\r\n    // allows another address to take / move your CMO\r\n    function approve(uint256 tokenId, address allowedAddress) public {\r\n        // requires that the msg.sender is the owner of the CMO to be moved\r\n        require(_monkeyIdsAndTheirOwnersMapping[tokenId] == msg.sender);\r\n\r\n        // emitting before the action\r\n        emit Approval(msg.sender, allowedAddress, tokenId);\r\n\r\n        // stores the allowed address into the mapping for it, with the monkey being the key\r\n        _CMO2AllowedAddressMapping[tokenId] = allowedAddress;\r\n    }\r\n\r\n    // Returns the name of the token. - seems done\r\n    function name() external view returns (string memory) {\r\n        return _name;\r\n    }\r\n\r\n    // Returns the symbol of the token. - seems done\r\n    function symbol() external view returns (string memory) {\r\n        return _symbol;\r\n    }\r\n\r\n    // query the totalSupply - seems done\r\n    function totalSupply() external view returns (uint256) {\r\n        return _totalSupply;\r\n    }\r\n\r\n    // Returns the number of tokens in \"owner\" 's account. - seems done\r\n    function balanceOf(address owner) external view returns (uint256) {\r\n        return _numberOfCMOsOfAddressMapping[owner];\r\n    }\r\n\r\n    // returns the owner of given tokenId, which is stored in the _monkeyIdsAndTheirOwnersMapping at the [tokenId] position - seems done\r\n    function ownerOf(uint256 tokenId) external view returns (address) {\r\n        return _monkeyIdsAndTheirOwnersMapping[tokenId];\r\n    }\r\n\r\n    function transfer(address _to, uint256 _tokenId) external {\r\n        //`to` cannot be the zero address.\r\n        require(_to != address(0));\r\n\r\n        // to` can not be the contract address.\r\n        require(_to != address(this));\r\n\r\n        // `tokenId` token must be owned by `msg.sender`\r\n        require(_monkeyIdsAndTheirOwnersMapping[_tokenId] == msg.sender);\r\n\r\n        _transferCallfromInside(msg.sender, _to, _tokenId);\r\n    }\r\n\r\n    function _transferCallfromInside(\r\n        address _from,\r\n        address _to,\r\n        uint256 _tokenId\r\n    ) internal {\r\n        // deleting any allowed address for the transfered CMO\r\n        delete _CMO2AllowedAddressMapping[_tokenId];\r\n\r\n        // transferring, i.e. changing ownership entry in the _monkeyIdsAndTheirOwnersMapping for the tokenId\r\n        _monkeyIdsAndTheirOwnersMapping[_tokenId] = _to;\r\n\r\n        // updating \"balance\" of address in _numberOfCMOsOfAddressMapping, 'to' address has 1 CMO more\r\n        _numberOfCMOsOfAddressMapping[_to] = _numberOfCMOsOfAddressMapping[_to]\r\n            .add(1);\r\n\r\n        // updating \"balance\" of address in _numberOfCMOsOfAddressMapping, sender has 1 CMO less\r\n\r\n        if (_from != address(0)) {\r\n            _numberOfCMOsOfAddressMapping[_from] = _numberOfCMOsOfAddressMapping[_from]\r\n                .sub(1);\r\n        }\r\n\r\n        // saving tokenId to new owner's array in the mapping for all owners\r\n        _owners2tokenIdArrayMapping[_to].push(_tokenId);\r\n\r\n        // inside the global mapping for positions, under the new owner, under the tokenId, we save the position\r\n        // that this tokenId has in the other array (_owners2tokenIdArrayMapping), by measuring that arrays length, after adding to it, than sub 1\r\n        // that means owner's first monkey will be in position 0\r\n        MonkeyIdPositionsMapping[_to][_tokenId] =\r\n            _owners2tokenIdArrayMapping[_to].length -\r\n            1;\r\n\r\n        // XXX tokenId, newOwner, newOwnerArrayUpdated, newMonkeyPositionSetTo\r\n        emit NewOwnerArrayUpdated(\r\n            _tokenId,\r\n            _to,\r\n            _owners2tokenIdArrayMapping[_to],\r\n            MonkeyIdPositionsMapping[_to][_tokenId]\r\n        );\r\n\r\n        \r\n        // deleting the tokenId from the old owners array of monkeys\r\n        if ((_owners2tokenIdArrayMapping[_from]).length <0 ){\r\n            delete _owners2tokenIdArrayMapping[_from][MonkeyIdPositionsMapping[_from][_tokenId]];\r\n        }        \r\n        \r\n\r\n        // deleting the saved index position, since old address is not longer owner\r\n        delete MonkeyIdPositionsMapping[_from][_tokenId];\r\n\r\n        // XXX tokenId, oldOwner, oldOwnerArrayUpdated , oldMonkeyPositionSetTo\r\n        emit OldOwnerArrayUpdated(\r\n            _tokenId,\r\n            _from,\r\n            _owners2tokenIdArrayMapping[_from],\r\n            MonkeyIdPositionsMapping[_from][_tokenId]\r\n        );\r\n\r\n        emit Transfer(_from, _to, _tokenId);\r\n    }\r\n}\r\n",
  "sourcePath": "D:\\8 Github\\CryptoMonkeys\\contracts\\Monkeycontract.sol",
  "compiler": {
    "name": "solc",
    "version": "0.5.12+commit.7709ece9.Emscripten.clang"
  },
  "schemaVersion": "3.2.0",
  "updatedAt": "2020-12-03T21:49:16.960Z",
  "networkType": "ethereum",
  "devdoc": {
    "methods": {}
  },
  "userdoc": {
    "methods": {}
  }
}