{
  "contractName": "MonkeyContract",
  "abi": [
    {
      "inputs": [],
      "payable": false,
      "stateMutability": "nonpayable",
      "type": "constructor"
    },
    {
      "anonymous": false,
      "inputs": [
        {
          "indexed": true,
          "internalType": "address",
          "name": "owner",
          "type": "address"
        },
        {
          "indexed": true,
          "internalType": "address",
          "name": "approved",
          "type": "address"
        },
        {
          "indexed": true,
          "internalType": "uint256",
          "name": "tokenId",
          "type": "uint256"
        }
      ],
      "name": "Approval",
      "type": "event"
    },
    {
      "anonymous": false,
      "inputs": [
        {
          "indexed": true,
          "internalType": "address",
          "name": "owner",
          "type": "address"
        },
        {
          "indexed": true,
          "internalType": "address",
          "name": "operator",
          "type": "address"
        },
        {
          "indexed": false,
          "internalType": "bool",
          "name": "approved",
          "type": "bool"
        }
      ],
      "name": "ApprovalForAll",
      "type": "event"
    },
    {
      "anonymous": false,
      "inputs": [
        {
          "indexed": false,
          "internalType": "uint256",
          "name": "genes",
          "type": "uint256"
        },
        {
          "indexed": false,
          "internalType": "uint256",
          "name": "birthtime",
          "type": "uint256"
        },
        {
          "indexed": false,
          "internalType": "uint256",
          "name": "parent1Id",
          "type": "uint256"
        },
        {
          "indexed": false,
          "internalType": "uint256",
          "name": "parent2Id",
          "type": "uint256"
        },
        {
          "indexed": false,
          "internalType": "uint256",
          "name": "generation",
          "type": "uint256"
        },
        {
          "indexed": false,
          "internalType": "address",
          "name": "owner",
          "type": "address"
        },
        {
          "indexed": false,
          "internalType": "address",
          "name": "approvedAddress",
          "type": "address"
        }
      ],
      "name": "BreedingSuccessful",
      "type": "event"
    },
    {
      "anonymous": false,
      "inputs": [
        {
          "indexed": false,
          "internalType": "address",
          "name": "owner",
          "type": "address"
        },
        {
          "indexed": false,
          "internalType": "uint256",
          "name": "tokenId",
          "type": "uint256"
        },
        {
          "indexed": false,
          "internalType": "uint256",
          "name": "parent1Id",
          "type": "uint256"
        },
        {
          "indexed": false,
          "internalType": "uint256",
          "name": "parent2Id",
          "type": "uint256"
        },
        {
          "indexed": false,
          "internalType": "uint256",
          "name": "genes",
          "type": "uint256"
        }
      ],
      "name": "MonkeyCreated",
      "type": "event"
    },
    {
      "anonymous": false,
      "inputs": [
        {
          "indexed": false,
          "internalType": "address",
          "name": "transferringAddress",
          "type": "address"
        },
        {
          "indexed": false,
          "internalType": "address",
          "name": "oldOwner",
          "type": "address"
        },
        {
          "indexed": false,
          "internalType": "uint256",
          "name": "tokenId",
          "type": "uint256"
        },
        {
          "indexed": false,
          "internalType": "address",
          "name": "newOwner",
          "type": "address"
        },
        {
          "indexed": false,
          "internalType": "uint256[]",
          "name": "newOwnerArrayUpdated",
          "type": "uint256[]"
        },
        {
          "indexed": false,
          "internalType": "uint256",
          "name": "positionInNewOwnersArray",
          "type": "uint256"
        }
      ],
      "name": "NewOwnerArrayUpdated",
      "type": "event"
    },
    {
      "anonymous": false,
      "inputs": [
        {
          "indexed": false,
          "internalType": "uint256",
          "name": "tokenId",
          "type": "uint256"
        },
        {
          "indexed": false,
          "internalType": "address",
          "name": "oldOwner",
          "type": "address"
        },
        {
          "indexed": false,
          "internalType": "uint256[]",
          "name": "oldOwnerArrayUpdated",
          "type": "uint256[]"
        }
      ],
      "name": "OldOwnerArrayUpdated",
      "type": "event"
    },
    {
      "anonymous": false,
      "inputs": [
        {
          "indexed": true,
          "internalType": "address",
          "name": "from",
          "type": "address"
        },
        {
          "indexed": true,
          "internalType": "address",
          "name": "to",
          "type": "address"
        },
        {
          "indexed": true,
          "internalType": "uint256",
          "name": "tokenId",
          "type": "uint256"
        }
      ],
      "name": "Transfer",
      "type": "event"
    },
    {
      "constant": true,
      "inputs": [],
      "name": "GEN0_Limit",
      "outputs": [
        {
          "internalType": "uint256",
          "name": "",
          "type": "uint256"
        }
      ],
      "payable": false,
      "stateMutability": "view",
      "type": "function"
    },
    {
      "constant": true,
      "inputs": [
        {
          "internalType": "address",
          "name": "",
          "type": "address"
        },
        {
          "internalType": "uint256",
          "name": "",
          "type": "uint256"
        }
      ],
      "name": "MonkeyIdPositionsMapping",
      "outputs": [
        {
          "internalType": "uint256",
          "name": "",
          "type": "uint256"
        }
      ],
      "payable": false,
      "stateMutability": "view",
      "type": "function"
    },
    {
      "constant": true,
      "inputs": [
        {
          "internalType": "address",
          "name": "",
          "type": "address"
        },
        {
          "internalType": "uint256",
          "name": "",
          "type": "uint256"
        }
      ],
      "name": "_owners2tokenIdArrayMapping",
      "outputs": [
        {
          "internalType": "uint256",
          "name": "",
          "type": "uint256"
        }
      ],
      "payable": false,
      "stateMutability": "view",
      "type": "function"
    },
    {
      "constant": true,
      "inputs": [
        {
          "internalType": "uint256",
          "name": "",
          "type": "uint256"
        }
      ],
      "name": "allMonkeysArray",
      "outputs": [
        {
          "internalType": "uint256",
          "name": "parent1Id",
          "type": "uint256"
        },
        {
          "internalType": "uint256",
          "name": "parent2Id",
          "type": "uint256"
        },
        {
          "internalType": "uint256",
          "name": "generation",
          "type": "uint256"
        },
        {
          "internalType": "uint256",
          "name": "genes",
          "type": "uint256"
        },
        {
          "internalType": "uint256",
          "name": "birthtime",
          "type": "uint256"
        }
      ],
      "payable": false,
      "stateMutability": "view",
      "type": "function"
    },
    {
      "constant": true,
      "inputs": [],
      "name": "contractOwner",
      "outputs": [
        {
          "internalType": "address payable",
          "name": "",
          "type": "address"
        }
      ],
      "payable": false,
      "stateMutability": "view",
      "type": "function"
    },
    {
      "constant": true,
      "inputs": [],
      "name": "gen0amountTotal",
      "outputs": [
        {
          "internalType": "uint256",
          "name": "",
          "type": "uint256"
        }
      ],
      "payable": false,
      "stateMutability": "view",
      "type": "function"
    },
    {
      "constant": true,
      "inputs": [
        {
          "internalType": "address",
          "name": "",
          "type": "address"
        },
        {
          "internalType": "address",
          "name": "",
          "type": "address"
        }
      ],
      "name": "operatorApprovalsMapping",
      "outputs": [
        {
          "internalType": "bool",
          "name": "",
          "type": "bool"
        }
      ],
      "payable": false,
      "stateMutability": "view",
      "type": "function"
    },
    {
      "constant": true,
      "inputs": [],
      "name": "totalSupply",
      "outputs": [
        {
          "internalType": "uint256",
          "name": "",
          "type": "uint256"
        }
      ],
      "payable": false,
      "stateMutability": "view",
      "type": "function"
    },
    {
      "constant": true,
      "inputs": [],
      "name": "getMonkeyContractAddress",
      "outputs": [
        {
          "internalType": "address",
          "name": "",
          "type": "address"
        }
      ],
      "payable": false,
      "stateMutability": "view",
      "type": "function"
    },
    {
      "constant": true,
      "inputs": [
        {
          "internalType": "bytes4",
          "name": "_interfaceId",
          "type": "bytes4"
        }
      ],
      "name": "supportsInterface",
      "outputs": [
        {
          "internalType": "bool",
          "name": "",
          "type": "bool"
        }
      ],
      "payable": false,
      "stateMutability": "view",
      "type": "function"
    },
    {
      "constant": false,
      "inputs": [
        {
          "internalType": "uint256",
          "name": "_parent1Id",
          "type": "uint256"
        },
        {
          "internalType": "uint256",
          "name": "_parent2Id",
          "type": "uint256"
        }
      ],
      "name": "breed",
      "outputs": [
        {
          "internalType": "uint256",
          "name": "",
          "type": "uint256"
        }
      ],
      "payable": false,
      "stateMutability": "nonpayable",
      "type": "function"
    },
    {
      "constant": true,
      "inputs": [
        {
          "internalType": "address",
          "name": "sender",
          "type": "address"
        }
      ],
      "name": "findMonkeyIdsOfAddress",
      "outputs": [
        {
          "internalType": "uint256[]",
          "name": "",
          "type": "uint256[]"
        }
      ],
      "payable": false,
      "stateMutability": "view",
      "type": "function"
    },
    {
      "constant": false,
      "inputs": [
        {
          "internalType": "uint256",
          "name": "_genes",
          "type": "uint256"
        }
      ],
      "name": "createGen0Monkey",
      "outputs": [],
      "payable": false,
      "stateMutability": "nonpayable",
      "type": "function"
    },
    {
      "constant": true,
      "inputs": [
        {
          "internalType": "uint256",
          "name": "_tokenId",
          "type": "uint256"
        }
      ],
      "name": "getApproved",
      "outputs": [
        {
          "internalType": "address",
          "name": "",
          "type": "address"
        }
      ],
      "payable": false,
      "stateMutability": "view",
      "type": "function"
    },
    {
      "constant": true,
      "inputs": [
        {
          "internalType": "address",
          "name": "_owner",
          "type": "address"
        },
        {
          "internalType": "address",
          "name": "_operator",
          "type": "address"
        }
      ],
      "name": "isApprovedForAll",
      "outputs": [
        {
          "internalType": "bool",
          "name": "",
          "type": "bool"
        }
      ],
      "payable": false,
      "stateMutability": "view",
      "type": "function"
    },
    {
      "constant": true,
      "inputs": [
        {
          "internalType": "uint256",
          "name": "tokenId",
          "type": "uint256"
        }
      ],
      "name": "getMonkeyDetails",
      "outputs": [
        {
          "internalType": "uint256",
          "name": "genes",
          "type": "uint256"
        },
        {
          "internalType": "uint256",
          "name": "birthtime",
          "type": "uint256"
        },
        {
          "internalType": "uint256",
          "name": "parent1Id",
          "type": "uint256"
        },
        {
          "internalType": "uint256",
          "name": "parent2Id",
          "type": "uint256"
        },
        {
          "internalType": "uint256",
          "name": "generation",
          "type": "uint256"
        },
        {
          "internalType": "address",
          "name": "owner",
          "type": "address"
        },
        {
          "internalType": "address",
          "name": "approvedAddress",
          "type": "address"
        }
      ],
      "payable": false,
      "stateMutability": "view",
      "type": "function"
    },
    {
      "constant": false,
      "inputs": [
        {
          "internalType": "address",
          "name": "_approved",
          "type": "address"
        },
        {
          "internalType": "uint256",
          "name": "_tokenId",
          "type": "uint256"
        }
      ],
      "name": "approve",
      "outputs": [],
      "payable": false,
      "stateMutability": "nonpayable",
      "type": "function"
    },
    {
      "constant": false,
      "inputs": [
        {
          "internalType": "address",
          "name": "_operator",
          "type": "address"
        },
        {
          "internalType": "bool",
          "name": "_approved",
          "type": "bool"
        }
      ],
      "name": "setApprovalForAll",
      "outputs": [],
      "payable": false,
      "stateMutability": "nonpayable",
      "type": "function"
    },
    {
      "constant": true,
      "inputs": [],
      "name": "name",
      "outputs": [
        {
          "internalType": "string",
          "name": "",
          "type": "string"
        }
      ],
      "payable": false,
      "stateMutability": "view",
      "type": "function"
    },
    {
      "constant": true,
      "inputs": [],
      "name": "symbol",
      "outputs": [
        {
          "internalType": "string",
          "name": "",
          "type": "string"
        }
      ],
      "payable": false,
      "stateMutability": "view",
      "type": "function"
    },
    {
      "constant": true,
      "inputs": [
        {
          "internalType": "address",
          "name": "owner",
          "type": "address"
        }
      ],
      "name": "balanceOf",
      "outputs": [
        {
          "internalType": "uint256",
          "name": "",
          "type": "uint256"
        }
      ],
      "payable": false,
      "stateMutability": "view",
      "type": "function"
    },
    {
      "constant": true,
      "inputs": [
        {
          "internalType": "uint256",
          "name": "tokenId",
          "type": "uint256"
        }
      ],
      "name": "ownerOf",
      "outputs": [
        {
          "internalType": "address",
          "name": "",
          "type": "address"
        }
      ],
      "payable": false,
      "stateMutability": "view",
      "type": "function"
    },
    {
      "constant": false,
      "inputs": [
        {
          "internalType": "address",
          "name": "_to",
          "type": "address"
        },
        {
          "internalType": "uint256",
          "name": "_tokenId",
          "type": "uint256"
        }
      ],
      "name": "transfer",
      "outputs": [],
      "payable": false,
      "stateMutability": "nonpayable",
      "type": "function"
    },
    {
      "constant": false,
      "inputs": [
        {
          "internalType": "address",
          "name": "_from",
          "type": "address"
        },
        {
          "internalType": "address",
          "name": "_to",
          "type": "address"
        },
        {
          "internalType": "uint256",
          "name": "_tokenId",
          "type": "uint256"
        }
      ],
      "name": "transferFrom",
      "outputs": [],
      "payable": false,
      "stateMutability": "nonpayable",
      "type": "function"
    },
    {
      "constant": false,
      "inputs": [
        {
          "internalType": "address",
          "name": "_from",
          "type": "address"
        },
        {
          "internalType": "address",
          "name": "_to",
          "type": "address"
        },
        {
          "internalType": "uint256",
          "name": "_tokenId",
          "type": "uint256"
        }
      ],
      "name": "safeTransferFrom",
      "outputs": [],
      "payable": false,
      "stateMutability": "nonpayable",
      "type": "function"
    },
    {
      "constant": false,
      "inputs": [
        {
          "internalType": "address",
          "name": "_from",
          "type": "address"
        },
        {
          "internalType": "address",
          "name": "_to",
          "type": "address"
        },
        {
          "internalType": "uint256",
          "name": "_tokenId",
          "type": "uint256"
        },
        {
          "internalType": "bytes",
          "name": "data",
          "type": "bytes"
        }
      ],
      "name": "safeTransferFrom",
      "outputs": [],
      "payable": false,
      "stateMutability": "nonpayable",
      "type": "function"
    }
  ],
  "bytecode": "0x6080604052600c6002553480156200001657600080fd5b50336000806101000a81548173ffffffffffffffffffffffffffffffffffffffff021916908373ffffffffffffffffffffffffffffffffffffffff1602179055506040518060400160405280600e81526020017f43727970746f204d6f6e6b65797300000000000000000000000000000000000081525060049080519060200190620000a492919062000c85565b506040518060400160405280600381526020017f434d4f000000000000000000000000000000000000000000000000000000000081525060059080519060200190620000f292919062000c85565b5030600160006101000a81548173ffffffffffffffffffffffffffffffffffffffff021916908373ffffffffffffffffffffffffffffffffffffffff1602179055506200018d60008060007fffffffffffffffffffffffffffffffffffffffffffffffffffffffffffffffff600160009054906101000a900473ffffffffffffffffffffffffffffffffffffffff166200024860201b60201c565b50620001e760008060007fffffffffffffffffffffffffffffffffffffffffffffffffffffffffffffffff600160009054906101000a900473ffffffffffffffffffffffffffffffffffffffff166200024860201b60201c565b506200024160008060007fffffffffffffffffffffffffffffffffffffffffffffffffffffffffffffffff600160009054906101000a900473ffffffffffffffffffffffffffffffffffffffff166200024860201b60201c565b5062000d63565b60006200025462000d0c565b6040518060a0016040528088815260200187815260200186815260200185815260200142815250905060066000815480929190600101919050555060006001600a8390806001815401808255809150509060018203906000526020600020906005020160009091929091909150600082015181600001556020820151816001015560408201518160020155606082015181600301556080820151816004015550500390507f0b1e9a74eeaae184646d7a35062426460c8c9364005c6d441cce036dd9c655d584828a8a89604051808673ffffffffffffffffffffffffffffffffffffffff1673ffffffffffffffffffffffffffffffffffffffff1681526020018581526020018481526020018381526020018281526020019550505050505060405180910390a16200039033600086846200039e60201b60201c565b809250505095945050505050565b6009600082815260200190815260200160002060006101000a81549073ffffffffffffffffffffffffffffffffffffffff0219169055816008600083815260200190815260200160002060006101000a81548173ffffffffffffffffffffffffffffffffffffffff021916908373ffffffffffffffffffffffffffffffffffffffff160217905550620004806001600760008573ffffffffffffffffffffffffffffffffffffffff1673ffffffffffffffffffffffffffffffffffffffff1681526020019081526020016000205462000ae660201b6200264f1790919060201c565b600760008473ffffffffffffffffffffffffffffffffffffffff1673ffffffffffffffffffffffffffffffffffffffff16815260200190815260200160002081905550600073ffffffffffffffffffffffffffffffffffffffff168373ffffffffffffffffffffffffffffffffffffffff16146200059657620005526001600760008673ffffffffffffffffffffffffffffffffffffffff1673ffffffffffffffffffffffffffffffffffffffff1681526020019081526020016000205462000b6f60201b620026d71790919060201c565b600760008573ffffffffffffffffffffffffffffffffffffffff1673ffffffffffffffffffffffffffffffffffffffff168152602001908152602001600020819055505b600d60008373ffffffffffffffffffffffffffffffffffffffff1673ffffffffffffffffffffffffffffffffffffffff1681526020019081526020016000208190806001815401808255809150509060018203906000526020600020016000909192909190915055506001600d60008473ffffffffffffffffffffffffffffffffffffffff1673ffffffffffffffffffffffffffffffffffffffff1681526020019081526020016000208054905003600c60008473ffffffffffffffffffffffffffffffffffffffff1673ffffffffffffffffffffffffffffffffffffffff1681526020019081526020016000206000838152602001908152602001600020819055507ff869ab5347abe3521a490c5ba94ca763cfc77a327f7a1fa74f71dcc42c950b8e84848385600d60008873ffffffffffffffffffffffffffffffffffffffff1673ffffffffffffffffffffffffffffffffffffffff168152602001908152602001600020600c60008973ffffffffffffffffffffffffffffffffffffffff1673ffffffffffffffffffffffffffffffffffffffff168152602001908152602001600020600088815260200190815260200160002054604051808773ffffffffffffffffffffffffffffffffffffffff1673ffffffffffffffffffffffffffffffffffffffff1681526020018673ffffffffffffffffffffffffffffffffffffffff1673ffffffffffffffffffffffffffffffffffffffff1681526020018581526020018473ffffffffffffffffffffffffffffffffffffffff1673ffffffffffffffffffffffffffffffffffffffff1681526020018060200183815260200182810382528481815481526020019150805480156200083757602002820191906000526020600020905b81548152602001906001019080831162000822575b505097505050505050505060405180910390a16000600d60008573ffffffffffffffffffffffffffffffffffffffff1673ffffffffffffffffffffffffffffffffffffffff1681526020019081526020016000208054905010156200094057600d60008473ffffffffffffffffffffffffffffffffffffffff1673ffffffffffffffffffffffffffffffffffffffff168152602001908152602001600020600c60008573ffffffffffffffffffffffffffffffffffffffff1673ffffffffffffffffffffffffffffffffffffffff168152602001908152602001600020600083815260200190815260200160002054815481106200093157fe5b90600052602060002001600090555b600c60008473ffffffffffffffffffffffffffffffffffffffff1673ffffffffffffffffffffffffffffffffffffffff1681526020019081526020016000206000828152602001908152602001600020600090557f50a41ae985ebc866136690c2af65d8fb8fac099df774e65765c2aa69c4a5b84b8184600d60008773ffffffffffffffffffffffffffffffffffffffff1673ffffffffffffffffffffffffffffffffffffffff168152602001908152602001600020604051808481526020018373ffffffffffffffffffffffffffffffffffffffff1673ffffffffffffffffffffffffffffffffffffffff16815260200180602001828103825283818154815260200191508054801562000a7557602002820191906000526020600020905b81548152602001906001019080831162000a60575b505094505050505060405180910390a1808273ffffffffffffffffffffffffffffffffffffffff168473ffffffffffffffffffffffffffffffffffffffff167fddf252ad1be2c89b69c2b068fc378daa952ba7f163c4a11628f55a4df523b3ef60405160405180910390a450505050565b60008082840190508381101562000b65576040517f08c379a000000000000000000000000000000000000000000000000000000000815260040180806020018281038252601b8152602001807f536166654d6174683a206164646974696f6e206f766572666c6f77000000000081525060200191505060405180910390fd5b8091505092915050565b600062000bb983836040518060400160405280601e81526020017f536166654d6174683a207375627472616374696f6e206f766572666c6f77000081525062000bc160201b60201c565b905092915050565b600083831115829062000c72576040517f08c379a00000000000000000000000000000000000000000000000000000000081526004018080602001828103825283818151815260200191508051906020019080838360005b8381101562000c3657808201518184015260208101905062000c19565b50505050905090810190601f16801562000c645780820380516001836020036101000a031916815260200191505b509250505060405180910390fd5b5060008385039050809150509392505050565b828054600181600116156101000203166002900490600052602060002090601f016020900481019282601f1062000cc857805160ff191683800117855562000cf9565b8280016001018555821562000cf9579182015b8281111562000cf857825182559160200191906001019062000cdb565b5b50905062000d08919062000d3b565b5090565b6040518060a0016040528060008152602001600081526020016000815260200160008152602001600081525090565b62000d6091905b8082111562000d5c57600081600090555060010162000d42565b5090565b90565b612a718062000d736000396000f3fe608060405234801561001057600080fd5b506004361061018e5760003560e01c806370a08231116100de578063b88d4fde11610097578063daa97fae11610071578063daa97fae14610a8a578063e985e9c514610ad4578063ef742fc114610b50578063f91ba67414610b7e5761018e565b8063b88d4fde14610931578063ce606ee0146109f4578063d9ecad7b14610a3e5761018e565b806370a08231146106da57806395d89b41146107325780639b8bf52f146107b55780639ec1542c14610817578063a22cb46514610893578063a9059cbb146108e35761018e565b80631b0a1aed1161014b5780632558e25f116101255780632558e25f146104d8578063345a5ab71461059c57806342842e0e146105fe5780636352211e1461066c5761018e565b80631b0a1aed146103735780631b4172781461040c57806323b872dd1461046a5761018e565b806301ffc9a71461019357806306fdde03146101f8578063081812fc1461027b5780630917cffe146102e9578063095ea7b31461030757806318160ddd14610355575b600080fd5b6101de600480360360208110156101a957600080fd5b8101908080357bffffffffffffffffffffffffffffffffffffffffffffffffffffffff19169060200190929190505050610b9c565b604051808215151515815260200191505060405180910390f35b610200610c3c565b6040518080602001828103825283818151815260200191508051906020019080838360005b83811015610240578082015181840152602081019050610225565b50505050905090810190601f16801561026d5780820380516001836020036101000a031916815260200191505b509250505060405180910390f35b6102a76004803603602081101561029157600080fd5b8101908080359060200190929190505050610cde565b604051808273ffffffffffffffffffffffffffffffffffffffff1673ffffffffffffffffffffffffffffffffffffffff16815260200191505060405180910390f35b6102f1610d1b565b6040518082815260200191505060405180910390f35b6103536004803603604081101561031d57600080fd5b81019080803573ffffffffffffffffffffffffffffffffffffffff16906020019092919080359060200190929190505050610d21565b005b61035d610e3d565b6040518082815260200191505060405180910390f35b6103b56004803603602081101561038957600080fd5b81019080803573ffffffffffffffffffffffffffffffffffffffff169060200190929190505050610e43565b6040518080602001828103825283818151815260200191508051906020019060200280838360005b838110156103f85780820151818401526020810190506103dd565b505050509050019250505060405180910390f35b6104386004803603602081101561042257600080fd5b8101908080359060200190929190505050610eda565b604051808681526020018581526020018481526020018381526020018281526020019550505050505060405180910390f35b6104d66004803603606081101561048057600080fd5b81019080803573ffffffffffffffffffffffffffffffffffffffff169060200190929190803573ffffffffffffffffffffffffffffffffffffffff16906020019092919080359060200190929190505050610f1d565b005b610504600480360360208110156104ee57600080fd5b8101908080359060200190929190505050610f7b565b604051808881526020018781526020018681526020018581526020018481526020018373ffffffffffffffffffffffffffffffffffffffff1673ffffffffffffffffffffffffffffffffffffffff1681526020018273ffffffffffffffffffffffffffffffffffffffff1673ffffffffffffffffffffffffffffffffffffffff16815260200197505050505050505060405180910390f35b6105e8600480360360408110156105b257600080fd5b81019080803573ffffffffffffffffffffffffffffffffffffffff169060200190929190803590602001909291905050506110a2565b6040518082815260200191505060405180910390f35b61066a6004803603606081101561061457600080fd5b81019080803573ffffffffffffffffffffffffffffffffffffffff169060200190929190803573ffffffffffffffffffffffffffffffffffffffff169060200190929190803590602001909291905050506110d0565b005b6106986004803603602081101561068257600080fd5b810190808035906020019092919050505061110a565b604051808273ffffffffffffffffffffffffffffffffffffffff1673ffffffffffffffffffffffffffffffffffffffff16815260200191505060405180910390f35b61071c600480360360208110156106f057600080fd5b81019080803573ffffffffffffffffffffffffffffffffffffffff169060200190929190505050611147565b6040518082815260200191505060405180910390f35b61073a611190565b6040518080602001828103825283818151815260200191508051906020019080838360005b8381101561077a57808201518184015260208101905061075f565b50505050905090810190601f1680156107a75780820380516001836020036101000a031916815260200191505b509250505060405180910390f35b610801600480360360408110156107cb57600080fd5b81019080803573ffffffffffffffffffffffffffffffffffffffff16906020019092919080359060200190929190505050611232565b6040518082815260200191505060405180910390f35b6108796004803603604081101561082d57600080fd5b81019080803573ffffffffffffffffffffffffffffffffffffffff169060200190929190803573ffffffffffffffffffffffffffffffffffffffff169060200190929190505050611257565b604051808215151515815260200191505060405180910390f35b6108e1600480360360408110156108a957600080fd5b81019080803573ffffffffffffffffffffffffffffffffffffffff169060200190929190803515159060200190929190505050611286565b005b61092f600480360360408110156108f957600080fd5b81019080803573ffffffffffffffffffffffffffffffffffffffff16906020019092919080359060200190929190505050611387565b005b6109f26004803603608081101561094757600080fd5b81019080803573ffffffffffffffffffffffffffffffffffffffff169060200190929190803573ffffffffffffffffffffffffffffffffffffffff16906020019092919080359060200190929190803590602001906401000000008111156109ae57600080fd5b8201836020820111156109c057600080fd5b803590602001918460018302840111640100000000831117156109e257600080fd5b90919293919293905050506115a6565b005b6109fc611611565b604051808273ffffffffffffffffffffffffffffffffffffffff1673ffffffffffffffffffffffffffffffffffffffff16815260200191505060405180910390f35b610a7460048036036040811015610a5457600080fd5b810190808035906020019092919080359060200190929190505050611636565b6040518082815260200191505060405180910390f35b610a92611901565b604051808273ffffffffffffffffffffffffffffffffffffffff1673ffffffffffffffffffffffffffffffffffffffff16815260200191505060405180910390f35b610b3660048036036040811015610aea57600080fd5b81019080803573ffffffffffffffffffffffffffffffffffffffff169060200190929190803573ffffffffffffffffffffffffffffffffffffffff16906020019092919050505061192b565b604051808215151515815260200191505060405180910390f35b610b7c60048036036020811015610b6657600080fd5b81019080803590602001909291905050506119bf565b005b610b86611a4d565b6040518082815260200191505060405180910390f35b60006380ac58cd60e01b7bffffffffffffffffffffffffffffffffffffffffffffffffffffffff1916827bffffffffffffffffffffffffffffffffffffffffffffffffffffffff19161480610c3557506301ffc9a760e01b7bffffffffffffffffffffffffffffffffffffffffffffffffffffffff1916827bffffffffffffffffffffffffffffffffffffffffffffffffffffffff1916145b9050919050565b606060048054600181600116156101000203166002900480601f016020809104026020016040519081016040528092919081815260200182805460018160011615610100020316600290048015610cd45780601f10610ca957610100808354040283529160200191610cd4565b820191906000526020600020905b815481529060010190602001808311610cb757829003601f168201915b5050505050905090565b60006009600083815260200190815260200160002060009054906101000a900473ffffffffffffffffffffffffffffffffffffffff169050919050565b60035481565b3373ffffffffffffffffffffffffffffffffffffffff166008600083815260200190815260200160002060009054906101000a900473ffffffffffffffffffffffffffffffffffffffff1673ffffffffffffffffffffffffffffffffffffffff1614610d8c57600080fd5b808273ffffffffffffffffffffffffffffffffffffffff163373ffffffffffffffffffffffffffffffffffffffff167f8c5be1e5ebec7d5bd14f71427d1e84f3dd0314c0f7b2291e5b200ac8c7c3b92560405160405180910390a4816009600083815260200190815260200160002060006101000a81548173ffffffffffffffffffffffffffffffffffffffff021916908373ffffffffffffffffffffffffffffffffffffffff1602179055505050565b60065481565b6060600d60008373ffffffffffffffffffffffffffffffffffffffff1673ffffffffffffffffffffffffffffffffffffffff168152602001908152602001600020805480602002602001604051908101604052809291908181526020018280548015610ece57602002820191906000526020600020905b815481526020019060010190808311610eba575b50505050509050919050565b600a8181548110610ee757fe5b90600052602060002090600502016000915090508060000154908060010154908060020154908060030154908060040154905085565b610f28838383611a53565b610f3157600080fd5b60006008600083815260200190815260200160002060009054906101000a900473ffffffffffffffffffffffffffffffffffffffff169050610f7533828585611ca6565b50505050565b6000806000806000806000600a8881548110610f9357fe5b906000526020600020906005020160030154600a8981548110610fb257fe5b906000526020600020906005020160040154600a8a81548110610fd157fe5b906000526020600020906005020160000154600a8b81548110610ff057fe5b906000526020600020906005020160010154600a8c8154811061100f57fe5b906000526020600020906005020160020154600860008e815260200190815260200160002060009054906101000a900473ffffffffffffffffffffffffffffffffffffffff16600960008f815260200190815260200160002060009054906101000a900473ffffffffffffffffffffffffffffffffffffffff169650965096509650965096509650919395979092949650565b600d60205281600052604060002081815481106110bb57fe5b90600052602060002001600091509150505481565b6110db838383611a53565b6110e457600080fd5b6060604051806020016040528060008152509050611104848484846123d9565b50505050565b60006008600083815260200190815260200160002060009054906101000a900473ffffffffffffffffffffffffffffffffffffffff169050919050565b6000600760008373ffffffffffffffffffffffffffffffffffffffff1673ffffffffffffffffffffffffffffffffffffffff168152602001908152602001600020549050919050565b606060058054600181600116156101000203166002900480601f0160208091040260200160405190810160405280929190818152602001828054600181600116156101000203166002900480156112285780601f106111fd57610100808354040283529160200191611228565b820191906000526020600020905b81548152906001019060200180831161120b57829003601f168201915b5050505050905090565b600c602052816000526040600020602052806000526040600020600091509150505481565b600b6020528160005260406000206020528060005260406000206000915091509054906101000a900460ff1681565b80600b60003373ffffffffffffffffffffffffffffffffffffffff1673ffffffffffffffffffffffffffffffffffffffff16815260200190815260200160002060008473ffffffffffffffffffffffffffffffffffffffff1673ffffffffffffffffffffffffffffffffffffffff16815260200190815260200160002060006101000a81548160ff0219169083151502179055508173ffffffffffffffffffffffffffffffffffffffff163373ffffffffffffffffffffffffffffffffffffffff167f17307eab39ab6107e8899845ad3d59bd9653f200f220920489ca2b5937696c3183604051808215151515815260200191505060405180910390a35050565b600073ffffffffffffffffffffffffffffffffffffffff168273ffffffffffffffffffffffffffffffffffffffff1614156113c157600080fd5b3073ffffffffffffffffffffffffffffffffffffffff168273ffffffffffffffffffffffffffffffffffffffff1614156113fa57600080fd5b60006008600083815260200190815260200160002060009054906101000a900473ffffffffffffffffffffffffffffffffffffffff1690506000600b60008373ffffffffffffffffffffffffffffffffffffffff1673ffffffffffffffffffffffffffffffffffffffff16815260200190815260200160002060003373ffffffffffffffffffffffffffffffffffffffff1673ffffffffffffffffffffffffffffffffffffffff16815260200190815260200160002060009054906101000a900460ff16905060006009600085815260200190815260200160002060009054906101000a900473ffffffffffffffffffffffffffffffffffffffff1690506000841015801561150d5750600a8054905084105b61151657600080fd5b3373ffffffffffffffffffffffffffffffffffffffff168373ffffffffffffffffffffffffffffffffffffffff161480611554575060011515821515145b8061158a57503373ffffffffffffffffffffffffffffffffffffffff168173ffffffffffffffffffffffffffffffffffffffff16145b61159357600080fd5b61159f33848787611ca6565b5050505050565b6115b1858585611a53565b6115ba57600080fd5b61160a85858585858080601f016020809104026020016040519081016040528093929190818152602001838380828437600081840152601f19601f820116905080830192505050505050506123d9565b5050505050565b6000809054906101000a900473ffffffffffffffffffffffffffffffffffffffff1681565b60006008600084815260200190815260200160002060009054906101000a900473ffffffffffffffffffffffffffffffffffffffff1673ffffffffffffffffffffffffffffffffffffffff163373ffffffffffffffffffffffffffffffffffffffff1614801561170457506008600083815260200190815260200160002060009054906101000a900473ffffffffffffffffffffffffffffffffffffffff1673ffffffffffffffffffffffffffffffffffffffff163373ffffffffffffffffffffffffffffffffffffffff16145b61170d57600080fd5b60006117198484612400565b90506000611727858561247a565b905060006117388686848633612503565b90507f4d00db992b57bd44daee04e77d8c33c74a75cc71378577319c5b5a1b448ddb40600a828154811061176857fe5b906000526020600020906005020160030154600a838154811061178757fe5b906000526020600020906005020160040154600a84815481106117a657fe5b906000526020600020906005020160000154600a85815481106117c557fe5b906000526020600020906005020160010154600a86815481106117e457fe5b9060005260206000209060050201600201546008600088815260200190815260200160002060009054906101000a900473ffffffffffffffffffffffffffffffffffffffff166009600089815260200190815260200160002060009054906101000a900473ffffffffffffffffffffffffffffffffffffffff16604051808881526020018781526020018681526020018581526020018481526020018373ffffffffffffffffffffffffffffffffffffffff1673ffffffffffffffffffffffffffffffffffffffff1681526020018273ffffffffffffffffffffffffffffffffffffffff1673ffffffffffffffffffffffffffffffffffffffff16815260200197505050505050505060405180910390a180935050505092915050565b6000600160009054906101000a900473ffffffffffffffffffffffffffffffffffffffff16905090565b6000600b60008473ffffffffffffffffffffffffffffffffffffffff1673ffffffffffffffffffffffffffffffffffffffff16815260200190815260200160002060008373ffffffffffffffffffffffffffffffffffffffff1673ffffffffffffffffffffffffffffffffffffffff16815260200190815260200160002060009054906101000a900460ff16905092915050565b6000809054906101000a900473ffffffffffffffffffffffffffffffffffffffff1673ffffffffffffffffffffffffffffffffffffffff163373ffffffffffffffffffffffffffffffffffffffff1614611a1857600080fd5b60025460035410611a2857600080fd5b600360008154809291906001019190505550611a4960008060008433612503565b5050565b60025481565b60008073ffffffffffffffffffffffffffffffffffffffff168373ffffffffffffffffffffffffffffffffffffffff161415611a8e57600080fd5b3073ffffffffffffffffffffffffffffffffffffffff168373ffffffffffffffffffffffffffffffffffffffff161415611ac757600080fd5b60008210158015611adc5750600a8054905082105b611ae557600080fd5b60006008600084815260200190815260200160002060009054906101000a900473ffffffffffffffffffffffffffffffffffffffff1690508073ffffffffffffffffffffffffffffffffffffffff168573ffffffffffffffffffffffffffffffffffffffff1614611b5557600080fd5b6000600b60008373ffffffffffffffffffffffffffffffffffffffff1673ffffffffffffffffffffffffffffffffffffffff16815260200190815260200160002060003373ffffffffffffffffffffffffffffffffffffffff1673ffffffffffffffffffffffffffffffffffffffff16815260200190815260200160002060009054906101000a900460ff16905060006009600086815260200190815260200160002060009054906101000a900473ffffffffffffffffffffffffffffffffffffffff1690503373ffffffffffffffffffffffffffffffffffffffff168373ffffffffffffffffffffffffffffffffffffffff161480611c59575060011515821515145b80611c8f57503373ffffffffffffffffffffffffffffffffffffffff168173ffffffffffffffffffffffffffffffffffffffff16145b611c9857600080fd5b600193505050509392505050565b6009600082815260200190815260200160002060006101000a81549073ffffffffffffffffffffffffffffffffffffffff0219169055816008600083815260200190815260200160002060006101000a81548173ffffffffffffffffffffffffffffffffffffffff021916908373ffffffffffffffffffffffffffffffffffffffff160217905550611d816001600760008573ffffffffffffffffffffffffffffffffffffffff1673ffffffffffffffffffffffffffffffffffffffff1681526020019081526020016000205461264f90919063ffffffff16565b600760008473ffffffffffffffffffffffffffffffffffffffff1673ffffffffffffffffffffffffffffffffffffffff16815260200190815260200160002081905550600073ffffffffffffffffffffffffffffffffffffffff168373ffffffffffffffffffffffffffffffffffffffff1614611e8f57611e4b6001600760008673ffffffffffffffffffffffffffffffffffffffff1673ffffffffffffffffffffffffffffffffffffffff168152602001908152602001600020546126d790919063ffffffff16565b600760008573ffffffffffffffffffffffffffffffffffffffff1673ffffffffffffffffffffffffffffffffffffffff168152602001908152602001600020819055505b600d60008373ffffffffffffffffffffffffffffffffffffffff1673ffffffffffffffffffffffffffffffffffffffff1681526020019081526020016000208190806001815401808255809150509060018203906000526020600020016000909192909190915055506001600d60008473ffffffffffffffffffffffffffffffffffffffff1673ffffffffffffffffffffffffffffffffffffffff1681526020019081526020016000208054905003600c60008473ffffffffffffffffffffffffffffffffffffffff1673ffffffffffffffffffffffffffffffffffffffff1681526020019081526020016000206000838152602001908152602001600020819055507ff869ab5347abe3521a490c5ba94ca763cfc77a327f7a1fa74f71dcc42c950b8e84848385600d60008873ffffffffffffffffffffffffffffffffffffffff1673ffffffffffffffffffffffffffffffffffffffff168152602001908152602001600020600c60008973ffffffffffffffffffffffffffffffffffffffff1673ffffffffffffffffffffffffffffffffffffffff168152602001908152602001600020600088815260200190815260200160002054604051808773ffffffffffffffffffffffffffffffffffffffff1673ffffffffffffffffffffffffffffffffffffffff1681526020018673ffffffffffffffffffffffffffffffffffffffff1673ffffffffffffffffffffffffffffffffffffffff1681526020018581526020018473ffffffffffffffffffffffffffffffffffffffff1673ffffffffffffffffffffffffffffffffffffffff16815260200180602001838152602001828103825284818154815260200191508054801561212e57602002820191906000526020600020905b81548152602001906001019080831161211a575b505097505050505050505060405180910390a16000600d60008573ffffffffffffffffffffffffffffffffffffffff1673ffffffffffffffffffffffffffffffffffffffff16815260200190815260200160002080549050101561223557600d60008473ffffffffffffffffffffffffffffffffffffffff1673ffffffffffffffffffffffffffffffffffffffff168152602001908152602001600020600c60008573ffffffffffffffffffffffffffffffffffffffff1673ffffffffffffffffffffffffffffffffffffffff1681526020019081526020016000206000838152602001908152602001600020548154811061222657fe5b90600052602060002001600090555b600c60008473ffffffffffffffffffffffffffffffffffffffff1673ffffffffffffffffffffffffffffffffffffffff1681526020019081526020016000206000828152602001908152602001600020600090557f50a41ae985ebc866136690c2af65d8fb8fac099df774e65765c2aa69c4a5b84b8184600d60008773ffffffffffffffffffffffffffffffffffffffff1673ffffffffffffffffffffffffffffffffffffffff168152602001908152602001600020604051808481526020018373ffffffffffffffffffffffffffffffffffffffff1673ffffffffffffffffffffffffffffffffffffffff16815260200180602001828103825283818154815260200191508054801561236857602002820191906000526020600020905b815481526020019060010190808311612354575b505094505050505060405180910390a1808273ffffffffffffffffffffffffffffffffffffffff168473ffffffffffffffffffffffffffffffffffffffff167fddf252ad1be2c89b69c2b068fc378daa952ba7f163c4a11628f55a4df523b3ef60405160405180910390a450505050565b6123e533858585611ca6565b6123f184848484612721565b6123fa57600080fd5b50505050565b6000806305f5e100600a858154811061241557fe5b9060005260206000209060050201600301548161242e57fe5b04905060006305f5e100600a858154811061244557fe5b9060005260206000209060050201600301548161245e57fe5b0690506000816305f5e100840201905080935050505092915050565b600080600a848154811061248a57fe5b90600052602060002090600502016002015490506000600a84815481106124ad57fe5b906000526020600020906005020160020154905060006002600a83850102816124d257fe5b0490506000600a82816124e157fe5b50505060006001600a83816124f257fe5b040190508094505050505092915050565b600061250d6129de565b6040518060a0016040528088815260200187815260200186815260200185815260200142815250905060066000815480929190600101919050555060006001600a8390806001815401808255809150509060018203906000526020600020906005020160009091929091909150600082015181600001556020820151816001015560408201518160020155606082015181600301556080820151816004015550500390507f0b1e9a74eeaae184646d7a35062426460c8c9364005c6d441cce036dd9c655d584828a8a89604051808673ffffffffffffffffffffffffffffffffffffffff1673ffffffffffffffffffffffffffffffffffffffff1681526020018581526020018481526020018381526020018281526020019550505050505060405180910390a16126413360008684611ca6565b809250505095945050505050565b6000808284019050838110156126cd576040517f08c379a000000000000000000000000000000000000000000000000000000000815260040180806020018281038252601b8152602001807f536166654d6174683a206164646974696f6e206f766572666c6f77000000000081525060200191505060405180910390fd5b8091505092915050565b600061271983836040518060400160405280601e81526020017f536166654d6174683a207375627472616374696f6e206f766572666c6f770000815250612905565b905092915050565b600061272c846129c5565b61273957600190506128fd565b60008473ffffffffffffffffffffffffffffffffffffffff1663150b7a02338887876040518563ffffffff1660e01b8152600401808573ffffffffffffffffffffffffffffffffffffffff1673ffffffffffffffffffffffffffffffffffffffff1681526020018473ffffffffffffffffffffffffffffffffffffffff1673ffffffffffffffffffffffffffffffffffffffff16815260200183815260200180602001828103825283818151815260200191508051906020019080838360005b838110156128145780820151818401526020810190506127f9565b50505050905090810190601f1680156128415780820380516001836020036101000a031916815260200191505b5095505050505050602060405180830381600087803b15801561286357600080fd5b505af1158015612877573d6000803e3d6000fd5b505050506040513d602081101561288d57600080fd5b810190808051906020019092919050505090506040518080612a0e602f9139602f01905060405180910390207bffffffffffffffffffffffffffffffffffffffffffffffffffffffff1916817bffffffffffffffffffffffffffffffffffffffffffffffffffffffff1916149150505b949350505050565b60008383111582906129b2576040517f08c379a00000000000000000000000000000000000000000000000000000000081526004018080602001828103825283818151815260200191508051906020019080838360005b8381101561297757808201518184015260208101905061295c565b50505050905090810190601f1680156129a45780820380516001836020036101000a031916815260200191505b509250505060405180910390fd5b5060008385039050809150509392505050565b600080823b905060008163ffffffff1611915050919050565b6040518060a001604052806000815260200160008152602001600081526020016000815260200160008152509056fe6f6e455243373231526563656976656428616464726573732c616464726573732c75696e743235362c627974657329a265627a7a7231582057c6f89381319685aa80885735377f1494d0d2223e1f2f2561bb211d916b79eb64736f6c634300050c0032",
  "source": "pragma solidity 0.5.12;\r\n\r\n// preparing for some functions to be restricted \r\nimport \"./Ownable.sol\";\r\n\r\n// preparing safemath to rule out over- and underflow  \r\nimport \"./Safemath.sol\";\r\n\r\n// importing ERC721 token standard interface\r\nimport \"./IERC721.sol\";\r\n\r\n// importing interface to check if receiving address is a contract\r\nimport \"./IERC721Receiver.sol\";\r\n\r\ncontract MonkeyContract is IERC721, Ownable {\r\n\r\n    // using safemath for all uint256 numbers, \r\n    // use uint256 and (.add) and (.sub)\r\n    using SafeMath for uint256;\r\n\r\n\r\n    // State variables\r\n\r\n    // Contract address\r\n    address _monkeyContractAddress;   \r\n     \r\n    bytes4 internal constant confirmingERC721Received = bytes4(keccak256(\"onERC721Received(address,address,uint256,bytes)\"));\r\n\r\n    bytes4 private constant _INTERFACE_ID_ERC721 = 0x80ac58cd;\r\n    bytes4 private constant _INTERFACE_ID_ERC165 = 0x01ffc9a7; \r\n\r\n    // Only 12 monkeys can be created from scratch (generation 0)\r\n    uint256 public GEN0_Limit = 12;\r\n    uint256 public gen0amountTotal;\r\n\r\n    // name will be set to \"Crypto Monkeys\"\r\n    string private _name;\r\n\r\n    // ticker symbol will be set to \"CMO\"\r\n    string private _symbol;\r\n\r\n    // amount of CMOs total in existence - can be queried by totalSupply function    \r\n    uint256 public totalSupply;\r\n\r\n    // this struct is the blueprint for new CMOs, they will be created from it\r\n    struct CryptoMonkey {        \r\n        uint256 parent1Id;\r\n        uint256 parent2Id;\r\n        uint256 generation;\r\n        uint256 genes;\r\n        uint256 birthtime;\r\n    }\r\n\r\n    // a mapping to store each address's number of Crypto Monkeys \r\n    // can be queried by balanceOf function\r\n    mapping(address => uint256) private _numberOfCMOsOfAddressMapping;\r\n\r\n    // mapping of all the tokenIds and their ownerssss \r\n    // can be queried by ownerOf function \r\n    mapping(uint256 => address) private _monkeyIdsAndTheirOwnersMapping;\r\n\r\n    // mapping of the allowed addresses for a piece \r\n    mapping(uint256 => address) private _CMO2AllowedAddressMapping;\r\n\r\n    // This is an array that holds all CryptoMonkeys. \r\n    // Their position in that array IS their tokenId.\r\n    // they never get deleted here, array only grows and keeps track of them all.\r\n    CryptoMonkey[] public allMonkeysArray;\r\n\r\n    // mapping owner address to \r\n    // operator address (who has approval over all of owner's CMOs) to\r\n    // boolean that shows if the operator address actually is operator or not\r\n    mapping (address => mapping (address => bool)) public operatorApprovalsMapping;  \r\n\r\n    /* \r\n        not implemented, thinking about how a mapping would work,\r\n       providing same functionality as allMonkeysArray    \r\n       mapping(uint256 => CryptoMonkey) public _MonkeyIds2CryptoMonkeyMapping;\r\n    */\r\n\r\n    // used to keep track of owners and their crypto monkeys (see below)\r\n    // owner to tokenid to position in this array: _owners2tokenIdArrayMapping\r\n    mapping(address => mapping(uint256 => uint256)) public MonkeyIdPositionsMapping;\r\n\r\n    // maps owner to an array that holds all their tokenIds (see above)\r\n    // tokenId positions are saved in this mapping: MonkeyIdPositionsMapping)\r\n    mapping(address => uint256[]) public _owners2tokenIdArrayMapping;\r\n\r\n\r\n\r\n   \r\n\r\n    // Events\r\n\r\n    // Transfer event, emitted after successful transfer with these parameters\r\n    event Transfer(\r\n        address indexed from,\r\n        address indexed to,\r\n        uint256 indexed tokenId\r\n    );\r\n\r\n    // Approval event, emitted after successful approval with these parameters\r\n    event Approval(\r\n        address indexed owner,\r\n        address indexed approved,\r\n        uint256 indexed tokenId\r\n    );\r\n\r\n    // Creation event, emitted after successful CMO creation with these parameters\r\n    event MonkeyCreated(\r\n        address owner,\r\n        uint256 tokenId,\r\n        uint256 parent1Id,\r\n        uint256 parent2Id,\r\n        uint256 genes\r\n    );\r\n\r\n    event BreedingSuccessful (uint256 genes, uint256 birthtime, uint256 parent1Id, uint256 parent2Id, uint256 generation, address owner, address approvedAddress);\r\n\r\n    // After transfer of CMO, emitting useful data regarding new owner\r\n    event NewOwnerArrayUpdated( \r\n        address transferringAddress,       \r\n        address oldOwner,\r\n        uint256 tokenId,\r\n        address newOwner,\r\n        uint256[] newOwnerArrayUpdated,\r\n        uint256 positionInNewOwnersArray\r\n    );\r\n\r\n\r\n    // After transfer of CMO, emitting useful data regarding old owner\r\n    event OldOwnerArrayUpdated(        \r\n        uint256 tokenId,\r\n        address oldOwner,\r\n        uint256[] oldOwnerArrayUpdated        \r\n    );\r\n\r\n\r\n    // Constructor function\r\n    // is setting _name, and _symbol, as well as creating a couple of test CMOs,\r\n    // and for them setting _parent1Id, _parent2Id and _generation to 0, \r\n    // the _genes to the biggest possible uint256 number (overflow on purpose)\r\n    // and _owner to contract address\r\n\r\n    constructor() public {\r\n        _name = \"Crypto Monkeys\";\r\n        _symbol = \"CMO\";\r\n        _monkeyContractAddress = address(this);\r\n\r\n        \r\n        _createMonkey(0, 0, 0, uint256(-1), _monkeyContractAddress);\r\n\r\n        _createMonkey(0, 0, 0, uint256(-1), _monkeyContractAddress);\r\n\r\n        _createMonkey(0, 0, 0, uint256(-1), _monkeyContractAddress);\r\n        \r\n        // _createMonkey(0, 0, 0, uint256(-1), address(this));\r\n    }\r\n\r\n    // Functions \r\n\r\n\r\n    function getMonkeyContractAddress() public view returns (address) {  \r\n        return _monkeyContractAddress;\r\n    }    \r\n\r\n\r\n    function supportsInterface (bytes4 _interfaceId) external view returns (bool){\r\n        return (_interfaceId == _INTERFACE_ID_ERC721 || _interfaceId == _INTERFACE_ID_ERC165);\r\n    }\r\n\r\n\r\n    function breed(uint256 _parent1Id, uint256 _parent2Id) public returns (uint256) {\r\n\r\n        // msg.sender needs to be owner of both crypto monkeys\r\n        require(msg.sender == _monkeyIdsAndTheirOwnersMapping[_parent1Id] && msg.sender == _monkeyIdsAndTheirOwnersMapping[_parent2Id]);\r\n\r\n        // calculating new DNA string\r\n        uint256 _newDna = _mixDna(_parent1Id, _parent2Id);\r\n\r\n        // calculate generation here\r\n        uint256 _newGeneration = _calcGeneration(_parent1Id, _parent2Id);\r\n\r\n        // creating new monkey\r\n        uint256 newMonkeyId = _createMonkey(_parent1Id, _parent2Id, _newGeneration, _newDna, msg.sender);                       \r\n\r\n        emit BreedingSuccessful(\r\n            allMonkeysArray[newMonkeyId].genes,\r\n            allMonkeysArray[newMonkeyId].birthtime,\r\n            allMonkeysArray[newMonkeyId].parent1Id,\r\n            allMonkeysArray[newMonkeyId].parent2Id,\r\n            allMonkeysArray[newMonkeyId].generation,\r\n            _monkeyIdsAndTheirOwnersMapping[newMonkeyId],\r\n            _CMO2AllowedAddressMapping[newMonkeyId]\r\n        );       \r\n\r\n        return newMonkeyId;\r\n    }\r\n\r\n    function _calcGeneration (uint256 _parent1Id, uint256 _parent2Id) internal returns(uint256) {\r\n\r\n        uint256 _generationOfParent1 = allMonkeysArray[_parent1Id].generation; \r\n        uint256 _generationOfParent2 = allMonkeysArray[_parent2Id].generation; \r\n\r\n        // new generation is average of parents generations plus 1\r\n        // for ex. 1 + 5 = 6, 6/2 = 3, 3+1=4, newGeneration would be 4\r\n\r\n        // rounding numbers if odd, for ex. 1+2=3, 3*10 = 30, 30/2 = 15\r\n        // 15 % 10 = 5, 5>0, 15+5=20\r\n        // 20 / 10 = 2, 2+1 = 3\r\n        // newGeneration = 3\r\n        uint256 _roundingNumbers = (((_generationOfParent1 + _generationOfParent2) * 10) / 2); \r\n        if (_roundingNumbers % 10 > 0) {\r\n            _roundingNumbers + 5;      \r\n        }\r\n        uint256 newGeneration = (_roundingNumbers / 10 ) + 1;\r\n\r\n        return newGeneration;\r\n    }\r\n\r\n\r\n    function _mixDna (uint256 _parent1Id, uint256 _parent2Id) internal returns (uint256) {\r\n        // a DNA string looks for example like this 11 22 33 44 55 66 77 88\r\n\r\n        // first 8 digits are selected by dividing, solidity will round down everything to full integers\r\n        uint256 firstEightNumbersFromParent1 =  allMonkeysArray[_parent1Id].genes / 100000000;\r\n\r\n        // second 8 digits are selected by using modulo, it's whats left over and undividable by 100000000\r\n        uint256 secondEightNumbersFromParent2 = allMonkeysArray[_parent2Id].genes % 100000000;\r\n\r\n        // multiplying to \"make room at the end with zeros\", then adding to finish new dna string \r\n        uint256 newDnaString = (firstEightNumbersFromParent1 * 100000000) + secondEightNumbersFromParent2;\r\n\r\n        return newDnaString;   \r\n    }\r\n\r\n    //- gives back an array with the CMO tokenIds that the provided sender address owns\r\n    function findMonkeyIdsOfAddress(address sender) public view returns (uint256[] memory) {  \r\n        return _owners2tokenIdArrayMapping[sender];\r\n    }\r\n\r\n    // used for creating gen0 monkeys \r\n    function createGen0Monkey(uint256 _genes) public onlyOwner {\r\n        // making sure that no more than 12 monkeys will exist in gen0\r\n        require(gen0amountTotal < GEN0_Limit);\r\n\r\n        // increasing counter of gen0 monkeys \r\n        gen0amountTotal++;\r\n\r\n        // creating\r\n        _createMonkey(0, 0, 0, _genes, msg.sender);\r\n        \r\n    }\r\n\r\n    // used for creating monkeys (returns tokenId, could be used)\r\n    function _createMonkey(\r\n        uint256 _parent1Id,\r\n        uint256 _parent2Id,\r\n        uint256 _generation,\r\n        uint256 _genes,\r\n        address _owner\r\n    ) private returns (uint256) {\r\n        // uses the CryptoMonkey struct as template and creates a newMonkey from it\r\n            CryptoMonkey memory newMonkey = CryptoMonkey({                \r\n            parent1Id: uint256(_parent1Id),\r\n            parent2Id: uint256(_parent2Id),\r\n            generation: uint256(_generation),\r\n            genes: _genes,\r\n            birthtime: uint256(now)\r\n        });\r\n\r\n        // updating total supply\r\n        totalSupply++;\r\n        \r\n        // the push function also returns the length of the array, using that directly and saving it as the ID, starting with 0\r\n        uint256 newMonkeyId = allMonkeysArray.push(newMonkey) - 1;\r\n\r\n        // emitting before the action\r\n        emit MonkeyCreated(_owner, newMonkeyId, _parent1Id, _parent2Id, _genes);\r\n\r\n        // after creation, transferring to new owner, \r\n        // transferring address is user, sender is 0 address\r\n        _transferCallfromInside(msg.sender, address(0), _owner, newMonkeyId);        \r\n\r\n        // tokenId is returned\r\n        return newMonkeyId;\r\n    }\r\n\r\n\r\n    /// @notice Get the approved address for a single NFT\r\n    /// @dev Throws if `_tokenId` is not a valid NFT.\r\n    /// @param _tokenId The NFT to find the approved address for\r\n    /// @return The approved address for this NFT, or the zero address if there is none\r\n    // function getApproved(uint256 _tokenId) external view returns (address);\r\n    function getApproved(uint256 _tokenId) external view returns (address){\r\n        return _CMO2AllowedAddressMapping[_tokenId];\r\n    }  \r\n\r\n    /// @notice Query if an address is an authorized operator for another address\r\n    /// @param _owner The address that owns the NFTs\r\n    /// @param _operator The address that acts on behalf of the owner\r\n    /// @return True if `_operator` is an approved operator for `_owner`, false otherwise\r\n    function isApprovedForAll(address _owner, address _operator) external view returns (bool){\r\n        return operatorApprovalsMapping[_owner][_operator];\r\n    }\r\n\r\n\r\n\r\n    // gives back all the main details on a CMO\r\n    function getMonkeyDetails(uint256 tokenId)\r\n        public\r\n        view\r\n        returns (\r\n            uint256 genes,\r\n            uint256 birthtime,\r\n            uint256 parent1Id,\r\n            uint256 parent2Id,\r\n            uint256 generation,\r\n            address owner,\r\n            address approvedAddress\r\n        )\r\n    {\r\n        return (\r\n            allMonkeysArray[tokenId].genes,\r\n            allMonkeysArray[tokenId].birthtime,\r\n            allMonkeysArray[tokenId].parent1Id,\r\n            allMonkeysArray[tokenId].parent2Id,\r\n            allMonkeysArray[tokenId].generation,\r\n            _monkeyIdsAndTheirOwnersMapping[tokenId],\r\n            _CMO2AllowedAddressMapping[tokenId]\r\n        );\r\n    }\r\n\r\n\r\n\r\n    // The approve function allows another address to take / move your CMO\r\n    function approve(address _approved, uint256 _tokenId) public {\r\n        // requires that the msg.sender is the owner of the CMO to be moved\r\n        require(_monkeyIdsAndTheirOwnersMapping[_tokenId] == msg.sender);\r\n\r\n        // emitting before the action\r\n        emit Approval(msg.sender, _approved, _tokenId);\r\n\r\n        // stores the allowed address into the mapping for it, with the monkey being the key\r\n        // before this, allowedAddress is 0, meaning nobody can take it\r\n        _CMO2AllowedAddressMapping[_tokenId] = _approved;\r\n    }\r\n\r\n\r\n\r\n    // allows or revokes an address to get \"operator\" status, being allowed to take or move all of msg.sender 's CMOs\r\n    function setApprovalForAll(address _operator, bool _approved) external {\r\n\r\n        // msg.sender can set entry in his own mapping for _operator address to true or false\r\n        operatorApprovalsMapping[msg.sender][_operator] = _approved;\r\n\r\n        // emitting ApprovalForAll event with owner address, operator related address, boolean whether is operator or not\r\n        emit ApprovalForAll(msg.sender, _operator, _approved);        \r\n    }\r\n\r\n   \r\n\r\n    // Returns the name of the token\r\n    function name() external view returns (string memory) {\r\n        return _name;\r\n    }\r\n\r\n    // Returns the symbol of the token\r\n    function symbol() external view returns (string memory) {\r\n        return _symbol;\r\n    }\r\n\r\n    /*\r\n        // Returns the _totalSupply if it exists as private state variable\r\n        function totalSupply() external view returns (uint256) {\r\n            return _totalSupply;\r\n        }\r\n    */\r\n\r\n    // Returns the amount of tokens in an address' account\r\n    function balanceOf(address owner) external view returns (uint256) {\r\n        return _numberOfCMOsOfAddressMapping[owner];\r\n    }\r\n\r\n    // returns the owner of given tokenId, which is stored in the _monkeyIdsAndTheirOwnersMapping at the [tokenId] position\r\n    function ownerOf(uint256 tokenId) external view returns (address) {\r\n        return _monkeyIdsAndTheirOwnersMapping[tokenId];\r\n    }\r\n\r\n    // For transferring, can be called from outside, at the moment does same as transferFrom (from address is unneccessary)\r\n    function transfer(address _to, uint256 _tokenId) external {\r\n        //`to` cannot be the zero address.\r\n        require(_to != address(0));\r\n\r\n        // to` can not be the contract address.\r\n        require(_to != address(this));\r\n\r\n        address monkeyOwner = _monkeyIdsAndTheirOwnersMapping[_tokenId];\r\n\r\n        bool senderHasOperatorStatus = operatorApprovalsMapping[monkeyOwner][msg.sender];\r\n\r\n        address allowedAddress = _CMO2AllowedAddressMapping[_tokenId];\r\n\r\n        // _tokenId must be a valid CMO tokenId, \r\n        // i.e. 0 or larger, and smaller than the length of allMonkeysArray\r\n        require(_tokenId >= 0 && _tokenId < allMonkeysArray.length);    \r\n\r\n        require(monkeyOwner == msg.sender || senderHasOperatorStatus == true || allowedAddress == msg.sender);        \r\n        \r\n        // calling internal transfer function, providing both msg.sender as well as owner, in case they are different (operator is acting)\r\n        _transferCallfromInside(msg.sender, monkeyOwner, _to, _tokenId);\r\n    }\r\n\r\n\r\n    /// @notice Transfer ownership of an NFT -- THE CALLER IS RESPONSIBLE\r\n    ///  TO CONFIRM THAT `_to` IS CAPABLE OF RECEIVING NFTS OR ELSE\r\n    ///  THEY MAY BE PERMANENTLY LOST\r\n    /// @dev Throws unless `msg.sender` is the current owner, an authorized\r\n    ///  operator, or the approved address for this NFT. Throws if `_from` is\r\n    ///  not the current owner. Throws if `_to` is the zero address. Throws if\r\n    ///  `_tokenId` is not a valid NFT.\r\n    /// @param _from The current owner of the NFT\r\n    /// @param _to The new owner\r\n    /// @param _tokenId The NFT to transfer    \r\n    function transferFrom(address _from, address _to, uint256 _tokenId) external {\r\n\r\n        require (_isOwnerOrOperatorOrAllowed(_from, _to, _tokenId));\r\n\r\n        address monkeyOwner = _monkeyIdsAndTheirOwnersMapping[_tokenId];\r\n\r\n        _transferCallfromInside(msg.sender, monkeyOwner, _to, _tokenId);\r\n\r\n    }    \r\n\r\n\r\n    /// @notice Transfers the ownership of an NFT from one address to another address\r\n    /// @dev Throws unless `msg.sender` is the current owner, an authorized\r\n    ///  operator, or the approved address for this NFT. Throws if `_from` is\r\n    ///  not the current owner. Throws if `_to` is the zero address. Throws if\r\n    ///  `_tokenId` is not a valid NFT. When transfer is complete, this function\r\n    ///  checks if `_to` is a smart contract (code size > 0). If so, it calls\r\n    ///  `onERC721Received` on `_to` and throws if the return value is not\r\n    ///  `bytes4(keccak256(\"onERC721Received(address,address,uint256,bytes)\"))`.\r\n    /// @param _from The current owner of the NFT\r\n    /// @param _to The new owner\r\n    /// @param _tokenId The NFT to transfer\r\n    /// @param data Additional data with no specified format, sent in call to `_to`\r\n    function safeTransferFrom(address _from, address _to, uint256 _tokenId, bytes calldata data) external {\r\n\r\n        require (_isOwnerOrOperatorOrAllowed(_from, _to, _tokenId));\r\n\r\n        _safeTransferFrom(_from, _to, _tokenId, data);\r\n    }\r\n\r\n    \r\n    /// @notice Transfers the ownership of an NFT from one address to another address\r\n    /// @dev This works identically to the other function with an extra data parameter,\r\n    ///  except this function just sets data to \"\".\r\n    /// @param _from The current owner of the NFT\r\n    /// @param _to The new owner\r\n    /// @param _tokenId The NFT to transfer\r\n    function safeTransferFrom(address _from, address _to, uint256 _tokenId) external {\r\n\r\n        require (_isOwnerOrOperatorOrAllowed(_from, _to, _tokenId));\r\n\r\n        bytes memory _data = \"\"; \r\n\r\n        _safeTransferFrom(_from, _to, _tokenId, _data);\r\n\r\n    }\r\n\r\n    // newly written, internal version of safeTransferFrom, NOT from ERC721.sol    \r\n    function _safeTransferFrom(address _from, address _to, uint256 _tokenId, bytes memory _data) internal{  \r\n\r\n        _transferCallfromInside(msg.sender, _from, _to, _tokenId);       \r\n\r\n        require(_checkERC721Support(_from, _to, _tokenId, _data));\r\n        \r\n    }\r\n\r\n    function _isOwnerOrOperatorOrAllowed(address _from, address _to, uint256 _tokenId) internal view returns (bool) {\r\n        //`_to` cannot be the zero address.\r\n        require(_to != address(0));\r\n\r\n        // _to` can not be the contract address.\r\n        require(_to != address(this));\r\n\r\n        // _tokenId must be a valid CMO tokenId, \r\n        // i.e. 0 or larger, and smaller than the length of allMonkeysArray\r\n        require(_tokenId >= 0 && _tokenId < allMonkeysArray.length);        \r\n\r\n        address monkeyOwner = _monkeyIdsAndTheirOwnersMapping[_tokenId];\r\n\r\n        // _from address must be monkeyOwner at this moment \r\n        require(_from == monkeyOwner);\r\n\r\n        bool senderHasOperatorStatus = operatorApprovalsMapping[monkeyOwner][msg.sender];\r\n\r\n        address allowedAddress = _CMO2AllowedAddressMapping[_tokenId];\r\n\r\n        // sender of transfer is owner, or has operator status, or has allowance to move this particular CMO\r\n        require(monkeyOwner == msg.sender || senderHasOperatorStatus == true || allowedAddress == msg.sender);\r\n\r\n        return true;\r\n\r\n    }\r\n\r\n    // internal function for transferring, cannot be called from outside the contract\r\n    function _transferCallfromInside(\r\n        address _transferSender, // i.e. owner so far or operator\r\n        address _monkeyOwner, // i.e. owner so far \r\n        address _to, // i.e. new owner \r\n        uint256 _tokenId\r\n    ) internal {\r\n        // deleting any allowed address for the transfered CMO\r\n        delete _CMO2AllowedAddressMapping[_tokenId];\r\n\r\n        // transferring, i.e. changing ownership entry in the _monkeyIdsAndTheirOwnersMapping for the tokenId\r\n        _monkeyIdsAndTheirOwnersMapping[_tokenId] = _to;\r\n\r\n        // updating \"balance\" of address in _numberOfCMOsOfAddressMapping, so that the \"to\" address has 1 CMO more\r\n        _numberOfCMOsOfAddressMapping[_to] = _numberOfCMOsOfAddressMapping[_to].add(1);\r\n\r\n\r\n        // if CMO owner at this point is NOT 0 address (happens during gen0 monkey creation),\r\n        // updating \"balance\" of address in _numberOfCMOsOfAddressMapping,  so that the previous monkey owner has 1 CMO less      \r\n        if (_monkeyOwner != address(0)) {\r\n            _numberOfCMOsOfAddressMapping[_monkeyOwner] = _numberOfCMOsOfAddressMapping[_monkeyOwner].sub(1);\r\n        }\r\n\r\n        // saving tokenId to new owner's array in the mapping for all owners, \r\n        // also see next action below (storing position)\r\n        _owners2tokenIdArrayMapping[_to].push(_tokenId);\r\n\r\n        // inside the global mapping for positions, under the new owner, under the tokenId, \r\n        // saving the position that this tokenId has in the other array (_owners2tokenIdArrayMapping), \r\n        // by measuring that arrays length, after pushing the CMO to it, then subtracting 1\r\n        // that means owner's first monkey will be in position 0\r\n        MonkeyIdPositionsMapping[_to][_tokenId] = _owners2tokenIdArrayMapping[_to].length - 1;\r\n\r\n        // emitting useful data regarding new owner after transfer of CMO\r\n        emit NewOwnerArrayUpdated(\r\n            _transferSender,            \r\n            _monkeyOwner,\r\n            _tokenId,\r\n            _to,\r\n            _owners2tokenIdArrayMapping[_to],\r\n            MonkeyIdPositionsMapping[_to][_tokenId]\r\n        );  \r\n        \r\n        // deleting the tokenId from the old owners array of monkeys\r\n        if ((_owners2tokenIdArrayMapping[_monkeyOwner]).length <0 ){\r\n            delete _owners2tokenIdArrayMapping[_monkeyOwner][MonkeyIdPositionsMapping[_monkeyOwner][_tokenId]];\r\n        }                \r\n\r\n        // deleting the saved index position, since old address is not longer owner\r\n        delete MonkeyIdPositionsMapping[_monkeyOwner][_tokenId];\r\n\r\n        // emitting useful data regarding old owner after transfer of CMO\r\n        emit OldOwnerArrayUpdated(            \r\n            _tokenId,\r\n            _monkeyOwner,\r\n            _owners2tokenIdArrayMapping[_monkeyOwner]\r\n        );\r\n\r\n        // emitting Transfer event\r\n        emit Transfer(_monkeyOwner, _to, _tokenId);\r\n    }\r\n\r\n    // Wrapper function to avaliate if receiving address is a smart contract or just a wallet address\r\n    // Returns true if contract, false if wallet or does not accept ERC721s\r\n    \r\n    \r\n    function _checkERC721Support(address _from, address _to, uint256 _tokenId, bytes  memory _data) internal returns(bool) {\r\n        // First checks if codesize of receiving address is not larger than 0. If it is not, returns true \r\n        if (!_isContract(_to)){\r\n            return true;\r\n        }\r\n\r\n        // if codesize was larger than 0, checks if contract can receive ERC721s\r\n        bytes4 returnData = IERC721Receiver(_to).onERC721Received(msg.sender, _from, _tokenId, _data); \r\n        // comparing and evaluating to true or false\r\n        return returnData == confirmingERC721Received;\r\n    }\r\n\r\n    // checking code size of _to address    \r\n    function _isContract (address _to) view internal returns(bool) {\r\n        uint32 size;\r\n        assembly {\r\n            size := extcodesize(_to)\r\n        }\r\n        return size > 0;\r\n    }\r\n\r\n}\r\n\r\n\r\n",
  "sourcePath": "D:\\8 Github\\CryptoMonkeys\\contracts\\Monkeycontract.sol",
  "compiler": {
    "name": "solc",
    "version": "0.5.12+commit.7709ece9.Emscripten.clang"
  },
  "schemaVersion": "3.2.0",
  "updatedAt": "2020-12-31T13:14:54.001Z",
  "networkType": "ethereum",
  "devdoc": {
    "methods": {
      "getApproved(uint256)": {
        "details": "Throws if `_tokenId` is not a valid NFT.",
        "params": {
          "_tokenId": "The NFT to find the approved address for"
        },
        "return": "The approved address for this NFT, or the zero address if there is none"
      },
      "isApprovedForAll(address,address)": {
        "params": {
          "_operator": "The address that acts on behalf of the owner",
          "_owner": "The address that owns the NFTs"
        },
        "return": "True if `_operator` is an approved operator for `_owner`, false otherwise"
      },
      "safeTransferFrom(address,address,uint256)": {
        "details": "This works identically to the other function with an extra data parameter,  except this function just sets data to \"\".",
        "params": {
          "_from": "The current owner of the NFT",
          "_to": "The new owner",
          "_tokenId": "The NFT to transfer"
        }
      },
      "safeTransferFrom(address,address,uint256,bytes)": {
        "details": "Throws unless `msg.sender` is the current owner, an authorized  operator, or the approved address for this NFT. Throws if `_from` is  not the current owner. Throws if `_to` is the zero address. Throws if  `_tokenId` is not a valid NFT. When transfer is complete, this function  checks if `_to` is a smart contract (code size > 0). If so, it calls  `onERC721Received` on `_to` and throws if the return value is not  `bytes4(keccak256(\"onERC721Received(address,address,uint256,bytes)\"))`.",
        "params": {
          "_from": "The current owner of the NFT",
          "_to": "The new owner",
          "_tokenId": "The NFT to transfer",
          "data": "Additional data with no specified format, sent in call to `_to`"
        }
      },
      "transferFrom(address,address,uint256)": {
        "details": "Throws unless `msg.sender` is the current owner, an authorized  operator, or the approved address for this NFT. Throws if `_from` is  not the current owner. Throws if `_to` is the zero address. Throws if  `_tokenId` is not a valid NFT.",
        "params": {
          "_from": "The current owner of the NFT",
          "_to": "The new owner",
          "_tokenId": "The NFT to transfer    "
        }
      }
    }
  },
  "userdoc": {
    "methods": {
      "getApproved(uint256)": {
        "notice": "Get the approved address for a single NFT"
      },
      "isApprovedForAll(address,address)": {
        "notice": "Query if an address is an authorized operator for another address"
      },
      "safeTransferFrom(address,address,uint256)": {
        "notice": "Transfers the ownership of an NFT from one address to another address"
      },
      "safeTransferFrom(address,address,uint256,bytes)": {
        "notice": "Transfers the ownership of an NFT from one address to another address"
      },
      "transferFrom(address,address,uint256)": {
        "notice": "Transfer ownership of an NFT -- THE CALLER IS RESPONSIBLE  TO CONFIRM THAT `_to` IS CAPABLE OF RECEIVING NFTS OR ELSE  THEY MAY BE PERMANENTLY LOST"
      }
    }
  }
}