{
  "contractName": "MonkeyMarketplace",
  "abi": [
    {
      "inputs": [
        {
          "internalType": "address",
          "name": "_constructorMonkeyContractAddress",
          "type": "address"
        }
      ],
      "stateMutability": "nonpayable",
      "type": "constructor"
    },
    {
      "anonymous": false,
      "inputs": [
        {
          "indexed": false,
          "internalType": "string",
          "name": "TxType",
          "type": "string"
        },
        {
          "indexed": false,
          "internalType": "address",
          "name": "owner",
          "type": "address"
        },
        {
          "indexed": false,
          "internalType": "uint256",
          "name": "tokenId",
          "type": "uint256"
        }
      ],
      "name": "MarketTransaction",
      "type": "event"
    },
    {
      "anonymous": false,
      "inputs": [
        {
          "indexed": false,
          "internalType": "address",
          "name": "seller",
          "type": "address"
        },
        {
          "indexed": false,
          "internalType": "address",
          "name": "buyer",
          "type": "address"
        },
        {
          "indexed": false,
          "internalType": "uint256",
          "name": "price",
          "type": "uint256"
        },
        {
          "indexed": false,
          "internalType": "uint256",
          "name": "tokenId",
          "type": "uint256"
        }
      ],
      "name": "MonkeySold",
      "type": "event"
    },
    {
      "anonymous": false,
      "inputs": [
        {
          "indexed": true,
          "internalType": "address",
          "name": "previousOwner",
          "type": "address"
        },
        {
          "indexed": true,
          "internalType": "address",
          "name": "newOwner",
          "type": "address"
        }
      ],
      "name": "OwnershipTransferred",
      "type": "event"
    },
    {
      "anonymous": false,
      "inputs": [
        {
          "indexed": false,
          "internalType": "address",
          "name": "account",
          "type": "address"
        }
      ],
      "name": "Paused",
      "type": "event"
    },
    {
      "anonymous": false,
      "inputs": [
        {
          "indexed": false,
          "internalType": "address",
          "name": "account",
          "type": "address"
        }
      ],
      "name": "Unpaused",
      "type": "event"
    },
    {
      "inputs": [],
      "name": "owner",
      "outputs": [
        {
          "internalType": "address",
          "name": "",
          "type": "address"
        }
      ],
      "stateMutability": "view",
      "type": "function",
      "constant": true
    },
    {
      "inputs": [],
      "name": "paused",
      "outputs": [
        {
          "internalType": "bool",
          "name": "",
          "type": "bool"
        }
      ],
      "stateMutability": "view",
      "type": "function",
      "constant": true
    },
    {
      "inputs": [],
      "name": "renounceOwnership",
      "outputs": [],
      "stateMutability": "nonpayable",
      "type": "function"
    },
    {
      "inputs": [],
      "name": "savedMainContractAddress",
      "outputs": [
        {
          "internalType": "address",
          "name": "",
          "type": "address"
        }
      ],
      "stateMutability": "view",
      "type": "function",
      "constant": true
    },
    {
      "inputs": [
        {
          "internalType": "address",
          "name": "newOwner",
          "type": "address"
        }
      ],
      "name": "transferOwnership",
      "outputs": [],
      "stateMutability": "nonpayable",
      "type": "function"
    },
    {
      "inputs": [],
      "name": "pause",
      "outputs": [],
      "stateMutability": "nonpayable",
      "type": "function"
    },
    {
      "inputs": [],
      "name": "unpause",
      "outputs": [],
      "stateMutability": "nonpayable",
      "type": "function"
    },
    {
      "inputs": [
        {
          "internalType": "uint256",
          "name": "_tokenId",
          "type": "uint256"
        }
      ],
      "name": "isTokenOnSale",
      "outputs": [
        {
          "internalType": "bool",
          "name": "tokenIsOnSale",
          "type": "bool"
        }
      ],
      "stateMutability": "view",
      "type": "function",
      "constant": true
    },
    {
      "inputs": [
        {
          "internalType": "uint256",
          "name": "_tokenId",
          "type": "uint256"
        }
      ],
      "name": "getOffer",
      "outputs": [
        {
          "internalType": "address",
          "name": "seller",
          "type": "address"
        },
        {
          "internalType": "uint256",
          "name": "price",
          "type": "uint256"
        },
        {
          "internalType": "uint256",
          "name": "index",
          "type": "uint256"
        },
        {
          "internalType": "uint256",
          "name": "tokenId",
          "type": "uint256"
        },
        {
          "internalType": "bool",
          "name": "active",
          "type": "bool"
        }
      ],
      "stateMutability": "view",
      "type": "function",
      "constant": true
    },
    {
      "inputs": [],
      "name": "getAllTokenOnSale",
      "outputs": [
        {
          "internalType": "uint256[]",
          "name": "listOfTokenIdsOnSale",
          "type": "uint256[]"
        }
      ],
      "stateMutability": "view",
      "type": "function",
      "constant": true
    },
    {
      "inputs": [
        {
          "internalType": "uint256",
          "name": "_price",
          "type": "uint256"
        },
        {
          "internalType": "uint256",
          "name": "_tokenId",
          "type": "uint256"
        }
      ],
      "name": "setOffer",
      "outputs": [],
      "stateMutability": "nonpayable",
      "type": "function"
    },
    {
      "inputs": [
        {
          "internalType": "uint256",
          "name": "_tokenId",
          "type": "uint256"
        }
      ],
      "name": "removeOffer",
      "outputs": [],
      "stateMutability": "nonpayable",
      "type": "function"
    },
    {
      "inputs": [
        {
          "internalType": "uint256",
          "name": "_tokenId",
          "type": "uint256"
        }
      ],
      "name": "buyMonkey",
      "outputs": [],
      "stateMutability": "payable",
      "type": "function",
      "payable": true
    },
    {
      "inputs": [],
      "name": "showLengthOfOffersArray",
      "outputs": [
        {
          "internalType": "uint256",
          "name": "length",
          "type": "uint256"
        }
      ],
      "stateMutability": "view",
      "type": "function",
      "constant": true
    },
    {
      "inputs": [
        {
          "internalType": "uint256",
          "name": "arrayPosition",
          "type": "uint256"
        }
      ],
      "name": "showOfferArrayEntry",
      "outputs": [
        {
          "internalType": "address",
          "name": "seller",
          "type": "address"
        },
        {
          "internalType": "uint256",
          "name": "price",
          "type": "uint256"
        },
        {
          "internalType": "uint256",
          "name": "index",
          "type": "uint256"
        },
        {
          "internalType": "uint256",
          "name": "tokenId",
          "type": "uint256"
        },
        {
          "internalType": "bool",
          "name": "active",
          "type": "bool"
        }
      ],
      "stateMutability": "view",
      "type": "function",
      "constant": true
    },
    {
      "inputs": [],
      "name": "withdrawETH",
      "outputs": [],
      "stateMutability": "nonpayable",
      "type": "function"
    }
  ],
  "bytecode": "0x60806040523480156200001157600080fd5b5060405162001a4e38038062001a4e833981016040819052620000349162000199565b620000486200004262000145565b62000149565b60018055600280546001600160a81b0319166101006001600160a01b03848116828102939093179384905560408051636d54bfd760e11b81529051939492909204169163daa97fae91600480820192602092909190829003018186803b158015620000b257600080fd5b505afa158015620000c7573d6000803e3d6000fd5b505050506040513d601f19601f82011682018060405250810190620000ed919062000199565b6001600160a01b0316146200011f5760405162461bcd60e51b81526004016200011690620001c9565b60405180910390fd5b600380546001600160a01b0319166001600160a01b039290921691909117905562000226565b3390565b600080546001600160a01b038381166001600160a01b0319831681178455604051919092169283917f8be0079c531659141344cd1fd0a4f28419497f9722a3daafe3b4186f6b6457e09190a35050565b600060208284031215620001ab578081fd5b81516001600160a01b0381168114620001c2578182fd5b9392505050565b60208082526036908201527f434f4e5354525543544f523a204d6f6e6b657920636f6e74726163742061646460408201527f72657373206d757374206265207468652073616d652e00000000000000000000606082015260800190565b61181880620002366000396000f3fe6080604052600436106100f35760003560e01c80638456cb591161008a57806395a0f9c71161005957806395a0f9c714610261578063dfcaaa9514610281578063e086e5ec146102a3578063f2fde38b146102b8576100f3565b80638456cb59146101f75780638da5cb5b1461020c578063941b055b14610221578063951fbdf014610241576100f3565b80635c975abb116100c65780635c975abb1461018b578063615fc0e2146101ad578063715018a6146101c05780637d3e0ec2146101d5576100f3565b80633f4ba83a146100f85780633f50b4411461010f5780634579268a1461014957806349b3709f14610169575b600080fd5b34801561010457600080fd5b5061010d6102d8565b005b34801561011b57600080fd5b5061012f61012a366004611294565b61032a565b604051610140959493929190611348565b60405180910390f35b34801561015557600080fd5b5061012f610164366004611294565b610406565b34801561017557600080fd5b5061017e6104a7565b6040516101409190611378565b34801561019757600080fd5b506101a0610658565b60405161014091906113bc565b61010d6101bb366004611294565b610661565b3480156101cc57600080fd5b5061010d610901565b3480156101e157600080fd5b506101ea61094a565b60405161014091906112cd565b34801561020357600080fd5b5061010d610959565b34801561021857600080fd5b506101ea6109a0565b34801561022d57600080fd5b5061010d61023c3660046112ac565b6109af565b34801561024d57600080fd5b506101a061025c366004611294565b610e25565b34801561026d57600080fd5b5061010d61027c366004611294565b610e3d565b34801561028d57600080fd5b50610296610fda565b604051610140919061179d565b3480156102af57600080fd5b5061010d611022565b3480156102c457600080fd5b5061010d6102d3366004611235565b6110a7565b6102e0611118565b6001600160a01b03166102f16109a0565b6001600160a01b0316146103205760405162461bcd60e51b81526004016103179061167e565b60405180910390fd5b61032861111c565b565b600080600080600061033a611118565b6001600160a01b031661034b6109a0565b6001600160a01b0316146103715760405162461bcd60e51b81526004016103179061167e565b60006004878154811061039457634e487b7160e01b600052603260045260246000fd5b60009182526020918290206040805160a08101825260059390930290910180546001600160a01b03168084526001820154948401859052600282015492840183905260038201546060850181905260049092015460ff16151560809094018490529b939a509098509650945092505050565b600081815260056020526040812060040154819081908190819060ff1661043f5760405162461bcd60e51b8152600401610317906116ef565b5050506000928352505060056020908152604091829020825160a08101845281546001600160a01b03168082526001830154938201849052600283015494820185905260038301546060830181905260049093015460ff161515608090920182905294929392565b60606000805b60045481101561051457600481815481106104d857634e487b7160e01b600052603260045260246000fd5b600091825260209091206004600590920201015460ff161561050257816104fe816117a6565b9250505b8061050c816117a6565b9150506104ad565b5080610530575050604080516000815260208101909152610655565b60008167ffffffffffffffff81111561055957634e487b7160e01b600052604160045260246000fd5b604051908082528060200260200182016040528015610582578160200160208202803683370190505b5090506000805b60045481101561064e57600481815481106105b457634e487b7160e01b600052603260045260246000fd5b600091825260209091206004600590920201015460ff161561063c57600481815481106105f157634e487b7160e01b600052603260045260246000fd5b90600052602060002090600502016003015483838151811061062357634e487b7160e01b600052603260045260246000fd5b602090810291909101015281610638816117a6565b9250505b80610646816117a6565b915050610589565b5090925050505b90565b60025460ff1690565b600260015414156106845760405162461bcd60e51b815260040161031790611766565b6002600155610691610658565b156106ae5760405162461bcd60e51b81526004016103179061157d565b600081815260056020908152604091829020825160a08101845281546001600160a01b0316815260018083015493820193909352600282015493810193909352600381015460608401526004015460ff16151560808301819052146107255760405162461bcd60e51b81526004016103179061152f565b348160200151146107485760405162461bcd60e51b8152600401610317906114e8565b805160408201516004805460009290811061077357634e487b7160e01b600052603260045260246000fd5b60009182526020808320600460059384029091018101805495151560ff199687161790558784529190526040822080546001600160a01b031916815560018101839055600280820184905560038201939093550180549092169091555461010090046001600160a01b03166369e9cae1826107ec611118565b866040518463ffffffff1660e01b815260040161080b939291906112e1565b600060405180830381600087803b15801561082557600080fd5b505af1158015610839573d6000803e3d6000fd5b50506040516001600160a01b03841692503480156108fc029250906000818181858888f19350505050158015610873573d6000803e3d6000fd5b507fd99e4fad9ad6313b1feb588fa8e605e3a9873172f2024330c35dd2b4041a438661089d611118565b846040516108ac92919061164b565b60405180910390a17f5cb9b6c5307f216c1d2602c70a3ca8bfeb0af6ff7541fb0ca314dce1bc303310816108de611118565b34866040516108f09493929190611305565b60405180910390a150506001805550565b610909611118565b6001600160a01b031661091a6109a0565b6001600160a01b0316146109405760405162461bcd60e51b81526004016103179061167e565b610328600061118a565b6003546001600160a01b031681565b610961611118565b6001600160a01b03166109726109a0565b6001600160a01b0316146109985760405162461bcd60e51b81526004016103179061167e565b6103286111da565b6000546001600160a01b031690565b6109b7610658565b156109d45760405162461bcd60e51b81526004016103179061157d565b6109dc611118565b6002546040516331a9108f60e11b81526001600160a01b039283169261010090920490911690636352211e90610a1690859060040161179d565b60206040518083038186803b158015610a2e57600080fd5b505afa158015610a42573d6000803e3d6000fd5b505050506040513d601f19601f82011682018060405250810190610a669190611258565b6001600160a01b031614610a8c5760405162461bcd60e51b815260040161031790611452565b60025461010090046001600160a01b031663e985e9c5610aaa611118565b306040518363ffffffff1660e01b8152600401610ac892919061132e565b60206040518083038186803b158015610ae057600080fd5b505afa158015610af4573d6000803e3d6000fd5b505050506040513d601f19601f82011682018060405250810190610b189190611274565b610b345760405162461bcd60e51b8152600401610317906113f5565b64e8d4a51000821015610b595760405162461bcd60e51b8152600401610317906115e3565b600081815260056020908152604091829020825160a08101845281546001600160a01b0316815260018083015493820193909352600282015493810193909352600381015460608401526004015460ff161515608083018190521415610c5b57610bc1611118565b6004826040015181548110610be657634e487b7160e01b600052603260045260246000fd5b906000526020600020906005020160000160006101000a8154816001600160a01b0302191690836001600160a01b03160217905550826004826040015181548110610c4157634e487b7160e01b600052603260045260246000fd5b906000526020600020906005020160010181905550610de0565b60006040518060a00160405280610c70611118565b6001600160a01b03908116825260208083018890526004805460408086019190915260608086018a90526001608096870181905260008b815260058087528482208a518154908a166001600160a01b0319918216178255978b01805182860155958b0180516002830155948b0180516003830155998b018051918801805492151560ff1993841617905587549485018855969092529851919098027f8a35acfbc15ff81a39ae7d344fd709f28e8600b4aa8c65c6b64bfe7fe36bd19b81018054929097169190951617909455517f8a35acfbc15ff81a39ae7d344fd709f28e8600b4aa8c65c6b64bfe7fe36bd19c83015591517f8a35acfbc15ff81a39ae7d344fd709f28e8600b4aa8c65c6b64bfe7fe36bd19d82015591517f8a35acfbc15ff81a39ae7d344fd709f28e8600b4aa8c65c6b64bfe7fe36bd19e830155517f8a35acfbc15ff81a39ae7d344fd709f28e8600b4aa8c65c6b64bfe7fe36bd19f909101805491151591909216179055505b7fd99e4fad9ad6313b1feb588fa8e605e3a9873172f2024330c35dd2b4041a4386610e09611118565b83604051610e189291906115a7565b60405180910390a1505050565b60009081526005602052604090206004015460ff1690565b610e45610658565b15610e625760405162461bcd60e51b81526004016103179061157d565b600081815260056020908152604091829020825160a08101845281546001600160a01b0316815260018083015493820193909352600282015493810193909352600381015460608401526004015460ff1615156080830181905214610ed95760405162461bcd60e51b8152600401610317906116ef565b610ee1611118565b6001600160a01b031681600001516001600160a01b031614610f155760405162461bcd60e51b815260040161031790611738565b60006004826040015181548110610f3c57634e487b7160e01b600052603260045260246000fd5b60009182526020808320600460059384029091018101805495151560ff199687161790558684529190526040822080546001600160a01b03191681556001810183905560028101839055600381019290925501805490911690557fd99e4fad9ad6313b1feb588fa8e605e3a9873172f2024330c35dd2b4041a4386610fbf611118565b83604051610fce9291906116b3565b60405180910390a15050565b6000610fe4611118565b6001600160a01b0316610ff56109a0565b6001600160a01b03161461101b5760405162461bcd60e51b81526004016103179061167e565b5060045490565b61102a611118565b6001600160a01b031661103b6109a0565b6001600160a01b0316146110615760405162461bcd60e51b81526004016103179061167e565b600061106b611118565b6040519091506001600160a01b038216904780156108fc02916000818181858888f193505050501580156110a3573d6000803e3d6000fd5b5050565b6110af611118565b6001600160a01b03166110c06109a0565b6001600160a01b0316146110e65760405162461bcd60e51b81526004016103179061167e565b6001600160a01b03811661110c5760405162461bcd60e51b8152600401610317906114a2565b6111158161118a565b50565b3390565b611124610658565b6111405760405162461bcd60e51b8152600401610317906113c7565b6002805460ff191690557f5db9ee0a495bf2e6ff9c91a7834c1ba4fdd244a5e8aa4e537bd38aeae4b073aa611173611118565b60405161118091906112cd565b60405180910390a1565b600080546001600160a01b038381166001600160a01b0319831681178455604051919092169283917f8be0079c531659141344cd1fd0a4f28419497f9722a3daafe3b4186f6b6457e09190a35050565b6111e2610658565b156111ff5760405162461bcd60e51b81526004016103179061157d565b6002805460ff191660011790557f62e78cea01bee320cd4e420270b5ea74000d11b0c9f74754ebdbfc544b05a258611173611118565b600060208284031215611246578081fd5b8135611251816117cd565b9392505050565b600060208284031215611269578081fd5b8151611251816117cd565b600060208284031215611285578081fd5b81518015158114611251578182fd5b6000602082840312156112a5578081fd5b5035919050565b600080604083850312156112be578081fd5b50508035926020909101359150565b6001600160a01b0391909116815260200190565b6001600160a01b039384168152919092166020820152604081019190915260600190565b6001600160a01b0394851681529290931660208301526040820152606081019190915260800190565b6001600160a01b0392831681529116602082015260400190565b6001600160a01b039590951685526020850193909352604084019190915260608301521515608082015260a00190565b6020808252825182820181905260009190848201906040850190845b818110156113b057835183529284019291840191600101611394565b50909695505050505050565b901515815260200190565b60208082526014908201527314185d5cd8589b194e881b9bdd081c185d5cd95960621b604082015260600190565b6020808252603c908201527f4d61726b6574706c6163652061646472657373206e65656473206f706572617460408201527f6f72207374617475732066726f6d206d6f6e6b6579206f776e65722e00000000606082015260800190565b60208082526030908201527f4f6e6c79206d6f6e6b6579206f776e65722063616e20736574206f666665722060408201526f199bdc881d1a1a5cc81d1bdad95b925960821b606082015260800190565b60208082526026908201527f4f776e61626c653a206e6577206f776e657220697320746865207a65726f206160408201526564647265737360d01b606082015260800190565b60208082526027908201527f4d61726b65743a204e6f742073656e64696e672074686520636f72726563742060408201526630b6b7bab73a1760c91b606082015260800190565b6020808252602e908201527f4d61726b65743a204e6f20616374697665206f6666657220666f72207468697360408201526d081d1bdad95b92590b88151154d560921b606082015260800190565b60208082526010908201526f14185d5cd8589b194e881c185d5cd95960821b604082015260600190565b6060808252600c908201526b21b932b0ba329037b33332b960a11b60808201526001600160a01b03929092166020830152604082015260a00190565b60208082526042908201527f6f66666572207072696365206d757374206265206174206c656173742031303060408201527f30303030303030303030205745492c20692e652e20302e303030303031204554606082015261024160f51b608082015260a00190565b60608082526003908201526242757960e81b60808201526001600160a01b03929092166020830152604082015260a00190565b6020808252818101527f4f776e61626c653a2063616c6c6572206973206e6f7420746865206f776e6572604082015260600190565b6060808252600c908201526b2932b6b7bb329037b33332b960a11b60808201526001600160a01b03929092166020830152604082015260a00190565b60208082526029908201527f4d61726b65743a204e6f20616374697665206f6666657220666f722074686973604082015268103a37b5b2b724b21760b91b606082015260800190565b6020808252601490820152732cb7ba93b932903737ba103a34329037bbb732b960611b604082015260600190565b6020808252601f908201527f5265656e7472616e637947756172643a207265656e7472616e742063616c6c00604082015260600190565b90815260200190565b60006000198214156117c657634e487b7160e01b81526011600452602481fd5b5060010190565b6001600160a01b038116811461111557600080fdfea26469706673582212206ae8c49ac219c798f2278d1d71bc14c75c48285e2022bf98a12330fe2e0b6a0864736f6c63430008000033",
  "immutableReferences": {},
  "source": "// SPDX-License-Identifier: UNLICENSED\r\npragma solidity ^0.8.0;\r\n\r\n// importing the main Crypto Monkey NFT contract\r\nimport \"./IMonkeyContract.sol\";\r\n// preparing for some functions to be restricted \r\nimport \"@openzeppelin/contracts/access/Ownable.sol\";\r\n// preparing safemath to rule out over- and underflow  \r\nimport \"@openzeppelin/contracts/utils/math/SafeMath.sol\";\r\n// importing openzeppelin script to guard against re-entrancy\r\nimport \"@openzeppelin/contracts/security/ReentrancyGuard.sol\";\r\n// importing openzeppelin script to make contract pausable\r\nimport \"@openzeppelin/contracts/security/Pausable.sol\";\r\n\r\ncontract MonkeyMarketplace is Ownable, ReentrancyGuard, Pausable {\r\n  using SafeMath for uint256;\r\n  \r\n  // STATE VARIABLES\r\n\r\n  // interface of main Crypto Monkey NFT contract\r\n  IMonkeyContract private _monkeyContractInterface;\r\n  // contract address of main contract will be saved here (set by constructor)\r\n  address public savedMainContractAddress;  \r\n\r\n  // general event for market transactions\r\n  event MarketTransaction(string TxType, address owner, uint256 tokenId);\r\n\r\n  // specific event just for successful sales\r\n  event MonkeySold (address seller, address buyer, uint256 price, uint256 tokenId); \r\n\r\n  // \"blueprint\" for sell offers\r\n  // index refers to the offer's position in the offersArray\r\n  struct Offer {\r\n    address payable seller;\r\n    uint256 price;\r\n    uint256 index;\r\n    uint256 tokenId;    \r\n    bool active;\r\n  }\r\n\r\n  // Array of all offers\r\n  // can be queried by onlyOwner via showOfferArrayEntry\r\n  Offer[] private offersArray; \r\n\r\n  // Mapping of Token ID to its active offer (if it has one)\r\n  mapping (uint256 => Offer) tokenIdToOfferMapping;    \r\n\r\n  // setting and saving the main Crypto Monkey contract's address, (also calling the contract and checking address) \r\n  constructor (address _constructorMonkeyContractAddress) {\r\n    _monkeyContractInterface = IMonkeyContract(_constructorMonkeyContractAddress);\r\n    require(_monkeyContractInterface.getMonkeyContractAddress() == _constructorMonkeyContractAddress, \"CONSTRUCTOR: Monkey contract address must be the same.\");\r\n    savedMainContractAddress = _constructorMonkeyContractAddress; \r\n  } \r\n \r\n  // contract can be paused by onlyOwner\r\n  function pause() public onlyOwner {\r\n    _pause();\r\n  }\r\n\r\n  // contract can be unpaused by onlyOwner\r\n  function unpause() public onlyOwner {\r\n    _unpause();\r\n  }\r\n\r\n  // to check whether a NFT is on sale at the moment\r\n  function isTokenOnSale(uint256 _tokenId) public view returns (bool tokenIsOnSale) {\r\n    return (\r\n      tokenIdToOfferMapping[_tokenId].active\r\n    );\r\n  }\r\n  \r\n  // Get the details about an offer for _tokenId. Throws an error if there is no active offer for _tokenId.  \r\n  function getOffer(uint256 _tokenId) public view returns (\r\n    address seller,\r\n    uint256 price,\r\n    uint256 index,\r\n    uint256 tokenId,\r\n    bool active\r\n    )\r\n  {\r\n    require (tokenIdToOfferMapping[_tokenId].active, \"Market: No active offer for this tokenId.\");\r\n\r\n    Offer memory offer = tokenIdToOfferMapping[_tokenId]; \r\n    return (\r\n    offer.seller,\r\n    offer.price,\r\n    offer.index, \r\n    offer.tokenId,\r\n    offer.active       \r\n    );\r\n  }\r\n\r\n  /**\r\n  * Get all tokenId's that are currently for sale. \r\n  * Returns an empty array if none exist.\r\n  * adds a Token ID to the 'result' array each time the loop finds an active offer in the offersArray  \r\n  */\r\n  function getAllTokenOnSale() public view returns(uint256[] memory listOfTokenIdsOnSale) {  \r\n\r\n    // counting active offers, needed to create correct hardcoded length of 'result' array\r\n    uint256 numberOfActiveOffers;\r\n    \r\n    // looking through offersArray at each postion\r\n    for (uint256 actCount = 0; actCount < offersArray.length; actCount++) {\r\n\r\n      // each time an active offer is found, numberOfActiveOffers is increased by 1\r\n      if (offersArray[actCount].active) {\r\n        numberOfActiveOffers++;\r\n      }\r\n    }     \r\n\r\n    // if no active offers are found, an empty array is returned\r\n    if (numberOfActiveOffers == 0){\r\n      return new uint256[](0);\r\n    }\r\n    // looking again through offersArray at each postion\r\n    else {\r\n      // 'result' array with hardcoded length, defined by active offers found above\r\n      uint256[] memory result = new uint256[](numberOfActiveOffers);      \r\n\r\n      // index position in result array\r\n      uint256 newIndex = 0 ;\r\n\r\n      for (uint256 k = 0; k < offersArray.length; k++) {\r\n        \r\n        // each time an active offer is found, its tokenId is put into the next position in the 'result' array\r\n        if (offersArray[k].active) {\r\n          result[newIndex] = offersArray[k].tokenId;\r\n          newIndex++;\r\n        }         \r\n      }\r\n      // returning result array\r\n      return result; \r\n\r\n    }\r\n   \r\n  }\r\n\r\n  /**\r\n  * Creates a new offer for _tokenId for the price _price.\r\n  * Emits the MarketTransaction event with txType \"Create offer\"\r\n  * Requirement: Only the owner of _tokenId can create an offer.\r\n  * Requirement: There can only be one active offer for a token at a time.\r\n  * Requirement: Marketplace contract (this) needs to be an approved operator when the offer is created.\r\n  */    \r\n  function setOffer(uint256 _price, uint256 _tokenId) public whenNotPaused {    \r\n    //Only the owner of _tokenId can create an offer.\r\n    require( _monkeyContractInterface.ownerOf(_tokenId) == _msgSender(), \"Only monkey owner can set offer for this tokenId\" );\r\n    //Marketplace contract (this) needs to be an approved operator when the offer is created.\r\n    require( _monkeyContractInterface.isApprovedForAll(_msgSender(), address(this)), \"Marketplace address needs operator status from monkey owner.\" );\r\n    //Offer price must be greater than 0\r\n    require(_price >= 1000000000000, \"offer price must be at least 1000000000000 WEI, i.e. 0.000001 ETH \");\r\n    // checking the entry for this Token ID in the tokenIdToOfferMapping\r\n    Offer memory tokenOffer = tokenIdToOfferMapping[_tokenId];\r\n\r\n    // There can only be one active offer for a token at a time. \r\n    // If active offer exists for this Token ID, seller and price are updated.\r\n    if (tokenOffer.active == true) {\r\n      offersArray[tokenOffer.index].seller = payable(_msgSender());\r\n      offersArray[tokenOffer.index].price = _price;   \r\n    }\r\n    else {\r\n      // If no active offer is found, a new offer is created from the Offer struct \"blueprint\".\r\n      Offer memory _newOffer = Offer({\r\n        seller: payable(_msgSender()),\r\n        price: _price,\r\n        tokenId: _tokenId,      \r\n        active: true,\r\n        index: offersArray.length  \r\n      });\r\n\r\n      // saving new offer (it's a struct) to mapping \r\n      tokenIdToOfferMapping[_tokenId] = _newOffer;    \r\n      // adding new offer (it's a struct) to array of offers\r\n      offersArray.push(_newOffer);  \r\n    }  \r\n    // emitting event for offer creation\r\n    emit MarketTransaction(\"Create offer\", _msgSender(), _tokenId);\r\n  }\r\n\r\n  /**\r\n  * Removes an existing offer.\r\n  * Emits the MarketTransaction event with txType \"Remove offer\"\r\n  * Requirement: Only the seller of _tokenId can remove an offer.\r\n  */\r\n  function removeOffer(uint256 _tokenId) public whenNotPaused {\r\n    // checking the entry for this Token ID in the tokenIdToOfferMapping\r\n    Offer memory tokenOffer = tokenIdToOfferMapping[_tokenId];\r\n    // Active offer must be present\r\n    require(tokenOffer.active == true, \"Market: No active offer for this tokenId.\" );\r\n    //  Only the owner of _tokenId can delete an offer.\r\n    require(tokenOffer.seller == _msgSender(), \"You're not the owner\");    \r\n    // setting array entry inactive\r\n    offersArray[tokenOffer.index].active = false;\r\n    // deleting mapping entry\r\n    delete tokenIdToOfferMapping[_tokenId];      \r\n    // emitting event for offer removal\r\n    emit MarketTransaction(\"Remove offer\", _msgSender(), _tokenId);    \r\n  }\r\n\r\n  /**\r\n  * Executes the purchase of _tokenId.\r\n  * Sends the funds to the seller and transfers the token using transfer in Monkeycontract.   \r\n  * Emits the MarketTransaction event with txType \"Buy\".\r\n  * Requirement: The msg.value needs to equal the price of _tokenId\r\n  * Requirement: There must be an active offer for _tokenId\r\n  */\r\n  function buyMonkey(uint256 _tokenId) public payable nonReentrant whenNotPaused{    \r\n    // checking the entry for this Token ID in the tokenIdToOfferMapping\r\n    Offer memory tokenOffer = tokenIdToOfferMapping[_tokenId];\r\n    // Active offer must be present\r\n    require(tokenOffer.active == true, \"Market: No active offer for this tokenId. TEST\" );\r\n    // sent value must be equal to price\r\n    require(tokenOffer.price == msg.value, \"Market: Not sending the correct amount.\"); \r\n\r\n    // saving seller before deleting mapping entry           \r\n    address payable _oldOwner = tokenOffer.seller;\r\n\r\n    // deactivating offer by setting array entry inactive\r\n    offersArray[tokenOffer.index].active = false;\r\n\r\n    // deleting offer mapping entry\r\n    delete tokenIdToOfferMapping[_tokenId];    \r\n\r\n    // transferring the NFT\r\n    _monkeyContractInterface.transferNFT(_oldOwner, _msgSender(), _tokenId);  \r\n\r\n    // transferring sent funds to _oldOwner\r\n    _oldOwner.transfer(msg.value);\r\n\r\n    // emitting events\r\n    emit MarketTransaction(\"Buy\", _msgSender(), _tokenId);\r\n    emit MonkeySold (_oldOwner, _msgSender(), msg.value, _tokenId);\r\n  }\r\n\r\n  // onlyOwner can check the length of offersArray\r\n  function showLengthOfOffersArray() public view onlyOwner returns(uint256 length) {\r\n    return offersArray.length;\r\n  }\r\n  \r\n  // onlyOwner can check entries in the offersArray \r\n  function showOfferArrayEntry(uint256 arrayPosition) public view onlyOwner returns(address seller, uint256 price, uint256 index, uint256 tokenId, bool active) { \r\n    Offer memory offer = offersArray[arrayPosition]; \r\n    return (\r\n    offer.seller,\r\n    offer.price,\r\n    offer.index, \r\n    offer.tokenId,\r\n    offer.active       \r\n    );    \r\n  }  \r\n\r\n  // function for owner to withdraw any ETH that has accumulated in this contract\r\n  function withdrawETH () public onlyOwner {\r\n    address payable receiver = payable(_msgSender());\r\n    receiver.transfer(address(this).balance);\r\n  }     \r\n   \r\n} ",
  "sourcePath": "C:\\code\\github\\CryptoMonkeys\\contracts\\MonkeyMarketplace.sol",
  "compiler": {
    "name": "solc",
    "version": "0.8.0+commit.c7dfd78e.Emscripten.clang"
  },
  "schemaVersion": "3.4.4",
  "updatedAt": "2022-02-03T20:26:11.132Z",
  "networkType": "ethereum",
  "devdoc": {
    "kind": "dev",
    "methods": {
      "owner()": {
        "details": "Returns the address of the current owner."
      },
      "paused()": {
        "details": "Returns true if the contract is paused, and false otherwise."
      },
      "renounceOwnership()": {
        "details": "Leaves the contract without owner. It will not be possible to call `onlyOwner` functions anymore. Can only be called by the current owner. NOTE: Renouncing ownership will leave the contract without an owner, thereby removing any functionality that is only available to the owner."
      },
      "transferOwnership(address)": {
        "details": "Transfers ownership of the contract to a new account (`newOwner`). Can only be called by the current owner."
      }
    },
    "version": 1
  },
  "userdoc": {
    "kind": "user",
    "methods": {
      "buyMonkey(uint256)": {
        "notice": "Executes the purchase of _tokenId. Sends the funds to the seller and transfers the token using transfer in Monkeycontract.    Emits the MarketTransaction event with txType \"Buy\". Requirement: The msg.value needs to equal the price of _tokenId Requirement: There must be an active offer for _tokenId"
      },
      "getAllTokenOnSale()": {
        "notice": "Get all tokenId's that are currently for sale.  Returns an empty array if none exist. adds a Token ID to the 'result' array each time the loop finds an active offer in the offersArray  "
      },
      "removeOffer(uint256)": {
        "notice": "Removes an existing offer. Emits the MarketTransaction event with txType \"Remove offer\" Requirement: Only the seller of _tokenId can remove an offer."
      },
      "setOffer(uint256,uint256)": {
        "notice": "Creates a new offer for _tokenId for the price _price. Emits the MarketTransaction event with txType \"Create offer\" Requirement: Only the owner of _tokenId can create an offer. Requirement: There can only be one active offer for a token at a time. Requirement: Marketplace contract (this) needs to be an approved operator when the offer is created."
      }
    },
    "version": 1
  }
}