{
  "contractName": "MonkeyContract",
  "abi": [
    {
      "inputs": [
        {
          "internalType": "address",
          "name": "_bananaToken",
          "type": "address"
        }
      ],
      "stateMutability": "nonpayable",
      "type": "constructor"
    },
    {
      "anonymous": false,
      "inputs": [
        {
          "indexed": true,
          "internalType": "address",
          "name": "owner",
          "type": "address"
        },
        {
          "indexed": true,
          "internalType": "address",
          "name": "approved",
          "type": "address"
        },
        {
          "indexed": true,
          "internalType": "uint256",
          "name": "tokenId",
          "type": "uint256"
        }
      ],
      "name": "Approval",
      "type": "event"
    },
    {
      "anonymous": false,
      "inputs": [
        {
          "indexed": true,
          "internalType": "address",
          "name": "owner",
          "type": "address"
        },
        {
          "indexed": true,
          "internalType": "address",
          "name": "operator",
          "type": "address"
        },
        {
          "indexed": false,
          "internalType": "bool",
          "name": "approved",
          "type": "bool"
        }
      ],
      "name": "ApprovalForAll",
      "type": "event"
    },
    {
      "anonymous": false,
      "inputs": [
        {
          "indexed": false,
          "internalType": "uint256",
          "name": "tokenId",
          "type": "uint256"
        },
        {
          "indexed": false,
          "internalType": "uint256",
          "name": "genes",
          "type": "uint256"
        },
        {
          "indexed": false,
          "internalType": "uint256",
          "name": "birthtime",
          "type": "uint256"
        },
        {
          "indexed": false,
          "internalType": "uint256",
          "name": "parent1Id",
          "type": "uint256"
        },
        {
          "indexed": false,
          "internalType": "uint256",
          "name": "parent2Id",
          "type": "uint256"
        },
        {
          "indexed": false,
          "internalType": "uint256",
          "name": "generation",
          "type": "uint256"
        },
        {
          "indexed": false,
          "internalType": "address",
          "name": "owner",
          "type": "address"
        }
      ],
      "name": "BreedingSuccessful",
      "type": "event"
    },
    {
      "anonymous": false,
      "inputs": [
        {
          "indexed": false,
          "internalType": "address",
          "name": "owner",
          "type": "address"
        },
        {
          "indexed": false,
          "internalType": "uint256",
          "name": "tokenId",
          "type": "uint256"
        },
        {
          "indexed": false,
          "internalType": "uint256",
          "name": "parent1Id",
          "type": "uint256"
        },
        {
          "indexed": false,
          "internalType": "uint256",
          "name": "parent2Id",
          "type": "uint256"
        },
        {
          "indexed": false,
          "internalType": "uint256",
          "name": "genes",
          "type": "uint256"
        }
      ],
      "name": "MonkeyCreated",
      "type": "event"
    },
    {
      "anonymous": false,
      "inputs": [
        {
          "indexed": true,
          "internalType": "address",
          "name": "previousOwner",
          "type": "address"
        },
        {
          "indexed": true,
          "internalType": "address",
          "name": "newOwner",
          "type": "address"
        }
      ],
      "name": "OwnershipTransferred",
      "type": "event"
    },
    {
      "anonymous": false,
      "inputs": [
        {
          "indexed": false,
          "internalType": "address",
          "name": "account",
          "type": "address"
        }
      ],
      "name": "Paused",
      "type": "event"
    },
    {
      "anonymous": false,
      "inputs": [
        {
          "indexed": true,
          "internalType": "address",
          "name": "from",
          "type": "address"
        },
        {
          "indexed": true,
          "internalType": "address",
          "name": "to",
          "type": "address"
        },
        {
          "indexed": true,
          "internalType": "uint256",
          "name": "tokenId",
          "type": "uint256"
        }
      ],
      "name": "Transfer",
      "type": "event"
    },
    {
      "anonymous": false,
      "inputs": [
        {
          "indexed": false,
          "internalType": "address",
          "name": "account",
          "type": "address"
        }
      ],
      "name": "Unpaused",
      "type": "event"
    },
    {
      "inputs": [],
      "name": "GEN0_Limit",
      "outputs": [
        {
          "internalType": "uint256",
          "name": "",
          "type": "uint256"
        }
      ],
      "stateMutability": "view",
      "type": "function",
      "constant": true
    },
    {
      "inputs": [
        {
          "internalType": "uint256",
          "name": "",
          "type": "uint256"
        }
      ],
      "name": "allMonkeysArray",
      "outputs": [
        {
          "internalType": "uint256",
          "name": "parent1Id",
          "type": "uint256"
        },
        {
          "internalType": "uint256",
          "name": "parent2Id",
          "type": "uint256"
        },
        {
          "internalType": "uint256",
          "name": "generation",
          "type": "uint256"
        },
        {
          "internalType": "uint256",
          "name": "genes",
          "type": "uint256"
        },
        {
          "internalType": "uint256",
          "name": "birthtime",
          "type": "uint256"
        }
      ],
      "stateMutability": "view",
      "type": "function",
      "constant": true
    },
    {
      "inputs": [
        {
          "internalType": "address",
          "name": "to",
          "type": "address"
        },
        {
          "internalType": "uint256",
          "name": "tokenId",
          "type": "uint256"
        }
      ],
      "name": "approve",
      "outputs": [],
      "stateMutability": "nonpayable",
      "type": "function"
    },
    {
      "inputs": [
        {
          "internalType": "address",
          "name": "owner",
          "type": "address"
        }
      ],
      "name": "balanceOf",
      "outputs": [
        {
          "internalType": "uint256",
          "name": "",
          "type": "uint256"
        }
      ],
      "stateMutability": "view",
      "type": "function",
      "constant": true
    },
    {
      "inputs": [],
      "name": "bananaToken",
      "outputs": [
        {
          "internalType": "contract IERC20",
          "name": "",
          "type": "address"
        }
      ],
      "stateMutability": "view",
      "type": "function",
      "constant": true
    },
    {
      "inputs": [],
      "name": "gen0amountTotal",
      "outputs": [
        {
          "internalType": "uint256",
          "name": "",
          "type": "uint256"
        }
      ],
      "stateMutability": "view",
      "type": "function",
      "constant": true
    },
    {
      "inputs": [
        {
          "internalType": "uint256",
          "name": "tokenId",
          "type": "uint256"
        }
      ],
      "name": "getApproved",
      "outputs": [
        {
          "internalType": "address",
          "name": "",
          "type": "address"
        }
      ],
      "stateMutability": "view",
      "type": "function",
      "constant": true
    },
    {
      "inputs": [
        {
          "internalType": "address",
          "name": "owner",
          "type": "address"
        },
        {
          "internalType": "address",
          "name": "operator",
          "type": "address"
        }
      ],
      "name": "isApprovedForAll",
      "outputs": [
        {
          "internalType": "bool",
          "name": "",
          "type": "bool"
        }
      ],
      "stateMutability": "view",
      "type": "function",
      "constant": true
    },
    {
      "inputs": [],
      "name": "name",
      "outputs": [
        {
          "internalType": "string",
          "name": "",
          "type": "string"
        }
      ],
      "stateMutability": "view",
      "type": "function",
      "constant": true
    },
    {
      "inputs": [],
      "name": "owner",
      "outputs": [
        {
          "internalType": "address",
          "name": "",
          "type": "address"
        }
      ],
      "stateMutability": "view",
      "type": "function",
      "constant": true
    },
    {
      "inputs": [
        {
          "internalType": "uint256",
          "name": "tokenId",
          "type": "uint256"
        }
      ],
      "name": "ownerOf",
      "outputs": [
        {
          "internalType": "address",
          "name": "",
          "type": "address"
        }
      ],
      "stateMutability": "view",
      "type": "function",
      "constant": true
    },
    {
      "inputs": [],
      "name": "paused",
      "outputs": [
        {
          "internalType": "bool",
          "name": "",
          "type": "bool"
        }
      ],
      "stateMutability": "view",
      "type": "function",
      "constant": true
    },
    {
      "inputs": [],
      "name": "renounceOwnership",
      "outputs": [],
      "stateMutability": "nonpayable",
      "type": "function"
    },
    {
      "inputs": [
        {
          "internalType": "address",
          "name": "operator",
          "type": "address"
        },
        {
          "internalType": "bool",
          "name": "approved",
          "type": "bool"
        }
      ],
      "name": "setApprovalForAll",
      "outputs": [],
      "stateMutability": "nonpayable",
      "type": "function"
    },
    {
      "inputs": [
        {
          "internalType": "bytes4",
          "name": "interfaceId",
          "type": "bytes4"
        }
      ],
      "name": "supportsInterface",
      "outputs": [
        {
          "internalType": "bool",
          "name": "",
          "type": "bool"
        }
      ],
      "stateMutability": "view",
      "type": "function",
      "constant": true
    },
    {
      "inputs": [],
      "name": "symbol",
      "outputs": [
        {
          "internalType": "string",
          "name": "",
          "type": "string"
        }
      ],
      "stateMutability": "view",
      "type": "function",
      "constant": true
    },
    {
      "inputs": [
        {
          "internalType": "uint256",
          "name": "index",
          "type": "uint256"
        }
      ],
      "name": "tokenByIndex",
      "outputs": [
        {
          "internalType": "uint256",
          "name": "",
          "type": "uint256"
        }
      ],
      "stateMutability": "view",
      "type": "function",
      "constant": true
    },
    {
      "inputs": [
        {
          "internalType": "address",
          "name": "owner",
          "type": "address"
        },
        {
          "internalType": "uint256",
          "name": "index",
          "type": "uint256"
        }
      ],
      "name": "tokenOfOwnerByIndex",
      "outputs": [
        {
          "internalType": "uint256",
          "name": "",
          "type": "uint256"
        }
      ],
      "stateMutability": "view",
      "type": "function",
      "constant": true
    },
    {
      "inputs": [
        {
          "internalType": "uint256",
          "name": "tokenId",
          "type": "uint256"
        }
      ],
      "name": "tokenURI",
      "outputs": [
        {
          "internalType": "string",
          "name": "",
          "type": "string"
        }
      ],
      "stateMutability": "view",
      "type": "function",
      "constant": true
    },
    {
      "inputs": [],
      "name": "totalSupply",
      "outputs": [
        {
          "internalType": "uint256",
          "name": "",
          "type": "uint256"
        }
      ],
      "stateMutability": "view",
      "type": "function",
      "constant": true
    },
    {
      "inputs": [
        {
          "internalType": "address",
          "name": "newOwner",
          "type": "address"
        }
      ],
      "name": "transferOwnership",
      "outputs": [],
      "stateMutability": "nonpayable",
      "type": "function"
    },
    {
      "inputs": [
        {
          "internalType": "address",
          "name": "_receivedMarketContractAddress",
          "type": "address"
        },
        {
          "internalType": "bool",
          "name": "setConnectMarket",
          "type": "bool"
        }
      ],
      "name": "connectMarket",
      "outputs": [],
      "stateMutability": "nonpayable",
      "type": "function"
    },
    {
      "inputs": [],
      "name": "checkMarketConnected",
      "outputs": [
        {
          "internalType": "address",
          "name": "marketAddressSaved",
          "type": "address"
        },
        {
          "internalType": "bool",
          "name": "isMarketConnected",
          "type": "bool"
        }
      ],
      "stateMutability": "view",
      "type": "function",
      "constant": true
    },
    {
      "inputs": [],
      "name": "pause",
      "outputs": [],
      "stateMutability": "nonpayable",
      "type": "function"
    },
    {
      "inputs": [],
      "name": "unpause",
      "outputs": [],
      "stateMutability": "nonpayable",
      "type": "function"
    },
    {
      "inputs": [],
      "name": "getMonkeyContractAddress",
      "outputs": [
        {
          "internalType": "address",
          "name": "",
          "type": "address"
        }
      ],
      "stateMutability": "view",
      "type": "function",
      "constant": true
    },
    {
      "inputs": [
        {
          "internalType": "uint256",
          "name": "tokenId",
          "type": "uint256"
        }
      ],
      "name": "getMonkeyDetails",
      "outputs": [
        {
          "internalType": "uint256",
          "name": "genes",
          "type": "uint256"
        },
        {
          "internalType": "uint256",
          "name": "birthtime",
          "type": "uint256"
        },
        {
          "internalType": "uint256",
          "name": "parent1Id",
          "type": "uint256"
        },
        {
          "internalType": "uint256",
          "name": "parent2Id",
          "type": "uint256"
        },
        {
          "internalType": "uint256",
          "name": "generation",
          "type": "uint256"
        },
        {
          "internalType": "address",
          "name": "owner",
          "type": "address"
        },
        {
          "internalType": "address",
          "name": "approvedAddress",
          "type": "address"
        }
      ],
      "stateMutability": "view",
      "type": "function",
      "constant": true
    },
    {
      "inputs": [
        {
          "internalType": "address",
          "name": "owner",
          "type": "address"
        }
      ],
      "name": "findMonkeyIdsOfAddress",
      "outputs": [
        {
          "internalType": "uint256[]",
          "name": "",
          "type": "uint256[]"
        }
      ],
      "stateMutability": "view",
      "type": "function",
      "constant": true
    },
    {
      "inputs": [
        {
          "internalType": "uint256",
          "name": "_genes",
          "type": "uint256"
        }
      ],
      "name": "createGen0Monkey",
      "outputs": [],
      "stateMutability": "nonpayable",
      "type": "function"
    },
    {
      "inputs": [
        {
          "internalType": "uint256",
          "name": "_genes",
          "type": "uint256"
        },
        {
          "internalType": "address",
          "name": "_owner",
          "type": "address"
        }
      ],
      "name": "createDemoMonkey",
      "outputs": [
        {
          "internalType": "uint256",
          "name": "",
          "type": "uint256"
        }
      ],
      "stateMutability": "nonpayable",
      "type": "function"
    },
    {
      "inputs": [
        {
          "internalType": "address",
          "name": "_from",
          "type": "address"
        },
        {
          "internalType": "address",
          "name": "_to",
          "type": "address"
        },
        {
          "internalType": "uint256",
          "name": "_tokenId",
          "type": "uint256"
        }
      ],
      "name": "transferNFT",
      "outputs": [],
      "stateMutability": "nonpayable",
      "type": "function"
    },
    {
      "inputs": [
        {
          "internalType": "uint256",
          "name": "_parent1Id",
          "type": "uint256"
        },
        {
          "internalType": "uint256",
          "name": "_parent2Id",
          "type": "uint256"
        }
      ],
      "name": "breed",
      "outputs": [
        {
          "internalType": "uint256",
          "name": "",
          "type": "uint256"
        }
      ],
      "stateMutability": "nonpayable",
      "type": "function"
    },
    {
      "inputs": [
        {
          "internalType": "address",
          "name": "from",
          "type": "address"
        },
        {
          "internalType": "address",
          "name": "to",
          "type": "address"
        },
        {
          "internalType": "uint256",
          "name": "tokenId",
          "type": "uint256"
        }
      ],
      "name": "transferFrom",
      "outputs": [],
      "stateMutability": "nonpayable",
      "type": "function"
    },
    {
      "inputs": [
        {
          "internalType": "address",
          "name": "from",
          "type": "address"
        },
        {
          "internalType": "address",
          "name": "to",
          "type": "address"
        },
        {
          "internalType": "uint256",
          "name": "tokenId",
          "type": "uint256"
        }
      ],
      "name": "safeTransferFrom",
      "outputs": [],
      "stateMutability": "nonpayable",
      "type": "function"
    },
    {
      "inputs": [
        {
          "internalType": "address",
          "name": "from",
          "type": "address"
        },
        {
          "internalType": "address",
          "name": "to",
          "type": "address"
        },
        {
          "internalType": "uint256",
          "name": "tokenId",
          "type": "uint256"
        },
        {
          "internalType": "bytes",
          "name": "_data",
          "type": "bytes"
        }
      ],
      "name": "safeTransferFrom",
      "outputs": [],
      "stateMutability": "nonpayable",
      "type": "function"
    }
  ],
  "bytecode": "0x6080604052600c600d556000600f60146101000a81548160ff02191690831515021790555060326011553480156200003657600080fd5b5060405162007d9d38038062007d9d83398181016040528101906200005c91906200159d565b6040518060400160405280600e81526020017f43727970746f204d6f6e6b6579730000000000000000000000000000000000008152506040518060400160405280600681526020017f4d4f4e4b455900000000000000000000000000000000000000000000000000008152508160009080519060200190620000e0929190620014bf565b508060019080519060200190620000f9929190620014bf565b5050506200011c620001106200020860201b60201c565b6200021060201b60201c565b6001600b819055506000600c60006101000a81548160ff02191690831515021790555080601060006101000a81548173ffffffffffffffffffffffffffffffffffffffff021916908373ffffffffffffffffffffffffffffffffffffffff16021790555030600c60016101000a81548173ffffffffffffffffffffffffffffffffffffffff021916908373ffffffffffffffffffffffffffffffffffffffff160217905550620001ee60008060006604503ef1932497620001e26200020860201b60201c565b620002d660201b60201c565b506200020160006200043b60201b60201c565b5062001e39565b600033905090565b6000600a60009054906101000a900473ffffffffffffffffffffffffffffffffffffffff16905081600a60006101000a81548173ffffffffffffffffffffffffffffffffffffffff021916908373ffffffffffffffffffffffffffffffffffffffff1602179055508173ffffffffffffffffffffffffffffffffffffffff168173ffffffffffffffffffffffffffffffffffffffff167f8be0079c531659141344cd1fd0a4f28419497f9722a3daafe3b4186f6b6457e060405160405180910390a35050565b6000620002e86200056560201b60201c565b156200032b576040517f08c379a0000000000000000000000000000000000000000000000000000000008152600401620003229062001b2f565b60405180910390fd5b60006040518060a001604052808881526020018781526020018681526020018581526020014281525090506012819080600181540180825580915050600190039060005260206000209060050201600090919091909150600082015181600001556020820151816001015560408201518160020155606082015181600301556080820151816004015550506000620003d860016012805490506200057c60201b62002b271790919060201c565b9050620003ec84826200059460201b60201c565b7f0b1e9a74eeaae184646d7a35062426460c8c9364005c6d441cce036dd9c655d584828a8a896040516200042595949392919062001a4a565b60405180910390a1809250505095945050505050565b6002600b54141562000484576040517f08c379a00000000000000000000000000000000000000000000000000000000081526004016200047b9062001bd9565b60405180910390fd5b6002600b819055506200049c6200056560201b60201c565b15620004df576040517f08c379a0000000000000000000000000000000000000000000000000000000008152600401620004d69062001b2f565b60405180910390fd5b6001151562000504620004f76200020860201b60201c565b83620005ba60201b60201c565b15151462000549576040517f08c379a0000000000000000000000000000000000000000000000000000000008152600401620005409062001aa7565b60405180910390fd5b6200055a81620006c260201b60201c565b6001600b8190555050565b6000600c60009054906101000a900460ff16905090565b600081836200058c919062001c85565b905092915050565b620005b6828260405180602001604052806000815250620007f260201b60201c565b5050565b6000620005cd826200086060201b60201c565b6200060f576040517f08c379a0000000000000000000000000000000000000000000000000000000008152600401620006069062001b0d565b60405180910390fd5b60006200062783620008cc60201b620012a81760201c565b90508073ffffffffffffffffffffffffffffffffffffffff168473ffffffffffffffffffffffffffffffffffffffff1614806200069f57508373ffffffffffffffffffffffffffffffffffffffff1662000687846200098160201b60201c565b73ffffffffffffffffffffffffffffffffffffffff16145b80620006b95750620006b8818562000a1160201b60201c565b5b91505092915050565b6000620006da82620008cc60201b620012a81760201c565b9050620006f08160008462000aa560201b60201c565b6200070360008362000bec60201b60201c565b6001600360008373ffffffffffffffffffffffffffffffffffffffff1673ffffffffffffffffffffffffffffffffffffffff168152602001908152602001600020600082825462000755919062001c85565b925050819055506002600083815260200190815260200160002060006101000a81549073ffffffffffffffffffffffffffffffffffffffff021916905581600073ffffffffffffffffffffffffffffffffffffffff168273ffffffffffffffffffffffffffffffffffffffff167fddf252ad1be2c89b69c2b068fc378daa952ba7f163c4a11628f55a4df523b3ef60405160405180910390a45050565b62000804838362000cb260201b60201c565b62000819600084848462000e9860201b60201c565b6200085b576040517f08c379a0000000000000000000000000000000000000000000000000000000008152600401620008529062001ac9565b60405180910390fd5b505050565b60008073ffffffffffffffffffffffffffffffffffffffff166002600084815260200190815260200160002060009054906101000a900473ffffffffffffffffffffffffffffffffffffffff1673ffffffffffffffffffffffffffffffffffffffff1614159050919050565b6000806002600084815260200190815260200160002060009054906101000a900473ffffffffffffffffffffffffffffffffffffffff169050600073ffffffffffffffffffffffffffffffffffffffff168173ffffffffffffffffffffffffffffffffffffffff16141562000978576040517f08c379a00000000000000000000000000000000000000000000000000000000081526004016200096f9062001b73565b60405180910390fd5b80915050919050565b600062000994826200086060201b60201c565b620009d6576040517f08c379a0000000000000000000000000000000000000000000000000000000008152600401620009cd9062001bb7565b60405180910390fd5b6004600083815260200190815260200160002060009054906101000a900473ffffffffffffffffffffffffffffffffffffffff169050919050565b6000600560008473ffffffffffffffffffffffffffffffffffffffff1673ffffffffffffffffffffffffffffffffffffffff16815260200190815260200160002060008373ffffffffffffffffffffffffffffffffffffffff1673ffffffffffffffffffffffffffffffffffffffff16815260200190815260200160002060009054906101000a900460ff16905092915050565b62000abd8383836200105260201b62002b3d1760201c565b600073ffffffffffffffffffffffffffffffffffffffff168373ffffffffffffffffffffffffffffffffffffffff16141562000b0a5762000b04816200105760201b60201c565b62000b52565b8173ffffffffffffffffffffffffffffffffffffffff168373ffffffffffffffffffffffffffffffffffffffff161462000b515762000b508382620010a060201b60201c565b5b5b600073ffffffffffffffffffffffffffffffffffffffff168273ffffffffffffffffffffffffffffffffffffffff16141562000b9f5762000b99816200121d60201b60201c565b62000be7565b8273ffffffffffffffffffffffffffffffffffffffff168273ffffffffffffffffffffffffffffffffffffffff161462000be65762000be582826200136560201b60201c565b5b5b505050565b816004600083815260200190815260200160002060006101000a81548173ffffffffffffffffffffffffffffffffffffffff021916908373ffffffffffffffffffffffffffffffffffffffff160217905550808273ffffffffffffffffffffffffffffffffffffffff1662000c6c83620008cc60201b620012a81760201c565b73ffffffffffffffffffffffffffffffffffffffff167f8c5be1e5ebec7d5bd14f71427d1e84f3dd0314c0f7b2291e5b200ac8c7c3b92560405160405180910390a45050565b600073ffffffffffffffffffffffffffffffffffffffff168273ffffffffffffffffffffffffffffffffffffffff16141562000d25576040517f08c379a000000000000000000000000000000000000000000000000000000000815260040162000d1c9062001b95565b60405180910390fd5b62000d36816200086060201b60201c565b1562000d79576040517f08c379a000000000000000000000000000000000000000000000000000000000815260040162000d709062001aeb565b60405180910390fd5b62000d8d6000838362000aa560201b60201c565b6001600360008473ffffffffffffffffffffffffffffffffffffffff1673ffffffffffffffffffffffffffffffffffffffff168152602001908152602001600020600082825462000ddf919062001c28565b92505081905550816002600083815260200190815260200160002060006101000a81548173ffffffffffffffffffffffffffffffffffffffff021916908373ffffffffffffffffffffffffffffffffffffffff160217905550808273ffffffffffffffffffffffffffffffffffffffff16600073ffffffffffffffffffffffffffffffffffffffff167fddf252ad1be2c89b69c2b068fc378daa952ba7f163c4a11628f55a4df523b3ef60405160405180910390a45050565b600062000ec68473ffffffffffffffffffffffffffffffffffffffff16620013f160201b62002b421760201c565b1562001045578373ffffffffffffffffffffffffffffffffffffffff1663150b7a0262000ef86200020860201b60201c565b8786866040518563ffffffff1660e01b815260040162000f1c9493929190620019f6565b602060405180830381600087803b15801562000f3757600080fd5b505af192505050801562000f6b57506040513d601f19601f8201168201806040525081019062000f689190620015c9565b60015b62000ff4573d806000811462000f9e576040519150601f19603f3d011682016040523d82523d6000602084013e62000fa3565b606091505b5060008151141562000fec576040517f08c379a000000000000000000000000000000000000000000000000000000000815260040162000fe39062001ac9565b60405180910390fd5b805181602001fd5b63150b7a0260e01b7bffffffffffffffffffffffffffffffffffffffffffffffffffffffff1916817bffffffffffffffffffffffffffffffffffffffffffffffffffffffff1916149150506200104a565b600190505b949350505050565b505050565b6008805490506009600083815260200190815260200160002081905550600881908060018154018082558091505060019003906000526020600020016000909190919091505550565b60006001620010ba846200140460201b620016531760201c565b620010c6919062001c85565b9050600060076000848152602001908152602001600020549050818114620011ac576000600660008673ffffffffffffffffffffffffffffffffffffffff1673ffffffffffffffffffffffffffffffffffffffff168152602001908152602001600020600084815260200190815260200160002054905080600660008773ffffffffffffffffffffffffffffffffffffffff1673ffffffffffffffffffffffffffffffffffffffff168152602001908152602001600020600084815260200190815260200160002081905550816007600083815260200190815260200160002081905550505b6007600084815260200190815260200160002060009055600660008573ffffffffffffffffffffffffffffffffffffffff1673ffffffffffffffffffffffffffffffffffffffff16815260200190815260200160002060008381526020019081526020016000206000905550505050565b6000600160088054905062001233919062001c85565b90506000600960008481526020019081526020016000205490506000600883815481106200128a577f4e487b7100000000000000000000000000000000000000000000000000000000600052603260045260246000fd5b906000526020600020015490508060088381548110620012d3577f4e487b7100000000000000000000000000000000000000000000000000000000600052603260045260246000fd5b90600052602060002001819055508160096000838152602001908152602001600020819055506009600085815260200190815260200160002060009055600880548062001349577f4e487b7100000000000000000000000000000000000000000000000000000000600052603160045260246000fd5b6001900381819060005260206000200160009055905550505050565b60006200137d836200140460201b620016531760201c565b905081600660008573ffffffffffffffffffffffffffffffffffffffff1673ffffffffffffffffffffffffffffffffffffffff168152602001908152602001600020600083815260200190815260200160002081905550806007600084815260200190815260200160002081905550505050565b600080823b905060008111915050919050565b60008073ffffffffffffffffffffffffffffffffffffffff168273ffffffffffffffffffffffffffffffffffffffff16141562001478576040517f08c379a00000000000000000000000000000000000000000000000000000000081526004016200146f9062001b51565b60405180910390fd5b600360008373ffffffffffffffffffffffffffffffffffffffff1673ffffffffffffffffffffffffffffffffffffffff168152602001908152602001600020549050919050565b828054620014cd9062001d60565b90600052602060002090601f016020900481019282620014f157600085556200153d565b82601f106200150c57805160ff19168380011785556200153d565b828001600101855582156200153d579182015b828111156200153c5782518255916020019190600101906200151f565b5b5090506200154c919062001550565b5090565b5b808211156200156b57600081600090555060010162001551565b5090565b600081519050620015808162001e05565b92915050565b600081519050620015978162001e1f565b92915050565b600060208284031215620015b057600080fd5b6000620015c0848285016200156f565b91505092915050565b600060208284031215620015dc57600080fd5b6000620015ec8482850162001586565b91505092915050565b620016008162001cc0565b82525050565b6000620016138262001bfb565b6200161f818562001c06565b93506200163181856020860162001d2a565b6200163c8162001df4565b840191505092915050565b600062001656604d8362001c17565b91507f4d6f6e6b6579436f6e74726163743a2043616e2774206275726e20746869732060008301527f4e465420776974686f7574206265696e67206f776e65722c20617070726f766560208301527f64206f72206f70657261746f72000000000000000000000000000000000000006040830152606082019050919050565b6000620016e460328362001c17565b91507f4552433732313a207472616e7366657220746f206e6f6e20455243373231526560008301527f63656976657220696d706c656d656e74657200000000000000000000000000006020830152604082019050919050565b60006200174c601c8362001c17565b91507f4552433732313a20746f6b656e20616c7265616479206d696e746564000000006000830152602082019050919050565b60006200178e602c8362001c17565b91507f4552433732313a206f70657261746f7220717565727920666f72206e6f6e657860008301527f697374656e7420746f6b656e00000000000000000000000000000000000000006020830152604082019050919050565b6000620017f660108362001c17565b91507f5061757361626c653a20706175736564000000000000000000000000000000006000830152602082019050919050565b600062001838602a8362001c17565b91507f4552433732313a2062616c616e636520717565727920666f7220746865207a6560008301527f726f2061646472657373000000000000000000000000000000000000000000006020830152604082019050919050565b6000620018a060298362001c17565b91507f4552433732313a206f776e657220717565727920666f72206e6f6e657869737460008301527f656e7420746f6b656e00000000000000000000000000000000000000000000006020830152604082019050919050565b60006200190860208362001c17565b91507f4552433732313a206d696e7420746f20746865207a65726f20616464726573736000830152602082019050919050565b60006200194a602c8362001c17565b91507f4552433732313a20617070726f76656420717565727920666f72206e6f6e657860008301527f697374656e7420746f6b656e00000000000000000000000000000000000000006020830152604082019050919050565b6000620019b2601f8362001c17565b91507f5265656e7472616e637947756172643a207265656e7472616e742063616c6c006000830152602082019050919050565b620019f08162001d20565b82525050565b600060808201905062001a0d6000830187620015f5565b62001a1c6020830186620015f5565b62001a2b6040830185620019e5565b818103606083015262001a3f818462001606565b905095945050505050565b600060a08201905062001a616000830188620015f5565b62001a706020830187620019e5565b62001a7f6040830186620019e5565b62001a8e6060830185620019e5565b62001a9d6080830184620019e5565b9695505050505050565b6000602082019050818103600083015262001ac28162001647565b9050919050565b6000602082019050818103600083015262001ae481620016d5565b9050919050565b6000602082019050818103600083015262001b06816200173d565b9050919050565b6000602082019050818103600083015262001b28816200177f565b9050919050565b6000602082019050818103600083015262001b4a81620017e7565b9050919050565b6000602082019050818103600083015262001b6c8162001829565b9050919050565b6000602082019050818103600083015262001b8e8162001891565b9050919050565b6000602082019050818103600083015262001bb081620018f9565b9050919050565b6000602082019050818103600083015262001bd2816200193b565b9050919050565b6000602082019050818103600083015262001bf481620019a3565b9050919050565b600081519050919050565b600082825260208201905092915050565b600082825260208201905092915050565b600062001c358262001d20565b915062001c428362001d20565b9250827fffffffffffffffffffffffffffffffffffffffffffffffffffffffffffffffff0382111562001c7a5762001c7962001d96565b5b828201905092915050565b600062001c928262001d20565b915062001c9f8362001d20565b92508282101562001cb55762001cb462001d96565b5b828203905092915050565b600062001ccd8262001d00565b9050919050565b60007fffffffff0000000000000000000000000000000000000000000000000000000082169050919050565b600073ffffffffffffffffffffffffffffffffffffffff82169050919050565b6000819050919050565b60005b8381101562001d4a57808201518184015260208101905062001d2d565b8381111562001d5a576000848401525b50505050565b6000600282049050600182168062001d7957607f821691505b6020821081141562001d905762001d8f62001dc5565b5b50919050565b7f4e487b7100000000000000000000000000000000000000000000000000000000600052601160045260246000fd5b7f4e487b7100000000000000000000000000000000000000000000000000000000600052602260045260246000fd5b6000601f19601f8301169050919050565b62001e108162001cc0565b811462001e1c57600080fd5b50565b62001e2a8162001cd4565b811462001e3657600080fd5b50565b615f548062001e496000396000f3fe608060405234801561001057600080fd5b50600436106102115760003560e01c806369e9cae111610125578063b88d4fde116100ad578063db0027941161007c578063db00279414610621578063e985e9c514610651578063ef742fc114610681578063f2fde38b1461069d578063f91ba674146106b957610211565b8063b88d4fde14610587578063c87b56dd146105a3578063d9ecad7b146105d3578063daa97fae1461060357610211565b80638aac2f33116100f45780638aac2f33146104f55780638ca576c8146105115780638da5cb5b1461052f57806395d89b411461054d578063a22cb4651461056b57610211565b806369e9cae11461049557806370a08231146104b1578063715018a6146104e15780638456cb59146104eb57610211565b806323b872dd116101a857806342842e0e1161017757806342842e0e146103dc5780634f6ccce7146103f857806355231655146104285780635c975abb146104475780636352211e1461046557610211565b806323b872dd146103505780632558e25f1461036c5780632f745c59146103a25780633f4ba83a146103d257610211565b8063095ea7b3116101e4578063095ea7b3146102b257806318160ddd146102ce5780631b0a1aed146102ec5780631b4172781461031c57610211565b806301ffc9a71461021657806306fdde0314610246578063081812fc146102645780630917cffe14610294575b600080fd5b610230600480360381019061022b919061462b565b6106d7565b60405161023d919061552f565b60405180910390f35b61024e610751565b60405161025b9190615565565b60405180910390f35b61027e6004803603810190610279919061467d565b6107e3565b60405161028b91906153f3565b60405180910390f35b61029c610868565b6040516102a99190615927565b60405180910390f35b6102cc60048036038101906102c791906145c6565b61086e565b005b6102d6610986565b6040516102e39190615927565b60405180910390f35b6103066004803603810190610301919061445b565b610993565b604051610313919061550d565b60405180910390f35b6103366004803603810190610331919061467d565b610a93565b604051610347959493929190615942565b60405180910390f35b61036a600480360381019061036591906144c0565b610ad9565b005b6103866004803603810190610381919061467d565b610c96565b6040516103999796959493929190615995565b60405180910390f35b6103bc60048036038101906103b791906145c6565b610e48565b6040516103c99190615927565b60405180910390f35b6103da610eed565b005b6103f660048036038101906103f191906144c0565b610f73565b005b610412600480360381019061040d919061467d565b611140565b60405161041f9190615927565b60405180910390f35b6104306111d7565b60405161043e929190615491565b60405180910390f35b61044f611291565b60405161045c919061552f565b60405180910390f35b61047f600480360381019061047a919061467d565b6112a8565b60405161048c91906153f3565b60405180910390f35b6104af60048036038101906104aa91906144c0565b61135a565b005b6104cb60048036038101906104c6919061445b565b611653565b6040516104d89190615927565b60405180910390f35b6104e961170b565b005b6104f3611793565b005b61050f600480360381019061050a919061458a565b611819565b005b6105196118f4565b604051610526919061554a565b60405180910390f35b61053761191a565b60405161054491906153f3565b60405180910390f35b610555611944565b6040516105629190615565565b60405180910390f35b6105856004803603810190610580919061458a565b6119d6565b005b6105a1600480360381019061059c919061450f565b611b57565b005b6105bd60048036038101906105b8919061467d565b611d16565b6040516105ca9190615565565b60405180910390f35b6105ed60048036038101906105e8919061470b565b611dbd565b6040516105fa9190615927565b60405180910390f35b61060b612511565b60405161061891906153f3565b60405180910390f35b61063b600480360381019061063691906146cf565b61253b565b6040516106489190615927565b60405180910390f35b61066b60048036038101906106669190614484565b6128a1565b604051610678919061552f565b60405180910390f35b61069b6004803603810190610696919061467d565b612935565b005b6106b760048036038101906106b2919061445b565b612a29565b005b6106c1612b21565b6040516106ce9190615927565b60405180910390f35b60007f780e9d63000000000000000000000000000000000000000000000000000000007bffffffffffffffffffffffffffffffffffffffffffffffffffffffff1916827bffffffffffffffffffffffffffffffffffffffffffffffffffffffff1916148061074a575061074982612b55565b5b9050919050565b60606000805461076090615d3f565b80601f016020809104026020016040519081016040528092919081815260200182805461078c90615d3f565b80156107d95780601f106107ae576101008083540402835291602001916107d9565b820191906000526020600020905b8154815290600101906020018083116107bc57829003601f168201915b5050505050905090565b60006107ee82612c37565b61082d576040517f08c379a0000000000000000000000000000000000000000000000000000000008152600401610824906157c7565b60405180910390fd5b6004600083815260200190815260200160002060009054906101000a900473ffffffffffffffffffffffffffffffffffffffff169050919050565b600e5481565b6000610879826112a8565b90508073ffffffffffffffffffffffffffffffffffffffff168373ffffffffffffffffffffffffffffffffffffffff1614156108ea576040517f08c379a00000000000000000000000000000000000000000000000000000000081526004016108e190615847565b60405180910390fd5b8073ffffffffffffffffffffffffffffffffffffffff16610909612ca3565b73ffffffffffffffffffffffffffffffffffffffff161480610938575061093781610932612ca3565b6128a1565b5b610977576040517f08c379a000000000000000000000000000000000000000000000000000000000815260040161096e90615707565b60405180910390fd5b6109818383612cab565b505050565b6000600880549050905090565b606060006109a083611653565b905060008167ffffffffffffffff8111156109e4577f4e487b7100000000000000000000000000000000000000000000000000000000600052604160045260246000fd5b604051908082528060200260200182016040528015610a125781602001602082028036833780820191505090505b50905060005b82811015610a88576000610a2c8683610e48565b905080838381518110610a68577f4e487b7100000000000000000000000000000000000000000000000000000000600052603260045260246000fd5b602002602001018181525050508080610a8090615d71565b915050610a18565b508092505050919050565b60128181548110610aa357600080fd5b90600052602060002090600502016000915090508060000154908060010154908060020154908060030154908060040154905085565b610ae1611291565b15610b21576040517f08c379a0000000000000000000000000000000000000000000000000000000008152600401610b18906156e7565b60405180910390fd5b60011515600f60149054906101000a900460ff1615151415610c36576000600f60009054906101000a900473ffffffffffffffffffffffffffffffffffffffff1673ffffffffffffffffffffffffffffffffffffffff1663951fbdf0836040518263ffffffff1660e01b8152600401610b9a9190615927565b60206040518083038186803b158015610bb257600080fd5b505afa158015610bc6573d6000803e3d6000fd5b505050506040513d601f19601f82011682018060405250810190610bea9190614602565b9050600115158115151415610c34576040517f08c379a0000000000000000000000000000000000000000000000000000000008152600401610c2b90615647565b60405180910390fd5b505b610c47610c41612ca3565b82612d64565b610c86576040517f08c379a0000000000000000000000000000000000000000000000000000000008152600401610c7d90615887565b60405180910390fd5b610c91838383612e42565b505050565b600080600080600080600060128881548110610cdb577f4e487b7100000000000000000000000000000000000000000000000000000000600052603260045260246000fd5b90600052602060002090600502016003015460128981548110610d27577f4e487b7100000000000000000000000000000000000000000000000000000000600052603260045260246000fd5b90600052602060002090600502016004015460128a81548110610d73577f4e487b7100000000000000000000000000000000000000000000000000000000600052603260045260246000fd5b90600052602060002090600502016000015460128b81548110610dbf577f4e487b7100000000000000000000000000000000000000000000000000000000600052603260045260246000fd5b90600052602060002090600502016001015460128c81548110610e0b577f4e487b7100000000000000000000000000000000000000000000000000000000600052603260045260246000fd5b906000526020600020906005020160020154610e268d6112a8565b610e2f8e6107e3565b9650965096509650965096509650919395979092949650565b6000610e5383611653565b8210610e94576040517f08c379a0000000000000000000000000000000000000000000000000000000008152600401610e8b906155c7565b60405180910390fd5b600660008473ffffffffffffffffffffffffffffffffffffffff1673ffffffffffffffffffffffffffffffffffffffff168152602001908152602001600020600083815260200190815260200160002054905092915050565b610ef5612ca3565b73ffffffffffffffffffffffffffffffffffffffff16610f1361191a565b73ffffffffffffffffffffffffffffffffffffffff1614610f69576040517f08c379a0000000000000000000000000000000000000000000000000000000008152600401610f60906157e7565b60405180910390fd5b610f7161309e565b565b610f7b611291565b15610fbb576040517f08c379a0000000000000000000000000000000000000000000000000000000008152600401610fb2906156e7565b60405180910390fd5b60011515600f60149054906101000a900460ff16151514156110d0576000600f60009054906101000a900473ffffffffffffffffffffffffffffffffffffffff1673ffffffffffffffffffffffffffffffffffffffff1663951fbdf0836040518263ffffffff1660e01b81526004016110349190615927565b60206040518083038186803b15801561104c57600080fd5b505afa158015611060573d6000803e3d6000fd5b505050506040513d601f19601f820116820180604052508101906110849190614602565b90506001151581151514156110ce576040517f08c379a00000000000000000000000000000000000000000000000000000000081526004016110c590615647565b60405180910390fd5b505b6110e16110db612ca3565b82612d64565b611120576040517f08c379a000000000000000000000000000000000000000000000000000000000815260040161111790615887565b60405180910390fd5b61113b83838360405180602001604052806000815250611b57565b505050565b600061114a610986565b821061118b576040517f08c379a0000000000000000000000000000000000000000000000000000000008152600401611182906158a7565b60405180910390fd5b600882815481106111c5577f4e487b7100000000000000000000000000000000000000000000000000000000600052603260045260246000fd5b90600052602060002001549050919050565b6000806111e2612ca3565b73ffffffffffffffffffffffffffffffffffffffff1661120061191a565b73ffffffffffffffffffffffffffffffffffffffff1614611256576040517f08c379a000000000000000000000000000000000000000000000000000000000815260040161124d906157e7565b60405180910390fd5b600f60009054906101000a900473ffffffffffffffffffffffffffffffffffffffff16600f60149054906101000a900460ff16915091509091565b6000600c60009054906101000a900460ff16905090565b6000806002600084815260200190815260200160002060009054906101000a900473ffffffffffffffffffffffffffffffffffffffff169050600073ffffffffffffffffffffffffffffffffffffffff168173ffffffffffffffffffffffffffffffffffffffff161415611351576040517f08c379a000000000000000000000000000000000000000000000000000000000815260040161134890615767565b60405180910390fd5b80915050919050565b6002600b5414156113a0576040517f08c379a0000000000000000000000000000000000000000000000000000000008152600401611397906158e7565b60405180910390fd5b6002600b819055506113b0611291565b156113f0576040517f08c379a00000000000000000000000000000000000000000000000000000000081526004016113e7906156e7565b60405180910390fd5b60011515600f60149054906101000a900460ff1615151415611505576000600f60009054906101000a900473ffffffffffffffffffffffffffffffffffffffff1673ffffffffffffffffffffffffffffffffffffffff1663951fbdf0836040518263ffffffff1660e01b81526004016114699190615927565b60206040518083038186803b15801561148157600080fd5b505afa158015611495573d6000803e3d6000fd5b505050506040513d601f19601f820116820180604052508101906114b99190614602565b9050600115158115151415611503576040517f08c379a00000000000000000000000000000000000000000000000000000000081526004016114fa90615647565b60405180910390fd5b505b600073ffffffffffffffffffffffffffffffffffffffff168273ffffffffffffffffffffffffffffffffffffffff161415611575576040517f08c379a000000000000000000000000000000000000000000000000000000000815260040161156c906155a7565b60405180910390fd5b3073ffffffffffffffffffffffffffffffffffffffff168273ffffffffffffffffffffffffffffffffffffffff1614156115e4576040517f08c379a00000000000000000000000000000000000000000000000000000000081526004016115db90615867565b60405180910390fd5b600115156115f96115f3612ca3565b83612d64565b15151461163b576040517f08c379a0000000000000000000000000000000000000000000000000000000008152600401611632906158c7565b60405180910390fd5b611646838383610f73565b6001600b81905550505050565b60008073ffffffffffffffffffffffffffffffffffffffff168273ffffffffffffffffffffffffffffffffffffffff1614156116c4576040517f08c379a00000000000000000000000000000000000000000000000000000000081526004016116bb90615747565b60405180910390fd5b600360008373ffffffffffffffffffffffffffffffffffffffff1673ffffffffffffffffffffffffffffffffffffffff168152602001908152602001600020549050919050565b611713612ca3565b73ffffffffffffffffffffffffffffffffffffffff1661173161191a565b73ffffffffffffffffffffffffffffffffffffffff1614611787576040517f08c379a000000000000000000000000000000000000000000000000000000000815260040161177e906157e7565b60405180910390fd5b6117916000613140565b565b61179b612ca3565b73ffffffffffffffffffffffffffffffffffffffff166117b961191a565b73ffffffffffffffffffffffffffffffffffffffff161461180f576040517f08c379a0000000000000000000000000000000000000000000000000000000008152600401611806906157e7565b60405180910390fd5b611817613206565b565b611821612ca3565b73ffffffffffffffffffffffffffffffffffffffff1661183f61191a565b73ffffffffffffffffffffffffffffffffffffffff1614611895576040517f08c379a000000000000000000000000000000000000000000000000000000000815260040161188c906157e7565b60405180910390fd5b81600f60006101000a81548173ffffffffffffffffffffffffffffffffffffffff021916908373ffffffffffffffffffffffffffffffffffffffff16021790555080600f60146101000a81548160ff0219169083151502179055505050565b601060009054906101000a900473ffffffffffffffffffffffffffffffffffffffff1681565b6000600a60009054906101000a900473ffffffffffffffffffffffffffffffffffffffff16905090565b60606001805461195390615d3f565b80601f016020809104026020016040519081016040528092919081815260200182805461197f90615d3f565b80156119cc5780601f106119a1576101008083540402835291602001916119cc565b820191906000526020600020905b8154815290600101906020018083116119af57829003601f168201915b5050505050905090565b6119de612ca3565b73ffffffffffffffffffffffffffffffffffffffff168273ffffffffffffffffffffffffffffffffffffffff161415611a4c576040517f08c379a0000000000000000000000000000000000000000000000000000000008152600401611a4390615687565b60405180910390fd5b8060056000611a59612ca3565b73ffffffffffffffffffffffffffffffffffffffff1673ffffffffffffffffffffffffffffffffffffffff16815260200190815260200160002060008473ffffffffffffffffffffffffffffffffffffffff1673ffffffffffffffffffffffffffffffffffffffff16815260200190815260200160002060006101000a81548160ff0219169083151502179055508173ffffffffffffffffffffffffffffffffffffffff16611b06612ca3565b73ffffffffffffffffffffffffffffffffffffffff167f17307eab39ab6107e8899845ad3d59bd9653f200f220920489ca2b5937696c3183604051611b4b919061552f565b60405180910390a35050565b611b5f611291565b15611b9f576040517f08c379a0000000000000000000000000000000000000000000000000000000008152600401611b96906156e7565b60405180910390fd5b60011515600f60149054906101000a900460ff1615151415611cb4576000600f60009054906101000a900473ffffffffffffffffffffffffffffffffffffffff1673ffffffffffffffffffffffffffffffffffffffff1663951fbdf0846040518263ffffffff1660e01b8152600401611c189190615927565b60206040518083038186803b158015611c3057600080fd5b505afa158015611c44573d6000803e3d6000fd5b505050506040513d601f19601f82011682018060405250810190611c689190614602565b9050600115158115151415611cb2576040517f08c379a0000000000000000000000000000000000000000000000000000000008152600401611ca990615647565b60405180910390fd5b505b611cc5611cbf612ca3565b83612d64565b611d04576040517f08c379a0000000000000000000000000000000000000000000000000000000008152600401611cfb90615887565b60405180910390fd5b611d10848484846132a9565b50505050565b6060611d2182612c37565b611d60576040517f08c379a0000000000000000000000000000000000000000000000000000000008152600401611d5790615827565b60405180910390fd5b6000611d6a613305565b90506000815111611d8a5760405180602001604052806000815250611db5565b80611d948461331c565b604051602001611da5929190615392565b6040516020818303038152906040525b915050919050565b60006002600b541415611e05576040517f08c379a0000000000000000000000000000000000000000000000000000000008152600401611dfc906158e7565b60405180910390fd5b6002600b81905550611e15611291565b15611e55576040517f08c379a0000000000000000000000000000000000000000000000000000000008152600401611e4c906156e7565b60405180910390fd5b601154601060009054906101000a900473ffffffffffffffffffffffffffffffffffffffff1673ffffffffffffffffffffffffffffffffffffffff166370a08231611e9e612ca3565b6040518263ffffffff1660e01b8152600401611eba91906153f3565b60206040518083038186803b158015611ed257600080fd5b505afa158015611ee6573d6000803e3d6000fd5b505050506040513d601f19601f82011682018060405250810190611f0a91906146a6565b1015611f4b576040517f08c379a0000000000000000000000000000000000000000000000000000000008152600401611f42906156a7565b60405180910390fd5b6000601060009054906101000a900473ffffffffffffffffffffffffffffffffffffffff1673ffffffffffffffffffffffffffffffffffffffff166370a08231306040518263ffffffff1660e01b8152600401611fa891906153f3565b60206040518083038186803b158015611fc057600080fd5b505afa158015611fd4573d6000803e3d6000fd5b505050506040513d601f19601f82011682018060405250810190611ff891906146a6565b9050601060009054906101000a900473ffffffffffffffffffffffffffffffffffffffff1673ffffffffffffffffffffffffffffffffffffffff166323b872dd612040612ca3565b306011546040518463ffffffff1660e01b81526004016120629392919061540e565b602060405180830381600087803b15801561207c57600080fd5b505af1158015612090573d6000803e3d6000fd5b505050506040513d601f19601f820116820180604052508101906120b49190614602565b50601154816120c39190615b50565b601060009054906101000a900473ffffffffffffffffffffffffffffffffffffffff1673ffffffffffffffffffffffffffffffffffffffff166370a08231306040518263ffffffff1660e01b815260040161211e91906153f3565b60206040518083038186803b15801561213657600080fd5b505afa15801561214a573d6000803e3d6000fd5b505050506040513d601f19601f8201168201806040525081019061216e91906146a6565b146121a2577f4e487b7100000000000000000000000000000000000000000000000000000000600052600160045260246000fd5b6121aa612ca3565b73ffffffffffffffffffffffffffffffffffffffff166121c9856112a8565b73ffffffffffffffffffffffffffffffffffffffff1614801561222657506121ef612ca3565b73ffffffffffffffffffffffffffffffffffffffff1661220e846112a8565b73ffffffffffffffffffffffffffffffffffffffff16145b612265576040517f08c379a000000000000000000000000000000000000000000000000000000000815260040161225c906157a7565b60405180910390fd5b6000601285815481106122a1577f4e487b7100000000000000000000000000000000000000000000000000000000600052603260045260246000fd5b90600052602060002090600502016003015490506000601285815481106122f1577f4e487b7100000000000000000000000000000000000000000000000000000000600052603260045260246000fd5b9060005260206000209060050201600301549050600061231183836134c9565b9050600061231f8888613771565b9050600061233789898486612332612ca3565b61390c565b90507f8e3541d6cb6a06d3a1785ca3c18fa6ca7b39a6278433734c442e2ebfe623e2ea8160128381548110612395577f4e487b7100000000000000000000000000000000000000000000000000000000600052603260045260246000fd5b906000526020600020906005020160030154601284815481106123e1577f4e487b7100000000000000000000000000000000000000000000000000000000600052603260045260246000fd5b9060005260206000209060050201600401546012858154811061242d577f4e487b7100000000000000000000000000000000000000000000000000000000600052603260045260246000fd5b90600052602060002090600502016000015460128681548110612479577f4e487b7100000000000000000000000000000000000000000000000000000000600052603260045260246000fd5b906000526020600020906005020160010154601287815481106124c5577f4e487b7100000000000000000000000000000000000000000000000000000000600052603260045260246000fd5b9060005260206000209060050201600201546124df612ca3565b6040516124f29796959493929190615a04565b60405180910390a18096505050505050506001600b8190555092915050565b6000600c60019054906101000a900473ffffffffffffffffffffffffffffffffffffffff16905090565b6000601154601060009054906101000a900473ffffffffffffffffffffffffffffffffffffffff1673ffffffffffffffffffffffffffffffffffffffff166370a08231846040518263ffffffff1660e01b815260040161259b91906153f3565b60206040518083038186803b1580156125b357600080fd5b505afa1580156125c7573d6000803e3d6000fd5b505050506040513d601f19601f820116820180604052508101906125eb91906146a6565b101561262c576040517f08c379a0000000000000000000000000000000000000000000000000000000008152600401612623906156a7565b60405180910390fd5b6000601060009054906101000a900473ffffffffffffffffffffffffffffffffffffffff1673ffffffffffffffffffffffffffffffffffffffff166370a08231306040518263ffffffff1660e01b815260040161268991906153f3565b60206040518083038186803b1580156126a157600080fd5b505afa1580156126b5573d6000803e3d6000fd5b505050506040513d601f19601f820116820180604052508101906126d991906146a6565b9050601060009054906101000a900473ffffffffffffffffffffffffffffffffffffffff1673ffffffffffffffffffffffffffffffffffffffff166323b872dd612721612ca3565b306011546040518463ffffffff1660e01b81526004016127439392919061540e565b602060405180830381600087803b15801561275d57600080fd5b505af1158015612771573d6000803e3d6000fd5b505050506040513d601f19601f820116820180604052508101906127959190614602565b50601154816127a49190615b50565b601060009054906101000a900473ffffffffffffffffffffffffffffffffffffffff1673ffffffffffffffffffffffffffffffffffffffff166370a08231306040518263ffffffff1660e01b81526004016127ff91906153f3565b60206040518083038186803b15801561281757600080fd5b505afa15801561282b573d6000803e3d6000fd5b505050506040513d601f19601f8201168201806040525081019061284f91906146a6565b14612883577f4e487b7100000000000000000000000000000000000000000000000000000000600052600160045260246000fd5b60006128946063806063888861390c565b9050809250505092915050565b6000600560008473ffffffffffffffffffffffffffffffffffffffff1673ffffffffffffffffffffffffffffffffffffffff16815260200190815260200160002060008373ffffffffffffffffffffffffffffffffffffffff1673ffffffffffffffffffffffffffffffffffffffff16815260200190815260200160002060009054906101000a900460ff16905092915050565b61293d612ca3565b73ffffffffffffffffffffffffffffffffffffffff1661295b61191a565b73ffffffffffffffffffffffffffffffffffffffff16146129b1576040517f08c379a00000000000000000000000000000000000000000000000000000000081526004016129a8906157e7565b60405180910390fd5b600d54600e54106129f7576040517f08c379a00000000000000000000000000000000000000000000000000000000081526004016129ee90615907565b60405180910390fd5b600e6000815480929190612a0a90615d71565b9190505550612a25600080600084612a20612ca3565b61390c565b5050565b612a31612ca3565b73ffffffffffffffffffffffffffffffffffffffff16612a4f61191a565b73ffffffffffffffffffffffffffffffffffffffff1614612aa5576040517f08c379a0000000000000000000000000000000000000000000000000000000008152600401612a9c906157e7565b60405180910390fd5b600073ffffffffffffffffffffffffffffffffffffffff168173ffffffffffffffffffffffffffffffffffffffff161415612b15576040517f08c379a0000000000000000000000000000000000000000000000000000000008152600401612b0c90615607565b60405180910390fd5b612b1e81613140565b50565b600d5481565b60008183612b359190615c31565b905092915050565b505050565b600080823b905060008111915050919050565b60007f80ac58cd000000000000000000000000000000000000000000000000000000007bffffffffffffffffffffffffffffffffffffffffffffffffffffffff1916827bffffffffffffffffffffffffffffffffffffffffffffffffffffffff19161480612c2057507f5b5e139f000000000000000000000000000000000000000000000000000000007bffffffffffffffffffffffffffffffffffffffffffffffffffffffff1916827bffffffffffffffffffffffffffffffffffffffffffffffffffffffff1916145b80612c305750612c2f82613a55565b5b9050919050565b60008073ffffffffffffffffffffffffffffffffffffffff166002600084815260200190815260200160002060009054906101000a900473ffffffffffffffffffffffffffffffffffffffff1673ffffffffffffffffffffffffffffffffffffffff1614159050919050565b600033905090565b816004600083815260200190815260200160002060006101000a81548173ffffffffffffffffffffffffffffffffffffffff021916908373ffffffffffffffffffffffffffffffffffffffff160217905550808273ffffffffffffffffffffffffffffffffffffffff16612d1e836112a8565b73ffffffffffffffffffffffffffffffffffffffff167f8c5be1e5ebec7d5bd14f71427d1e84f3dd0314c0f7b2291e5b200ac8c7c3b92560405160405180910390a45050565b6000612d6f82612c37565b612dae576040517f08c379a0000000000000000000000000000000000000000000000000000000008152600401612da5906156c7565b60405180910390fd5b6000612db9836112a8565b90508073ffffffffffffffffffffffffffffffffffffffff168473ffffffffffffffffffffffffffffffffffffffff161480612e2857508373ffffffffffffffffffffffffffffffffffffffff16612e10846107e3565b73ffffffffffffffffffffffffffffffffffffffff16145b80612e395750612e3881856128a1565b5b91505092915050565b8273ffffffffffffffffffffffffffffffffffffffff16612e62826112a8565b73ffffffffffffffffffffffffffffffffffffffff1614612eb8576040517f08c379a0000000000000000000000000000000000000000000000000000000008152600401612eaf90615807565b60405180910390fd5b600073ffffffffffffffffffffffffffffffffffffffff168273ffffffffffffffffffffffffffffffffffffffff161415612f28576040517f08c379a0000000000000000000000000000000000000000000000000000000008152600401612f1f90615667565b60405180910390fd5b612f33838383613abf565b612f3e600082612cab565b6001600360008573ffffffffffffffffffffffffffffffffffffffff1673ffffffffffffffffffffffffffffffffffffffff1681526020019081526020016000206000828254612f8e9190615c31565b925050819055506001600360008473ffffffffffffffffffffffffffffffffffffffff1673ffffffffffffffffffffffffffffffffffffffff1681526020019081526020016000206000828254612fe59190615b50565b92505081905550816002600083815260200190815260200160002060006101000a81548173ffffffffffffffffffffffffffffffffffffffff021916908373ffffffffffffffffffffffffffffffffffffffff160217905550808273ffffffffffffffffffffffffffffffffffffffff168473ffffffffffffffffffffffffffffffffffffffff167fddf252ad1be2c89b69c2b068fc378daa952ba7f163c4a11628f55a4df523b3ef60405160405180910390a4505050565b6130a6611291565b6130e5576040517f08c379a00000000000000000000000000000000000000000000000000000000081526004016130dc90615587565b60405180910390fd5b6000600c60006101000a81548160ff0219169083151502179055507f5db9ee0a495bf2e6ff9c91a7834c1ba4fdd244a5e8aa4e537bd38aeae4b073aa613129612ca3565b60405161313691906153f3565b60405180910390a1565b6000600a60009054906101000a900473ffffffffffffffffffffffffffffffffffffffff16905081600a60006101000a81548173ffffffffffffffffffffffffffffffffffffffff021916908373ffffffffffffffffffffffffffffffffffffffff1602179055508173ffffffffffffffffffffffffffffffffffffffff168173ffffffffffffffffffffffffffffffffffffffff167f8be0079c531659141344cd1fd0a4f28419497f9722a3daafe3b4186f6b6457e060405160405180910390a35050565b61320e611291565b1561324e576040517f08c379a0000000000000000000000000000000000000000000000000000000008152600401613245906156e7565b60405180910390fd5b6001600c60006101000a81548160ff0219169083151502179055507f62e78cea01bee320cd4e420270b5ea74000d11b0c9f74754ebdbfc544b05a258613292612ca3565b60405161329f91906153f3565b60405180910390a1565b6132b4848484612e42565b6132c084848484613bd3565b6132ff576040517f08c379a00000000000000000000000000000000000000000000000000000000081526004016132f6906155e7565b60405180910390fd5b50505050565b606060405180602001604052806000815250905090565b60606000821415613364576040518060400160405280600181526020017f300000000000000000000000000000000000000000000000000000000000000081525090506134c4565b600082905060005b6000821461339657808061337f90615d71565b915050600a8261338f9190615ba6565b915061336c565b60008167ffffffffffffffff8111156133d8577f4e487b7100000000000000000000000000000000000000000000000000000000600052604160045260246000fd5b6040519080825280601f01601f19166020018201604052801561340a5781602001600182028036833780820191505090505b5090505b600085146134bd576001826134239190615c31565b9150600a856134329190615dc4565b603061343e9190615b50565b60f81b81838151811061347a577f4e487b7100000000000000000000000000000000000000000000000000000000600052603260045260246000fd5b60200101907effffffffffffffffffffffffffffffffffffffffffffffffffffffffffffff1916908160001a905350600a856134b69190615ba6565b945061340e565b8093505050505b919050565b60006134d361433d565b60006134dd613d6a565b90506000600790506000600190505b604081116135f3576000818460ff1616146135585760648761350e9190615dc4565b60ff1684836008811061354a577f4e487b7100000000000000000000000000000000000000000000000000000000600052603260045260246000fd5b6020020181815250506135ab565b6064866135659190615dc4565b60ff168483600881106135a1577f4e487b7100000000000000000000000000000000000000000000000000000000600052603260045260246000fd5b6020020181815250505b6064876135b89190615ba6565b96506064866135c79190615ba6565b95506135dd600183612b2790919063ffffffff16565b91506002816135ec9190615bd7565b90506134ec565b5060008260ff16613602610986565b601260008154811061363d577f4e487b7100000000000000000000000000000000000000000000000000000000600052603260045260246000fd5b906000526020600020906005020160030154604051602001613661939291906153b6565b6040516020818303038152906040528051906020012060001c9050600a60598261368b9190615dc4565b6136959190615b50565b905080846000600881106136d2577f4e487b7100000000000000000000000000000000000000000000000000000000600052603260045260246000fd5b602002018181525050600080600090505b600881101561376257858160088110613725577f4e487b7100000000000000000000000000000000000000000000000000000000600052603260045260246000fd5b6020020151826137359190615b50565b91506007811461374f5760648261374c9190615bd7565b91505b808061375a90615d71565b9150506136e3565b50809550505050505092915050565b600080601284815481106137ae577f4e487b7100000000000000000000000000000000000000000000000000000000600052603260045260246000fd5b90600052602060002090600502016002015490506000601284815481106137fe577f4e487b7100000000000000000000000000000000000000000000000000000000600052603260045260246000fd5b90600052602060002090600502016002015490506103e88210801561382457506103e881105b613863576040517f08c379a000000000000000000000000000000000000000000000000000000000815260040161385a90615727565b60405180910390fd5b60008183146138d95760006002600a848661387e9190615b50565b6138889190615bd7565b6138929190615ba6565b90506000600a826138a39190615dc4565b11156138b8576005816138b69190615c31565b505b6002600a826138c79190615ba6565b6138d19190615b50565b915050613900565b6001600283856138e99190615b50565b6138f39190615ba6565b6138fd9190615b50565b90505b80935050505092915050565b6000613916611291565b15613956576040517f08c379a000000000000000000000000000000000000000000000000000000000815260040161394d906156e7565b60405180910390fd5b60006040518060a0016040528088815260200187815260200186815260200185815260200142815250905060128190806001815401808255809150506001900390600052602060002090600502016000909190919091506000820151816000015560208201518160010155604082015181600201556060820151816003015560808201518160040155505060006139fc6001601280549050612b2790919063ffffffff16565b9050613a088482613d7e565b7f0b1e9a74eeaae184646d7a35062426460c8c9364005c6d441cce036dd9c655d584828a8a89604051613a3f9594939291906154ba565b60405180910390a1809250505095945050505050565b60007f01ffc9a7000000000000000000000000000000000000000000000000000000007bffffffffffffffffffffffffffffffffffffffffffffffffffffffff1916827bffffffffffffffffffffffffffffffffffffffffffffffffffffffff1916149050919050565b613aca838383612b3d565b600073ffffffffffffffffffffffffffffffffffffffff168373ffffffffffffffffffffffffffffffffffffffff161415613b0d57613b0881613d9c565b613b4c565b8173ffffffffffffffffffffffffffffffffffffffff168373ffffffffffffffffffffffffffffffffffffffff1614613b4b57613b4a8382613de5565b5b5b600073ffffffffffffffffffffffffffffffffffffffff168273ffffffffffffffffffffffffffffffffffffffff161415613b8f57613b8a81613f52565b613bce565b8273ffffffffffffffffffffffffffffffffffffffff168273ffffffffffffffffffffffffffffffffffffffff1614613bcd57613bcc8282614095565b5b5b505050565b6000613bf48473ffffffffffffffffffffffffffffffffffffffff16612b42565b15613d5d578373ffffffffffffffffffffffffffffffffffffffff1663150b7a02613c1d612ca3565b8786866040518563ffffffff1660e01b8152600401613c3f9493929190615445565b602060405180830381600087803b158015613c5957600080fd5b505af1925050508015613c8a57506040513d601f19601f82011682018060405250810190613c879190614654565b60015b613d0d573d8060008114613cba576040519150601f19603f3d011682016040523d82523d6000602084013e613cbf565b606091505b50600081511415613d05576040517f08c379a0000000000000000000000000000000000000000000000000000000008152600401613cfc906155e7565b60405180910390fd5b805181602001fd5b63150b7a0260e01b7bffffffffffffffffffffffffffffffffffffffffffffffffffffffff1916817bffffffffffffffffffffffffffffffffffffffffffffffffffffffff191614915050613d62565b600190505b949350505050565b600060ff42613d799190615dc4565b905090565b613d98828260405180602001604052806000815250614114565b5050565b6008805490506009600083815260200190815260200160002081905550600881908060018154018082558091505060019003906000526020600020016000909190919091505550565b60006001613df284611653565b613dfc9190615c31565b9050600060076000848152602001908152602001600020549050818114613ee1576000600660008673ffffffffffffffffffffffffffffffffffffffff1673ffffffffffffffffffffffffffffffffffffffff168152602001908152602001600020600084815260200190815260200160002054905080600660008773ffffffffffffffffffffffffffffffffffffffff1673ffffffffffffffffffffffffffffffffffffffff168152602001908152602001600020600084815260200190815260200160002081905550816007600083815260200190815260200160002081905550505b6007600084815260200190815260200160002060009055600660008573ffffffffffffffffffffffffffffffffffffffff1673ffffffffffffffffffffffffffffffffffffffff16815260200190815260200160002060008381526020019081526020016000206000905550505050565b60006001600880549050613f669190615c31565b9050600060096000848152602001908152602001600020549050600060088381548110613fbc577f4e487b7100000000000000000000000000000000000000000000000000000000600052603260045260246000fd5b906000526020600020015490508060088381548110614004577f4e487b7100000000000000000000000000000000000000000000000000000000600052603260045260246000fd5b906000526020600020018190555081600960008381526020019081526020016000208190555060096000858152602001908152602001600020600090556008805480614079577f4e487b7100000000000000000000000000000000000000000000000000000000600052603160045260246000fd5b6001900381819060005260206000200160009055905550505050565b60006140a083611653565b905081600660008573ffffffffffffffffffffffffffffffffffffffff1673ffffffffffffffffffffffffffffffffffffffff168152602001908152602001600020600083815260200190815260200160002081905550806007600084815260200190815260200160002081905550505050565b61411e838361416f565b61412b6000848484613bd3565b61416a576040517f08c379a0000000000000000000000000000000000000000000000000000000008152600401614161906155e7565b60405180910390fd5b505050565b600073ffffffffffffffffffffffffffffffffffffffff168273ffffffffffffffffffffffffffffffffffffffff1614156141df576040517f08c379a00000000000000000000000000000000000000000000000000000000081526004016141d690615787565b60405180910390fd5b6141e881612c37565b15614228576040517f08c379a000000000000000000000000000000000000000000000000000000000815260040161421f90615627565b60405180910390fd5b61423460008383613abf565b6001600360008473ffffffffffffffffffffffffffffffffffffffff1673ffffffffffffffffffffffffffffffffffffffff16815260200190815260200160002060008282546142849190615b50565b92505081905550816002600083815260200190815260200160002060006101000a81548173ffffffffffffffffffffffffffffffffffffffff021916908373ffffffffffffffffffffffffffffffffffffffff160217905550808273ffffffffffffffffffffffffffffffffffffffff16600073ffffffffffffffffffffffffffffffffffffffff167fddf252ad1be2c89b69c2b068fc378daa952ba7f163c4a11628f55a4df523b3ef60405160405180910390a45050565b604051806101000160405280600890602082028036833780820191505090505090565b600061437361436e84615aa4565b615a73565b90508281526020810184848401111561438b57600080fd5b614396848285615cfd565b509392505050565b6000813590506143ad81615ec2565b92915050565b6000813590506143c281615ed9565b92915050565b6000815190506143d781615ed9565b92915050565b6000813590506143ec81615ef0565b92915050565b60008151905061440181615ef0565b92915050565b600082601f83011261441857600080fd5b8135614428848260208601614360565b91505092915050565b60008135905061444081615f07565b92915050565b60008151905061445581615f07565b92915050565b60006020828403121561446d57600080fd5b600061447b8482850161439e565b91505092915050565b6000806040838503121561449757600080fd5b60006144a58582860161439e565b92505060206144b68582860161439e565b9150509250929050565b6000806000606084860312156144d557600080fd5b60006144e38682870161439e565b93505060206144f48682870161439e565b925050604061450586828701614431565b9150509250925092565b6000806000806080858703121561452557600080fd5b60006145338782880161439e565b94505060206145448782880161439e565b935050604061455587828801614431565b925050606085013567ffffffffffffffff81111561457257600080fd5b61457e87828801614407565b91505092959194509250565b6000806040838503121561459d57600080fd5b60006145ab8582860161439e565b92505060206145bc858286016143b3565b9150509250929050565b600080604083850312156145d957600080fd5b60006145e78582860161439e565b92505060206145f885828601614431565b9150509250929050565b60006020828403121561461457600080fd5b6000614622848285016143c8565b91505092915050565b60006020828403121561463d57600080fd5b600061464b848285016143dd565b91505092915050565b60006020828403121561466657600080fd5b6000614674848285016143f2565b91505092915050565b60006020828403121561468f57600080fd5b600061469d84828501614431565b91505092915050565b6000602082840312156146b857600080fd5b60006146c684828501614446565b91505092915050565b600080604083850312156146e257600080fd5b60006146f085828601614431565b92505060206147018582860161439e565b9150509250929050565b6000806040838503121561471e57600080fd5b600061472c85828601614431565b925050602061473d85828601614431565b9150509250929050565b6000614753838361535d565b60208301905092915050565b61476881615c65565b82525050565b600061477982615ae4565b6147838185615b12565b935061478e83615ad4565b8060005b838110156147bf5781516147a68882614747565b97506147b183615b05565b925050600181019050614792565b5085935050505092915050565b6147d581615c77565b82525050565b60006147e682615aef565b6147f08185615b23565b9350614800818560208601615d0c565b61480981615eb1565b840191505092915050565b61481d81615cd9565b82525050565b600061482e82615afa565b6148388185615b34565b9350614848818560208601615d0c565b61485181615eb1565b840191505092915050565b600061486782615afa565b6148718185615b45565b9350614881818560208601615d0c565b80840191505092915050565b600061489a601483615b34565b91507f5061757361626c653a206e6f74207061757365640000000000000000000000006000830152602082019050919050565b60006148da604a83615b34565b91507f4d6f6e6b6579436f6e74726163743a205472616e7366657220746f207468652060008301527f7a65726f2061646472657373206e6f7420616c6c6f7765642c206275726e204e60208301527f465420696e7374656164000000000000000000000000000000000000000000006040830152606082019050919050565b6000614966602b83615b34565b91507f455243373231456e756d657261626c653a206f776e657220696e646578206f7560008301527f74206f6620626f756e64730000000000000000000000000000000000000000006020830152604082019050919050565b60006149cc603283615b34565b91507f4552433732313a207472616e7366657220746f206e6f6e20455243373231526560008301527f63656976657220696d706c656d656e74657200000000000000000000000000006020830152604082019050919050565b6000614a32602683615b34565b91507f4f776e61626c653a206e6577206f776e657220697320746865207a65726f206160008301527f64647265737300000000000000000000000000000000000000000000000000006020830152604082019050919050565b6000614a98601c83615b34565b91507f4552433732313a20746f6b656e20616c7265616479206d696e746564000000006000830152602082019050919050565b6000614ad8603983615b34565b91507f4d6f6e6b6579436f6e74726163743a204e4654206973207374696c6c206f6e2060008301527f73616c652e2052656d6f7665206f666665722066697273742e000000000000006020830152604082019050919050565b6000614b3e602483615b34565b91507f4552433732313a207472616e7366657220746f20746865207a65726f2061646460008301527f72657373000000000000000000000000000000000000000000000000000000006020830152604082019050919050565b6000614ba4601983615b34565b91507f4552433732313a20617070726f766520746f2063616c6c6572000000000000006000830152602082019050919050565b6000614be4602d83615b34565b91507f4e6f7420656e6f7567682042616e616e6120546f6b656e2e205573652074686560008301527f2066726565206661756365742e000000000000000000000000000000000000006020830152604082019050919050565b6000614c4a602c83615b34565b91507f4552433732313a206f70657261746f7220717565727920666f72206e6f6e657860008301527f697374656e7420746f6b656e00000000000000000000000000000000000000006020830152604082019050919050565b6000614cb0601083615b34565b91507f5061757361626c653a20706175736564000000000000000000000000000000006000830152602082019050919050565b6000614cf0603883615b34565b91507f4552433732313a20617070726f76652063616c6c6572206973206e6f74206f7760008301527f6e6572206e6f7220617070726f76656420666f7220616c6c00000000000000006020830152604082019050919050565b6000614d56602183615b34565b91507f506172656e74732063616e6e6f742062726565642061626f76652067656e393960008301527f39000000000000000000000000000000000000000000000000000000000000006020830152604082019050919050565b6000614dbc602a83615b34565b91507f4552433732313a2062616c616e636520717565727920666f7220746865207a6560008301527f726f2061646472657373000000000000000000000000000000000000000000006020830152604082019050919050565b6000614e22602983615b34565b91507f4552433732313a206f776e657220717565727920666f72206e6f6e657869737460008301527f656e7420746f6b656e00000000000000000000000000000000000000000000006020830152604082019050919050565b6000614e88602083615b34565b91507f4552433732313a206d696e7420746f20746865207a65726f20616464726573736000830152602082019050919050565b6000614ec8603383615b34565b91507f4d6f6e6b6579436f6e74726163743a204d757374206265206f776e6572206f6660008301527f20626f746820706172656e7420746f6b656e73000000000000000000000000006020830152604082019050919050565b6000614f2e602c83615b34565b91507f4552433732313a20617070726f76656420717565727920666f72206e6f6e657860008301527f697374656e7420746f6b656e00000000000000000000000000000000000000006020830152604082019050919050565b6000614f94602083615b34565b91507f4f776e61626c653a2063616c6c6572206973206e6f7420746865206f776e65726000830152602082019050919050565b6000614fd4602983615b34565b91507f4552433732313a207472616e73666572206f6620746f6b656e2074686174206960008301527f73206e6f74206f776e00000000000000000000000000000000000000000000006020830152604082019050919050565b600061503a602f83615b34565b91507f4552433732314d657461646174613a2055524920717565727920666f72206e6f60008301527f6e6578697374656e7420746f6b656e00000000000000000000000000000000006020830152604082019050919050565b60006150a0602183615b34565b91507f4552433732313a20617070726f76616c20746f2063757272656e74206f776e6560008301527f72000000000000000000000000000000000000000000000000000000000000006020830152604082019050919050565b6000615106603483615b34565b91507f4d6f6e6b6579436f6e74726163743a2043616e2774207472616e73666572204e60008301527f46547320746f207468697320636f6e74726163740000000000000000000000006020830152604082019050919050565b600061516c603183615b34565b91507f4552433732313a207472616e736665722063616c6c6572206973206e6f74206f60008301527f776e6572206e6f7220617070726f7665640000000000000000000000000000006020830152604082019050919050565b60006151d2602c83615b34565b91507f455243373231456e756d657261626c653a20676c6f62616c20696e646578206f60008301527f7574206f6620626f756e647300000000000000000000000000000000000000006020830152604082019050919050565b6000615238605183615b34565b91507f4d6f6e6b6579436f6e74726163743a2043616e2774207472616e73666572207460008301527f686973204e465420776974686f7574206265696e67206f776e65722c2061707060208301527f726f766564206f72206f70657261746f720000000000000000000000000000006040830152606082019050919050565b60006152c4601f83615b34565b91507f5265656e7472616e637947756172643a207265656e7472616e742063616c6c006000830152602082019050919050565b6000615304602783615b34565b91507f4d6178696d756d20616d6f756e74206f662067656e2030206d6f6e6b6579732060008301527f72656163686564000000000000000000000000000000000000000000000000006020830152604082019050919050565b61536681615ccf565b82525050565b61537581615ccf565b82525050565b61538c61538782615ccf565b615dba565b82525050565b600061539e828561485c565b91506153aa828461485c565b91508190509392505050565b60006153c2828661537b565b6020820191506153d2828561537b565b6020820191506153e2828461537b565b602082019150819050949350505050565b6000602082019050615408600083018461475f565b92915050565b6000606082019050615423600083018661475f565b615430602083018561475f565b61543d604083018461536c565b949350505050565b600060808201905061545a600083018761475f565b615467602083018661475f565b615474604083018561536c565b818103606083015261548681846147db565b905095945050505050565b60006040820190506154a6600083018561475f565b6154b360208301846147cc565b9392505050565b600060a0820190506154cf600083018861475f565b6154dc602083018761536c565b6154e9604083018661536c565b6154f6606083018561536c565b615503608083018461536c565b9695505050505050565b60006020820190508181036000830152615527818461476e565b905092915050565b600060208201905061554460008301846147cc565b92915050565b600060208201905061555f6000830184614814565b92915050565b6000602082019050818103600083015261557f8184614823565b905092915050565b600060208201905081810360008301526155a08161488d565b9050919050565b600060208201905081810360008301526155c0816148cd565b9050919050565b600060208201905081810360008301526155e081614959565b9050919050565b60006020820190508181036000830152615600816149bf565b9050919050565b6000602082019050818103600083015261562081614a25565b9050919050565b6000602082019050818103600083015261564081614a8b565b9050919050565b6000602082019050818103600083015261566081614acb565b9050919050565b6000602082019050818103600083015261568081614b31565b9050919050565b600060208201905081810360008301526156a081614b97565b9050919050565b600060208201905081810360008301526156c081614bd7565b9050919050565b600060208201905081810360008301526156e081614c3d565b9050919050565b6000602082019050818103600083015261570081614ca3565b9050919050565b6000602082019050818103600083015261572081614ce3565b9050919050565b6000602082019050818103600083015261574081614d49565b9050919050565b6000602082019050818103600083015261576081614daf565b9050919050565b6000602082019050818103600083015261578081614e15565b9050919050565b600060208201905081810360008301526157a081614e7b565b9050919050565b600060208201905081810360008301526157c081614ebb565b9050919050565b600060208201905081810360008301526157e081614f21565b9050919050565b6000602082019050818103600083015261580081614f87565b9050919050565b6000602082019050818103600083015261582081614fc7565b9050919050565b600060208201905081810360008301526158408161502d565b9050919050565b6000602082019050818103600083015261586081615093565b9050919050565b60006020820190508181036000830152615880816150f9565b9050919050565b600060208201905081810360008301526158a08161515f565b9050919050565b600060208201905081810360008301526158c0816151c5565b9050919050565b600060208201905081810360008301526158e08161522b565b9050919050565b60006020820190508181036000830152615900816152b7565b9050919050565b60006020820190508181036000830152615920816152f7565b9050919050565b600060208201905061593c600083018461536c565b92915050565b600060a082019050615957600083018861536c565b615964602083018761536c565b615971604083018661536c565b61597e606083018561536c565b61598b608083018461536c565b9695505050505050565b600060e0820190506159aa600083018a61536c565b6159b7602083018961536c565b6159c4604083018861536c565b6159d1606083018761536c565b6159de608083018661536c565b6159eb60a083018561475f565b6159f860c083018461475f565b98975050505050505050565b600060e082019050615a19600083018a61536c565b615a26602083018961536c565b615a33604083018861536c565b615a40606083018761536c565b615a4d608083018661536c565b615a5a60a083018561536c565b615a6760c083018461475f565b98975050505050505050565b6000604051905081810181811067ffffffffffffffff82111715615a9a57615a99615e82565b5b8060405250919050565b600067ffffffffffffffff821115615abf57615abe615e82565b5b601f19601f8301169050602081019050919050565b6000819050602082019050919050565b600081519050919050565b600081519050919050565b600081519050919050565b6000602082019050919050565b600082825260208201905092915050565b600082825260208201905092915050565b600082825260208201905092915050565b600081905092915050565b6000615b5b82615ccf565b9150615b6683615ccf565b9250827fffffffffffffffffffffffffffffffffffffffffffffffffffffffffffffffff03821115615b9b57615b9a615df5565b5b828201905092915050565b6000615bb182615ccf565b9150615bbc83615ccf565b925082615bcc57615bcb615e24565b5b828204905092915050565b6000615be282615ccf565b9150615bed83615ccf565b9250817fffffffffffffffffffffffffffffffffffffffffffffffffffffffffffffffff0483118215151615615c2657615c25615df5565b5b828202905092915050565b6000615c3c82615ccf565b9150615c4783615ccf565b925082821015615c5a57615c59615df5565b5b828203905092915050565b6000615c7082615caf565b9050919050565b60008115159050919050565b60007fffffffff0000000000000000000000000000000000000000000000000000000082169050919050565b600073ffffffffffffffffffffffffffffffffffffffff82169050919050565b6000819050919050565b6000615ce482615ceb565b9050919050565b6000615cf682615caf565b9050919050565b82818337600083830152505050565b60005b83811015615d2a578082015181840152602081019050615d0f565b83811115615d39576000848401525b50505050565b60006002820490506001821680615d5757607f821691505b60208210811415615d6b57615d6a615e53565b5b50919050565b6000615d7c82615ccf565b91507fffffffffffffffffffffffffffffffffffffffffffffffffffffffffffffffff821415615daf57615dae615df5565b5b600182019050919050565b6000819050919050565b6000615dcf82615ccf565b9150615dda83615ccf565b925082615dea57615de9615e24565b5b828206905092915050565b7f4e487b7100000000000000000000000000000000000000000000000000000000600052601160045260246000fd5b7f4e487b7100000000000000000000000000000000000000000000000000000000600052601260045260246000fd5b7f4e487b7100000000000000000000000000000000000000000000000000000000600052602260045260246000fd5b7f4e487b7100000000000000000000000000000000000000000000000000000000600052604160045260246000fd5b6000601f19601f8301169050919050565b615ecb81615c65565b8114615ed657600080fd5b50565b615ee281615c77565b8114615eed57600080fd5b50565b615ef981615c83565b8114615f0457600080fd5b50565b615f1081615ccf565b8114615f1b57600080fd5b5056fea2646970667358221220710f024200e3c6bd1e7715c32a8fcedf493f30d15d777d85640735e1fd4b114864736f6c63430008000033",
  "immutableReferences": {},
  "source": "// SPDX-License-Identifier: UNLICENSED\r\npragma solidity ^0.8.0;\r\n\r\n// preparing for some functions to be restricted \r\nimport \"@openzeppelin/contracts/access/Ownable.sol\";\r\n// preparing safemath to rule out over- and underflow  \r\nimport \"@openzeppelin/contracts/utils/math/SafeMath.sol\";\r\n// importing ERC721Enumerable token standard interface\r\nimport \"@openzeppelin/contracts/token/ERC721/extensions/ERC721Enumerable.sol\";\r\n// importing openzeppelin script to guard against re-entrancy\r\nimport \"@openzeppelin/contracts/security/ReentrancyGuard.sol\";\r\n// importing openzeppelin script to make contract pausable\r\nimport \"@openzeppelin/contracts/security/Pausable.sol\";\r\n// importing openzeppelin script for ERC20 tokens\r\nimport \"@openzeppelin/contracts/token/ERC20/IERC20.sol\";\r\n// importing MonkeyMarketplace interface\r\nimport \"./IMonkeyMarketplace.sol\";\r\n\r\ncontract MonkeyContract is ERC721Enumerable, Ownable, ReentrancyGuard, Pausable {\r\n\r\n    // using safemath for all uint256 numbers, \r\n    // use uint256 and (.add) and (.sub)\r\n    using SafeMath for uint256;    \r\n\r\n    // STATE VARIABLES\r\n\r\n    // MonkeyContract address\r\n    address _monkeyContractAddress;   \r\n    // Only 12 monkeys can be created from scratch (generation 0)\r\n    uint256 public GEN0_Limit = 12;\r\n    uint256 public gen0amountTotal;  \r\n\r\n    // MonkeyMarketplace interface\r\n    IMonkeyMarketplace private _monkeyMarketInterface;\r\n    // Boolean to control whether transfers have to check for open offers\r\n    bool private _marketConnected = false;    \r\n    \r\n    // function to connect the market contract, should be done right after deployment of contracts\r\n    // when market is connected, NFTs cannot be transfered via this contract while on sale in market\r\n    function connectMarket(address _receivedMarketContractAddress, bool setConnectMarket) external onlyOwner {\r\n        _monkeyMarketInterface = IMonkeyMarketplace(_receivedMarketContractAddress);\r\n        _marketConnected = setConnectMarket;\r\n    }\r\n\r\n    // function to check if market is connected\r\n    function checkMarketConnected() external view onlyOwner returns(address marketAddressSaved, bool isMarketConnected) {\r\n        return (\r\n            address(_monkeyMarketInterface),\r\n            _marketConnected\r\n        );\r\n    }\r\n\r\n    // variables for Banana Token\r\n    IERC20 public bananaToken;\r\n    // fee for minting and breeding Crypto Monkey NFTs \r\n    uint256 private _bananaFee = 50; \r\n   \r\n    // STRUCT\r\n\r\n    // this struct is the blueprint for new NFTs\r\n    struct CryptoMonkey {        \r\n        uint256 parent1Id;\r\n        uint256 parent2Id;\r\n        uint256 generation;\r\n        uint256 genes;\r\n        uint256 birthtime;\r\n    }    \r\n\r\n    // ARRAYS\r\n\r\n    // This is an array that holds all CryptoMonkey NFTs. \r\n    // IMPORTANT: Their position in this array IS their Token ID.\r\n    // They never get deleted here, array only grows and keeps track of them all.\r\n    CryptoMonkey[] public allMonkeysArray;\r\n\r\n    // EVENTS\r\n\r\n    // Creation event, emitted after successful NFT creation with these parameters\r\n    event MonkeyCreated(\r\n        address owner,\r\n        uint256 tokenId,\r\n        uint256 parent1Id,\r\n        uint256 parent2Id,\r\n        uint256 genes\r\n    );\r\n\r\n    // Breeding event, combining two owned NFTs can create a third, new one\r\n    event BreedingSuccessful (\r\n        uint256 tokenId, \r\n        uint256 genes, \r\n        uint256 birthtime, \r\n        uint256 parent1Id, \r\n        uint256 parent2Id, \r\n        uint256 generation, \r\n        address owner\r\n    );   \r\n    \r\n    // Constructor function\r\n    // starts with setting _name, and _symbol in imported ERC721 contract,\r\n    // as well as setting the address for the Banana Token contract (has to be provided)  \r\n    constructor(address _bananaToken) ERC721(\"Crypto Monkeys\", \"MONKEY\") {\r\n\r\n        // initiates Banana Token interface\r\n        bananaToken = IERC20(_bananaToken);\r\n       // saving address of this contract to state variable\r\n        _monkeyContractAddress = address(this); \r\n\r\n        // minting a placeholder Zero Monkey NFT, that occupies Token ID 0\r\n        _createMonkey(0, 0, 0, 1214131177989271, _msgSender());  \r\n\r\n        // burning the placeholder Zero Monkey NFT\r\n        burnNFT(0);\r\n    }\r\n\r\n    // Functions \r\n\r\n    // pausing funcionality from OpenZeppelin's Pausable\r\n    function pause() public onlyOwner {\r\n        _pause();\r\n    }\r\n\r\n    // unpausing funcionality from OpenZeppelin's Pausable\r\n    function unpause() public onlyOwner {\r\n        _unpause();\r\n    }\r\n    \r\n    // public function to show contract's own address\r\n    function getMonkeyContractAddress() public view returns (address) {  \r\n        return _monkeyContractAddress;\r\n    }   \r\n\r\n    // returns all the main details on a NFT\r\n    function getMonkeyDetails(uint256 tokenId)\r\n        public\r\n        view\r\n        returns (\r\n            uint256 genes,\r\n            uint256 birthtime,\r\n            uint256 parent1Id,\r\n            uint256 parent2Id,\r\n            uint256 generation,\r\n            address owner,\r\n            address approvedAddress\r\n        )\r\n    {\r\n        return (\r\n            allMonkeysArray[tokenId].genes,\r\n            allMonkeysArray[tokenId].birthtime,\r\n            allMonkeysArray[tokenId].parent1Id,\r\n            allMonkeysArray[tokenId].parent2Id,\r\n            allMonkeysArray[tokenId].generation,\r\n            ownerOf(tokenId),\r\n            getApproved(tokenId)\r\n        );\r\n    }   \r\n\r\n    // returns an array with the NFT Token IDs that the provided sender address owns    \r\n    function findMonkeyIdsOfAddress(address owner) public view returns (uint256[] memory) {\r\n\r\n        // determining amount of owned Crypto Monkeys\r\n        uint256 amountOwned = balanceOf(owner);             \r\n\r\n        // creating result array with fixed length\r\n        uint256[] memory ownedTokenIDs = new uint256[](amountOwned);\r\n\r\n        // checking via ERC721Enumerable which Token IDs are owned\r\n        for (uint256 indexToCheck = 0; indexToCheck < amountOwned; indexToCheck++ ) {            \r\n            uint256 foundNFT = tokenOfOwnerByIndex(owner, indexToCheck);\r\n            ownedTokenIDs[indexToCheck] = foundNFT;                                  \r\n        } \r\n\r\n        // returning array of NFT Token IDs\r\n        return ownedTokenIDs;        \r\n    }      \r\n\r\n    // used for creating generation 0 monkeys \r\n    function createGen0Monkey(uint256 _genes) public onlyOwner {\r\n        // making sure that no more than 12 monkeys will exist in gen0\r\n        require(gen0amountTotal < GEN0_Limit, \"Maximum amount of gen 0 monkeys reached\");\r\n\r\n        // increasing counter of gen0 monkeys \r\n        gen0amountTotal++;        \r\n\r\n        // minting new monkey NFT to msg.sender, generation and parents gen set to 0\r\n        _createMonkey(0, 0, 0, _genes, _msgSender());        \r\n    }    \r\n        \r\n    // Function to mint demo Monkey NFTs with hardcoded generation 99    \r\n    function createDemoMonkey(               \r\n        uint256 _genes,\r\n        address _owner\r\n    ) public returns (uint256) {\r\n        // needs 50 Banana Token, can get these from faucet contract\r\n        require(bananaToken.balanceOf(_owner) >= _bananaFee, \"Not enough Banana Token. Use the free faucet.\");\r\n        uint256 _oldBalanceOf = bananaToken.balanceOf(address(this));\r\n        // sends creation fee to contract\r\n        bananaToken.transferFrom(_msgSender(), address(this), _bananaFee);\r\n        // validates that contract received the fees\r\n        assert(bananaToken.balanceOf(address(this)) == _oldBalanceOf + _bananaFee);\r\n        uint256 newMonkey = _createMonkey(99, 99, 99, _genes, _owner);\r\n        return newMonkey;\r\n    }\r\n    \r\n    // used for creating monkeys (returns tokenId of new NFT)\r\n    function _createMonkey(\r\n        uint256 _parent1Id,\r\n        uint256 _parent2Id,\r\n        uint256 _generation,\r\n        uint256 _genes,\r\n        address _owner\r\n    ) private whenNotPaused returns (uint256) {\r\n        // uses the CryptoMonkey struct as template and creates a new monkey NFT from it\r\n            CryptoMonkey memory newMonkey = CryptoMonkey({                \r\n            parent1Id: uint256(_parent1Id),\r\n            parent2Id: uint256(_parent2Id),\r\n            generation: uint256(_generation),\r\n            genes: _genes,\r\n            birthtime: uint256(block.timestamp)\r\n        });        \r\n        \r\n        // saving the new monkey NFT to the allMonkeysArray\r\n        allMonkeysArray.push(newMonkey);\r\n        // getting the array length-1 and saving that as the new Token ID, starting with 0\r\n        uint256 newMonkeyId = allMonkeysArray.length.sub(1);\r\n\r\n        // after creation, transferring to new owner, \r\n        // receiving \"to\" address is calling user address, sender is 0 address\r\n        _safeMint(_owner, newMonkeyId);    \r\n\r\n        // emitting creating event\r\n        emit MonkeyCreated(_owner, newMonkeyId, _parent1Id, _parent2Id, _genes);                    \r\n\r\n        // This is the Token ID of the new NFT\r\n        return newMonkeyId;\r\n    } \r\n\r\n    /// * @dev Assign ownership of a specific NFT CryptoMonkey to an address.\r\n    /// * @dev This poses no restriction on _msgSender()\r\n    /// * @param _from The originating \"_from\" address can be 0 for creation of a monkey\r\n    /// * @param _to The receiving \"_to\" address cannot be 0 address, nor this contract\r\n    /// * @param _tokenId The Token ID of the monkey NFT to transfer. Must be owned or have allowance or operator from owner   \r\n    function transferNFT(\r\n        address _from,\r\n        address _to,\r\n        uint256 _tokenId\r\n    ) public nonReentrant whenNotPaused{\r\n        // checking if market is connected    \r\n        if ( _marketConnected == true ) {\r\n            // if it is connected, checking if NFT is on sale in market contract  \r\n            bool tokenOnSale = _monkeyMarketInterface.isTokenOnSale(_tokenId);\r\n            require( tokenOnSale != true, \"MonkeyContract: NFT is still on sale. Remove offer first.\" );\r\n        }\r\n        require(_to != address(0), \"MonkeyContract: Transfer to the zero address not allowed, burn NFT instead\");\r\n        require(_to != address(this), \"MonkeyContract: Can't transfer NFTs to this contract\");\r\n        require (_isApprovedOrOwner(_msgSender(), _tokenId) == true, \"MonkeyContract: Can't transfer this NFT without being owner, approved or operator\");   \r\n\r\n        // transfering via OpenZeppelin's ERC721\r\n        safeTransferFrom(_from, _to, _tokenId);        \r\n    }\r\n\r\n    // burning functionality, just to be called once from the constructor, to clear the zero monkey\r\n    function burnNFT (        \r\n        uint256 _tokenId\r\n    ) private nonReentrant whenNotPaused{     \r\n        require (_isApprovedOrOwner(_msgSender(), _tokenId) == true, \"MonkeyContract: Can't burn this NFT without being owner, approved or operator\");         \r\n        // burning via openzeppelin\r\n        _burn(_tokenId);       \r\n    }\r\n\r\n    // breeding functionality, combining two owned NFTs creates a new third one\r\n    function breed(uint256 _parent1Id, uint256 _parent2Id) public nonReentrant whenNotPaused returns (uint256)  {\r\n        // user needs to have enough Banana Token to use\r\n        require(bananaToken.balanceOf(_msgSender()) >= _bananaFee, \"Not enough Banana Token. Use the free faucet.\");\r\n        uint256 _oldBalanceOf = bananaToken.balanceOf(address(this));\r\n        // sends fee to this contract\r\n        bananaToken.transferFrom(_msgSender(), address(this), _bananaFee);\r\n        // validates that contract received the fees\r\n        assert(bananaToken.balanceOf(address(this)) == _oldBalanceOf + _bananaFee);\r\n\r\n        // _msgSender() needs to be owner of both crypto monkeys\r\n        require(ownerOf(_parent1Id) == _msgSender() && ownerOf(_parent2Id) == _msgSender(), \"MonkeyContract: Must be owner of both parent tokens\");\r\n       \r\n        // calculating new DNA string from two NFT parents' genes\r\n        uint256 _parent1genes = allMonkeysArray[_parent1Id].genes;         \r\n        uint256 _parent2genes = allMonkeysArray[_parent2Id].genes;       \r\n        uint256 _newDna = _mixDna(_parent1genes, _parent2genes);\r\n\r\n        // calculates generation \r\n        uint256 _newGeneration = _calcGeneration(_parent1Id, _parent2Id);\r\n\r\n        // creating new monkey, receiving Token ID from _createMonkey function\r\n        uint256 newMonkeyId = _createMonkey(_parent1Id, _parent2Id, _newGeneration, _newDna, _msgSender());                       \r\n\r\n        // emitting breeding event\r\n        emit BreedingSuccessful(\r\n            newMonkeyId,\r\n            allMonkeysArray[newMonkeyId].genes,\r\n            allMonkeysArray[newMonkeyId].birthtime,\r\n            allMonkeysArray[newMonkeyId].parent1Id,\r\n            allMonkeysArray[newMonkeyId].parent2Id,\r\n            allMonkeysArray[newMonkeyId].generation,\r\n            _msgSender()\r\n        ); \r\n\r\n        // this is the Token ID for the new NFT\r\n        return newMonkeyId;\r\n    }\r\n\r\n    /**\r\n    * @dev Returns a binary between 00000000-11111111\r\n    */\r\n    function _getRandom() internal view returns (uint8) {\r\n        return uint8(block.timestamp % 255);\r\n    } \r\n    \r\n    // will generate a pseudo random number and from that decide whether to take a two-digit pair of genes from _parent1genes or _parent2genes, repeated for 7 pairs (8th pair is pseudoRandomAdv, put in front)\r\n    function _mixDna (uint256 _parent1genes, uint256 _parent2genes) internal view returns (uint256) {\r\n        uint256[8] memory _geneArray;\r\n        uint8 _random = uint8(_getRandom());\r\n        // index position for 2 digits during 7 loops, _geneArray[7]-_geneArray[1]\r\n        uint256 countdown = 7;\r\n\r\n        // Bitshift: move to next binary bit, 7 loops\r\n        for (uint256 i = 1; i <= 64; i = i * 2) {\r\n        // Then add 2 last digits from the dna to the new dna\r\n        if (_random & i != 0) {\r\n            _geneArray[countdown] = uint8(_parent1genes % 100);\r\n        } else {\r\n            _geneArray[countdown] = uint8(_parent2genes % 100);\r\n        }\r\n        //each loop, take off the last 2 digits from the genes number string\r\n        _parent1genes = _parent1genes / 100;\r\n        _parent2genes = _parent2genes / 100;\r\n\r\n        countdown = countdown.sub(1);\r\n        }\r\n\r\n        // creating a pseudo random number and including them in the new DNA, so that it has some unique elements\r\n        uint256 pseudoRandomAdv = uint256(keccak256(abi.encodePacked(uint256(_random), totalSupply(), allMonkeysArray[0].genes)));  \r\n        // makes this number a 2 digit number between 10-98 (largest result of %89 is 88)\r\n        pseudoRandomAdv = (pseudoRandomAdv % 89) + 10;\r\n        // setting first 2 digits in DNA string to this new 2 digit number\r\n        _geneArray[0] = pseudoRandomAdv;\r\n\r\n        uint256 newGeneSequence;        \r\n        \r\n        // puts in last positioned array entry (2 digits) as first numbers, then adds 00, then adds again,\r\n        // therefore reversing the backwards information in the array again to correct order \r\n        for (uint256 j = 0; j < 8; j++) {\r\n            newGeneSequence = newGeneSequence + _geneArray[j];\r\n\r\n            // will stop adding zeros after last repetition\r\n            if (j != 7)  {\r\n                newGeneSequence = newGeneSequence * 100;\r\n            }                \r\n        }\r\n\r\n        return newGeneSequence;      \r\n    }\r\n\r\n    // calculates generation of newly bred NFTs\r\n    function _calcGeneration (uint256 _parent1Id, uint256 _parent2Id) internal view returns(uint256) {        \r\n\r\n        uint256 _generationOfParent1 = allMonkeysArray[_parent1Id].generation; \r\n        uint256 _generationOfParent2 = allMonkeysArray[_parent2Id].generation; \r\n\r\n        require(_generationOfParent1 < 1000 && _generationOfParent2 < 1000, \"Parents cannot breed above gen999\");\r\n\r\n        // if both parents have same gen, child will be parents' gen+1  \r\n\r\n        // if they have different gen, new gen is average of parents gen plus 2\r\n        // for ex. 1 + 5 = 6, 6/2 = 3, 3+2 = 5, newGeneration would be 5\r\n\r\n        // rounding numbers down if odd: \r\n        // for ex. 1+2=3, 3*10 = 30, 30/2 = 15\r\n        // 15 % 10 = 5, 5>0, 15-5=10\r\n        // 10 / 10 = 1, 1+2 = 3\r\n        // newGeneration = 3       \r\n\r\n        uint256 newGeneration;\r\n\r\n        if (_generationOfParent1 != _generationOfParent2) {\r\n            uint256 _roundingNumbers = (((_generationOfParent1 + _generationOfParent2) * 10) / 2); \r\n            if (_roundingNumbers % 10 > 0) {\r\n                _roundingNumbers - 5;      \r\n            }\r\n            newGeneration = (_roundingNumbers / 10 ) + 2;            \r\n        }\r\n        \r\n        else {\r\n            newGeneration = ((_generationOfParent1 + _generationOfParent2) / 2) + 1;              \r\n        }\r\n\r\n        return newGeneration;\r\n    }\r\n\r\n    // overriding ERC721's function, including whenNotPaused for added security\r\n    function transferFrom(address from, address to, uint256 tokenId) public override whenNotPaused {\r\n        // if market is connected, check if this token to be transferred is on sale at the moment.    \r\n        if ( _marketConnected == true ) {\r\n            bool tokenOnSale = _monkeyMarketInterface.isTokenOnSale(tokenId);\r\n            require( tokenOnSale != true, \"MonkeyContract: NFT is still on sale. Remove offer first.\" );\r\n        }\r\n        \r\n        require(_isApprovedOrOwner(_msgSender(), tokenId), \"ERC721: transfer caller is not owner nor approved\");\r\n\r\n        _transfer(from, to, tokenId);\r\n    }\r\n\r\n    // overriding ERC721's function, including whenNotPaused for added security\r\n    function safeTransferFrom(address from, address to, uint256 tokenId) public override whenNotPaused {\r\n        // if market is connected, check if this token to be transferred is on sale at the moment.   \r\n        if ( _marketConnected == true ) {\r\n             bool tokenOnSale = _monkeyMarketInterface.isTokenOnSale(tokenId);\r\n            require( tokenOnSale != true, \"MonkeyContract: NFT is still on sale. Remove offer first.\" );\r\n        }\r\n        require(_isApprovedOrOwner(_msgSender(), tokenId), \"ERC721: transfer caller is not owner nor approved\");        \r\n        safeTransferFrom(from, to, tokenId, \"\");\r\n    }\r\n\r\n    // overriding ERC721's function, including whenNotPaused for added security\r\n    function safeTransferFrom(address from, address to, uint256 tokenId, bytes memory _data) public override whenNotPaused {\r\n        // if market is connected, check if this token to be transferred is on sale at the moment.        \r\n        if ( _marketConnected == true ) {\r\n            bool tokenOnSale = _monkeyMarketInterface.isTokenOnSale(tokenId);    \r\n            require( tokenOnSale != true, \"MonkeyContract: NFT is still on sale. Remove offer first.\" );\r\n        }\r\n        require(_isApprovedOrOwner(_msgSender(), tokenId), \"ERC721: transfer caller is not owner nor approved\");\r\n        _safeTransfer(from, to, tokenId, _data);\r\n    }\r\n    \r\n}\r\n\r\n\r\n\r\n   ",
  "sourcePath": "C:\\github\\CryptoMonkeys\\contracts\\MonkeyContract.sol",
  "compiler": {
    "name": "solc",
    "version": "0.8.0+commit.c7dfd78e.Emscripten.clang"
  },
  "schemaVersion": "3.2.0",
  "updatedAt": "2021-08-20T15:29:24.494Z",
  "networkType": "ethereum",
  "devdoc": {
    "kind": "dev",
    "methods": {
      "approve(address,uint256)": {
        "details": "See {IERC721-approve}."
      },
      "balanceOf(address)": {
        "details": "See {IERC721-balanceOf}."
      },
      "getApproved(uint256)": {
        "details": "See {IERC721-getApproved}."
      },
      "isApprovedForAll(address,address)": {
        "details": "See {IERC721-isApprovedForAll}."
      },
      "name()": {
        "details": "See {IERC721Metadata-name}."
      },
      "owner()": {
        "details": "Returns the address of the current owner."
      },
      "ownerOf(uint256)": {
        "details": "See {IERC721-ownerOf}."
      },
      "paused()": {
        "details": "Returns true if the contract is paused, and false otherwise."
      },
      "renounceOwnership()": {
        "details": "Leaves the contract without owner. It will not be possible to call `onlyOwner` functions anymore. Can only be called by the current owner. NOTE: Renouncing ownership will leave the contract without an owner, thereby removing any functionality that is only available to the owner."
      },
      "safeTransferFrom(address,address,uint256)": {
        "details": "See {IERC721-safeTransferFrom}."
      },
      "safeTransferFrom(address,address,uint256,bytes)": {
        "details": "See {IERC721-safeTransferFrom}."
      },
      "setApprovalForAll(address,bool)": {
        "details": "See {IERC721-setApprovalForAll}."
      },
      "supportsInterface(bytes4)": {
        "details": "See {IERC165-supportsInterface}."
      },
      "symbol()": {
        "details": "See {IERC721Metadata-symbol}."
      },
      "tokenByIndex(uint256)": {
        "details": "See {IERC721Enumerable-tokenByIndex}."
      },
      "tokenOfOwnerByIndex(address,uint256)": {
        "details": "See {IERC721Enumerable-tokenOfOwnerByIndex}."
      },
      "tokenURI(uint256)": {
        "details": "See {IERC721Metadata-tokenURI}."
      },
      "totalSupply()": {
        "details": "See {IERC721Enumerable-totalSupply}."
      },
      "transferFrom(address,address,uint256)": {
        "details": "See {IERC721-transferFrom}."
      },
      "transferNFT(address,address,uint256)": {
        "details": "Assign ownership of a specific NFT CryptoMonkey to an address.This poses no restriction on _msgSender()",
        "params": {
          "_from": "The originating \"_from\" address can be 0 for creation of a monkey",
          "_to": "The receiving \"_to\" address cannot be 0 address, nor this contract",
          "_tokenId": "The Token ID of the monkey NFT to transfer. Must be owned or have allowance or operator from owner   "
        }
      },
      "transferOwnership(address)": {
        "details": "Transfers ownership of the contract to a new account (`newOwner`). Can only be called by the current owner."
      }
    },
    "version": 1
  },
  "userdoc": {
    "kind": "user",
    "methods": {},
    "version": 1
  }
}