{
  "contractName": "MonkeyContract",
  "abi": [
    {
      "inputs": [],
      "payable": false,
      "stateMutability": "nonpayable",
      "type": "constructor"
    },
    {
      "anonymous": false,
      "inputs": [
        {
          "indexed": true,
          "internalType": "address",
          "name": "owner",
          "type": "address"
        },
        {
          "indexed": true,
          "internalType": "address",
          "name": "approved",
          "type": "address"
        },
        {
          "indexed": true,
          "internalType": "uint256",
          "name": "tokenId",
          "type": "uint256"
        }
      ],
      "name": "Approval",
      "type": "event"
    },
    {
      "anonymous": false,
      "inputs": [
        {
          "indexed": false,
          "internalType": "address",
          "name": "owner",
          "type": "address"
        },
        {
          "indexed": false,
          "internalType": "uint256",
          "name": "tokenId",
          "type": "uint256"
        },
        {
          "indexed": false,
          "internalType": "uint256",
          "name": "parent1Id",
          "type": "uint256"
        },
        {
          "indexed": false,
          "internalType": "uint256",
          "name": "parent2Id",
          "type": "uint256"
        },
        {
          "indexed": false,
          "internalType": "uint256",
          "name": "genes",
          "type": "uint256"
        }
      ],
      "name": "MonkeyCreated",
      "type": "event"
    },
    {
      "anonymous": false,
      "inputs": [
        {
          "indexed": true,
          "internalType": "address",
          "name": "from",
          "type": "address"
        },
        {
          "indexed": true,
          "internalType": "address",
          "name": "to",
          "type": "address"
        },
        {
          "indexed": true,
          "internalType": "uint256",
          "name": "tokenId",
          "type": "uint256"
        }
      ],
      "name": "Transfer",
      "type": "event"
    },
    {
      "constant": true,
      "inputs": [],
      "name": "GEN0_Limit",
      "outputs": [
        {
          "internalType": "uint256",
          "name": "",
          "type": "uint256"
        }
      ],
      "payable": false,
      "stateMutability": "view",
      "type": "function"
    },
    {
      "constant": true,
      "inputs": [],
      "name": "contractOwner",
      "outputs": [
        {
          "internalType": "address payable",
          "name": "",
          "type": "address"
        }
      ],
      "payable": false,
      "stateMutability": "view",
      "type": "function"
    },
    {
      "constant": true,
      "inputs": [],
      "name": "gen0amountTotal",
      "outputs": [
        {
          "internalType": "uint256",
          "name": "",
          "type": "uint256"
        }
      ],
      "payable": false,
      "stateMutability": "view",
      "type": "function"
    },
    {
      "constant": true,
      "inputs": [
        {
          "internalType": "uint256",
          "name": "",
          "type": "uint256"
        }
      ],
      "name": "monkeys",
      "outputs": [
        {
          "internalType": "uint256",
          "name": "genes",
          "type": "uint256"
        },
        {
          "internalType": "uint256",
          "name": "birthtime",
          "type": "uint256"
        },
        {
          "internalType": "uint256",
          "name": "parent1Id",
          "type": "uint256"
        },
        {
          "internalType": "uint256",
          "name": "parent2Id",
          "type": "uint256"
        },
        {
          "internalType": "uint256",
          "name": "generation",
          "type": "uint256"
        }
      ],
      "payable": false,
      "stateMutability": "view",
      "type": "function"
    },
    {
      "constant": false,
      "inputs": [
        {
          "internalType": "uint256",
          "name": "_genes",
          "type": "uint256"
        }
      ],
      "name": "createGen0Monkey",
      "outputs": [],
      "payable": false,
      "stateMutability": "nonpayable",
      "type": "function"
    },
    {
      "constant": true,
      "inputs": [
        {
          "internalType": "uint256",
          "name": "tokenId",
          "type": "uint256"
        }
      ],
      "name": "findMonkey",
      "outputs": [
        {
          "internalType": "uint256",
          "name": "genes",
          "type": "uint256"
        },
        {
          "internalType": "uint256",
          "name": "birthtime",
          "type": "uint256"
        },
        {
          "internalType": "uint256",
          "name": "parent1Id",
          "type": "uint256"
        },
        {
          "internalType": "uint256",
          "name": "parent2Id",
          "type": "uint256"
        },
        {
          "internalType": "uint256",
          "name": "generation",
          "type": "uint256"
        },
        {
          "internalType": "address",
          "name": "owner",
          "type": "address"
        },
        {
          "internalType": "address",
          "name": "approvedAddress",
          "type": "address"
        }
      ],
      "payable": false,
      "stateMutability": "view",
      "type": "function"
    },
    {
      "constant": false,
      "inputs": [
        {
          "internalType": "uint256",
          "name": "tokenId",
          "type": "uint256"
        },
        {
          "internalType": "address",
          "name": "allowedAddress",
          "type": "address"
        }
      ],
      "name": "approve",
      "outputs": [],
      "payable": false,
      "stateMutability": "nonpayable",
      "type": "function"
    },
    {
      "constant": true,
      "inputs": [],
      "name": "name",
      "outputs": [
        {
          "internalType": "string",
          "name": "",
          "type": "string"
        }
      ],
      "payable": false,
      "stateMutability": "view",
      "type": "function"
    },
    {
      "constant": true,
      "inputs": [],
      "name": "symbol",
      "outputs": [
        {
          "internalType": "string",
          "name": "",
          "type": "string"
        }
      ],
      "payable": false,
      "stateMutability": "view",
      "type": "function"
    },
    {
      "constant": true,
      "inputs": [],
      "name": "totalSupply",
      "outputs": [
        {
          "internalType": "uint256",
          "name": "",
          "type": "uint256"
        }
      ],
      "payable": false,
      "stateMutability": "view",
      "type": "function"
    },
    {
      "constant": true,
      "inputs": [
        {
          "internalType": "address",
          "name": "owner",
          "type": "address"
        }
      ],
      "name": "balanceOf",
      "outputs": [
        {
          "internalType": "uint256",
          "name": "",
          "type": "uint256"
        }
      ],
      "payable": false,
      "stateMutability": "view",
      "type": "function"
    },
    {
      "constant": true,
      "inputs": [
        {
          "internalType": "uint256",
          "name": "tokenId",
          "type": "uint256"
        }
      ],
      "name": "ownerOf",
      "outputs": [
        {
          "internalType": "address",
          "name": "",
          "type": "address"
        }
      ],
      "payable": false,
      "stateMutability": "view",
      "type": "function"
    },
    {
      "constant": false,
      "inputs": [
        {
          "internalType": "address",
          "name": "_to",
          "type": "address"
        },
        {
          "internalType": "uint256",
          "name": "_tokenId",
          "type": "uint256"
        }
      ],
      "name": "transfer",
      "outputs": [],
      "payable": false,
      "stateMutability": "nonpayable",
      "type": "function"
    }
  ],
  "bytecode": "0x6080604052600c6001553480156200001657600080fd5b50336000806101000a81548173ffffffffffffffffffffffffffffffffffffffff021916908373ffffffffffffffffffffffffffffffffffffffff1602179055506040518060400160405280600e81526020017f43727970746f204d6f6e6b65797300000000000000000000000000000000000081525060039080519060200190620000a4929190620000f9565b506040518060400160405280600381526020017f434d4f000000000000000000000000000000000000000000000000000000000081525060049080519060200190620000f2929190620000f9565b50620001a8565b828054600181600116156101000203166002900490600052602060002090601f016020900481019282601f106200013c57805160ff19168380011785556200016d565b828001600101855582156200016d579182015b828111156200016c5782518255916020019190600101906200014f565b5b5090506200017c919062000180565b5090565b620001a591905b80821115620001a157600081600090555060010162000187565b5090565b90565b61102a80620001b86000396000f3fe608060405234801561001057600080fd5b50600436106100cf5760003560e01c8063991e6e571161008c578063ce606ee011610066578063ce606ee01461044c578063ef742fc114610496578063f91ba674146104c4578063febe4909146104e2576100cf565b8063991e6e57146102dc578063a6fb702c146103a0578063a9059cbb146103fe576100cf565b806306fdde03146100d45780630917cffe1461015757806318160ddd146101755780636352211e1461019357806370a082311461020157806395d89b4114610259575b600080fd5b6100dc610530565b6040518080602001828103825283818151815260200191508051906020019080838360005b8381101561011c578082015181840152602081019050610101565b50505050905090810190601f1680156101495780820380516001836020036101000a031916815260200191505b509250505060405180910390f35b61015f6105d2565b6040518082815260200191505060405180910390f35b61017d6105d8565b6040518082815260200191505060405180910390f35b6101bf600480360360208110156101a957600080fd5b81019080803590602001909291905050506105e2565b604051808273ffffffffffffffffffffffffffffffffffffffff1673ffffffffffffffffffffffffffffffffffffffff16815260200191505060405180910390f35b6102436004803603602081101561021757600080fd5b81019080803573ffffffffffffffffffffffffffffffffffffffff16906020019092919050505061061f565b6040518082815260200191505060405180910390f35b610261610668565b6040518080602001828103825283818151815260200191508051906020019080838360005b838110156102a1578082015181840152602081019050610286565b50505050905090810190601f1680156102ce5780820380516001836020036101000a031916815260200191505b509250505060405180910390f35b610308600480360360208110156102f257600080fd5b810190808035906020019092919050505061070a565b604051808881526020018781526020018681526020018581526020018481526020018373ffffffffffffffffffffffffffffffffffffffff1673ffffffffffffffffffffffffffffffffffffffff1681526020018273ffffffffffffffffffffffffffffffffffffffff1673ffffffffffffffffffffffffffffffffffffffff16815260200197505050505050505060405180910390f35b6103cc600480360360208110156103b657600080fd5b8101908080359060200190929190505050610831565b604051808681526020018581526020018481526020018381526020018281526020019550505050505060405180910390f35b61044a6004803603604081101561041457600080fd5b81019080803573ffffffffffffffffffffffffffffffffffffffff16906020019092919080359060200190929190505050610874565b005b610454610961565b604051808273ffffffffffffffffffffffffffffffffffffffff1673ffffffffffffffffffffffffffffffffffffffff16815260200191505060405180910390f35b6104c2600480360360208110156104ac57600080fd5b8101908080359060200190929190505050610986565b005b6104cc610a14565b6040518082815260200191505060405180910390f35b61052e600480360360408110156104f857600080fd5b8101908080359060200190929190803573ffffffffffffffffffffffffffffffffffffffff169060200190929190505050610a1a565b005b606060038054600181600116156101000203166002900480601f0160208091040260200160405190810160405280929190818152602001828054600181600116156101000203166002900480156105c85780601f1061059d576101008083540402835291602001916105c8565b820191906000526020600020905b8154815290600101906020018083116105ab57829003601f168201915b5050505050905090565b60025481565b6000600554905090565b60006008600083815260200190815260200160002060009054906101000a900473ffffffffffffffffffffffffffffffffffffffff169050919050565b6000600760008373ffffffffffffffffffffffffffffffffffffffff1673ffffffffffffffffffffffffffffffffffffffff168152602001908152602001600020549050919050565b606060048054600181600116156101000203166002900480601f0160208091040260200160405190810160405280929190818152602001828054600181600116156101000203166002900480156107005780601f106106d557610100808354040283529160200191610700565b820191906000526020600020905b8154815290600101906020018083116106e357829003601f168201915b5050505050905090565b60008060008060008060006006888154811061072257fe5b9060005260206000209060050201600001546006898154811061074157fe5b90600052602060002090600502016001015460068a8154811061076057fe5b90600052602060002090600502016002015460068b8154811061077f57fe5b90600052602060002090600502016003015460068c8154811061079e57fe5b906000526020600020906005020160040154600860008e815260200190815260200160002060009054906101000a900473ffffffffffffffffffffffffffffffffffffffff16600960008f815260200190815260200160002060009054906101000a900473ffffffffffffffffffffffffffffffffffffffff169650965096509650965096509650919395979092949650565b6006818154811061083e57fe5b90600052602060002090600502016000915090508060000154908060010154908060020154908060030154908060040154905085565b600073ffffffffffffffffffffffffffffffffffffffff168273ffffffffffffffffffffffffffffffffffffffff1614156108ae57600080fd5b3073ffffffffffffffffffffffffffffffffffffffff168273ffffffffffffffffffffffffffffffffffffffff1614156108e757600080fd5b3373ffffffffffffffffffffffffffffffffffffffff166008600083815260200190815260200160002060009054906101000a900473ffffffffffffffffffffffffffffffffffffffff1673ffffffffffffffffffffffffffffffffffffffff161461095257600080fd5b61095d338383610b36565b5050565b6000809054906101000a900473ffffffffffffffffffffffffffffffffffffffff1681565b6000809054906101000a900473ffffffffffffffffffffffffffffffffffffffff1673ffffffffffffffffffffffffffffffffffffffff163373ffffffffffffffffffffffffffffffffffffffff16146109df57600080fd5b600154600254106109ef57600080fd5b600260008154809291906001019190505550610a1060008060008433610cfb565b5050565b60015481565b3373ffffffffffffffffffffffffffffffffffffffff166008600084815260200190815260200160002060009054906101000a900473ffffffffffffffffffffffffffffffffffffffff1673ffffffffffffffffffffffffffffffffffffffff1614610a8557600080fd5b818173ffffffffffffffffffffffffffffffffffffffff163373ffffffffffffffffffffffffffffffffffffffff167f8c5be1e5ebec7d5bd14f71427d1e84f3dd0314c0f7b2291e5b200ac8c7c3b92560405160405180910390a4806009600084815260200190815260200160002060006101000a81548173ffffffffffffffffffffffffffffffffffffffff021916908373ffffffffffffffffffffffffffffffffffffffff1602179055505050565b6009600082815260200190815260200160002060006101000a81549073ffffffffffffffffffffffffffffffffffffffff0219169055816008600083815260200190815260200160002060006101000a81548173ffffffffffffffffffffffffffffffffffffffff021916908373ffffffffffffffffffffffffffffffffffffffff160217905550610c116001600760008573ffffffffffffffffffffffffffffffffffffffff1673ffffffffffffffffffffffffffffffffffffffff16815260200190815260200160002054610e3490919063ffffffff16565b50600073ffffffffffffffffffffffffffffffffffffffff168373ffffffffffffffffffffffffffffffffffffffff1614610c9b57610c996001600760008673ffffffffffffffffffffffffffffffffffffffff1673ffffffffffffffffffffffffffffffffffffffff16815260200190815260200160002054610ebc90919063ffffffff16565b505b808273ffffffffffffffffffffffffffffffffffffffff168473ffffffffffffffffffffffffffffffffffffffff167fddf252ad1be2c89b69c2b068fc378daa952ba7f163c4a11628f55a4df523b3ef60405160405180910390a4505050565b6000610d05610fc6565b6040518060a001604052808581526020014281526020018881526020018781526020018681525090506000600160068390806001815401808255809150509060018203906000526020600020906005020160009091929091909150600082015181600001556020820151816001015560408201518160020155606082015181600301556080820151816004015550500390507f0b1e9a74eeaae184646d7a35062426460c8c9364005c6d441cce036dd9c655d584828a8a89604051808673ffffffffffffffffffffffffffffffffffffffff1673ffffffffffffffffffffffffffffffffffffffff1681526020018581526020018481526020018381526020018281526020019550505050505060405180910390a1610e2660008583610b36565b809250505095945050505050565b600080828401905083811015610eb2576040517f08c379a000000000000000000000000000000000000000000000000000000000815260040180806020018281038252601b8152602001807f536166654d6174683a206164646974696f6e206f766572666c6f77000000000081525060200191505060405180910390fd5b8091505092915050565b6000610efe83836040518060400160405280601e81526020017f536166654d6174683a207375627472616374696f6e206f766572666c6f770000815250610f06565b905092915050565b6000838311158290610fb3576040517f08c379a00000000000000000000000000000000000000000000000000000000081526004018080602001828103825283818151815260200191508051906020019080838360005b83811015610f78578082015181840152602081019050610f5d565b50505050905090810190601f168015610fa55780820380516001836020036101000a031916815260200191505b509250505060405180910390fd5b5060008385039050809150509392505050565b6040518060a001604052806000815260200160008152602001600081526020016000815260200160008152509056fea265627a7a7231582061ab671e134e95a8935788ae8ec4637e29b967f2601c27436bf6cc7b22b6cb0964736f6c634300050c0032",
  "source": "pragma solidity 0.5.12;\r\n\r\n// preparing for some functions to be restricted   - not used?\r\nimport \"./Ownable.sol\";\r\n\r\n// using safemath to rule out over- and underflow and such  - seems done\r\nimport \"./Safemath.sol\";\r\n\r\n// importing ERC721 token standard interface, all functions need to be fully created  - seems done?\r\nimport \"./IERC721.sol\";\r\n\r\ncontract MonkeyContract is IERC721, Ownable {\r\n\r\n  // using safemath, now should use uint256 for all numbers  - seems done\r\n  using SafeMath for uint256; \r\n\r\n\r\n  // State variables\r\n\r\n  uint256 public GEN0_Limit = 12;\r\n  uint256 public gen0amountTotal;\r\n\r\n  // 1 name to store - will be queried by name function  - seems done\r\n  string private _name;\r\n\r\n  // 1 symbol to store - will be queried by symbol function - seems done\r\n  string private _symbol;\r\n\r\n  // storing the totalSupply - will be queried by totalSupply function - needs to be updated via a real mint function later (connect to Monkey Factory) - seems done for now\r\n  uint256 private _totalSupply;\r\n\r\n  // this struct is the blueprint for new CMOs. They will be created from it\r\n  struct CryptoMonkey {\r\n    uint256 genes;\r\n    uint256 birthtime;\r\n    uint256 parent1Id;\r\n    uint256 parent2Id;\r\n    uint256 generation;\r\n  }\r\n\r\n  // This array holds all CMOs it seems (CryptoMonkey)\r\n  CryptoMonkey[] public monkeys;\r\n\r\n\r\n  // a mapping to store each address's number of Crypto Monkeys - will be queried by balanceOf function - must update at minting (seems done) and transfer (seems done)\r\n  mapping(address => uint256) private _numberOfCMOsOfAddressMapping;\r\n\r\n  // mapping of all the tokenIds and their ownerssss - will be queried by ownerOf function - seems done\r\n  mapping (uint256 => address) private _monkeyIdsAndTheirOwnersMapping;\r\n  \r\n  // mapping of the allowed addresses for a piece - entry must be deleted when CMO is transfered - seems done\r\n  mapping (uint256 => address) private _CMO2AllowedAddressMapping;\r\n  \r\n\r\n  // Events\r\n\r\n  // Transfer event, emit after successful transfer with these parameters  - seems done - why indexed? what does it mean, do I need that?\r\n  event Transfer(address indexed from, address indexed to, uint256 indexed tokenId);\r\n\r\n  // Approval event, emit after successful approval with these parameters  - implement \"you can transfer my CMO - functionality\"\r\n  event Approval(address indexed owner, address indexed approved, uint256 indexed tokenId);\r\n\r\n  // Creation event, emit after successful CMO creation with these parameters  -  seems done\r\n  event MonkeyCreated (address owner, uint256 tokenId, uint256 parent1Id, uint256 parent2Id, uint256 genes);\r\n\r\n\r\n\r\n  // Constructor function, is setting _name, and _symbol - seems done\r\n\r\n  constructor () public {\r\n    _name = \"Crypto Monkeys\";\r\n    _symbol = \"CMO\";       \r\n  } \r\n\r\n\r\n  // Functions\r\n\r\n  function createGen0Monkey (uint256 _genes) public onlyOwner {\r\n    require (gen0amountTotal < GEN0_Limit);\r\n\r\n    gen0amountTotal++;\r\n\r\n    _createMonkey(0,0,0, _genes, msg.sender);\r\n  }\r\n\r\n  // this function is going to be used for creating gen0 monkeys and also for creating monkeys from combining monkeys, returns monkey ID (tokenId?) - connect / fix / finish\r\n  function _createMonkey (            \r\n      uint256 _parent1Id,\r\n      uint256 _parent2Id,\r\n      uint256 _generation,\r\n      uint256 _genes,     \r\n      address _owner\r\n    ) private returns (uint256) {\r\n\r\n    // uses the CryptoMonkey struct as template and creates a newMonkey from it\r\n    CryptoMonkey memory newMonkey = CryptoMonkey ({\r\n      parent1Id: uint256(_parent1Id),\r\n      parent2Id: uint256(_parent2Id),\r\n      generation: uint256(_generation), \r\n      genes: _genes,\r\n      birthtime: uint256(now)  \r\n    });\r\n\r\n    // the push function returns the length of the array, so we use that directly and save it as the ID, starting with 0\r\n    uint256 newMonkeyId = monkeys.push(newMonkey) -1;    \r\n\r\n    // emitting before the action\r\n    emit MonkeyCreated(_owner, newMonkeyId, _parent1Id, _parent2Id, _genes);\r\n\r\n    _transferCallfromInside(address(0), _owner, newMonkeyId);\r\n\r\n    return newMonkeyId;\r\n\r\n  }\r\n \r\n  function findMonkey(uint256 tokenId) public view returns (\r\n    uint256 genes,\r\n    uint256 birthtime,\r\n    uint256 parent1Id,\r\n    uint256 parent2Id,\r\n    uint256 generation,\r\n    address owner,\r\n    address approvedAddress) {\r\n\r\n    return (\r\n    monkeys[tokenId].genes, \r\n    monkeys[tokenId].birthtime,\r\n    monkeys[tokenId].parent1Id,\r\n    monkeys[tokenId].parent2Id,\r\n    monkeys[tokenId].generation,    \r\n    _monkeyIdsAndTheirOwnersMapping[tokenId],  \r\n    _CMO2AllowedAddressMapping[tokenId]\r\n    );\r\n  }\r\n\r\n\r\n  // allows another address to take / move your CMO\r\n  function approve(uint256 tokenId, address allowedAddress) public {   \r\n\r\n    // requires that the msg.sender is the owner of the CMO to be moved\r\n    require (_monkeyIdsAndTheirOwnersMapping[tokenId] == msg.sender);\r\n\r\n    // emitting before the action\r\n    emit Approval(msg.sender, allowedAddress, tokenId); \r\n\r\n    // stores the allowed address into the mapping for it, with the monkey being the key\r\n    _CMO2AllowedAddressMapping[tokenId] = allowedAddress;\r\n    \r\n  }\r\n  \r\n  // Returns the name of the token. - seems done\r\n  function name() external view returns (string memory){\r\n    return _name;\r\n  }\r\n  \r\n  // Returns the symbol of the token. - seems done  \r\n  function symbol() external view returns (string memory){\r\n    return _symbol;\r\n  }\r\n\r\n  // query the totalSupply - seems done\r\n  function totalSupply() external view returns (uint256){\r\n    return _totalSupply;\r\n  }\r\n\r\n  // Returns the number of tokens in \"owner\" 's account. - seems done\r\n  function balanceOf(address owner) external view returns (uint256){\r\n    return _numberOfCMOsOfAddressMapping[owner];\r\n  }\r\n  \r\n  // returns the owner of given tokenId, which is stored in the _monkeyIdsAndTheirOwnersMapping at the [tokenId] position - seems done\r\n  function ownerOf(uint256 tokenId) external view returns (address){    \r\n    return _monkeyIdsAndTheirOwnersMapping[tokenId];\r\n  }\r\n\r\n  function transfer (address _to, uint256 _tokenId) external {\r\n\r\n    //`to` cannot be the zero address. \r\n    require (_to != address(0));\r\n\r\n    // to` can not be the contract address.\r\n    require (_to != address(this));\r\n\r\n    // `tokenId` token must be owned by `msg.sender`\r\n    require (_monkeyIdsAndTheirOwnersMapping[_tokenId] == msg.sender);\r\n\r\n    _transferCallfromInside(msg.sender, _to, _tokenId);\r\n  } \r\n    \r\n  function _transferCallfromInside (address _from, address _to, uint256 _tokenId) internal {\r\n    \r\n    // deleting any allowed address for the transfered CMO\r\n    delete _CMO2AllowedAddressMapping[_tokenId];\r\n\r\n    // transferring, i.e. changing ownership entry in the _monkeyIdsAndTheirOwnersMapping for the tokenId\r\n    _monkeyIdsAndTheirOwnersMapping[_tokenId] = _to;  \r\n\r\n    // updating \"balance\" of address in _numberOfCMOsOfAddressMapping, 'to' address has 1 CMO more\r\n    _numberOfCMOsOfAddressMapping[_to].add(1);\r\n\r\n    // updating \"balance\" of address in _numberOfCMOsOfAddressMapping, sender has 1 CMO less\r\n\r\n    if (_from != address(0)) {\r\n      _numberOfCMOsOfAddressMapping[_from].sub(1);\r\n    }\r\n        \r\n    // what is with try and catch? XXX\r\n    //catch (err) {\r\n    //  console.log(\"Error is: \" + err);\r\n    //}\r\n\r\n    emit Transfer (_from, _to, _tokenId);\r\n  }\r\n}",
  "sourcePath": "D:\\8 Github\\CryptoMonkeys\\contracts\\Monkeycontract.sol",
  "compiler": {
    "name": "solc",
    "version": "0.5.12+commit.7709ece9.Emscripten.clang"
  },
  "schemaVersion": "3.2.0",
  "updatedAt": "2020-11-25T19:18:11.371Z",
  "networkType": "ethereum",
  "devdoc": {
    "methods": {}
  },
  "userdoc": {
    "methods": {}
  }
}