{
  "contractName": "MonkeyMarketplace",
  "abi": [
    {
      "inputs": [
        {
          "internalType": "address",
          "name": "_constructorMonkeyContractAddress",
          "type": "address"
        }
      ],
      "stateMutability": "nonpayable",
      "type": "constructor"
    },
    {
      "anonymous": false,
      "inputs": [
        {
          "indexed": false,
          "internalType": "string",
          "name": "TxType",
          "type": "string"
        },
        {
          "indexed": false,
          "internalType": "address",
          "name": "owner",
          "type": "address"
        },
        {
          "indexed": false,
          "internalType": "uint256",
          "name": "tokenId",
          "type": "uint256"
        }
      ],
      "name": "MarketTransaction",
      "type": "event"
    },
    {
      "anonymous": false,
      "inputs": [
        {
          "indexed": false,
          "internalType": "address",
          "name": "seller",
          "type": "address"
        },
        {
          "indexed": false,
          "internalType": "address",
          "name": "buyer",
          "type": "address"
        },
        {
          "indexed": false,
          "internalType": "uint256",
          "name": "price",
          "type": "uint256"
        },
        {
          "indexed": false,
          "internalType": "uint256",
          "name": "tokenId",
          "type": "uint256"
        }
      ],
      "name": "MonkeySold",
      "type": "event"
    },
    {
      "anonymous": false,
      "inputs": [
        {
          "indexed": true,
          "internalType": "address",
          "name": "previousOwner",
          "type": "address"
        },
        {
          "indexed": true,
          "internalType": "address",
          "name": "newOwner",
          "type": "address"
        }
      ],
      "name": "OwnershipTransferred",
      "type": "event"
    },
    {
      "anonymous": false,
      "inputs": [
        {
          "indexed": false,
          "internalType": "address",
          "name": "account",
          "type": "address"
        }
      ],
      "name": "Paused",
      "type": "event"
    },
    {
      "anonymous": false,
      "inputs": [
        {
          "indexed": false,
          "internalType": "address",
          "name": "account",
          "type": "address"
        }
      ],
      "name": "Unpaused",
      "type": "event"
    },
    {
      "inputs": [],
      "name": "owner",
      "outputs": [
        {
          "internalType": "address",
          "name": "",
          "type": "address"
        }
      ],
      "stateMutability": "view",
      "type": "function"
    },
    {
      "inputs": [],
      "name": "paused",
      "outputs": [
        {
          "internalType": "bool",
          "name": "",
          "type": "bool"
        }
      ],
      "stateMutability": "view",
      "type": "function"
    },
    {
      "inputs": [],
      "name": "renounceOwnership",
      "outputs": [],
      "stateMutability": "nonpayable",
      "type": "function"
    },
    {
      "inputs": [],
      "name": "savedMainContractAddress",
      "outputs": [
        {
          "internalType": "address",
          "name": "",
          "type": "address"
        }
      ],
      "stateMutability": "view",
      "type": "function"
    },
    {
      "inputs": [
        {
          "internalType": "address",
          "name": "newOwner",
          "type": "address"
        }
      ],
      "name": "transferOwnership",
      "outputs": [],
      "stateMutability": "nonpayable",
      "type": "function"
    },
    {
      "inputs": [],
      "name": "pause",
      "outputs": [],
      "stateMutability": "nonpayable",
      "type": "function"
    },
    {
      "inputs": [],
      "name": "unpause",
      "outputs": [],
      "stateMutability": "nonpayable",
      "type": "function"
    },
    {
      "inputs": [
        {
          "internalType": "uint256",
          "name": "_tokenId",
          "type": "uint256"
        }
      ],
      "name": "isTokenOnSale",
      "outputs": [
        {
          "internalType": "bool",
          "name": "tokenIsOnSale",
          "type": "bool"
        }
      ],
      "stateMutability": "view",
      "type": "function"
    },
    {
      "inputs": [
        {
          "internalType": "uint256",
          "name": "_tokenId",
          "type": "uint256"
        }
      ],
      "name": "getOffer",
      "outputs": [
        {
          "internalType": "address",
          "name": "seller",
          "type": "address"
        },
        {
          "internalType": "uint256",
          "name": "price",
          "type": "uint256"
        },
        {
          "internalType": "uint256",
          "name": "index",
          "type": "uint256"
        },
        {
          "internalType": "uint256",
          "name": "tokenId",
          "type": "uint256"
        },
        {
          "internalType": "bool",
          "name": "active",
          "type": "bool"
        }
      ],
      "stateMutability": "view",
      "type": "function"
    },
    {
      "inputs": [],
      "name": "getAllTokenOnSale",
      "outputs": [
        {
          "internalType": "uint256[]",
          "name": "listOfTokenIdsOnSale",
          "type": "uint256[]"
        }
      ],
      "stateMutability": "view",
      "type": "function"
    },
    {
      "inputs": [
        {
          "internalType": "uint256",
          "name": "_price",
          "type": "uint256"
        },
        {
          "internalType": "uint256",
          "name": "_tokenId",
          "type": "uint256"
        }
      ],
      "name": "setOffer",
      "outputs": [],
      "stateMutability": "nonpayable",
      "type": "function"
    },
    {
      "inputs": [
        {
          "internalType": "uint256",
          "name": "_tokenId",
          "type": "uint256"
        }
      ],
      "name": "removeOffer",
      "outputs": [],
      "stateMutability": "nonpayable",
      "type": "function"
    },
    {
      "inputs": [
        {
          "internalType": "uint256",
          "name": "_tokenId",
          "type": "uint256"
        }
      ],
      "name": "buyMonkey",
      "outputs": [],
      "stateMutability": "payable",
      "type": "function"
    },
    {
      "inputs": [],
      "name": "showLengthOfOffersArray",
      "outputs": [
        {
          "internalType": "uint256",
          "name": "length",
          "type": "uint256"
        }
      ],
      "stateMutability": "view",
      "type": "function"
    },
    {
      "inputs": [
        {
          "internalType": "uint256",
          "name": "arrayPosition",
          "type": "uint256"
        }
      ],
      "name": "showOfferArrayEntry",
      "outputs": [
        {
          "internalType": "address",
          "name": "seller",
          "type": "address"
        },
        {
          "internalType": "uint256",
          "name": "price",
          "type": "uint256"
        },
        {
          "internalType": "uint256",
          "name": "index",
          "type": "uint256"
        },
        {
          "internalType": "uint256",
          "name": "tokenId",
          "type": "uint256"
        },
        {
          "internalType": "bool",
          "name": "active",
          "type": "bool"
        }
      ],
      "stateMutability": "view",
      "type": "function"
    }
  ],
  "bytecode": "0x60806040523480156200001157600080fd5b5060405162002c3938038062002c398339818101604052810190620000379190620002f9565b620000576200004b6200021660201b60201c565b6200021e60201b60201c565b600180819055506000600260006101000a81548160ff02191690831515021790555080600260016101000a81548173ffffffffffffffffffffffffffffffffffffffff021916908373ffffffffffffffffffffffffffffffffffffffff1602179055508073ffffffffffffffffffffffffffffffffffffffff16600260019054906101000a900473ffffffffffffffffffffffffffffffffffffffff1673ffffffffffffffffffffffffffffffffffffffff1663daa97fae6040518163ffffffff1660e01b815260040160206040518083038186803b1580156200013a57600080fd5b505afa1580156200014f573d6000803e3d6000fd5b505050506040513d601f19601f82011682018060405250810190620001759190620002f9565b73ffffffffffffffffffffffffffffffffffffffff1614620001ce576040517f08c379a0000000000000000000000000000000000000000000000000000000008152600401620001c5906200038d565b60405180910390fd5b80600360006101000a81548173ffffffffffffffffffffffffffffffffffffffff021916908373ffffffffffffffffffffffffffffffffffffffff160217905550506200040e565b600033905090565b60008060009054906101000a900473ffffffffffffffffffffffffffffffffffffffff169050816000806101000a81548173ffffffffffffffffffffffffffffffffffffffff021916908373ffffffffffffffffffffffffffffffffffffffff1602179055508173ffffffffffffffffffffffffffffffffffffffff168173ffffffffffffffffffffffffffffffffffffffff167f8be0079c531659141344cd1fd0a4f28419497f9722a3daafe3b4186f6b6457e060405160405180910390a35050565b600081519050620002f381620003f4565b92915050565b6000602082840312156200030c57600080fd5b60006200031c84828501620002e2565b91505092915050565b600062000334603683620003af565b91507f434f4e5354525543544f523a204d6f6e6b657920636f6e74726163742061646460008301527f72657373206d757374206265207468652073616d652e000000000000000000006020830152604082019050919050565b60006020820190508181036000830152620003a88162000325565b9050919050565b600082825260208201905092915050565b6000620003cd82620003d4565b9050919050565b600073ffffffffffffffffffffffffffffffffffffffff82169050919050565b620003ff81620003c0565b81146200040b57600080fd5b50565b61281b806200041e6000396000f3fe6080604052600436106100e85760003560e01c80637d3e0ec21161008a578063951fbdf011610059578063951fbdf0146102a557806395a0f9c7146102e2578063dfcaaa951461030b578063f2fde38b14610336576100e8565b80637d3e0ec21461020f5780638456cb591461023a5780638da5cb5b14610251578063941b055b1461027c576100e8565b806349b3709f116100c657806349b3709f146101865780635c975abb146101b1578063615fc0e2146101dc578063715018a6146101f8576100e8565b80633f4ba83a146100ed5780633f50b441146101045780634579268a14610145575b600080fd5b3480156100f957600080fd5b5061010261035f565b005b34801561011057600080fd5b5061012b60048036038101906101269190611cab565b6103e5565b60405161013c959493929190612381565b60405180910390f35b34801561015157600080fd5b5061016c60048036038101906101679190611cab565b61057c565b60405161017d959493929190612381565b60405180910390f35b34801561019257600080fd5b5061019b6106c5565b6040516101a891906123d4565b60405180910390f35b3480156101bd57600080fd5b506101c661097e565b6040516101d391906123f6565b60405180910390f35b6101f660048036038101906101f19190611cab565b610995565b005b34801561020457600080fd5b5061020d610db6565b005b34801561021b57600080fd5b50610224610e3e565b60405161023191906122c1565b60405180910390f35b34801561024657600080fd5b5061024f610e64565b005b34801561025d57600080fd5b50610266610eea565b60405161027391906122c1565b60405180910390f35b34801561028857600080fd5b506102a3600480360381019061029e9190611cd4565b610f13565b005b3480156102b157600080fd5b506102cc60048036038101906102c79190611cab565b61154b565b6040516102d991906123f6565b60405180910390f35b3480156102ee57600080fd5b5061030960048036038101906103049190611cab565b611578565b005b34801561031757600080fd5b5061032061184a565b60405161032d9190612645565b60405180910390f35b34801561034257600080fd5b5061035d60048036038101906103589190611c30565b6118d3565b005b6103676119cb565b73ffffffffffffffffffffffffffffffffffffffff16610385610eea565b73ffffffffffffffffffffffffffffffffffffffff16146103db576040517f08c379a00000000000000000000000000000000000000000000000000000000081526004016103d290612589565b60405180910390fd5b6103e36119d3565b565b60008060008060006103f56119cb565b73ffffffffffffffffffffffffffffffffffffffff16610413610eea565b73ffffffffffffffffffffffffffffffffffffffff1614610469576040517f08c379a000000000000000000000000000000000000000000000000000000000815260040161046090612589565b60405180910390fd5b6000600487815481106104a5577f4e487b7100000000000000000000000000000000000000000000000000000000600052603260045260246000fd5b90600052602060002090600502016040518060a00160405290816000820160009054906101000a900473ffffffffffffffffffffffffffffffffffffffff1673ffffffffffffffffffffffffffffffffffffffff1673ffffffffffffffffffffffffffffffffffffffff1681526020016001820154815260200160028201548152602001600382015481526020016004820160009054906101000a900460ff161515151581525050905080600001518160200151826040015183606001518460800151955095509550955095505091939590929450565b60008060008060006005600087815260200190815260200160002060040160009054906101000a900460ff166105e7576040517f08c379a00000000000000000000000000000000000000000000000000000000081526004016105de906125e5565b60405180910390fd5b6000600560008881526020019081526020016000206040518060a00160405290816000820160009054906101000a900473ffffffffffffffffffffffffffffffffffffffff1673ffffffffffffffffffffffffffffffffffffffff1673ffffffffffffffffffffffffffffffffffffffff1681526020016001820154815260200160028201548152602001600382015481526020016004820160009054906101000a900460ff161515151581525050905080600001518160200151826040015183606001518460800151955095509550955095505091939590929450565b6060600080600090505b60048054905081101561075c5760048181548110610716577f4e487b7100000000000000000000000000000000000000000000000000000000600052603260045260246000fd5b906000526020600020906005020160040160009054906101000a900460ff161561074957818061074590612728565b9250505b808061075490612728565b9150506106cf565b5060008114156107de57600067ffffffffffffffff8111156107a7577f4e487b7100000000000000000000000000000000000000000000000000000000600052604160045260246000fd5b6040519080825280602002602001820160405280156107d55781602001602082028036833780820191505090505b5091505061097b565b60008167ffffffffffffffff811115610820577f4e487b7100000000000000000000000000000000000000000000000000000000600052604160045260246000fd5b60405190808252806020026020018201604052801561084e5781602001602082028036833780820191505090505b5090506000805b600480549050811015610973576004818154811061089c577f4e487b7100000000000000000000000000000000000000000000000000000000600052603260045260246000fd5b906000526020600020906005020160040160009054906101000a900460ff161561096057600481815481106108fa577f4e487b7100000000000000000000000000000000000000000000000000000000600052603260045260246000fd5b906000526020600020906005020160030154838381518110610945577f4e487b7100000000000000000000000000000000000000000000000000000000600052603260045260246000fd5b602002602001018181525050818061095c90612728565b9250505b808061096b90612728565b915050610855565b508193505050505b90565b6000600260009054906101000a900460ff16905090565b600260015414156109db576040517f08c379a00000000000000000000000000000000000000000000000000000000081526004016109d290612625565b60405180910390fd5b60026001819055506109eb61097e565b15610a2b576040517f08c379a0000000000000000000000000000000000000000000000000000000008152600401610a22906124d1565b60405180910390fd5b6000600560008381526020019081526020016000206040518060a00160405290816000820160009054906101000a900473ffffffffffffffffffffffffffffffffffffffff1673ffffffffffffffffffffffffffffffffffffffff1673ffffffffffffffffffffffffffffffffffffffff1681526020016001820154815260200160028201548152602001600382015481526020016004820160009054906101000a900460ff1615151515815250509050600115158160800151151514610b27576040517f08c379a0000000000000000000000000000000000000000000000000000000008152600401610b1e906124b1565b60405180910390fd5b34816020015114610b6d576040517f08c379a0000000000000000000000000000000000000000000000000000000008152600401610b6490612491565b60405180910390fd5b60008160000151905060006004836040015181548110610bb6577f4e487b7100000000000000000000000000000000000000000000000000000000600052603260045260246000fd5b906000526020600020906005020160040160006101000a81548160ff02191690831515021790555060056000848152602001908152602001600020600080820160006101000a81549073ffffffffffffffffffffffffffffffffffffffff02191690556001820160009055600282016000905560038201600090556004820160006101000a81549060ff02191690555050600260019054906101000a900473ffffffffffffffffffffffffffffffffffffffff1673ffffffffffffffffffffffffffffffffffffffff166369e9cae182610c8e6119cb565b866040518463ffffffff1660e01b8152600401610cad939291906122dc565b600060405180830381600087803b158015610cc757600080fd5b505af1158015610cdb573d6000803e3d6000fd5b505050508073ffffffffffffffffffffffffffffffffffffffff166108fc349081150290604051600060405180830381858888f19350505050158015610d25573d6000803e3d6000fd5b507fd99e4fad9ad6313b1feb588fa8e605e3a9873172f2024330c35dd2b4041a4386610d4f6119cb565b84604051610d5e92919061254d565b60405180910390a17f5cb9b6c5307f216c1d2602c70a3ca8bfeb0af6ff7541fb0ca314dce1bc30331081610d906119cb565b3486604051610da29493929190612313565b60405180910390a150506001808190555050565b610dbe6119cb565b73ffffffffffffffffffffffffffffffffffffffff16610ddc610eea565b73ffffffffffffffffffffffffffffffffffffffff1614610e32576040517f08c379a0000000000000000000000000000000000000000000000000000000008152600401610e2990612589565b60405180910390fd5b610e3c6000611a75565b565b600360009054906101000a900473ffffffffffffffffffffffffffffffffffffffff1681565b610e6c6119cb565b73ffffffffffffffffffffffffffffffffffffffff16610e8a610eea565b73ffffffffffffffffffffffffffffffffffffffff1614610ee0576040517f08c379a0000000000000000000000000000000000000000000000000000000008152600401610ed790612589565b60405180910390fd5b610ee8611b39565b565b60008060009054906101000a900473ffffffffffffffffffffffffffffffffffffffff16905090565b610f1b61097e565b15610f5b576040517f08c379a0000000000000000000000000000000000000000000000000000000008152600401610f52906124d1565b60405180910390fd5b610f636119cb565b73ffffffffffffffffffffffffffffffffffffffff16600260019054906101000a900473ffffffffffffffffffffffffffffffffffffffff1673ffffffffffffffffffffffffffffffffffffffff16636352211e836040518263ffffffff1660e01b8152600401610fd49190612645565b60206040518083038186803b158015610fec57600080fd5b505afa158015611000573d6000803e3d6000fd5b505050506040513d601f19601f820116820180604052508101906110249190611c59565b73ffffffffffffffffffffffffffffffffffffffff161461107a576040517f08c379a000000000000000000000000000000000000000000000000000000000815260040161107190612451565b60405180910390fd5b600260019054906101000a900473ffffffffffffffffffffffffffffffffffffffff1673ffffffffffffffffffffffffffffffffffffffff1663e985e9c56110c06119cb565b306040518363ffffffff1660e01b81526004016110de929190612358565b60206040518083038186803b1580156110f657600080fd5b505afa15801561110a573d6000803e3d6000fd5b505050506040513d601f19601f8201168201806040525081019061112e9190611c82565b61116d576040517f08c379a000000000000000000000000000000000000000000000000000000000815260040161116490612431565b60405180910390fd5b64e8d4a510008210156111b5576040517f08c379a00000000000000000000000000000000000000000000000000000000081526004016111ac9061252d565b60405180910390fd5b6000600560008381526020019081526020016000206040518060a00160405290816000820160009054906101000a900473ffffffffffffffffffffffffffffffffffffffff1673ffffffffffffffffffffffffffffffffffffffff1673ffffffffffffffffffffffffffffffffffffffff1681526020016001820154815260200160028201548152602001600382015481526020016004820160009054906101000a900460ff1615151515815250509050600115158160800151151514156113655761127f6119cb565b60048260400151815481106112bd577f4e487b7100000000000000000000000000000000000000000000000000000000600052603260045260246000fd5b906000526020600020906005020160000160006101000a81548173ffffffffffffffffffffffffffffffffffffffff021916908373ffffffffffffffffffffffffffffffffffffffff16021790555082600482604001518154811061134b577f4e487b7100000000000000000000000000000000000000000000000000000000600052603260045260246000fd5b906000526020600020906005020160010181905550611506565b60006040518060a0016040528061137a6119cb565b73ffffffffffffffffffffffffffffffffffffffff1681526020018581526020016004805490508152602001848152602001600115158152509050806005600085815260200190815260200160002060008201518160000160006101000a81548173ffffffffffffffffffffffffffffffffffffffff021916908373ffffffffffffffffffffffffffffffffffffffff16021790555060208201518160010155604082015181600201556060820151816003015560808201518160040160006101000a81548160ff021916908315150217905550905050600481908060018154018082558091505060019003906000526020600020906005020160009091909190915060008201518160000160006101000a81548173ffffffffffffffffffffffffffffffffffffffff021916908373ffffffffffffffffffffffffffffffffffffffff16021790555060208201518160010155604082015181600201556060820151816003015560808201518160040160006101000a81548160ff0219169083151502179055505050505b7fd99e4fad9ad6313b1feb588fa8e605e3a9873172f2024330c35dd2b4041a438661152f6119cb565b8360405161153e9291906124f1565b60405180910390a1505050565b60006005600083815260200190815260200160002060040160009054906101000a900460ff169050919050565b61158061097e565b156115c0576040517f08c379a00000000000000000000000000000000000000000000000000000000081526004016115b7906124d1565b60405180910390fd5b6000600560008381526020019081526020016000206040518060a00160405290816000820160009054906101000a900473ffffffffffffffffffffffffffffffffffffffff1673ffffffffffffffffffffffffffffffffffffffff1673ffffffffffffffffffffffffffffffffffffffff1681526020016001820154815260200160028201548152602001600382015481526020016004820160009054906101000a900460ff16151515158152505090506001151581608001511515146116bc576040517f08c379a00000000000000000000000000000000000000000000000000000000081526004016116b3906125e5565b60405180910390fd5b6116c46119cb565b73ffffffffffffffffffffffffffffffffffffffff16816000015173ffffffffffffffffffffffffffffffffffffffff1614611735576040517f08c379a000000000000000000000000000000000000000000000000000000000815260040161172c90612605565b60405180910390fd5b60006004826040015181548110611775577f4e487b7100000000000000000000000000000000000000000000000000000000600052603260045260246000fd5b906000526020600020906005020160040160006101000a81548160ff02191690831515021790555060056000838152602001908152602001600020600080820160006101000a81549073ffffffffffffffffffffffffffffffffffffffff02191690556001820160009055600282016000905560038201600090556004820160006101000a81549060ff021916905550507fd99e4fad9ad6313b1feb588fa8e605e3a9873172f2024330c35dd2b4041a438661182f6119cb565b8360405161183e9291906125a9565b60405180910390a15050565b60006118546119cb565b73ffffffffffffffffffffffffffffffffffffffff16611872610eea565b73ffffffffffffffffffffffffffffffffffffffff16146118c8576040517f08c379a00000000000000000000000000000000000000000000000000000000081526004016118bf90612589565b60405180910390fd5b600480549050905090565b6118db6119cb565b73ffffffffffffffffffffffffffffffffffffffff166118f9610eea565b73ffffffffffffffffffffffffffffffffffffffff161461194f576040517f08c379a000000000000000000000000000000000000000000000000000000000815260040161194690612589565b60405180910390fd5b600073ffffffffffffffffffffffffffffffffffffffff168173ffffffffffffffffffffffffffffffffffffffff1614156119bf576040517f08c379a00000000000000000000000000000000000000000000000000000000081526004016119b690612471565b60405180910390fd5b6119c881611a75565b50565b600033905090565b6119db61097e565b611a1a576040517f08c379a0000000000000000000000000000000000000000000000000000000008152600401611a1190612411565b60405180910390fd5b6000600260006101000a81548160ff0219169083151502179055507f5db9ee0a495bf2e6ff9c91a7834c1ba4fdd244a5e8aa4e537bd38aeae4b073aa611a5e6119cb565b604051611a6b91906122c1565b60405180910390a1565b60008060009054906101000a900473ffffffffffffffffffffffffffffffffffffffff169050816000806101000a81548173ffffffffffffffffffffffffffffffffffffffff021916908373ffffffffffffffffffffffffffffffffffffffff1602179055508173ffffffffffffffffffffffffffffffffffffffff168173ffffffffffffffffffffffffffffffffffffffff167f8be0079c531659141344cd1fd0a4f28419497f9722a3daafe3b4186f6b6457e060405160405180910390a35050565b611b4161097e565b15611b81576040517f08c379a0000000000000000000000000000000000000000000000000000000008152600401611b78906124d1565b60405180910390fd5b6001600260006101000a81548160ff0219169083151502179055507f62e78cea01bee320cd4e420270b5ea74000d11b0c9f74754ebdbfc544b05a258611bc56119cb565b604051611bd291906122c1565b60405180910390a1565b600081359050611beb816127a0565b92915050565b600081519050611c00816127a0565b92915050565b600081519050611c15816127b7565b92915050565b600081359050611c2a816127ce565b92915050565b600060208284031215611c4257600080fd5b6000611c5084828501611bdc565b91505092915050565b600060208284031215611c6b57600080fd5b6000611c7984828501611bf1565b91505092915050565b600060208284031215611c9457600080fd5b6000611ca284828501611c06565b91505092915050565b600060208284031215611cbd57600080fd5b6000611ccb84828501611c1b565b91505092915050565b60008060408385031215611ce757600080fd5b6000611cf585828601611c1b565b9250506020611d0685828601611c1b565b9150509250929050565b6000611d1c83836122a3565b60208301905092915050565b611d31816126f2565b82525050565b611d40816126aa565b82525050565b6000611d5182612670565b611d5b8185612688565b9350611d6683612660565b8060005b83811015611d97578151611d7e8882611d10565b9750611d898361267b565b925050600181019050611d6a565b5085935050505092915050565b611dad816126bc565b82525050565b6000611dc0601483612699565b91507f5061757361626c653a206e6f74207061757365640000000000000000000000006000830152602082019050919050565b6000611e00603c83612699565b91507f4d61726b6574706c6163652061646472657373206e65656473206f706572617460008301527f6f72207374617475732066726f6d206d6f6e6b6579206f776e65722e000000006020830152604082019050919050565b6000611e66603083612699565b91507f4f6e6c79206d6f6e6b6579206f776e65722063616e20736574206f666665722060008301527f666f72207468697320746f6b656e4964000000000000000000000000000000006020830152604082019050919050565b6000611ecc602683612699565b91507f4f776e61626c653a206e6577206f776e657220697320746865207a65726f206160008301527f64647265737300000000000000000000000000000000000000000000000000006020830152604082019050919050565b6000611f32602783612699565b91507f4d61726b65743a204e6f742073656e64696e672074686520636f72726563742060008301527f616d6f756e742e000000000000000000000000000000000000000000000000006020830152604082019050919050565b6000611f98602e83612699565b91507f4d61726b65743a204e6f20616374697665206f6666657220666f72207468697360008301527f20746f6b656e49642e20544553540000000000000000000000000000000000006020830152604082019050919050565b6000611ffe601083612699565b91507f5061757361626c653a20706175736564000000000000000000000000000000006000830152602082019050919050565b600061203e600c83612699565b91507f437265617465206f6666657200000000000000000000000000000000000000006000830152602082019050919050565b600061207e604283612699565b91507f6f66666572207072696365206d757374206265206174206c656173742031303060008301527f30303030303030303030205745492c20692e652e20302e30303030303120455460208301527f48200000000000000000000000000000000000000000000000000000000000006040830152606082019050919050565b600061210a600383612699565b91507f42757900000000000000000000000000000000000000000000000000000000006000830152602082019050919050565b600061214a602083612699565b91507f4f776e61626c653a2063616c6c6572206973206e6f7420746865206f776e65726000830152602082019050919050565b600061218a600c83612699565b91507f52656d6f7665206f6666657200000000000000000000000000000000000000006000830152602082019050919050565b60006121ca602983612699565b91507f4d61726b65743a204e6f20616374697665206f6666657220666f72207468697360008301527f20746f6b656e49642e00000000000000000000000000000000000000000000006020830152604082019050919050565b6000612230601483612699565b91507f596f75277265206e6f7420746865206f776e65720000000000000000000000006000830152602082019050919050565b6000612270601f83612699565b91507f5265656e7472616e637947756172643a207265656e7472616e742063616c6c006000830152602082019050919050565b6122ac816126e8565b82525050565b6122bb816126e8565b82525050565b60006020820190506122d66000830184611d37565b92915050565b60006060820190506122f16000830186611d28565b6122fe6020830185611d37565b61230b60408301846122b2565b949350505050565b60006080820190506123286000830187611d28565b6123356020830186611d37565b61234260408301856122b2565b61234f60608301846122b2565b95945050505050565b600060408201905061236d6000830185611d37565b61237a6020830184611d37565b9392505050565b600060a0820190506123966000830188611d37565b6123a360208301876122b2565b6123b060408301866122b2565b6123bd60608301856122b2565b6123ca6080830184611da4565b9695505050505050565b600060208201905081810360008301526123ee8184611d46565b905092915050565b600060208201905061240b6000830184611da4565b92915050565b6000602082019050818103600083015261242a81611db3565b9050919050565b6000602082019050818103600083015261244a81611df3565b9050919050565b6000602082019050818103600083015261246a81611e59565b9050919050565b6000602082019050818103600083015261248a81611ebf565b9050919050565b600060208201905081810360008301526124aa81611f25565b9050919050565b600060208201905081810360008301526124ca81611f8b565b9050919050565b600060208201905081810360008301526124ea81611ff1565b9050919050565b6000606082019050818103600083015261250a81612031565b90506125196020830185611d37565b61252660408301846122b2565b9392505050565b6000602082019050818103600083015261254681612071565b9050919050565b60006060820190508181036000830152612566816120fd565b90506125756020830185611d37565b61258260408301846122b2565b9392505050565b600060208201905081810360008301526125a28161213d565b9050919050565b600060608201905081810360008301526125c28161217d565b90506125d16020830185611d37565b6125de60408301846122b2565b9392505050565b600060208201905081810360008301526125fe816121bd565b9050919050565b6000602082019050818103600083015261261e81612223565b9050919050565b6000602082019050818103600083015261263e81612263565b9050919050565b600060208201905061265a60008301846122b2565b92915050565b6000819050602082019050919050565b600081519050919050565b6000602082019050919050565b600082825260208201905092915050565b600082825260208201905092915050565b60006126b5826126c8565b9050919050565b60008115159050919050565b600073ffffffffffffffffffffffffffffffffffffffff82169050919050565b6000819050919050565b60006126fd82612704565b9050919050565b600061270f82612716565b9050919050565b6000612721826126c8565b9050919050565b6000612733826126e8565b91507fffffffffffffffffffffffffffffffffffffffffffffffffffffffffffffffff82141561276657612765612771565b5b600182019050919050565b7f4e487b7100000000000000000000000000000000000000000000000000000000600052601160045260246000fd5b6127a9816126aa565b81146127b457600080fd5b50565b6127c0816126bc565b81146127cb57600080fd5b50565b6127d7816126e8565b81146127e257600080fd5b5056fea26469706673582212209026970f4652a7435c7639f0f8aafb539f16f5f499f1a839f23b9f02d0a6081264736f6c63430008000033",
  "immutableReferences": {},
  "source": "// SPDX-License-Identifier: UNLICENSED\r\npragma solidity ^0.8.0;\r\n\r\n// importing the main Crypto Monkey NFT contract\r\nimport \"./IMonkeyContract.sol\";\r\n// preparing for some functions to be restricted \r\nimport \"@openzeppelin/contracts/access/Ownable.sol\";\r\n// preparing safemath to rule out over- and underflow  \r\nimport \"@openzeppelin/contracts/utils/math/SafeMath.sol\";\r\n// importing openzeppelin script to guard against re-entrancy\r\nimport \"@openzeppelin/contracts/security/ReentrancyGuard.sol\";\r\n// importing openzeppelin script to make contract pausable\r\nimport \"@openzeppelin/contracts/security/Pausable.sol\";\r\n\r\ncontract MonkeyMarketplace is Ownable, ReentrancyGuard, Pausable {\r\n  using SafeMath for uint256;\r\n  \r\n  // STATE VARIABLES\r\n\r\n  // interface of main Crypto Monkey NFT contract\r\n  IMonkeyContract private _monkeyContractInterface;\r\n  //contract address of main contract will be saved here (set by constructor)\r\n  address public savedMainContractAddress;  \r\n\r\n  // general event for market transactions\r\n  event MarketTransaction(string TxType, address owner, uint256 tokenId);\r\n\r\n  // specific event just for successful sales\r\n  event MonkeySold (address seller, address buyer, uint256 price, uint256 tokenId); \r\n\r\n  // \"blueprint\" for sell offers\r\n  // index refers to the offer's position in the offersArray\r\n  struct Offer {\r\n    address payable seller;\r\n    uint256 price;\r\n    uint256 index;\r\n    uint256 tokenId;    \r\n    bool active;\r\n  }\r\n\r\n  // Array of all offers\r\n  // can be queried by onlyOwner via showOfferArrayEntry\r\n  Offer[] private offersArray; \r\n\r\n  // Mapping of Token ID to its active offer (if it has one)\r\n  mapping (uint256 => Offer) tokenIdToOfferMapping;    \r\n\r\n  // setting and saving the main Crypto Monkey contract's address, (also calling the contract and checking address) \r\n  constructor (address _constructorMonkeyContractAddress) {\r\n    _monkeyContractInterface = IMonkeyContract(_constructorMonkeyContractAddress);\r\n    require(_monkeyContractInterface.getMonkeyContractAddress() == _constructorMonkeyContractAddress, \"CONSTRUCTOR: Monkey contract address must be the same.\");\r\n    savedMainContractAddress = _constructorMonkeyContractAddress; \r\n  } \r\n \r\n  // contract can be paused by onlyOwner\r\n  function pause() public onlyOwner {\r\n    _pause();\r\n  }\r\n\r\n  // contract can be unpaused by onlyOwner\r\n  function unpause() public onlyOwner {\r\n    _unpause();\r\n  }\r\n\r\n  // to check whether a NFT is on sale at the moment\r\n  function isTokenOnSale(uint256 _tokenId) public view returns (bool tokenIsOnSale) {\r\n    return (\r\n      tokenIdToOfferMapping[_tokenId].active\r\n    );\r\n  }\r\n  \r\n  //Get the details about a offer for _tokenId. Throws an error if there is no active offer for _tokenId.  \r\n  function getOffer(uint256 _tokenId) public view returns (\r\n    address seller,\r\n    uint256 price,\r\n    uint256 index,\r\n    uint256 tokenId,\r\n    bool active\r\n    )\r\n  {\r\n    require (tokenIdToOfferMapping[_tokenId].active, \"Market: No active offer for this tokenId.\");\r\n\r\n    Offer memory offer = tokenIdToOfferMapping[_tokenId]; \r\n    return (\r\n    offer.seller,\r\n    offer.price,\r\n    offer.index, \r\n    offer.tokenId,\r\n    offer.active       \r\n    );\r\n  }\r\n\r\n  /**\r\n  * Get all tokenId's that are currently for sale. \r\n  * Returns an empty array if none exist.\r\n  * adds a Token ID to the 'result' array each time the loop finds an active offer in the offersArray  \r\n  */\r\n  function getAllTokenOnSale() public view returns(uint256[] memory listOfTokenIdsOnSale) {  \r\n\r\n    // counting active offers, needed to create correct hardcoded length of 'result' array\r\n    uint256 numberOfActiveOffers;\r\n    \r\n    // looking through offersArray at each postion\r\n    for (uint256 actCount = 0; actCount < offersArray.length; actCount++) {\r\n\r\n      // each time an active offer is found, numberOfActiveOffers is increased by 1\r\n      if (offersArray[actCount].active) {\r\n        numberOfActiveOffers++;\r\n      }\r\n    }     \r\n\r\n    // if no active offers are found, an empty array is returned\r\n    if (numberOfActiveOffers == 0){\r\n      return new uint256[](0);\r\n    }\r\n    // looking again through offersArray at each postion\r\n    else {\r\n      // 'result' array with hardcoded length, defined by active offers found above\r\n      uint256[] memory result = new uint256[](numberOfActiveOffers);      \r\n\r\n      // index position in result array\r\n      uint256 newIndex = 0 ;\r\n\r\n      for (uint256 k = 0; k < offersArray.length; k++) {\r\n        \r\n        // each time an active offer is found, its tokenId is put into the next position in the 'result' array\r\n        if (offersArray[k].active) {\r\n          result[newIndex] = offersArray[k].tokenId;\r\n          newIndex++;\r\n        }         \r\n      }\r\n      // returning result array\r\n      return result; \r\n\r\n    }\r\n   \r\n  }\r\n\r\n  /**\r\n  * Creates a new offer for _tokenId for the price _price.\r\n  * Emits the MarketTransaction event with txType \"Create offer\"\r\n  * Requirement: Only the owner of _tokenId can create an offer.\r\n  * Requirement: There can only be one active offer for a token at a time.\r\n  * Requirement: Marketplace contract (this) needs to be an approved operator when the offer is created.\r\n  */    \r\n  function setOffer(uint256 _price, uint256 _tokenId) public whenNotPaused {    \r\n    //Only the owner of _tokenId can create an offer.\r\n    require( _monkeyContractInterface.ownerOf(_tokenId) == _msgSender(), \"Only monkey owner can set offer for this tokenId\" );\r\n    //Marketplace contract (this) needs to be an approved operator when the offer is created.\r\n    require( _monkeyContractInterface.isApprovedForAll(_msgSender(), address(this)), \"Marketplace address needs operator status from monkey owner.\" );\r\n    //Offer price must be greater than 0\r\n    require(_price >= 1000000000000, \"offer price must be at least 1000000000000 WEI, i.e. 0.000001 ETH \");\r\n    // checking the entry for this Token ID in the tokenIdToOfferMapping\r\n    Offer memory tokenOffer = tokenIdToOfferMapping[_tokenId];\r\n\r\n    // There can only be one active offer for a token at a time. \r\n    // If active offer exists for this Token ID, seller and price are updated.\r\n    if (tokenOffer.active == true) {\r\n      offersArray[tokenOffer.index].seller = payable(_msgSender());\r\n      offersArray[tokenOffer.index].price = _price;   \r\n    }\r\n    else {\r\n      // If no active offer is found, a new offer is created from the Offer struct \"blueprint\".\r\n      Offer memory _newOffer = Offer({\r\n        seller: payable(_msgSender()),\r\n        price: _price,\r\n        tokenId: _tokenId,      \r\n        active: true,\r\n        index: offersArray.length  \r\n      });\r\n\r\n      // saving new offer (it's a struct) to mapping \r\n      tokenIdToOfferMapping[_tokenId] = _newOffer;    \r\n      // adding new offer (it's a struct) to array of offers\r\n      offersArray.push(_newOffer);  \r\n    }  \r\n    // emitting event for offer creation\r\n    emit MarketTransaction(\"Create offer\", _msgSender(), _tokenId);\r\n  }\r\n\r\n  /**\r\n  * Removes an existing offer.\r\n  * Emits the MarketTransaction event with txType \"Remove offer\"\r\n  * Requirement: Only the seller of _tokenId can remove an offer.\r\n  */\r\n  function removeOffer(uint256 _tokenId) public whenNotPaused {\r\n    // checking the entry for this Token ID in the tokenIdToOfferMapping\r\n    Offer memory tokenOffer = tokenIdToOfferMapping[_tokenId];\r\n    // Active offer must be present\r\n    require(tokenOffer.active == true, \"Market: No active offer for this tokenId.\" );\r\n    //  Only the owner of _tokenId can delete an offer.\r\n    require(tokenOffer.seller == _msgSender(), \"You're not the owner\");    \r\n    // setting array entry inactive\r\n    offersArray[tokenOffer.index].active = false;\r\n    // deleting mapping entry\r\n    delete tokenIdToOfferMapping[_tokenId];      \r\n    // emitting event for offer removal\r\n    emit MarketTransaction(\"Remove offer\", _msgSender(), _tokenId);    \r\n  }\r\n\r\n  /**\r\n  * Executes the purchase of _tokenId.\r\n  * Sends the funds to the seller and transfers the token using transfer in Monkeycontract.   \r\n  * Emits the MarketTransaction event with txType \"Buy\".\r\n  * Requirement: The msg.value needs to equal the price of _tokenId\r\n  * Requirement: There must be an active offer for _tokenId\r\n  */\r\n  function buyMonkey(uint256 _tokenId) public payable nonReentrant whenNotPaused{    \r\n    // checking the entry for this Token ID in the tokenIdToOfferMapping\r\n    Offer memory tokenOffer = tokenIdToOfferMapping[_tokenId];\r\n    // Active offer must be present\r\n    require(tokenOffer.active == true, \"Market: No active offer for this tokenId. TEST\" );\r\n    // sent value must be equal to price\r\n    require(tokenOffer.price == msg.value, \"Market: Not sending the correct amount.\"); \r\n\r\n    // saving seller before deleting mapping entry           \r\n    address payable _oldOwner = tokenOffer.seller;\r\n\r\n    // deactivating offer by setting array entry inactive\r\n    offersArray[tokenOffer.index].active = false;\r\n\r\n    // deleting offer mapping entry\r\n    delete tokenIdToOfferMapping[_tokenId];    \r\n\r\n    // transferring the NFT\r\n    _monkeyContractInterface.transferNFT(_oldOwner, _msgSender(), _tokenId);  \r\n\r\n    // transferring sent funds to _oldOwner\r\n    _oldOwner.transfer(msg.value);\r\n\r\n    // emitting events\r\n    emit MarketTransaction(\"Buy\", _msgSender(), _tokenId);\r\n    emit MonkeySold (_oldOwner, _msgSender(), msg.value, _tokenId);\r\n  }\r\n\r\n  // onlyOwner can check the length of offersArray\r\n  function showLengthOfOffersArray() public view onlyOwner returns(uint256 length) {\r\n    return offersArray.length;\r\n  }\r\n  \r\n  // onlyOwner can check entries in the offersArray \r\n  function showOfferArrayEntry(uint256 arrayPosition) public view onlyOwner returns(address seller, uint256 price, uint256 index, uint256 tokenId, bool active) { \r\n    Offer memory offer = offersArray[arrayPosition]; \r\n    return (\r\n    offer.seller,\r\n    offer.price,\r\n    offer.index, \r\n    offer.tokenId,\r\n    offer.active       \r\n    );    \r\n  }    \r\n} ",
  "sourcePath": "C:\\github\\CryptoMonkeys\\contracts\\MonkeyMarketplace.sol",
  "compiler": {
    "name": "solc",
    "version": "0.8.0+commit.c7dfd78e.Emscripten.clang"
  },
  "schemaVersion": "3.2.0",
  "updatedAt": "2021-08-18T14:26:52.070Z",
  "devdoc": {
    "kind": "dev",
    "methods": {
      "owner()": {
        "details": "Returns the address of the current owner."
      },
      "paused()": {
        "details": "Returns true if the contract is paused, and false otherwise."
      },
      "renounceOwnership()": {
        "details": "Leaves the contract without owner. It will not be possible to call `onlyOwner` functions anymore. Can only be called by the current owner. NOTE: Renouncing ownership will leave the contract without an owner, thereby removing any functionality that is only available to the owner."
      },
      "transferOwnership(address)": {
        "details": "Transfers ownership of the contract to a new account (`newOwner`). Can only be called by the current owner."
      }
    },
    "version": 1
  },
  "userdoc": {
    "kind": "user",
    "methods": {
      "buyMonkey(uint256)": {
        "notice": "Executes the purchase of _tokenId. Sends the funds to the seller and transfers the token using transfer in Monkeycontract.    Emits the MarketTransaction event with txType \"Buy\". Requirement: The msg.value needs to equal the price of _tokenId Requirement: There must be an active offer for _tokenId"
      },
      "getAllTokenOnSale()": {
        "notice": "Get all tokenId's that are currently for sale.  Returns an empty array if none exist. adds a Token ID to the 'result' array each time the loop finds an active offer in the offersArray  "
      },
      "removeOffer(uint256)": {
        "notice": "Removes an existing offer. Emits the MarketTransaction event with txType \"Remove offer\" Requirement: Only the seller of _tokenId can remove an offer."
      },
      "setOffer(uint256,uint256)": {
        "notice": "Creates a new offer for _tokenId for the price _price. Emits the MarketTransaction event with txType \"Create offer\" Requirement: Only the owner of _tokenId can create an offer. Requirement: There can only be one active offer for a token at a time. Requirement: Marketplace contract (this) needs to be an approved operator when the offer is created."
      }
    },
    "version": 1
  }
}