{
  "contractName": "Ownable",
  "abi": [
    {
      "inputs": [],
      "payable": false,
      "stateMutability": "nonpayable",
      "type": "constructor"
    },
    {
      "constant": true,
      "inputs": [],
      "name": "contractOwner",
      "outputs": [
        {
          "internalType": "address payable",
          "name": "",
          "type": "address"
        }
      ],
      "payable": false,
      "stateMutability": "view",
      "type": "function"
    }
  ],
  "bytecode": "0x608060405234801561001057600080fd5b50336000806101000a81548173ffffffffffffffffffffffffffffffffffffffff021916908373ffffffffffffffffffffffffffffffffffffffff16021790555060cf8061005f6000396000f3fe6080604052348015600f57600080fd5b506004361060285760003560e01c8063ce606ee014602d575b600080fd5b60336075565b604051808273ffffffffffffffffffffffffffffffffffffffff1673ffffffffffffffffffffffffffffffffffffffff16815260200191505060405180910390f35b6000809054906101000a900473ffffffffffffffffffffffffffffffffffffffff168156fea265627a7a72315820cbf82ab4a6fc396292ff5b2173a4334c1a1cb8e5e658c09bd5205c59582765d764736f6c634300050c0032",
  "source": "pragma solidity 0.5.12;\n\ncontract Ownable {\n    \n    //\"contractOwner\" as not to confuse with \"owner\"s in the Monkeycontract \n    address payable public contractOwner;\n    \n    constructor () public {\n        contractOwner = msg.sender;\n    }\n    \n    modifier onlyOwner(){\n        require (msg.sender == contractOwner);\n        _; // orders execution to continue, if this line is reached (i.e. the require above was passed) \n    }\n    \n}",
  "sourcePath": "D:\\8Github\\CryptoMonkeys\\contracts\\Ownable.sol",
  "compiler": {
    "name": "solc",
    "version": "0.5.12+commit.7709ece9.Emscripten.clang"
  },
  "schemaVersion": "3.2.0",
  "updatedAt": "2021-05-24T13:45:31.309Z",
  "devdoc": {
    "methods": {}
  },
  "userdoc": {
    "methods": {}
  }
}