{
  "contractName": "Ownable",
  "abi": [
    {
      "inputs": [],
      "payable": false,
      "stateMutability": "nonpayable",
      "type": "constructor"
    },
    {
      "constant": true,
      "inputs": [],
      "name": "contractOwner",
      "outputs": [
        {
          "internalType": "address payable",
          "name": "",
          "type": "address"
        }
      ],
      "payable": false,
      "stateMutability": "view",
      "type": "function"
    }
  ],
  "bytecode": "0x608060405234801561001057600080fd5b50336000806101000a81548173ffffffffffffffffffffffffffffffffffffffff021916908373ffffffffffffffffffffffffffffffffffffffff16021790555060cf8061005f6000396000f3fe6080604052348015600f57600080fd5b506004361060285760003560e01c8063ce606ee014602d575b600080fd5b60336075565b604051808273ffffffffffffffffffffffffffffffffffffffff1673ffffffffffffffffffffffffffffffffffffffff16815260200191505060405180910390f35b6000809054906101000a900473ffffffffffffffffffffffffffffffffffffffff168156fea265627a7a7231582086ef4c21782e0c21b04d130cd6efc3f0e0416dbb34d0399169f40e890a0ad4f164736f6c634300050c0032",
  "source": "pragma solidity 0.5.12;\r\n\r\ncontract Ownable {\r\n    \r\n    //\"contractOwner\" as not to confuse with \"owner\"s in the Monkeycontract \r\n    address payable public contractOwner;\r\n    \r\n    constructor () public {\r\n        contractOwner = msg.sender;\r\n    }\r\n    \r\n    modifier onlyOwner(){\r\n        require (msg.sender == contractOwner);\r\n        _; // orders execution to continue, if this line is reached (i.e. the require above was passed) \r\n    }\r\n    \r\n}",
  "sourcePath": "D:\\8 Github\\CryptoMonkeys\\contracts\\Ownable.sol",
  "compiler": {
    "name": "solc",
    "version": "0.5.12+commit.7709ece9.Emscripten.clang"
  },
  "schemaVersion": "3.2.0",
  "updatedAt": "2020-12-03T05:02:34.416Z",
  "devdoc": {
    "methods": {}
  },
  "userdoc": {
    "methods": {}
  }
}